{
    "contractName": "DataStorage",
    "abi": [
        {
            "inputs": [],
            "stateMutability": "nonpayable",
            "type": "constructor"
        },
        {
            "anonymous": false,
            "inputs": [
                {
                    "indexed": true,
                    "internalType": "address",
                    "name": "_lastGuardian",
                    "type": "address"
                },
                {
                    "indexed": false,
                    "internalType": "address",
                    "name": "_newGuardian",
                    "type": "address"
                }
            ],
            "name": "GuardChange",
            "type": "event"
        },
        {
            "inputs": [],
            "name": "confirmGuard",
            "outputs": [],
            "stateMutability": "nonpayable",
            "type": "function"
        },
        {
            "inputs": [
                {
                    "internalType": "bytes32",
                    "name": "_id",
                    "type": "bytes32"
                },
                {
                    "internalType": "uint256",
                    "name": "_decrement",
                    "type": "uint256"
                }
            ],
            "name": "decreaseUintStorage",
            "outputs": [],
            "stateMutability": "nonpayable",
            "type": "function"
        },
        {
            "inputs": [
                {
                    "internalType": "bytes32",
                    "name": "_id",
                    "type": "bytes32"
                }
            ],
            "name": "deleteAddressStorage",
            "outputs": [],
            "stateMutability": "nonpayable",
            "type": "function"
        },
        {
            "inputs": [
                {
                    "internalType": "bytes32",
                    "name": "_id",
                    "type": "bytes32"
                }
            ],
            "name": "deleteBoolStorage",
            "outputs": [],
            "stateMutability": "nonpayable",
            "type": "function"
        },
        {
            "inputs": [
                {
                    "internalType": "bytes32",
                    "name": "_id",
                    "type": "bytes32"
                }
            ],
            "name": "deleteUintStorage",
            "outputs": [],
            "stateMutability": "nonpayable",
            "type": "function"
        },
        {
            "inputs": [
                {
                    "internalType": "bytes32",
                    "name": "_id",
                    "type": "bytes32"
                }
            ],
            "name": "getAddressStorage",
            "outputs": [
                {
                    "internalType": "address",
                    "name": "",
                    "type": "address"
                }
            ],
            "stateMutability": "view",
            "type": "function"
        },
        {
            "inputs": [
                {
                    "internalType": "bytes32",
                    "name": "_id",
                    "type": "bytes32"
                }
            ],
            "name": "getBoolStorage",
            "outputs": [
                {
                    "internalType": "bool",
                    "name": "",
                    "type": "bool"
                }
            ],
            "stateMutability": "view",
            "type": "function"
        },
        {
            "inputs": [],
            "name": "getCurrentGuardian",
            "outputs": [
                {
                    "internalType": "address",
                    "name": "",
                    "type": "address"
                }
            ],
            "stateMutability": "view",
            "type": "function"
        },
        {
            "inputs": [],
            "name": "getStorageStatus",
            "outputs": [
                {
                    "internalType": "bool",
                    "name": "",
                    "type": "bool"
                }
            ],
            "stateMutability": "view",
            "type": "function"
        },
        {
            "inputs": [
                {
                    "internalType": "bytes32",
                    "name": "_id",
                    "type": "bytes32"
                }
            ],
            "name": "getUintStorage",
            "outputs": [
                {
                    "internalType": "uint256",
                    "name": "",
                    "type": "uint256"
                }
            ],
            "stateMutability": "view",
            "type": "function"
        },
        {
            "inputs": [
                {
                    "internalType": "bytes32",
                    "name": "_id",
                    "type": "bytes32"
                },
                {
                    "internalType": "uint256",
                    "name": "_increment",
                    "type": "uint256"
                }
            ],
            "name": "increaseUintStorage",
            "outputs": [],
            "stateMutability": "nonpayable",
            "type": "function"
        },
        {
            "inputs": [
                {
                    "internalType": "bytes32",
                    "name": "_id",
                    "type": "bytes32"
                },
                {
                    "internalType": "address",
                    "name": "_value",
                    "type": "address"
                }
            ],
            "name": "setAddressStorage",
            "outputs": [],
            "stateMutability": "nonpayable",
            "type": "function"
        },
        {
            "inputs": [
                {
                    "internalType": "bytes32",
                    "name": "_id",
                    "type": "bytes32"
                },
                {
                    "internalType": "bool",
                    "name": "_value",
                    "type": "bool"
                }
            ],
            "name": "setBoolStorage",
            "outputs": [],
            "stateMutability": "nonpayable",
            "type": "function"
        },
        {
            "inputs": [
                {
                    "internalType": "address",
                    "name": "_newGuardian",
                    "type": "address"
                }
            ],
            "name": "setNewGuardian",
            "outputs": [],
            "stateMutability": "nonpayable",
            "type": "function"
        },
        {
            "inputs": [],
            "name": "setStorageLive",
            "outputs": [],
            "stateMutability": "nonpayable",
            "type": "function"
        },
        {
            "inputs": [
                {
                    "internalType": "bytes32",
                    "name": "_id",
                    "type": "bytes32"
                },
                {
                    "internalType": "uint256",
                    "name": "_value",
                    "type": "uint256"
                }
            ],
            "name": "setUintStorage",
            "outputs": [],
            "stateMutability": "nonpayable",
            "type": "function"
        }
    ],
    "bytecode": "60806040526004805460ff1916905534801561001a57600080fd5b5060048054610100600160a81b031916336101000217905561003a61003f565b610114565b6040516e636f6e74726163745f65786973747360881b60208201526001600160601b03193060601b16602f82015260009060430160405160208183030381529060405280519060200120905060006040516020016100c7906f636f6e74726163745f6164647265737360801b81526a4461746153746f7261676560a81b6010820152601b0190565b60408051601f19818403018152918152815160209283012060009485526001808452828620805460ff191690911790558452600290915290912080546001600160a01b0319163017905550565b610e70806101236000396000f3fe608060405234801561001057600080fd5b50600436106101005760003560e01c806366b8083211610097578063afc3602b11610066578063afc3602b1461021b578063b240da3f14610249578063e732da721461025c578063e87f7c311461026f57600080fd5b806366b80832146101da5780637221263a146101e25780638a2c6738146101f5578063988c515b1461020857600080fd5b80632a90bbb2116100d35780632a90bbb214610164578063545e1b521461018d57806355d94655146101a45780635bcfee67146101c757600080fd5b80630bc169a5146101055780631d8895e014610134578063279181821461014957806328192c5514610151575b600080fd5b60045461010090046001600160a01b03165b6040516001600160a01b0390911681526020015b60405180910390f35b610147610142366004610c54565b610282565b005b61014761038f565b61014761015f366004610c54565b610477565b610117610172366004610c76565b6000908152600260205260409020546001600160a01b031690565b60045460ff165b604051901515815260200161012b565b6101946101b2366004610c76565b60009081526001602052604090205460ff1690565b6101476101d5366004610c54565b610566565b610147610661565b6101476101f0366004610cab565b6106da565b610147610203366004610c76565b6107e5565b610147610216366004610cd7565b6108d3565b61023b610229366004610c76565b60009081526020819052604090205490565b60405190815260200161012b565b610147610257366004610c76565b6109d0565b61014761026a366004610c76565b610ac5565b61014761027d366004610d0c565b610bc0565b60045460ff1661030e5760045461010090046001600160a01b03163214806102e4575060016000336040516020016102ba9190610d2e565b60408051601f198184030181529181528151602092830120835290820192909252016000205460ff165b6103095760405162461bcd60e51b815260040161030090610d63565b60405180910390fd5b610368565b60016000336040516020016103239190610d2e565b60408051601f198184030181529181528151602092830120835290820192909252016000205460ff166103685760405162461bcd60e51b815260040161030090610dc0565b60008281526020819052604081208054839290610386908490610e0b565b90915550505050565b6005546001600160a01b031633146103fc5760405162461bcd60e51b815260206004820152602a60248201527f4f6e6c792063616c6c61626c6520627920746865206e65772073746f726167656044820152691033bab0b93234b0b71760b11b6064820152608401610300565b60048054600580546001600160a01b03808216610100908102610100600160a81b0319861617958690556001600160a01b03199092169092556040519381900482168452909104169081907fcdf51e8aec8da23ef7cd2b923d5755a017ffc21e01d7ddcb89cb771a7c2b66f79060200160405180910390a250565b60045460ff166104fa5760045461010090046001600160a01b03163214806104d9575060016000336040516020016104af9190610d2e565b60408051601f198184030181529181528151602092830120835290820192909252016000205460ff165b6104f55760405162461bcd60e51b815260040161030090610d63565b610554565b600160003360405160200161050f9190610d2e565b60408051601f198184030181529181528151602092830120835290820192909252016000205460ff166105545760405162461bcd60e51b815260040161030090610dc0565b60009182526020829052604090912055565b60045460ff166105e95760045461010090046001600160a01b03163214806105c85750600160003360405160200161059e9190610d2e565b60408051601f198184030181529181528151602092830120835290820192909252016000205460ff165b6105e45760405162461bcd60e51b815260040161030090610d63565b610643565b60016000336040516020016105fe9190610d2e565b60408051601f198184030181529181528151602092830120835290820192909252016000205460ff166106435760405162461bcd60e51b815260040161030090610dc0565b60008281526020819052604081208054839290610386908490610e23565b60045461010090046001600160a01b031633146106cb5760405162461bcd60e51b815260206004820152602260248201527f4f6e6c792063616c6c61626c652062792063757272656e742067756172646961604482015261371760f11b6064820152608401610300565b6004805460ff19166001179055565b60045460ff1661075d5760045461010090046001600160a01b031632148061073c575060016000336040516020016107129190610d2e565b60408051601f198184030181529181528151602092830120835290820192909252016000205460ff165b6107585760405162461bcd60e51b815260040161030090610d63565b6107b7565b60016000336040516020016107729190610d2e565b60408051601f198184030181529181528151602092830120835290820192909252016000205460ff166107b75760405162461bcd60e51b815260040161030090610dc0565b60009182526002602052604090912080546001600160a01b0319166001600160a01b03909216919091179055565b60045460ff166108685760045461010090046001600160a01b03163214806108475750600160003360405160200161081d9190610d2e565b60408051601f198184030181529181528151602092830120835290820192909252016000205460ff165b6108635760405162461bcd60e51b815260040161030090610d63565b6108c2565b600160003360405160200161087d9190610d2e565b60408051601f198184030181529181528151602092830120835290820192909252016000205460ff166108c25760405162461bcd60e51b815260040161030090610dc0565b600090815260208190526040812055565b60045460ff166109565760045461010090046001600160a01b03163214806109355750600160003360405160200161090b9190610d2e565b60408051601f198184030181529181528151602092830120835290820192909252016000205460ff165b6109515760405162461bcd60e51b815260040161030090610d63565b6109b0565b600160003360405160200161096b9190610d2e565b60408051601f198184030181529181528151602092830120835290820192909252016000205460ff166109b05760405162461bcd60e51b815260040161030090610dc0565b600091825260016020526040909120805460ff1916911515919091179055565b60045460ff16610a535760045461010090046001600160a01b0316321480610a3257506001600033604051602001610a089190610d2e565b60408051601f198184030181529181528151602092830120835290820192909252016000205460ff165b610a4e5760405162461bcd60e51b815260040161030090610d63565b610aad565b6001600033604051602001610a689190610d2e565b60408051601f198184030181529181528151602092830120835290820192909252016000205460ff16610aad5760405162461bcd60e51b815260040161030090610dc0565b6000908152600160205260409020805460ff19169055565b60045460ff16610b485760045461010090046001600160a01b0316321480610b2757506001600033604051602001610afd9190610d2e565b60408051601f198184030181529181528151602092830120835290820192909252016000205460ff165b610b435760405162461bcd60e51b815260040161030090610d63565b610ba2565b6001600033604051602001610b5d9190610d2e565b60408051601f198184030181529181528151602092830120835290820192909252016000205460ff16610ba25760405162461bcd60e51b815260040161030090610dc0565b600090815260026020526040902080546001600160a01b0319169055565b60045461010090046001600160a01b03163314610c325760405162461bcd60e51b815260206004820152602a60248201527f4f6e6c792063616c6c61626c652062792063757272656e742073746f726167656044820152691033bab0b93234b0b71760b11b6064820152608401610300565b600580546001600160a01b0319166001600160a01b0392909216919091179055565b60008060408385031215610c6757600080fd5b50508035926020909101359150565b600060208284031215610c8857600080fd5b5035919050565b80356001600160a01b0381168114610ca657600080fd5b919050565b60008060408385031215610cbe57600080fd5b82359150610cce60208401610c8f565b90509250929050565b60008060408385031215610cea57600080fd5b8235915060208301358015158114610d0157600080fd5b809150509250929050565b600060208284031215610d1e57600080fd5b610d2782610c8f565b9392505050565b6e636f6e74726163745f65786973747360881b815260609190911b6bffffffffffffffffffffffff1916600f82015260230190565b6020808252603d908201527f54686520636f6e7472616374206164647265737320697320696e76616c69642060408201527f6f72207468652063616c6c6572206973206e6f7420616c6c6f7765642e000000606082015260800190565b6020808252818101527f54686520636f6e7472616374206164647265737320697320696e76616c69642e604082015260600190565b634e487b7160e01b600052601160045260246000fd5b60008219821115610e1e57610e1e610df5565b500190565b600082821015610e3557610e35610df5565b50039056fea26469706673582212209e8760b387dd9253def9d468c037bd9bbd5acee8f5ce023297eb95f714844eba64736f6c63430008090033",
    "sourcePath": "c:/Users/Lior/Desktop/Index/Coding Software/GitHub/challenge/contracts/DataStorage.sol",
    "compiler": {
        "name": "solc",
        "version": "0.8.9+commit.e5eed63a"
    },
    "functionHashes": {
        "confirmGuard()": "27918182",
        "decreaseUintStorage(bytes32,uint256)": "5bcfee67",
        "deleteAddressStorage(bytes32)": "e732da72",
        "deleteBoolStorage(bytes32)": "b240da3f",
        "deleteUintStorage(bytes32)": "8a2c6738",
        "getAddressStorage(bytes32)": "2a90bbb2",
        "getBoolStorage(bytes32)": "55d94655",
        "getCurrentGuardian()": "0bc169a5",
        "getStorageStatus()": "545e1b52",
        "getUintStorage(bytes32)": "afc3602b",
        "increaseUintStorage(bytes32,uint256)": "1d8895e0",
        "setAddressStorage(bytes32,address)": "7221263a",
        "setBoolStorage(bytes32,bool)": "988c515b",
        "setNewGuardian(address)": "e87f7c31",
        "setStorageLive()": "66b80832",
        "setUintStorage(bytes32,uint256)": "28192c55"
    },
    "gasEstimates": {
        "creation": {
            "codeDepositCost": "739200",
            "executionCost": "98215",
            "totalCost": "837415"
        },
        "external": {
            "confirmGuard()": "52345",
            "decreaseUintStorage(bytes32,uint256)": "31410",
            "deleteAddressStorage(bytes32)": "31292",
            "deleteBoolStorage(bytes32)": "31258",
            "deleteUintStorage(bytes32)": "12069",
            "getAddressStorage(bytes32)": "2489",
            "getBoolStorage(bytes32)": "2517",
            "getCurrentGuardian()": "2344",
            "getStorageStatus()": "2338",
            "getUintStorage(bytes32)": "2463",
            "increaseUintStorage(bytes32,uint256)": "31370",
            "setAddressStorage(bytes32,address)": "31417",
            "setBoolStorage(bytes32,bool)": "31392",
            "setNewGuardian(address)": "26810",
            "setStorageLive()": "26542",
            "setUintStorage(bytes32,uint256)": "29218"
        },
        "internal": {
            "_setDataStorageAddress()": "infinite"
        }
    }
}