{
    "contractName": "PoolVault",
    "abi": [
        {
            "inputs": [
                {
                    "internalType": "contract DataStorageInterface",
                    "name": "_dataStorageAddress",
                    "type": "address"
                }
            ],
            "stateMutability": "nonpayable",
            "type": "constructor"
        },
        {
            "anonymous": false,
            "inputs": [
                {
                    "indexed": true,
                    "internalType": "address",
                    "name": "_removedManager",
                    "type": "address"
                }
            ],
            "name": "ManagerRemoved",
            "type": "event"
        },
        {
            "anonymous": false,
            "inputs": [
                {
                    "indexed": true,
                    "internalType": "address",
                    "name": "_newManager",
                    "type": "address"
                }
            ],
            "name": "NewManagerAdded",
            "type": "event"
        },
        {
            "anonymous": false,
            "inputs": [
                {
                    "indexed": true,
                    "internalType": "bytes32",
                    "name": "role",
                    "type": "bytes32"
                },
                {
                    "indexed": true,
                    "internalType": "bytes32",
                    "name": "previousAdminRole",
                    "type": "bytes32"
                },
                {
                    "indexed": true,
                    "internalType": "bytes32",
                    "name": "newAdminRole",
                    "type": "bytes32"
                }
            ],
            "name": "RoleAdminChanged",
            "type": "event"
        },
        {
            "anonymous": false,
            "inputs": [
                {
                    "indexed": true,
                    "internalType": "bytes32",
                    "name": "role",
                    "type": "bytes32"
                },
                {
                    "indexed": true,
                    "internalType": "address",
                    "name": "account",
                    "type": "address"
                },
                {
                    "indexed": true,
                    "internalType": "address",
                    "name": "sender",
                    "type": "address"
                }
            ],
            "name": "RoleGranted",
            "type": "event"
        },
        {
            "anonymous": false,
            "inputs": [
                {
                    "indexed": true,
                    "internalType": "bytes32",
                    "name": "role",
                    "type": "bytes32"
                },
                {
                    "indexed": true,
                    "internalType": "address",
                    "name": "account",
                    "type": "address"
                },
                {
                    "indexed": true,
                    "internalType": "address",
                    "name": "sender",
                    "type": "address"
                }
            ],
            "name": "RoleRevoked",
            "type": "event"
        },
        {
            "inputs": [],
            "name": "DEFAULT_ADMIN_ROLE",
            "outputs": [
                {
                    "internalType": "bytes32",
                    "name": "",
                    "type": "bytes32"
                }
            ],
            "stateMutability": "view",
            "type": "function"
        },
        {
            "inputs": [],
            "name": "POOL_MANAGER",
            "outputs": [
                {
                    "internalType": "bytes32",
                    "name": "",
                    "type": "bytes32"
                }
            ],
            "stateMutability": "view",
            "type": "function"
        },
        {
            "inputs": [
                {
                    "internalType": "address",
                    "name": "_address",
                    "type": "address"
                }
            ],
            "name": "addPoolManager",
            "outputs": [],
            "stateMutability": "nonpayable",
            "type": "function"
        },
        {
            "inputs": [],
            "name": "getContributionLimit",
            "outputs": [
                {
                    "internalType": "uint256",
                    "name": "",
                    "type": "uint256"
                }
            ],
            "stateMutability": "view",
            "type": "function"
        },
        {
            "inputs": [],
            "name": "getPoolFees",
            "outputs": [
                {
                    "internalType": "uint256",
                    "name": "",
                    "type": "uint256"
                }
            ],
            "stateMutability": "view",
            "type": "function"
        },
        {
            "inputs": [],
            "name": "getPoolMaxSize",
            "outputs": [
                {
                    "internalType": "uint256",
                    "name": "",
                    "type": "uint256"
                }
            ],
            "stateMutability": "view",
            "type": "function"
        },
        {
            "inputs": [],
            "name": "getPoolState",
            "outputs": [
                {
                    "internalType": "bool",
                    "name": "",
                    "type": "bool"
                }
            ],
            "stateMutability": "view",
            "type": "function"
        },
        {
            "inputs": [],
            "name": "getRewardsInterest",
            "outputs": [
                {
                    "internalType": "uint256",
                    "name": "",
                    "type": "uint256"
                }
            ],
            "stateMutability": "view",
            "type": "function"
        },
        {
            "inputs": [],
            "name": "getRewardsInterval",
            "outputs": [
                {
                    "internalType": "uint256",
                    "name": "",
                    "type": "uint256"
                }
            ],
            "stateMutability": "view",
            "type": "function"
        },
        {
            "inputs": [
                {
                    "internalType": "bytes32",
                    "name": "role",
                    "type": "bytes32"
                }
            ],
            "name": "getRoleAdmin",
            "outputs": [
                {
                    "internalType": "bytes32",
                    "name": "",
                    "type": "bytes32"
                }
            ],
            "stateMutability": "view",
            "type": "function"
        },
        {
            "inputs": [
                {
                    "internalType": "bytes32",
                    "name": "role",
                    "type": "bytes32"
                },
                {
                    "internalType": "address",
                    "name": "account",
                    "type": "address"
                }
            ],
            "name": "grantRole",
            "outputs": [],
            "stateMutability": "nonpayable",
            "type": "function"
        },
        {
            "inputs": [
                {
                    "internalType": "bytes32",
                    "name": "role",
                    "type": "bytes32"
                },
                {
                    "internalType": "address",
                    "name": "account",
                    "type": "address"
                }
            ],
            "name": "hasRole",
            "outputs": [
                {
                    "internalType": "bool",
                    "name": "",
                    "type": "bool"
                }
            ],
            "stateMutability": "view",
            "type": "function"
        },
        {
            "inputs": [],
            "name": "poolEtherSize",
            "outputs": [
                {
                    "internalType": "uint256",
                    "name": "",
                    "type": "uint256"
                }
            ],
            "stateMutability": "view",
            "type": "function"
        },
        {
            "inputs": [],
            "name": "processRewards",
            "outputs": [],
            "stateMutability": "payable",
            "type": "function"
        },
        {
            "inputs": [
                {
                    "internalType": "address",
                    "name": "_address",
                    "type": "address"
                }
            ],
            "name": "removePoolManager",
            "outputs": [],
            "stateMutability": "nonpayable",
            "type": "function"
        },
        {
            "inputs": [
                {
                    "internalType": "bytes32",
                    "name": "role",
                    "type": "bytes32"
                },
                {
                    "internalType": "address",
                    "name": "account",
                    "type": "address"
                }
            ],
            "name": "renounceRole",
            "outputs": [],
            "stateMutability": "nonpayable",
            "type": "function"
        },
        {
            "inputs": [
                {
                    "internalType": "bytes32",
                    "name": "role",
                    "type": "bytes32"
                },
                {
                    "internalType": "address",
                    "name": "account",
                    "type": "address"
                }
            ],
            "name": "revokeRole",
            "outputs": [],
            "stateMutability": "nonpayable",
            "type": "function"
        },
        {
            "inputs": [
                {
                    "internalType": "uint256",
                    "name": "_newContrLimit",
                    "type": "uint256"
                }
            ],
            "name": "setContributionLimit",
            "outputs": [],
            "stateMutability": "nonpayable",
            "type": "function"
        },
        {
            "inputs": [
                {
                    "internalType": "uint256",
                    "name": "_newMinContr",
                    "type": "uint256"
                }
            ],
            "name": "setMinContribution",
            "outputs": [],
            "stateMutability": "nonpayable",
            "type": "function"
        },
        {
            "inputs": [],
            "name": "setMinContribution",
            "outputs": [
                {
                    "internalType": "uint256",
                    "name": "",
                    "type": "uint256"
                }
            ],
            "stateMutability": "view",
            "type": "function"
        },
        {
            "inputs": [
                {
                    "internalType": "uint256",
                    "name": "_poolFees",
                    "type": "uint256"
                }
            ],
            "name": "setPoolFees",
            "outputs": [],
            "stateMutability": "nonpayable",
            "type": "function"
        },
        {
            "inputs": [
                {
                    "internalType": "bool",
                    "name": "_live",
                    "type": "bool"
                }
            ],
            "name": "setPoolLive",
            "outputs": [],
            "stateMutability": "nonpayable",
            "type": "function"
        },
        {
            "inputs": [
                {
                    "internalType": "uint256",
                    "name": "_maxSize",
                    "type": "uint256"
                }
            ],
            "name": "setPoolMaxSize",
            "outputs": [],
            "stateMutability": "nonpayable",
            "type": "function"
        },
        {
            "inputs": [
                {
                    "internalType": "uint256",
                    "name": "_rewardsInterest",
                    "type": "uint256"
                }
            ],
            "name": "setRewardsInterest",
            "outputs": [],
            "stateMutability": "nonpayable",
            "type": "function"
        },
        {
            "inputs": [
                {
                    "internalType": "uint256",
                    "name": "_daysToRewards",
                    "type": "uint256"
                }
            ],
            "name": "setRewardsInterval",
            "outputs": [],
            "stateMutability": "nonpayable",
            "type": "function"
        },
        {
            "inputs": [],
            "name": "storeEther",
            "outputs": [],
            "stateMutability": "payable",
            "type": "function"
        },
        {
            "inputs": [
                {
                    "internalType": "bytes4",
                    "name": "interfaceId",
                    "type": "bytes4"
                }
            ],
            "name": "supportsInterface",
            "outputs": [
                {
                    "internalType": "bool",
                    "name": "",
                    "type": "bool"
                }
            ],
            "stateMutability": "view",
            "type": "function"
        },
        {
            "inputs": [
                {
                    "internalType": "address",
                    "name": "_to",
                    "type": "address"
                },
                {
                    "internalType": "uint256",
                    "name": "_ethAmount",
                    "type": "uint256"
                }
            ],
            "name": "withdrawEther",
            "outputs": [],
            "stateMutability": "nonpayable",
            "type": "function"
        }
    ],
    "bytecode": "60806040523480156200001157600080fd5b506040516200225c3803806200225c8339810160408190526200003491620003bf565b60018055600280546001600160a01b0319166001600160a01b0383161790558062000061600033620000a9565b6200008d7f41a01ec0a13b563fa452569e3fbb116366d217c2769aa1561822e65a617e384233620000a9565b62000097620000b9565b50620000a262000220565b50620003f1565b620000b582826200031f565b5050565b6002546040516e636f6e74726163745f65786973747360881b60208201526001600160601b03193060601b16602f8201526001600160a01b039091169063988c515b9060430160408051601f198184030181529082905280516020909101206001600160e01b031960e084901b168252600482015260016024820152604401600060405180830381600087803b1580156200015357600080fd5b505af115801562000168573d6000803e3d6000fd5b50506002546040516f636f6e74726163745f6164647265737360801b602082015267506f6f6c4261736560c01b60308201526001600160a01b039091169250637221263a91506038015b60408051601f198184030181529082905280516020909101206001600160e01b031960e084901b1682526004820152306024820152604401600060405180830381600087803b1580156200020557600080fd5b505af11580156200021a573d6000803e3d6000fd5b50505050565b6002546040516e636f6e74726163745f65786973747360881b60208201526001600160601b03193060601b16602f8201526001600160a01b039091169063988c515b9060430160408051601f198184030181529082905280516020909101206001600160e01b031960e084901b168252600482015260016024820152604401600060405180830381600087803b158015620002ba57600080fd5b505af1158015620002cf573d6000803e3d6000fd5b50506002546040516f636f6e74726163745f6164647265737360801b602082015268141bdbdb15985d5b1d60ba1b60308201526001600160a01b039091169250637221263a9150603901620001b2565b6000828152602081815260408083206001600160a01b038516845290915290205460ff16620000b5576000828152602081815260408083206001600160a01b03851684529091529020805460ff191660011790556200037b3390565b6001600160a01b0316816001600160a01b0316837f2f8788117e7eff1d82e926ec794901d17c78024a50270940304540a733656f0d60405160405180910390a45050565b600060208284031215620003d257600080fd5b81516001600160a01b0381168114620003ea57600080fd5b9392505050565b611e5b80620004016000396000f3fe6080604052600436106101b75760003560e01c806362308e85116100ec578063a7cc190a1161008a578063d1d8d06011610064578063d1d8d0601461048e578063d547741f146104a3578063f9fc0d07146104c3578063fa1e19e5146104cb57600080fd5b8063a7cc190a14610451578063bf4c003614610459578063ccfe0c8e1461047957600080fd5b80638dd225d5116100c65780638dd225d5146103dc57806391d14854146103fc578063a217fddf1461041c578063a49755161461043157600080fd5b806362308e851461038557806372d099a0146103a75780637521796f146103c757600080fd5b806336568abe11610159578063497d024111610133578063497d02411461031b578063522f68151461033057806353710f4914610350578063543edfb61461037057600080fd5b806336568abe146102bb57806345077e71146102db578063473b0d46146102fb57600080fd5b8063217ac23711610195578063217ac23714610236578063248a9ca31461024b57806329ca15bc1461027b5780632f2ff15d1461029b57600080fd5b806301ffc9a7146101bc578063095df57f146101f15780631264698714610214575b600080fd5b3480156101c857600080fd5b506101dc6101d7366004611a9b565b6104e0565b60405190151581526020015b60405180910390f35b3480156101fd57600080fd5b50610206610517565b6040519081526020016101e8565b34801561022057600080fd5b5061023461022f366004611ac5565b6105d4565b005b34801561024257600080fd5b506101dc61068d565b34801561025757600080fd5b50610206610266366004611ac5565b60009081526020819052604090206001015490565b34801561028757600080fd5b50610234610296366004611afa565b610732565b3480156102a757600080fd5b506102346102b6366004611b15565b61078e565b3480156102c757600080fd5b506102346102d6366004611b15565b6107b9565b3480156102e757600080fd5b506102346102f6366004611afa565b61083c565b34801561030757600080fd5b50610234610316366004611ac5565b610898565b34801561032757600080fd5b5061020661099b565b34801561033c57600080fd5b5061023461034b366004611b41565b6109c1565b34801561035c57600080fd5b5061023461036b366004611ac5565b610d77565b34801561037c57600080fd5b50610206610ed1565b34801561039157600080fd5b50610206600080516020611e0683398151915281565b3480156103b357600080fd5b506102346103c2366004611ac5565b610ef9565b3480156103d357600080fd5b50610206610ffe565b3480156103e857600080fd5b506102346103f7366004611ac5565b61102f565b34801561040857600080fd5b506101dc610417366004611b15565b611248565b34801561042857600080fd5b50610206600081565b34801561043d57600080fd5b5061023461044c366004611b7c565b611271565b6102346112eb565b34801561046557600080fd5b50610234610474366004611ac5565b61144f565b34801561048557600080fd5b5061020661155b565b34801561049a57600080fd5b50610206611586565b3480156104af57600080fd5b506102346104be366004611b15565b6115a7565b6102346115cd565b3480156104d757600080fd5b50610206611781565b60006001600160e01b03198216637965db0b60e01b148061051157506301ffc9a760e01b6001600160e01b03198316145b92915050565b60008060405160200161053b906a706f6f6c4d617853697a6560a81b8152600b0190565b60408051808303601f1901815290829052805160209091012060025463afc3602b60e01b8352600483018290529092506001600160a01b03169063afc3602b9060240160206040518083038186803b15801561059657600080fd5b505afa1580156105aa573d6000803e3d6000fd5b505050506040513d601f19601f820116820180604052508101906105ce9190611b99565b91505090565b600080516020611e068339815191526105ed81336117ab565b6040516a706f6f6c4d617853697a6560a81b6020820152600090602b015b60408051808303601f190181529082905280516020909101206002546328192c5560e01b835260048301829052602483018690529092506001600160a01b0316906328192c55906044015b600060405180830381600087803b15801561067057600080fd5b505af1158015610684573d6000803e3d6000fd5b50505050505050565b60008060405160200161069f90611bb2565b60408051808303601f190181529082905280516020909101206002546355d9465560e01b8352600483018290529092506001600160a01b0316906355d946559060240160206040518083038186803b1580156106fa57600080fd5b505afa15801561070e573d6000803e3d6000fd5b505050506040513d601f19601f820116820180604052508101906105ce9190611bc8565b600061073e81336117ab565b610756600080516020611e06833981519152836115a7565b6040516001600160a01b038316907fef69f7d97228658c92417be1b16b19058315de71fecb435d07b7d23728b6bd3190600090a25050565b6000828152602081905260409020600101546107aa81336117ab565b6107b4838361180f565b505050565b6001600160a01b038116331461082e5760405162461bcd60e51b815260206004820152602f60248201527f416363657373436f6e74726f6c3a2063616e206f6e6c792072656e6f756e636560448201526e103937b632b9903337b91039b2b63360891b60648201526084015b60405180910390fd5b6108388282611893565b5050565b600061084881336117ab565b610860600080516020611e068339815191528361078e565b6040516001600160a01b038316907fd873e3f571dc25e020cefdeb7255b3874ead3aade1f94a5fb4a5da831fd670cd90600090a25050565b600080516020611e068339815191526108b181336117ab565b6002546040516001600160a01b03909116906355d94655906108d590602001611bb2565b604051602081830303815290604052805190602001206040518263ffffffff1660e01b815260040161090991815260200190565b60206040518083038186803b15801561092157600080fd5b505afa158015610935573d6000803e3d6000fd5b505050506040513d601f19601f820116820180604052508101906109599190611bc8565b6109755760405162461bcd60e51b815260040161082590611be5565b6040516e36b4b721b7b73a3934b13aba34b7b760891b6020820152600090602f0161060b565b60008060405160200161053b906c64617973546f5265776172647360981b8152600d0190565b6000336040516020016109d49190611c1c565b60408051808303601f190181529082905280516020909101206002546355d9465560e01b8352600483018290529092506001600160a01b0316906355d946559060240160206040518083038186803b158015610a2f57600080fd5b505afa158015610a43573d6000803e3d6000fd5b505050506040513d601f19601f82011682018060405250810190610a679190611bc8565b610a835760405162461bcd60e51b815260040161082590611c51565b60026001541415610ad65760405162461bcd60e51b815260206004820152601f60248201527f5265656e7472616e637947756172643a207265656e7472616e742063616c6c006044820152606401610825565b6002600155604051711d1bdd185b17d95d1a195c97dcdd185ad95960721b60208201526000906032016040516020818303038152906040528051906020012090506000604051602001610b4090703a37ba30b629bab838363cafa2ba3432b960791b815260110190565b60408051808303601f1901815290829052805160209091012060025463afc3602b60e01b83526004830185905290925060009186916001600160a01b03169063afc3602b9060240160206040518083038186803b158015610ba057600080fd5b505afa158015610bb4573d6000803e3d6000fd5b505050506040513d601f19601f82011682018060405250810190610bd89190611b99565b610be29190611c9c565b1015610c415760405162461bcd60e51b815260206004820152602860248201527f4c61636b696e67206f6620657468657220746f20706572666f726d20746869736044820152671030b1ba34b7b71760c11b6064820152608401610825565b600254604051635bcfee6760e01b815260048101849052602481018690526001600160a01b0390911690635bcfee6790604401600060405180830381600087803b158015610c8e57600080fd5b505af1158015610ca2573d6000803e3d6000fd5b5050600254604051635bcfee6760e01b815260048101859052602481018890526001600160a01b039091169250635bcfee679150604401600060405180830381600087803b158015610cf357600080fd5b505af1158015610d07573d6000803e3d6000fd5b505050506000856001600160a01b03168560405160006040518083038185875af1925050503d8060008114610d58576040519150601f19603f3d011682016040523d82523d6000602084013e610d5d565b606091505b5050905080610d6b57600080fd5b50506001805550505050565b600080516020611e06833981519152610d9081336117ab565b6002546040516001600160a01b03909116906355d9465590610db490602001611bb2565b604051602081830303815290604052805190602001206040518263ffffffff1660e01b8152600401610de891815260200190565b60206040518083038186803b158015610e0057600080fd5b505afa158015610e14573d6000803e3d6000fd5b505050506040513d601f19601f82011682018060405250810190610e389190611bc8565b610e545760405162461bcd60e51b815260040161082590611be5565b604080516c64617973546f5265776172647360981b6020808301919091528251600d818403018152602d90920190925280519101206002546001600160a01b03166328192c5582610ea88662015180611cb3565b6040516001600160e01b031960e085901b16815260048101929092526024820152604401610656565b60008060405160200161053b906e36b4b721b7b73a3934b13aba34b7b760891b8152600f0190565b600080516020611e06833981519152610f1281336117ab565b6002546040516001600160a01b03909116906355d9465590610f3690602001611bb2565b604051602081830303815290604052805190602001206040518263ffffffff1660e01b8152600401610f6a91815260200190565b60206040518083038186803b158015610f8257600080fd5b505afa158015610f96573d6000803e3d6000fd5b505050506040513d601f19601f82011682018060405250810190610fba9190611bc8565b610fd65760405162461bcd60e51b815260040161082590611be5565b6040517018dbdb9d1c9a589d5d1a5bdb931a5b5a5d607a1b602082015260009060310161060b565b60008060405160200161053b90771c995dd85c991cd25b9d195c995cdd14195c94195c9a5bd960421b815260180190565b600080516020611e0683398151915261104881336117ab565b6002546040516001600160a01b03909116906355d946559061106c90602001611bb2565b604051602081830303815290604052805190602001206040518263ffffffff1660e01b81526004016110a091815260200190565b60206040518083038186803b1580156110b857600080fd5b505afa1580156110cc573d6000803e3d6000fd5b505050506040513d601f19601f820116820180604052508101906110f09190611bc8565b61110c5760405162461bcd60e51b815260040161082590611be5565b60405167706f6f6c4665657360c01b60208201526000906028016040516020818303038152906040528051906020012090506000604051602001611161906a1c1bdbdb1199595cd4d95d60aa1b8152600b0190565b60408051808303601f190181529082905280516020909101206002546328192c5560e01b835260048301859052602483018790529092506001600160a01b0316906328192c5590604401600060405180830381600087803b1580156111c557600080fd5b505af11580156111d9573d6000803e3d6000fd5b505060025460405163988c515b60e01b815260048101859052600160248201526001600160a01b03909116925063988c515b9150604401600060405180830381600087803b15801561122a57600080fd5b505af115801561123e573d6000803e3d6000fd5b5050505050505050565b6000918252602082815260408084206001600160a01b0393909316845291905290205460ff1690565b600080516020611e0683398151915261128a81336117ab565b600060405160200161129b90611bb2565b60408051808303601f1901815290829052805160209091012060025463988c515b60e01b83526004830182905285151560248401529092506001600160a01b03169063988c515b90604401610656565b6000336040516020016112fe9190611c1c565b60408051808303601f190181529082905280516020909101206002546355d9465560e01b8352600483018290529092506001600160a01b0316906355d946559060240160206040518083038186803b15801561135957600080fd5b505afa15801561136d573d6000803e3d6000fd5b505050506040513d601f19601f820116820180604052508101906113919190611bc8565b6113ad5760405162461bcd60e51b815260040161082590611c51565b604051711d1bdd185b17d95d1a195c97dcdd185ad95960721b602082015260009060320160408051808303601f1901815290829052805160209091012060025462ec44af60e51b8352600483018290523460248401529092506001600160a01b031690631d8895e090604401600060405180830381600087803b15801561143357600080fd5b505af1158015611447573d6000803e3d6000fd5b505050505050565b600080516020611e0683398151915261146881336117ab565b6002546040516001600160a01b03909116906355d946559061148c90602001611bb2565b604051602081830303815290604052805190602001206040518263ffffffff1660e01b81526004016114c091815260200190565b60206040518083038186803b1580156114d857600080fd5b505afa1580156114ec573d6000803e3d6000fd5b505050506040513d601f19601f820116820180604052508101906115109190611bc8565b61152c5760405162461bcd60e51b815260040161082590611be5565b604051771c995dd85c991cd25b9d195c995cdd14195c94195c9a5bd960421b602082015260009060380161060b565b60008060405160200161053b90711d1bdd185b17d95d1a195c97dcdd185ad95960721b815260120190565b60008060405160200161053b9067706f6f6c4665657360c01b815260080190565b6000828152602081905260409020600101546115c381336117ab565b6107b48383611893565b6000336040516020016115e09190611c1c565b60408051808303601f190181529082905280516020909101206002546355d9465560e01b8352600483018290529092506001600160a01b0316906355d946559060240160206040518083038186803b15801561163b57600080fd5b505afa15801561164f573d6000803e3d6000fd5b505050506040513d601f19601f820116820180604052508101906116739190611bc8565b61168f5760405162461bcd60e51b815260040161082590611c51565b600260015414156116e25760405162461bcd60e51b815260206004820152601f60248201527f5265656e7472616e637947756172643a207265656e7472616e742063616c6c006044820152606401610825565b6002600155604051711d1bdd185b17d95d1a195c97dcdd185ad95960721b602082015260009060320160408051808303601f1901815290829052805160209091012060025462ec44af60e51b8352600483018290523460248401529092506001600160a01b031690631d8895e090604401600060405180830381600087803b15801561176d57600080fd5b505af1158015610d6b573d6000803e3d6000fd5b60008060405160200161053b907018dbdb9d1c9a589d5d1a5bdb931a5b5a5d607a1b815260110190565b6117b58282611248565b610838576117cd816001600160a01b031660146118f8565b6117d88360206118f8565b6040516020016117e9929190611d02565b60408051601f198184030181529082905262461bcd60e51b825261082591600401611d77565b6118198282611248565b610838576000828152602081815260408083206001600160a01b03851684529091529020805460ff1916600117905561184f3390565b6001600160a01b0316816001600160a01b0316837f2f8788117e7eff1d82e926ec794901d17c78024a50270940304540a733656f0d60405160405180910390a45050565b61189d8282611248565b15610838576000828152602081815260408083206001600160a01b0385168085529252808320805460ff1916905551339285917ff6391f5c32d9c69d2a47ea670b442974b53935d1edc7fd64eb21e047a839171b9190a45050565b60606000611907836002611cb3565b611912906002611daa565b67ffffffffffffffff81111561192a5761192a611dc2565b6040519080825280601f01601f191660200182016040528015611954576020820181803683370190505b509050600360fc1b8160008151811061196f5761196f611dd8565b60200101906001600160f81b031916908160001a905350600f60fb1b8160018151811061199e5761199e611dd8565b60200101906001600160f81b031916908160001a90535060006119c2846002611cb3565b6119cd906001611daa565b90505b6001811115611a45576f181899199a1a9b1b9c1cb0b131b232b360811b85600f1660108110611a0157611a01611dd8565b1a60f81b828281518110611a1757611a17611dd8565b60200101906001600160f81b031916908160001a90535060049490941c93611a3e81611dee565b90506119d0565b508315611a945760405162461bcd60e51b815260206004820181905260248201527f537472696e67733a20686578206c656e67746820696e73756666696369656e746044820152606401610825565b9392505050565b600060208284031215611aad57600080fd5b81356001600160e01b031981168114611a9457600080fd5b600060208284031215611ad757600080fd5b5035919050565b80356001600160a01b0381168114611af557600080fd5b919050565b600060208284031215611b0c57600080fd5b611a9482611ade565b60008060408385031215611b2857600080fd5b82359150611b3860208401611ade565b90509250929050565b60008060408385031215611b5457600080fd5b611b5d83611ade565b946020939093013593505050565b8015158114611b7957600080fd5b50565b600060208284031215611b8e57600080fd5b8135611a9481611b6b565b600060208284031215611bab57600080fd5b5051919050565b696973506f6f6c4c69766560b01b8152600a0190565b600060208284031215611bda57600080fd5b8151611a9481611b6b565b6020808252601d908201527f54686520706f6f6c2069732063757272656e746c7920636c6f7365642e000000604082015260600190565b6e636f6e74726163745f65786973747360881b815260609190911b6bffffffffffffffffffffffff1916600f82015260230190565b6020808252818101527f54686520636f6e7472616374206164647265737320697320696e76616c69642e604082015260600190565b634e487b7160e01b600052601160045260246000fd5b600082821015611cae57611cae611c86565b500390565b6000816000190483118215151615611ccd57611ccd611c86565b500290565b60005b83811015611ced578181015183820152602001611cd5565b83811115611cfc576000848401525b50505050565b7f416363657373436f6e74726f6c3a206163636f756e7420000000000000000000815260008351611d3a816017850160208801611cd2565b7001034b99036b4b9b9b4b733903937b6329607d1b6017918401918201528351611d6b816028840160208801611cd2565b01602801949350505050565b6020815260008251806020840152611d96816040850160208701611cd2565b601f01601f19169190910160400192915050565b60008219821115611dbd57611dbd611c86565b500190565b634e487b7160e01b600052604160045260246000fd5b634e487b7160e01b600052603260045260246000fd5b600081611dfd57611dfd611c86565b50600019019056fe41a01ec0a13b563fa452569e3fbb116366d217c2769aa1561822e65a617e3842a26469706673582212203fd8d528de290876665f3081ba3d392fcb6c7262e0189efa815b2bf76208471c64736f6c63430008090033",
    "sourcePath": "c:/Users/Lior/Desktop/Index/Coding Software/GitHub/challenge/contracts/PoolVault.sol",
    "compiler": {
        "name": "solc",
        "version": "0.8.9+commit.e5eed63a"
    },
    "functionHashes": {
        "DEFAULT_ADMIN_ROLE()": "a217fddf",
        "POOL_MANAGER()": "62308e85",
        "addPoolManager(address)": "45077e71",
        "getContributionLimit()": "fa1e19e5",
        "getPoolFees()": "d1d8d060",
        "getPoolMaxSize()": "095df57f",
        "getPoolState()": "217ac237",
        "getRewardsInterest()": "7521796f",
        "getRewardsInterval()": "497d0241",
        "getRoleAdmin(bytes32)": "248a9ca3",
        "grantRole(bytes32,address)": "2f2ff15d",
        "hasRole(bytes32,address)": "91d14854",
        "poolEtherSize()": "ccfe0c8e",
        "processRewards()": "f9fc0d07",
        "removePoolManager(address)": "29ca15bc",
        "renounceRole(bytes32,address)": "36568abe",
        "revokeRole(bytes32,address)": "d547741f",
        "setContributionLimit(uint256)": "72d099a0",
        "setMinContribution()": "543edfb6",
        "setMinContribution(uint256)": "473b0d46",
        "setPoolFees(uint256)": "8dd225d5",
        "setPoolLive(bool)": "a4975516",
        "setPoolMaxSize(uint256)": "12646987",
        "setRewardsInterest(uint256)": "bf4c0036",
        "setRewardsInterval(uint256)": "53710f49",
        "storeEther()": "a7cc190a",
        "supportsInterface(bytes4)": "01ffc9a7",
        "withdrawEther(address,uint256)": "522f6815"
    },
    "gasEstimates": {
        "creation": {
            "codeDepositCost": "1554200",
            "executionCost": "infinite",
            "totalCost": "infinite"
        },
        "external": {
            "DEFAULT_ADMIN_ROLE()": "284",
            "POOL_MANAGER()": "infinite",
            "addPoolManager(address)": "infinite",
            "getContributionLimit()": "infinite",
            "getPoolFees()": "infinite",
            "getPoolMaxSize()": "infinite",
            "getPoolState()": "infinite",
            "getRewardsInterest()": "infinite",
            "getRewardsInterval()": "infinite",
            "getRoleAdmin(bytes32)": "2515",
            "grantRole(bytes32,address)": "infinite",
            "hasRole(bytes32,address)": "2718",
            "poolEtherSize()": "infinite",
            "processRewards()": "infinite",
            "removePoolManager(address)": "infinite",
            "renounceRole(bytes32,address)": "29041",
            "revokeRole(bytes32,address)": "infinite",
            "setContributionLimit(uint256)": "infinite",
            "setMinContribution()": "infinite",
            "setMinContribution(uint256)": "infinite",
            "setPoolFees(uint256)": "infinite",
            "setPoolLive(bool)": "infinite",
            "setPoolMaxSize(uint256)": "infinite",
            "setRewardsInterest(uint256)": "infinite",
            "setRewardsInterval(uint256)": "infinite",
            "storeEther()": "infinite",
            "supportsInterface(bytes4)": "473",
            "withdrawEther(address,uint256)": "infinite"
        },
        "internal": {
            "_setPoolVaultAddress()": "infinite"
        }
    }
}