{
    "contractName": "PoolVault",
    "abi": [
        {
            "inputs": [
                {
                    "internalType": "contract DataStorageInterface",
                    "name": "_dataStorageAddress",
                    "type": "address"
                }
            ],
            "stateMutability": "nonpayable",
            "type": "constructor"
        },
        {
            "anonymous": false,
            "inputs": [
                {
                    "indexed": true,
                    "internalType": "address",
                    "name": "_removedManager",
                    "type": "address"
                }
            ],
            "name": "ManagerRemoved",
            "type": "event"
        },
        {
            "anonymous": false,
            "inputs": [
                {
                    "indexed": true,
                    "internalType": "address",
                    "name": "_newManager",
                    "type": "address"
                }
            ],
            "name": "NewManagerAdded",
            "type": "event"
        },
        {
            "anonymous": false,
            "inputs": [
                {
                    "indexed": true,
                    "internalType": "bytes32",
                    "name": "role",
                    "type": "bytes32"
                },
                {
                    "indexed": true,
                    "internalType": "bytes32",
                    "name": "previousAdminRole",
                    "type": "bytes32"
                },
                {
                    "indexed": true,
                    "internalType": "bytes32",
                    "name": "newAdminRole",
                    "type": "bytes32"
                }
            ],
            "name": "RoleAdminChanged",
            "type": "event"
        },
        {
            "anonymous": false,
            "inputs": [
                {
                    "indexed": true,
                    "internalType": "bytes32",
                    "name": "role",
                    "type": "bytes32"
                },
                {
                    "indexed": true,
                    "internalType": "address",
                    "name": "account",
                    "type": "address"
                },
                {
                    "indexed": true,
                    "internalType": "address",
                    "name": "sender",
                    "type": "address"
                }
            ],
            "name": "RoleGranted",
            "type": "event"
        },
        {
            "anonymous": false,
            "inputs": [
                {
                    "indexed": true,
                    "internalType": "bytes32",
                    "name": "role",
                    "type": "bytes32"
                },
                {
                    "indexed": true,
                    "internalType": "address",
                    "name": "account",
                    "type": "address"
                },
                {
                    "indexed": true,
                    "internalType": "address",
                    "name": "sender",
                    "type": "address"
                }
            ],
            "name": "RoleRevoked",
            "type": "event"
        },
        {
            "inputs": [],
            "name": "DEFAULT_ADMIN_ROLE",
            "outputs": [
                {
                    "internalType": "bytes32",
                    "name": "",
                    "type": "bytes32"
                }
            ],
            "stateMutability": "view",
            "type": "function"
        },
        {
            "inputs": [],
            "name": "POOL_MANAGER",
            "outputs": [
                {
                    "internalType": "bytes32",
                    "name": "",
                    "type": "bytes32"
                }
            ],
            "stateMutability": "view",
            "type": "function"
        },
        {
            "inputs": [
                {
                    "internalType": "address",
                    "name": "_address",
                    "type": "address"
                }
            ],
            "name": "addPoolManager",
            "outputs": [],
            "stateMutability": "nonpayable",
            "type": "function"
        },
        {
            "inputs": [],
            "name": "getContributionLimit",
            "outputs": [
                {
                    "internalType": "uint256",
                    "name": "",
                    "type": "uint256"
                }
            ],
            "stateMutability": "view",
            "type": "function"
        },
        {
            "inputs": [],
            "name": "getMinContribution",
            "outputs": [
                {
                    "internalType": "uint256",
                    "name": "",
                    "type": "uint256"
                }
            ],
            "stateMutability": "view",
            "type": "function"
        },
        {
            "inputs": [],
            "name": "getPoolBaseAddress",
            "outputs": [
                {
                    "internalType": "address",
                    "name": "",
                    "type": "address"
                }
            ],
            "stateMutability": "view",
            "type": "function"
        },
        {
            "inputs": [],
            "name": "getPoolMaxSize",
            "outputs": [
                {
                    "internalType": "uint256",
                    "name": "",
                    "type": "uint256"
                }
            ],
            "stateMutability": "view",
            "type": "function"
        },
        {
            "inputs": [],
            "name": "getPoolState",
            "outputs": [
                {
                    "internalType": "bool",
                    "name": "",
                    "type": "bool"
                }
            ],
            "stateMutability": "view",
            "type": "function"
        },
        {
            "inputs": [],
            "name": "getPoolVaultAddress",
            "outputs": [
                {
                    "internalType": "address",
                    "name": "",
                    "type": "address"
                }
            ],
            "stateMutability": "view",
            "type": "function"
        },
        {
            "inputs": [],
            "name": "getRewardsInterest",
            "outputs": [
                {
                    "internalType": "uint256",
                    "name": "",
                    "type": "uint256"
                }
            ],
            "stateMutability": "view",
            "type": "function"
        },
        {
            "inputs": [],
            "name": "getRewardsInterval",
            "outputs": [
                {
                    "internalType": "uint256",
                    "name": "",
                    "type": "uint256"
                }
            ],
            "stateMutability": "view",
            "type": "function"
        },
        {
            "inputs": [
                {
                    "internalType": "bytes32",
                    "name": "role",
                    "type": "bytes32"
                }
            ],
            "name": "getRoleAdmin",
            "outputs": [
                {
                    "internalType": "bytes32",
                    "name": "",
                    "type": "bytes32"
                }
            ],
            "stateMutability": "view",
            "type": "function"
        },
        {
            "inputs": [
                {
                    "internalType": "bytes32",
                    "name": "role",
                    "type": "bytes32"
                },
                {
                    "internalType": "address",
                    "name": "account",
                    "type": "address"
                }
            ],
            "name": "grantRole",
            "outputs": [],
            "stateMutability": "nonpayable",
            "type": "function"
        },
        {
            "inputs": [
                {
                    "internalType": "bytes32",
                    "name": "role",
                    "type": "bytes32"
                },
                {
                    "internalType": "address",
                    "name": "account",
                    "type": "address"
                }
            ],
            "name": "hasRole",
            "outputs": [
                {
                    "internalType": "bool",
                    "name": "",
                    "type": "bool"
                }
            ],
            "stateMutability": "view",
            "type": "function"
        },
        {
            "inputs": [],
            "name": "poolEtherSize",
            "outputs": [
                {
                    "internalType": "uint256",
                    "name": "",
                    "type": "uint256"
                }
            ],
            "stateMutability": "view",
            "type": "function"
        },
        {
            "inputs": [],
            "name": "processRewards",
            "outputs": [],
            "stateMutability": "payable",
            "type": "function"
        },
        {
            "inputs": [
                {
                    "internalType": "address",
                    "name": "_address",
                    "type": "address"
                }
            ],
            "name": "removePoolManager",
            "outputs": [],
            "stateMutability": "nonpayable",
            "type": "function"
        },
        {
            "inputs": [
                {
                    "internalType": "bytes32",
                    "name": "role",
                    "type": "bytes32"
                },
                {
                    "internalType": "address",
                    "name": "account",
                    "type": "address"
                }
            ],
            "name": "renounceRole",
            "outputs": [],
            "stateMutability": "nonpayable",
            "type": "function"
        },
        {
            "inputs": [
                {
                    "internalType": "bytes32",
                    "name": "role",
                    "type": "bytes32"
                },
                {
                    "internalType": "address",
                    "name": "account",
                    "type": "address"
                }
            ],
            "name": "revokeRole",
            "outputs": [],
            "stateMutability": "nonpayable",
            "type": "function"
        },
        {
            "inputs": [
                {
                    "internalType": "uint256",
                    "name": "_newContrLimit",
                    "type": "uint256"
                }
            ],
            "name": "setContributionLimit",
            "outputs": [],
            "stateMutability": "nonpayable",
            "type": "function"
        },
        {
            "inputs": [
                {
                    "internalType": "uint256",
                    "name": "_newMinContr",
                    "type": "uint256"
                }
            ],
            "name": "setMinContribution",
            "outputs": [],
            "stateMutability": "nonpayable",
            "type": "function"
        },
        {
            "inputs": [
                {
                    "internalType": "bool",
                    "name": "_live",
                    "type": "bool"
                }
            ],
            "name": "setPoolLive",
            "outputs": [],
            "stateMutability": "nonpayable",
            "type": "function"
        },
        {
            "inputs": [
                {
                    "internalType": "uint256",
                    "name": "_maxSize",
                    "type": "uint256"
                }
            ],
            "name": "setPoolMaxSize",
            "outputs": [],
            "stateMutability": "nonpayable",
            "type": "function"
        },
        {
            "inputs": [
                {
                    "internalType": "uint256",
                    "name": "_rewardsInterest",
                    "type": "uint256"
                }
            ],
            "name": "setRewardsInterest",
            "outputs": [],
            "stateMutability": "nonpayable",
            "type": "function"
        },
        {
            "inputs": [
                {
                    "internalType": "uint256",
                    "name": "_daysToRewards",
                    "type": "uint256"
                }
            ],
            "name": "setRewardsInterval",
            "outputs": [],
            "stateMutability": "nonpayable",
            "type": "function"
        },
        {
            "inputs": [],
            "name": "storeEther",
            "outputs": [],
            "stateMutability": "payable",
            "type": "function"
        },
        {
            "inputs": [
                {
                    "internalType": "bytes4",
                    "name": "interfaceId",
                    "type": "bytes4"
                }
            ],
            "name": "supportsInterface",
            "outputs": [
                {
                    "internalType": "bool",
                    "name": "",
                    "type": "bool"
                }
            ],
            "stateMutability": "view",
            "type": "function"
        },
        {
            "inputs": [
                {
                    "internalType": "address",
                    "name": "_to",
                    "type": "address"
                },
                {
                    "internalType": "uint256",
                    "name": "_ethAmount",
                    "type": "uint256"
                }
            ],
            "name": "withdrawEther",
            "outputs": [],
            "stateMutability": "nonpayable",
            "type": "function"
        }
    ],
    "bytecode": "60806040523480156200001157600080fd5b5060405162002377380380620023778339810160408190526200003491620003bf565b60018055600280546001600160a01b0319166001600160a01b0383161790558062000061600033620000a9565b6200008d7f41a01ec0a13b563fa452569e3fbb116366d217c2769aa1561822e65a617e384233620000a9565b62000097620000b9565b50620000a262000220565b50620003f1565b620000b582826200031f565b5050565b6002546040516e636f6e74726163745f65786973747360881b60208201526001600160601b03193060601b16602f8201526001600160a01b039091169063988c515b9060430160408051601f198184030181529082905280516020909101206001600160e01b031960e084901b168252600482015260016024820152604401600060405180830381600087803b1580156200015357600080fd5b505af115801562000168573d6000803e3d6000fd5b50506002546040516f636f6e74726163745f6164647265737360801b602082015267506f6f6c4261736560c01b60308201526001600160a01b039091169250637221263a91506038015b60408051601f198184030181529082905280516020909101206001600160e01b031960e084901b1682526004820152306024820152604401600060405180830381600087803b1580156200020557600080fd5b505af11580156200021a573d6000803e3d6000fd5b50505050565b6002546040516e636f6e74726163745f65786973747360881b60208201526001600160601b03193060601b16602f8201526001600160a01b039091169063988c515b9060430160408051601f198184030181529082905280516020909101206001600160e01b031960e084901b168252600482015260016024820152604401600060405180830381600087803b158015620002ba57600080fd5b505af1158015620002cf573d6000803e3d6000fd5b50506002546040516f636f6e74726163745f6164647265737360801b602082015268141bdbdb15985d5b1d60ba1b60308201526001600160a01b039091169250637221263a9150603901620001b2565b6000828152602081815260408083206001600160a01b038516845290915290205460ff16620000b5576000828152602081815260408083206001600160a01b03851684529091529020805460ff191660011790556200037b3390565b6001600160a01b0316816001600160a01b0316837f2f8788117e7eff1d82e926ec794901d17c78024a50270940304540a733656f0d60405160405180910390a45050565b600060208284031215620003d257600080fd5b81516001600160a01b0381168114620003ea57600080fd5b9392505050565b611f7680620004016000396000f3fe6080604052600436106101b75760003560e01c80636cff7473116100ec578063a7cc190a1161008a578063ccfe0c8e11610064578063ccfe0c8e1461049b578063d547741f146104b0578063f9fc0d07146104d0578063fa1e19e5146104d857600080fd5b8063a7cc190a1461045e578063bf4c003614610466578063c3577d481461048657600080fd5b80638ae68134116100c65780638ae68134146103dc57806391d1485414610409578063a217fddf14610429578063a49755161461043e57600080fd5b80636cff74731461039257806372d099a0146103a75780637521796f146103c757600080fd5b806336568abe11610159578063497d024111610133578063497d02411461031b578063522f68151461033057806353710f491461035057806362308e851461037057600080fd5b806336568abe146102bb57806345077e71146102db578063473b0d46146102fb57600080fd5b8063217ac23711610195578063217ac23714610236578063248a9ca31461024b57806329ca15bc1461027b5780632f2ff15d1461029b57600080fd5b806301ffc9a7146101bc578063095df57f146101f15780631264698714610214575b600080fd5b3480156101c857600080fd5b506101dc6101d7366004611b98565b6104ed565b60405190151581526020015b60405180910390f35b3480156101fd57600080fd5b50610206610524565b6040519081526020016101e8565b34801561022057600080fd5b5061023461022f366004611bc2565b6105e1565b005b34801561024257600080fd5b506101dc610768565b34801561025757600080fd5b50610206610266366004611bc2565b60009081526020819052604090206001015490565b34801561028757600080fd5b50610234610296366004611bf3565b61080d565b3480156102a757600080fd5b506102346102b6366004611c10565b610869565b3480156102c757600080fd5b506102346102d6366004611c10565b610894565b3480156102e757600080fd5b506102346102f6366004611bf3565b610912565b34801561030757600080fd5b50610234610316366004611bc2565b61096e565b34801561032757600080fd5b50610206610c16565b34801561033c57600080fd5b5061023461034b366004611c40565b610c3c565b34801561035c57600080fd5b5061023461036b366004611bc2565b610ff7565b34801561037c57600080fd5b50610206600080516020611f2183398151915281565b34801561039e57600080fd5b506102066110f9565b3480156103b357600080fd5b506102346103c2366004611bc2565b611121565b3480156103d357600080fd5b50610206611227565b3480156103e857600080fd5b506103f1611258565b6040516001600160a01b0390911681526020016101e8565b34801561041557600080fd5b506101dc610424366004611c10565b611331565b34801561043557600080fd5b50610206600081565b34801561044a57600080fd5b50610234610459366004611c7a565b61135a565b6102346113d4565b34801561047257600080fd5b50610234610481366004611bc2565b611538565b34801561049257600080fd5b506103f1611645565b3480156104a757600080fd5b50610206611680565b3480156104bc57600080fd5b506102346104cb366004611c10565b6116ab565b6102346116d1565b3480156104e457600080fd5b50610206611885565b60006001600160e01b03198216637965db0b60e01b148061051e57506301ffc9a760e01b6001600160e01b03198316145b92915050565b600080604051602001610548906a706f6f6c4d617853697a6560a81b8152600b0190565b60408051808303601f1901815290829052805160209091012060025463afc3602b60e01b8352600483018290529092506001600160a01b03169063afc3602b9060240160206040518083038186803b1580156105a357600080fd5b505afa1580156105b7573d6000803e3d6000fd5b505050506040513d601f19601f820116820180604052508101906105db9190611c97565b91505090565b600080516020611f218339815191526105fa81336118af565b6002546040516001600160a01b03909116906355d946559061061e90602001611cb0565b604051602081830303815290604052805190602001206040518263ffffffff1660e01b815260040161065291815260200190565b60206040518083038186803b15801561066a57600080fd5b505afa15801561067e573d6000803e3d6000fd5b505050506040513d601f19601f820116820180604052508101906106a29190611cc6565b156106c85760405162461bcd60e51b81526004016106bf90611ce3565b60405180910390fd5b6040516a706f6f6c4d617853697a6560a81b6020820152600090602b015b60408051808303601f190181529082905280516020909101206002546328192c5560e01b835260048301829052602483018690529092506001600160a01b0316906328192c55906044015b600060405180830381600087803b15801561074b57600080fd5b505af115801561075f573d6000803e3d6000fd5b50505050505050565b60008060405160200161077a90611cb0565b60408051808303601f190181529082905280516020909101206002546355d9465560e01b8352600483018290529092506001600160a01b0316906355d946559060240160206040518083038186803b1580156107d557600080fd5b505afa1580156107e9573d6000803e3d6000fd5b505050506040513d601f19601f820116820180604052508101906105db9190611cc6565b600061081981336118af565b610831600080516020611f21833981519152836116ab565b6040516001600160a01b038316907fef69f7d97228658c92417be1b16b19058315de71fecb435d07b7d23728b6bd3190600090a25050565b60008281526020819052604090206001015461088581336118af565b61088f8383611913565b505050565b6001600160a01b03811633146109045760405162461bcd60e51b815260206004820152602f60248201527f416363657373436f6e74726f6c3a2063616e206f6e6c792072656e6f756e636560448201526e103937b632b9903337b91039b2b63360891b60648201526084016106bf565b61090e8282611997565b5050565b600061091e81336118af565b610936600080516020611f2183398151915283610869565b6040516001600160a01b038316907fd873e3f571dc25e020cefdeb7255b3874ead3aade1f94a5fb4a5da831fd670cd90600090a25050565b600080516020611f2183398151915261098781336118af565b6040517018dbdb9d1c9a589d5d1a5bdb931a5b5a5d607a1b602082015260009060310160408051601f198184030181529082905280516020918201206002549093506001600160a01b0316916355d94655916109e39101611cb0565b604051602081830303815290604052805190602001206040518263ffffffff1660e01b8152600401610a1791815260200190565b60206040518083038186803b158015610a2f57600080fd5b505afa158015610a43573d6000803e3d6000fd5b505050506040513d601f19601f82011682018060405250810190610a679190611cc6565b15610a845760405162461bcd60e51b81526004016106bf90611ce3565b60025460405163afc3602b60e01b81526004810183905284916001600160a01b03169063afc3602b9060240160206040518083038186803b158015610ac857600080fd5b505afa158015610adc573d6000803e3d6000fd5b505050506040513d601f19601f82011682018060405250810190610b009190611c97565b11610b735760405162461bcd60e51b815260206004820152603e60248201527f546865206d696e2e20636f6e74722e206c696d6974206e6565647320746f206260448201527f6520736d616c6c6572207468616e20746865206d61782e206c696d69742e000060648201526084016106bf565b6040516e36b4b721b7b73a3934b13aba34b7b760891b6020820152600090602f0160408051808303601f190181529082905280516020909101206002546328192c5560e01b835260048301829052602483018790529092506001600160a01b0316906328192c5590604401600060405180830381600087803b158015610bf857600080fd5b505af1158015610c0c573d6000803e3d6000fd5b5050505050505050565b600080604051602001610548906c64617973546f5265776172647360981b8152600d0190565b600033604051602001610c4f9190611d1a565b60408051808303601f190181529082905280516020909101206002546355d9465560e01b8352600483018290529092506001600160a01b0316906355d946559060240160206040518083038186803b158015610caa57600080fd5b505afa158015610cbe573d6000803e3d6000fd5b505050506040513d601f19601f82011682018060405250810190610ce29190611cc6565b610cfe5760405162461bcd60e51b81526004016106bf90611d4f565b60026001541415610d515760405162461bcd60e51b815260206004820152601f60248201527f5265656e7472616e637947756172643a207265656e7472616e742063616c6c0060448201526064016106bf565b6002600155604051711d1bdd185b17d95d1a195c97dcdd185ad95960721b60208201526000906032016040516020818303038152906040528051906020012090506000604051602001610dbb90703a37ba30b629bab838363cafa2ba3432b960791b815260110190565b60408051808303601f1901815290829052805160209091012060025463afc3602b60e01b83526004830185905290925060009186916001600160a01b03169063afc3602b9060240160206040518083038186803b158015610e1b57600080fd5b505afa158015610e2f573d6000803e3d6000fd5b505050506040513d601f19601f82011682018060405250810190610e539190611c97565b610e5d9190611d9a565b1015610ec15760405162461bcd60e51b815260206004820152602d60248201527f506f6f6c206c61636b696e67206f6620657468657220746f20706572666f726d60448201526c103a3434b99030b1ba34b7b71760991b60648201526084016106bf565b600254604051635bcfee6760e01b815260048101849052602481018690526001600160a01b0390911690635bcfee6790604401600060405180830381600087803b158015610f0e57600080fd5b505af1158015610f22573d6000803e3d6000fd5b5050600254604051635bcfee6760e01b815260048101859052602481018890526001600160a01b039091169250635bcfee679150604401600060405180830381600087803b158015610f7357600080fd5b505af1158015610f87573d6000803e3d6000fd5b505050506000856001600160a01b03168560405160006040518083038185875af1925050503d8060008114610fd8576040519150601f19603f3d011682016040523d82523d6000602084013e610fdd565b606091505b5050905080610feb57600080fd5b50506001805550505050565b600080516020611f2183398151915261101081336118af565b6002546040516001600160a01b03909116906355d946559061103490602001611cb0565b604051602081830303815290604052805190602001206040518263ffffffff1660e01b815260040161106891815260200190565b60206040518083038186803b15801561108057600080fd5b505afa158015611094573d6000803e3d6000fd5b505050506040513d601f19601f820116820180604052508101906110b89190611cc6565b156110d55760405162461bcd60e51b81526004016106bf90611ce3565b6040516c64617973546f5265776172647360981b6020820152600090602d016106e6565b600080604051602001610548906e36b4b721b7b73a3934b13aba34b7b760891b8152600f0190565b600080516020611f2183398151915261113a81336118af565b6002546040516001600160a01b03909116906355d946559061115e90602001611cb0565b604051602081830303815290604052805190602001206040518263ffffffff1660e01b815260040161119291815260200190565b60206040518083038186803b1580156111aa57600080fd5b505afa1580156111be573d6000803e3d6000fd5b505050506040513d601f19601f820116820180604052508101906111e29190611cc6565b156111ff5760405162461bcd60e51b81526004016106bf90611ce3565b6040517018dbdb9d1c9a589d5d1a5bdb931a5b5a5d607a1b60208201526000906031016106e6565b60008060405160200161054890771c995dd85c991cd25b9d195c995cdd14195c94195c9a5bd960421b815260180190565b600080604051602001611292906f636f6e74726163745f6164647265737360801b815267506f6f6c4261736560c01b601082015260180190565b60408051808303601f190181529082905280516020909101206002546315485dd960e11b8352600483018290529092506000916001600160a01b0390911690632a90bbb29060240160206040518083038186803b1580156112f257600080fd5b505afa158015611306573d6000803e3d6000fd5b505050506040513d601f19601f8201168201806040525081019061132a9190611db1565b9392505050565b6000918252602082815260408084206001600160a01b0393909316845291905290205460ff1690565b600080516020611f2183398151915261137381336118af565b600060405160200161138490611cb0565b60408051808303601f1901815290829052805160209091012060025463988c515b60e01b83526004830182905285151560248401529092506001600160a01b03169063988c515b90604401610731565b6000336040516020016113e79190611d1a565b60408051808303601f190181529082905280516020909101206002546355d9465560e01b8352600483018290529092506001600160a01b0316906355d946559060240160206040518083038186803b15801561144257600080fd5b505afa158015611456573d6000803e3d6000fd5b505050506040513d601f19601f8201168201806040525081019061147a9190611cc6565b6114965760405162461bcd60e51b81526004016106bf90611d4f565b604051711d1bdd185b17d95d1a195c97dcdd185ad95960721b602082015260009060320160408051808303601f1901815290829052805160209091012060025462ec44af60e51b8352600483018290523460248401529092506001600160a01b031690631d8895e090604401600060405180830381600087803b15801561151c57600080fd5b505af1158015611530573d6000803e3d6000fd5b505050505050565b600080516020611f2183398151915261155181336118af565b6002546040516001600160a01b03909116906355d946559061157590602001611cb0565b604051602081830303815290604052805190602001206040518263ffffffff1660e01b81526004016115a991815260200190565b60206040518083038186803b1580156115c157600080fd5b505afa1580156115d5573d6000803e3d6000fd5b505050506040513d601f19601f820116820180604052508101906115f99190611cc6565b156116165760405162461bcd60e51b81526004016106bf90611ce3565b604051771c995dd85c991cd25b9d195c995cdd14195c94195c9a5bd960421b60208201526000906038016106e6565b600080604051602001611292906f636f6e74726163745f6164647265737360801b815268141bdbdb15985d5b1d60ba1b601082015260190190565b60008060405160200161054890711d1bdd185b17d95d1a195c97dcdd185ad95960721b815260120190565b6000828152602081905260409020600101546116c781336118af565b61088f8383611997565b6000336040516020016116e49190611d1a565b60408051808303601f190181529082905280516020909101206002546355d9465560e01b8352600483018290529092506001600160a01b0316906355d946559060240160206040518083038186803b15801561173f57600080fd5b505afa158015611753573d6000803e3d6000fd5b505050506040513d601f19601f820116820180604052508101906117779190611cc6565b6117935760405162461bcd60e51b81526004016106bf90611d4f565b600260015414156117e65760405162461bcd60e51b815260206004820152601f60248201527f5265656e7472616e637947756172643a207265656e7472616e742063616c6c0060448201526064016106bf565b6002600155604051711d1bdd185b17d95d1a195c97dcdd185ad95960721b602082015260009060320160408051808303601f1901815290829052805160209091012060025462ec44af60e51b8352600483018290523460248401529092506001600160a01b031690631d8895e090604401600060405180830381600087803b15801561187157600080fd5b505af1158015610feb573d6000803e3d6000fd5b600080604051602001610548907018dbdb9d1c9a589d5d1a5bdb931a5b5a5d607a1b815260110190565b6118b98282611331565b61090e576118d1816001600160a01b031660146119fc565b6118dc8360206119fc565b6040516020016118ed929190611dfe565b60408051601f198184030181529082905262461bcd60e51b82526106bf91600401611e73565b61191d8282611331565b61090e576000828152602081815260408083206001600160a01b03851684529091529020805460ff191660011790556119533390565b6001600160a01b0316816001600160a01b0316837f2f8788117e7eff1d82e926ec794901d17c78024a50270940304540a733656f0d60405160405180910390a45050565b6119a18282611331565b1561090e576000828152602081815260408083206001600160a01b0385168085529252808320805460ff1916905551339285917ff6391f5c32d9c69d2a47ea670b442974b53935d1edc7fd64eb21e047a839171b9190a45050565b60606000611a0b836002611ea6565b611a16906002611ec5565b67ffffffffffffffff811115611a2e57611a2e611edd565b6040519080825280601f01601f191660200182016040528015611a58576020820181803683370190505b509050600360fc1b81600081518110611a7357611a73611ef3565b60200101906001600160f81b031916908160001a905350600f60fb1b81600181518110611aa257611aa2611ef3565b60200101906001600160f81b031916908160001a9053506000611ac6846002611ea6565b611ad1906001611ec5565b90505b6001811115611b49576f181899199a1a9b1b9c1cb0b131b232b360811b85600f1660108110611b0557611b05611ef3565b1a60f81b828281518110611b1b57611b1b611ef3565b60200101906001600160f81b031916908160001a90535060049490941c93611b4281611f09565b9050611ad4565b50831561132a5760405162461bcd60e51b815260206004820181905260248201527f537472696e67733a20686578206c656e67746820696e73756666696369656e7460448201526064016106bf565b600060208284031215611baa57600080fd5b81356001600160e01b03198116811461132a57600080fd5b600060208284031215611bd457600080fd5b5035919050565b6001600160a01b0381168114611bf057600080fd5b50565b600060208284031215611c0557600080fd5b813561132a81611bdb565b60008060408385031215611c2357600080fd5b823591506020830135611c3581611bdb565b809150509250929050565b60008060408385031215611c5357600080fd5b8235611c5e81611bdb565b946020939093013593505050565b8015158114611bf057600080fd5b600060208284031215611c8c57600080fd5b813561132a81611c6c565b600060208284031215611ca957600080fd5b5051919050565b696973506f6f6c4c69766560b01b8152600a0190565b600060208284031215611cd857600080fd5b815161132a81611c6c565b6020808252601d908201527f54686520706f6f6c2069732063757272656e746c7920636c6f7365642e000000604082015260600190565b6e636f6e74726163745f65786973747360881b815260609190911b6bffffffffffffffffffffffff1916600f82015260230190565b6020808252818101527f54686520636f6e7472616374206164647265737320697320696e76616c69642e604082015260600190565b634e487b7160e01b600052601160045260246000fd5b600082821015611dac57611dac611d84565b500390565b600060208284031215611dc357600080fd5b815161132a81611bdb565b60005b83811015611de9578181015183820152602001611dd1565b83811115611df8576000848401525b50505050565b7f416363657373436f6e74726f6c3a206163636f756e7420000000000000000000815260008351611e36816017850160208801611dce565b7001034b99036b4b9b9b4b733903937b6329607d1b6017918401918201528351611e67816028840160208801611dce565b01602801949350505050565b6020815260008251806020840152611e92816040850160208701611dce565b601f01601f19169190910160400192915050565b6000816000190483118215151615611ec057611ec0611d84565b500290565b60008219821115611ed857611ed8611d84565b500190565b634e487b7160e01b600052604160045260246000fd5b634e487b7160e01b600052603260045260246000fd5b600081611f1857611f18611d84565b50600019019056fe41a01ec0a13b563fa452569e3fbb116366d217c2769aa1561822e65a617e3842a26469706673582212205683fbe808f0e43c1ca994bf72a03d508f376b2b332730e2895efb1ee23cfe1364736f6c63430008090033",
    "sourcePath": "c:/Users/Lior/Desktop/Index/Coding Software/GitHub/challenge/contracts/PoolVault.sol",
    "compiler": {
        "name": "solc",
        "version": "0.8.9+commit.e5eed63a"
    },
    "functionHashes": {
        "DEFAULT_ADMIN_ROLE()": "a217fddf",
        "POOL_MANAGER()": "62308e85",
        "addPoolManager(address)": "45077e71",
        "getContributionLimit()": "fa1e19e5",
        "getMinContribution()": "6cff7473",
        "getPoolBaseAddress()": "8ae68134",
        "getPoolMaxSize()": "095df57f",
        "getPoolState()": "217ac237",
        "getPoolVaultAddress()": "c3577d48",
        "getRewardsInterest()": "7521796f",
        "getRewardsInterval()": "497d0241",
        "getRoleAdmin(bytes32)": "248a9ca3",
        "grantRole(bytes32,address)": "2f2ff15d",
        "hasRole(bytes32,address)": "91d14854",
        "poolEtherSize()": "ccfe0c8e",
        "processRewards()": "f9fc0d07",
        "removePoolManager(address)": "29ca15bc",
        "renounceRole(bytes32,address)": "36568abe",
        "revokeRole(bytes32,address)": "d547741f",
        "setContributionLimit(uint256)": "72d099a0",
        "setMinContribution(uint256)": "473b0d46",
        "setPoolLive(bool)": "a4975516",
        "setPoolMaxSize(uint256)": "12646987",
        "setRewardsInterest(uint256)": "bf4c0036",
        "setRewardsInterval(uint256)": "53710f49",
        "storeEther()": "a7cc190a",
        "supportsInterface(bytes4)": "01ffc9a7",
        "withdrawEther(address,uint256)": "522f6815"
    },
    "gasEstimates": {
        "creation": {
            "codeDepositCost": "1610800",
            "executionCost": "infinite",
            "totalCost": "infinite"
        },
        "external": {
            "DEFAULT_ADMIN_ROLE()": "284",
            "POOL_MANAGER()": "infinite",
            "addPoolManager(address)": "infinite",
            "getContributionLimit()": "infinite",
            "getMinContribution()": "infinite",
            "getPoolBaseAddress()": "infinite",
            "getPoolMaxSize()": "infinite",
            "getPoolState()": "infinite",
            "getPoolVaultAddress()": "infinite",
            "getRewardsInterest()": "infinite",
            "getRewardsInterval()": "infinite",
            "getRoleAdmin(bytes32)": "2515",
            "grantRole(bytes32,address)": "infinite",
            "hasRole(bytes32,address)": "2717",
            "poolEtherSize()": "infinite",
            "processRewards()": "infinite",
            "removePoolManager(address)": "infinite",
            "renounceRole(bytes32,address)": "29040",
            "revokeRole(bytes32,address)": "infinite",
            "setContributionLimit(uint256)": "infinite",
            "setMinContribution(uint256)": "infinite",
            "setPoolLive(bool)": "infinite",
            "setPoolMaxSize(uint256)": "infinite",
            "setRewardsInterest(uint256)": "infinite",
            "setRewardsInterval(uint256)": "infinite",
            "storeEther()": "infinite",
            "supportsInterface(bytes4)": "473",
            "withdrawEther(address,uint256)": "infinite"
        },
        "internal": {
            "_setPoolVaultAddress()": "infinite"
        }
    }
}