{
    "contractName": "PoolVault",
    "abi": [
        {
            "inputs": [
                {
                    "internalType": "contract DataStorageInterface",
                    "name": "_dataStorageAddress",
                    "type": "address"
                }
            ],
            "stateMutability": "nonpayable",
            "type": "constructor"
        },
        {
            "anonymous": false,
            "inputs": [
                {
                    "indexed": true,
                    "internalType": "address",
                    "name": "_removedManager",
                    "type": "address"
                }
            ],
            "name": "ManagerRemoved",
            "type": "event"
        },
        {
            "anonymous": false,
            "inputs": [
                {
                    "indexed": true,
                    "internalType": "address",
                    "name": "_newManager",
                    "type": "address"
                }
            ],
            "name": "NewManagerAdded",
            "type": "event"
        },
        {
            "anonymous": false,
            "inputs": [
                {
                    "indexed": true,
                    "internalType": "bytes32",
                    "name": "role",
                    "type": "bytes32"
                },
                {
                    "indexed": true,
                    "internalType": "bytes32",
                    "name": "previousAdminRole",
                    "type": "bytes32"
                },
                {
                    "indexed": true,
                    "internalType": "bytes32",
                    "name": "newAdminRole",
                    "type": "bytes32"
                }
            ],
            "name": "RoleAdminChanged",
            "type": "event"
        },
        {
            "anonymous": false,
            "inputs": [
                {
                    "indexed": true,
                    "internalType": "bytes32",
                    "name": "role",
                    "type": "bytes32"
                },
                {
                    "indexed": true,
                    "internalType": "address",
                    "name": "account",
                    "type": "address"
                },
                {
                    "indexed": true,
                    "internalType": "address",
                    "name": "sender",
                    "type": "address"
                }
            ],
            "name": "RoleGranted",
            "type": "event"
        },
        {
            "anonymous": false,
            "inputs": [
                {
                    "indexed": true,
                    "internalType": "bytes32",
                    "name": "role",
                    "type": "bytes32"
                },
                {
                    "indexed": true,
                    "internalType": "address",
                    "name": "account",
                    "type": "address"
                },
                {
                    "indexed": true,
                    "internalType": "address",
                    "name": "sender",
                    "type": "address"
                }
            ],
            "name": "RoleRevoked",
            "type": "event"
        },
        {
            "inputs": [],
            "name": "DEFAULT_ADMIN_ROLE",
            "outputs": [
                {
                    "internalType": "bytes32",
                    "name": "",
                    "type": "bytes32"
                }
            ],
            "stateMutability": "view",
            "type": "function"
        },
        {
            "inputs": [],
            "name": "POOL_MANAGER",
            "outputs": [
                {
                    "internalType": "bytes32",
                    "name": "",
                    "type": "bytes32"
                }
            ],
            "stateMutability": "view",
            "type": "function"
        },
        {
            "inputs": [
                {
                    "internalType": "address",
                    "name": "_address",
                    "type": "address"
                }
            ],
            "name": "addPoolManager",
            "outputs": [],
            "stateMutability": "nonpayable",
            "type": "function"
        },
        {
            "inputs": [],
            "name": "getContributionLimit",
            "outputs": [
                {
                    "internalType": "uint256",
                    "name": "",
                    "type": "uint256"
                }
            ],
            "stateMutability": "view",
            "type": "function"
        },
        {
            "inputs": [],
            "name": "getMinContribution",
            "outputs": [
                {
                    "internalType": "uint256",
                    "name": "",
                    "type": "uint256"
                }
            ],
            "stateMutability": "view",
            "type": "function"
        },
        {
            "inputs": [],
            "name": "getPoolBaseAddress",
            "outputs": [
                {
                    "internalType": "address",
                    "name": "",
                    "type": "address"
                }
            ],
            "stateMutability": "view",
            "type": "function"
        },
        {
            "inputs": [],
            "name": "getPoolFees",
            "outputs": [
                {
                    "internalType": "uint256",
                    "name": "",
                    "type": "uint256"
                }
            ],
            "stateMutability": "view",
            "type": "function"
        },
        {
            "inputs": [],
            "name": "getPoolMaxSize",
            "outputs": [
                {
                    "internalType": "uint256",
                    "name": "",
                    "type": "uint256"
                }
            ],
            "stateMutability": "view",
            "type": "function"
        },
        {
            "inputs": [],
            "name": "getPoolState",
            "outputs": [
                {
                    "internalType": "bool",
                    "name": "",
                    "type": "bool"
                }
            ],
            "stateMutability": "view",
            "type": "function"
        },
        {
            "inputs": [],
            "name": "getPoolVaultAddress",
            "outputs": [
                {
                    "internalType": "address",
                    "name": "",
                    "type": "address"
                }
            ],
            "stateMutability": "view",
            "type": "function"
        },
        {
            "inputs": [],
            "name": "getRewardsInterest",
            "outputs": [
                {
                    "internalType": "uint256",
                    "name": "",
                    "type": "uint256"
                }
            ],
            "stateMutability": "view",
            "type": "function"
        },
        {
            "inputs": [],
            "name": "getRewardsInterval",
            "outputs": [
                {
                    "internalType": "uint256",
                    "name": "",
                    "type": "uint256"
                }
            ],
            "stateMutability": "view",
            "type": "function"
        },
        {
            "inputs": [
                {
                    "internalType": "bytes32",
                    "name": "role",
                    "type": "bytes32"
                }
            ],
            "name": "getRoleAdmin",
            "outputs": [
                {
                    "internalType": "bytes32",
                    "name": "",
                    "type": "bytes32"
                }
            ],
            "stateMutability": "view",
            "type": "function"
        },
        {
            "inputs": [
                {
                    "internalType": "bytes32",
                    "name": "role",
                    "type": "bytes32"
                },
                {
                    "internalType": "address",
                    "name": "account",
                    "type": "address"
                }
            ],
            "name": "grantRole",
            "outputs": [],
            "stateMutability": "nonpayable",
            "type": "function"
        },
        {
            "inputs": [
                {
                    "internalType": "bytes32",
                    "name": "role",
                    "type": "bytes32"
                },
                {
                    "internalType": "address",
                    "name": "account",
                    "type": "address"
                }
            ],
            "name": "hasRole",
            "outputs": [
                {
                    "internalType": "bool",
                    "name": "",
                    "type": "bool"
                }
            ],
            "stateMutability": "view",
            "type": "function"
        },
        {
            "inputs": [],
            "name": "poolEtherSize",
            "outputs": [
                {
                    "internalType": "uint256",
                    "name": "",
                    "type": "uint256"
                }
            ],
            "stateMutability": "view",
            "type": "function"
        },
        {
            "inputs": [],
            "name": "processRewards",
            "outputs": [],
            "stateMutability": "payable",
            "type": "function"
        },
        {
            "inputs": [
                {
                    "internalType": "address",
                    "name": "_address",
                    "type": "address"
                }
            ],
            "name": "removePoolManager",
            "outputs": [],
            "stateMutability": "nonpayable",
            "type": "function"
        },
        {
            "inputs": [
                {
                    "internalType": "bytes32",
                    "name": "role",
                    "type": "bytes32"
                },
                {
                    "internalType": "address",
                    "name": "account",
                    "type": "address"
                }
            ],
            "name": "renounceRole",
            "outputs": [],
            "stateMutability": "nonpayable",
            "type": "function"
        },
        {
            "inputs": [
                {
                    "internalType": "bytes32",
                    "name": "role",
                    "type": "bytes32"
                },
                {
                    "internalType": "address",
                    "name": "account",
                    "type": "address"
                }
            ],
            "name": "revokeRole",
            "outputs": [],
            "stateMutability": "nonpayable",
            "type": "function"
        },
        {
            "inputs": [
                {
                    "internalType": "uint256",
                    "name": "_newContrLimit",
                    "type": "uint256"
                }
            ],
            "name": "setContributionLimit",
            "outputs": [],
            "stateMutability": "nonpayable",
            "type": "function"
        },
        {
            "inputs": [
                {
                    "internalType": "uint256",
                    "name": "_newMinContr",
                    "type": "uint256"
                }
            ],
            "name": "setMinContribution",
            "outputs": [],
            "stateMutability": "nonpayable",
            "type": "function"
        },
        {
            "inputs": [
                {
                    "internalType": "uint256",
                    "name": "_poolFees",
                    "type": "uint256"
                }
            ],
            "name": "setPoolFees",
            "outputs": [],
            "stateMutability": "nonpayable",
            "type": "function"
        },
        {
            "inputs": [
                {
                    "internalType": "bool",
                    "name": "_live",
                    "type": "bool"
                }
            ],
            "name": "setPoolLive",
            "outputs": [],
            "stateMutability": "nonpayable",
            "type": "function"
        },
        {
            "inputs": [
                {
                    "internalType": "uint256",
                    "name": "_maxSize",
                    "type": "uint256"
                }
            ],
            "name": "setPoolMaxSize",
            "outputs": [],
            "stateMutability": "nonpayable",
            "type": "function"
        },
        {
            "inputs": [
                {
                    "internalType": "uint256",
                    "name": "_rewardsInterest",
                    "type": "uint256"
                }
            ],
            "name": "setRewardsInterest",
            "outputs": [],
            "stateMutability": "nonpayable",
            "type": "function"
        },
        {
            "inputs": [
                {
                    "internalType": "uint256",
                    "name": "_daysToRewards",
                    "type": "uint256"
                }
            ],
            "name": "setRewardsInterval",
            "outputs": [],
            "stateMutability": "nonpayable",
            "type": "function"
        },
        {
            "inputs": [
                {
                    "internalType": "address",
                    "name": "_user",
                    "type": "address"
                }
            ],
            "name": "storeEther",
            "outputs": [],
            "stateMutability": "payable",
            "type": "function"
        },
        {
            "inputs": [
                {
                    "internalType": "bytes4",
                    "name": "interfaceId",
                    "type": "bytes4"
                }
            ],
            "name": "supportsInterface",
            "outputs": [
                {
                    "internalType": "bool",
                    "name": "",
                    "type": "bool"
                }
            ],
            "stateMutability": "view",
            "type": "function"
        },
        {
            "inputs": [
                {
                    "internalType": "address",
                    "name": "_to",
                    "type": "address"
                },
                {
                    "internalType": "uint256",
                    "name": "_ethAmount",
                    "type": "uint256"
                }
            ],
            "name": "withdrawEther",
            "outputs": [],
            "stateMutability": "nonpayable",
            "type": "function"
        }
    ],
    "bytecode": "60806040523480156200001157600080fd5b5060405162002655380380620026558339810160408190526200003491620003bf565b60018055600280546001600160a01b0319166001600160a01b0383161790558062000061600033620000a9565b6200008d7f41a01ec0a13b563fa452569e3fbb116366d217c2769aa1561822e65a617e384233620000a9565b62000097620000b9565b50620000a262000220565b50620003f1565b620000b582826200031f565b5050565b6002546040516e636f6e74726163745f65786973747360881b60208201526001600160601b03193060601b16602f8201526001600160a01b039091169063988c515b9060430160408051601f198184030181529082905280516020909101206001600160e01b031960e084901b168252600482015260016024820152604401600060405180830381600087803b1580156200015357600080fd5b505af115801562000168573d6000803e3d6000fd5b50506002546040516f636f6e74726163745f6164647265737360801b602082015267506f6f6c4261736560c01b60308201526001600160a01b039091169250637221263a91506038015b60408051601f198184030181529082905280516020909101206001600160e01b031960e084901b1682526004820152306024820152604401600060405180830381600087803b1580156200020557600080fd5b505af11580156200021a573d6000803e3d6000fd5b50505050565b6002546040516e636f6e74726163745f65786973747360881b60208201526001600160601b03193060601b16602f8201526001600160a01b039091169063988c515b9060430160408051601f198184030181529082905280516020909101206001600160e01b031960e084901b168252600482015260016024820152604401600060405180830381600087803b158015620002ba57600080fd5b505af1158015620002cf573d6000803e3d6000fd5b50506002546040516f636f6e74726163745f6164647265737360801b602082015268141bdbdb15985d5b1d60ba1b60308201526001600160a01b039091169250637221263a9150603901620001b2565b6000828152602081815260408083206001600160a01b038516845290915290205460ff16620000b5576000828152602081815260408083206001600160a01b03851684529091529020805460ff191660011790556200037b3390565b6001600160a01b0316816001600160a01b0316837f2f8788117e7eff1d82e926ec794901d17c78024a50270940304540a733656f0d60405160405180910390a45050565b600060208284031215620003d257600080fd5b81516001600160a01b0381168114620003ea57600080fd5b9392505050565b61225480620004016000396000f3fe6080604052600436106101cd5760003560e01c80636cff7473116100f7578063a497551611610095578063d1d8d06011610064578063d1d8d060146104f1578063d547741f14610506578063f9fc0d0714610526578063fa1e19e51461052e57600080fd5b8063a497551614610487578063bf4c0036146104a7578063c3577d48146104c7578063ccfe0c8e146104dc57600080fd5b80638ae68134116100d15780638ae68134146104055780638dd225d51461043257806391d1485414610452578063a217fddf1461047257600080fd5b80636cff7473146103bb57806372d099a0146103d05780637521796f146103f057600080fd5b80632f2ff15d1161016f578063497d02411161013e578063497d024114610344578063522f68151461035957806353710f491461037957806362308e851461039957600080fd5b80632f2ff15d146102c457806336568abe146102e457806345077e7114610304578063473b0d461461032457600080fd5b806312646987116101ab578063126469871461023f578063217ac2371461025f578063248a9ca31461027457806329ca15bc146102a457600080fd5b806301ffc9a7146101d2578063095df57f146102075780630964b56d1461022a575b600080fd5b3480156101de57600080fd5b506101f26101ed366004611e2e565b610543565b60405190151581526020015b60405180910390f35b34801561021357600080fd5b5061021c61057a565b6040519081526020016101fe565b61023d610238366004611e70565b610637565b005b34801561024b57600080fd5b5061023d61025a366004611e8d565b610867565b34801561026b57600080fd5b506101f26109e5565b34801561028057600080fd5b5061021c61028f366004611e8d565b60009081526020819052604090206001015490565b3480156102b057600080fd5b5061023d6102bf366004611e70565b610a8a565b3480156102d057600080fd5b5061023d6102df366004611ea6565b610ae6565b3480156102f057600080fd5b5061023d6102ff366004611ea6565b610b11565b34801561031057600080fd5b5061023d61031f366004611e70565b610b8f565b34801561033057600080fd5b5061023d61033f366004611e8d565b610beb565b34801561035057600080fd5b5061021c610cef565b34801561036557600080fd5b5061023d610374366004611ed6565b610d15565b34801561038557600080fd5b5061023d610394366004611e8d565b6111dd565b3480156103a557600080fd5b5061021c6000805160206121ff83398151915281565b3480156103c757600080fd5b5061021c6112df565b3480156103dc57600080fd5b5061023d6103eb366004611e8d565b611307565b3480156103fc57600080fd5b5061021c61140d565b34801561041157600080fd5b5061041a61143e565b6040516001600160a01b0390911681526020016101fe565b34801561043e57600080fd5b5061023d61044d366004611e8d565b611517565b34801561045e57600080fd5b506101f261046d366004611ea6565b6116fe565b34801561047e57600080fd5b5061021c600081565b34801561049357600080fd5b5061023d6104a2366004611f10565b611727565b3480156104b357600080fd5b5061023d6104c2366004611e8d565b6117a1565b3480156104d357600080fd5b5061041a6118ae565b3480156104e857600080fd5b5061021c6118e9565b3480156104fd57600080fd5b5061021c611914565b34801561051257600080fd5b5061023d610521366004611ea6565b611935565b61023d61195b565b34801561053a57600080fd5b5061021c611b1b565b60006001600160e01b03198216637965db0b60e01b148061057457506301ffc9a760e01b6001600160e01b03198316145b92915050565b60008060405160200161059e906a706f6f6c4d617853697a6560a81b8152600b0190565b60408051808303601f1901815290829052805160209091012060025463afc3602b60e01b8352600483018290529092506001600160a01b03169063afc3602b9060240160206040518083038186803b1580156105f957600080fd5b505afa15801561060d573d6000803e3d6000fd5b505050506040513d601f19601f820116820180604052508101906106319190611f2d565b91505090565b60003360405160200161064a9190611f46565b60408051808303601f190181529082905280516020909101206002546355d9465560e01b8352600483018290529092506001600160a01b0316906355d946559060240160206040518083038186803b1580156106a557600080fd5b505afa1580156106b9573d6000803e3d6000fd5b505050506040513d601f19601f820116820180604052508101906106dd9190611f7b565b6107025760405162461bcd60e51b81526004016106f990611f98565b60405180910390fd5b604051711d1bdd185b17d95d1a195c97dcdd185ad95960721b60208201526bffffffffffffffffffffffff19606084901b1660328201526000906046016040516020818303038152906040528051906020012090506000604051602001610783907332ba3432b92fb9ba30b5b2b22fb13cafbab9b2b960611b815260140190565b60408051808303601f1901815290829052805160209091012060025462ec44af60e51b8352600483018590523460248401529092506001600160a01b031690631d8895e090604401600060405180830381600087803b1580156107e557600080fd5b505af11580156107f9573d6000803e3d6000fd5b505060025460405162ec44af60e51b8152600481018590523460248201526001600160a01b039091169250631d8895e091506044015b600060405180830381600087803b15801561084957600080fd5b505af115801561085d573d6000803e3d6000fd5b5050505050505050565b6000805160206121ff8339815191526108808133611b45565b6002546040516001600160a01b03909116906355d94655906108a490602001611fcd565b604051602081830303815290604052805190602001206040518263ffffffff1660e01b81526004016108d891815260200190565b60206040518083038186803b1580156108f057600080fd5b505afa158015610904573d6000803e3d6000fd5b505050506040513d601f19601f820116820180604052508101906109289190611f7b565b156109455760405162461bcd60e51b81526004016106f990611fe3565b6040516a706f6f6c4d617853697a6560a81b6020820152600090602b015b60408051808303601f190181529082905280516020909101206002546328192c5560e01b835260048301829052602483018690529092506001600160a01b0316906328192c55906044015b600060405180830381600087803b1580156109c857600080fd5b505af11580156109dc573d6000803e3d6000fd5b50505050505050565b6000806040516020016109f790611fcd565b60408051808303601f190181529082905280516020909101206002546355d9465560e01b8352600483018290529092506001600160a01b0316906355d946559060240160206040518083038186803b158015610a5257600080fd5b505afa158015610a66573d6000803e3d6000fd5b505050506040513d601f19601f820116820180604052508101906106319190611f7b565b6000610a968133611b45565b610aae6000805160206121ff83398151915283611935565b6040516001600160a01b038316907fef69f7d97228658c92417be1b16b19058315de71fecb435d07b7d23728b6bd3190600090a25050565b600082815260208190526040902060010154610b028133611b45565b610b0c8383611ba9565b505050565b6001600160a01b0381163314610b815760405162461bcd60e51b815260206004820152602f60248201527f416363657373436f6e74726f6c3a2063616e206f6e6c792072656e6f756e636560448201526e103937b632b9903337b91039b2b63360891b60648201526084016106f9565b610b8b8282611c2d565b5050565b6000610b9b8133611b45565b610bb36000805160206121ff83398151915283610ae6565b6040516001600160a01b038316907fd873e3f571dc25e020cefdeb7255b3874ead3aade1f94a5fb4a5da831fd670cd90600090a25050565b6000805160206121ff833981519152610c048133611b45565b6002546040516001600160a01b03909116906355d9465590610c2890602001611fcd565b604051602081830303815290604052805190602001206040518263ffffffff1660e01b8152600401610c5c91815260200190565b60206040518083038186803b158015610c7457600080fd5b505afa158015610c88573d6000803e3d6000fd5b505050506040513d601f19601f82011682018060405250810190610cac9190611f7b565b15610cc95760405162461bcd60e51b81526004016106f990611fe3565b6040516e36b4b721b7b73a3934b13aba34b7b760891b6020820152600090602f01610963565b60008060405160200161059e906c64617973546f5265776172647360981b8152600d0190565b600033604051602001610d289190611f46565b60408051808303601f190181529082905280516020909101206002546355d9465560e01b8352600483018290529092506001600160a01b0316906355d946559060240160206040518083038186803b158015610d8357600080fd5b505afa158015610d97573d6000803e3d6000fd5b505050506040513d601f19601f82011682018060405250810190610dbb9190611f7b565b610dd75760405162461bcd60e51b81526004016106f990611f98565b60026001541415610e2a5760405162461bcd60e51b815260206004820152601f60248201527f5265656e7472616e637947756172643a207265656e7472616e742063616c6c0060448201526064016106f9565b6002600155604051711d1bdd185b17d95d1a195c97dcdd185ad95960721b60208201526000906032016040516020818303038152906040528051906020012090506000604051602001610e9490703a37ba30b629bab838363cafa2ba3432b960791b815260110190565b6040516020818303038152906040528051906020012090506000604051602001610ed8907332ba3432b92fb9ba30b5b2b22fb13cafbab9b2b960611b815260140190565b60408051808303601f1901815290829052805160209091012060025463afc3602b60e01b83526004830186905290925060009187916001600160a01b03169063afc3602b9060240160206040518083038186803b158015610f3857600080fd5b505afa158015610f4c573d6000803e3d6000fd5b505050506040513d601f19601f82011682018060405250810190610f709190611f2d565b610f7a9190612030565b1015610f985760405162461bcd60e51b81526004016106f990612047565b60025460405163afc3602b60e01b81526004810185905260009187916001600160a01b039091169063afc3602b9060240160206040518083038186803b158015610fe157600080fd5b505afa158015610ff5573d6000803e3d6000fd5b505050506040513d601f19601f820116820180604052508101906110199190611f2d565b6110239190612030565b10156110415760405162461bcd60e51b81526004016106f990612047565b600254604051635bcfee6760e01b815260048101859052602481018790526001600160a01b0390911690635bcfee6790604401600060405180830381600087803b15801561108e57600080fd5b505af11580156110a2573d6000803e3d6000fd5b5050600254604051635bcfee6760e01b815260048101869052602481018990526001600160a01b039091169250635bcfee679150604401600060405180830381600087803b1580156110f357600080fd5b505af1158015611107573d6000803e3d6000fd5b5050600254604051635bcfee6760e01b815260048101859052602481018990526001600160a01b039091169250635bcfee679150604401600060405180830381600087803b15801561115857600080fd5b505af115801561116c573d6000803e3d6000fd5b505050506000866001600160a01b03168660405160006040518083038185875af1925050503d80600081146111bd576040519150601f19603f3d011682016040523d82523d6000602084013e6111c2565b606091505b50509050806111d057600080fd5b5050600180555050505050565b6000805160206121ff8339815191526111f68133611b45565b6002546040516001600160a01b03909116906355d946559061121a90602001611fcd565b604051602081830303815290604052805190602001206040518263ffffffff1660e01b815260040161124e91815260200190565b60206040518083038186803b15801561126657600080fd5b505afa15801561127a573d6000803e3d6000fd5b505050506040513d601f19601f8201168201806040525081019061129e9190611f7b565b156112bb5760405162461bcd60e51b81526004016106f990611fe3565b6040516c64617973546f5265776172647360981b6020820152600090602d01610963565b60008060405160200161059e906e36b4b721b7b73a3934b13aba34b7b760891b8152600f0190565b6000805160206121ff8339815191526113208133611b45565b6002546040516001600160a01b03909116906355d946559061134490602001611fcd565b604051602081830303815290604052805190602001206040518263ffffffff1660e01b815260040161137891815260200190565b60206040518083038186803b15801561139057600080fd5b505afa1580156113a4573d6000803e3d6000fd5b505050506040513d601f19601f820116820180604052508101906113c89190611f7b565b156113e55760405162461bcd60e51b81526004016106f990611fe3565b6040517018dbdb9d1c9a589d5d1a5bdb931a5b5a5d607a1b6020820152600090603101610963565b60008060405160200161059e90771c995dd85c991cd25b9d195c995cdd14195c94195c9a5bd960421b815260180190565b600080604051602001611478906f636f6e74726163745f6164647265737360801b815267506f6f6c4261736560c01b601082015260180190565b60408051808303601f190181529082905280516020909101206002546315485dd960e11b8352600483018290529092506000916001600160a01b0390911690632a90bbb29060240160206040518083038186803b1580156114d857600080fd5b505afa1580156114ec573d6000803e3d6000fd5b505050506040513d601f19601f82011682018060405250810190611510919061208f565b9392505050565b6000805160206121ff8339815191526115308133611b45565b6002546040516001600160a01b03909116906355d946559061155490602001611fcd565b604051602081830303815290604052805190602001206040518263ffffffff1660e01b815260040161158891815260200190565b60206040518083038186803b1580156115a057600080fd5b505afa1580156115b4573d6000803e3d6000fd5b505050506040513d601f19601f820116820180604052508101906115d89190611f7b565b156115f55760405162461bcd60e51b81526004016106f990611fe3565b60405167706f6f6c4665657360c01b6020820152600090602801604051602081830303815290604052805190602001209050600060405160200161164a906a1c1bdbdb1199595cd4d95d60aa1b8152600b0190565b60408051808303601f190181529082905280516020909101206002546328192c5560e01b835260048301859052602483018790529092506001600160a01b0316906328192c5590604401600060405180830381600087803b1580156116ae57600080fd5b505af11580156116c2573d6000803e3d6000fd5b505060025460405163988c515b60e01b815260048101859052600160248201526001600160a01b03909116925063988c515b915060440161082f565b6000918252602082815260408084206001600160a01b0393909316845291905290205460ff1690565b6000805160206121ff8339815191526117408133611b45565b600060405160200161175190611fcd565b60408051808303601f1901815290829052805160209091012060025463988c515b60e01b83526004830182905285151560248401529092506001600160a01b03169063988c515b906044016109ae565b6000805160206121ff8339815191526117ba8133611b45565b6002546040516001600160a01b03909116906355d94655906117de90602001611fcd565b604051602081830303815290604052805190602001206040518263ffffffff1660e01b815260040161181291815260200190565b60206040518083038186803b15801561182a57600080fd5b505afa15801561183e573d6000803e3d6000fd5b505050506040513d601f19601f820116820180604052508101906118629190611f7b565b1561187f5760405162461bcd60e51b81526004016106f990611fe3565b604051771c995dd85c991cd25b9d195c995cdd14195c94195c9a5bd960421b6020820152600090603801610963565b600080604051602001611478906f636f6e74726163745f6164647265737360801b815268141bdbdb15985d5b1d60ba1b601082015260190190565b60008060405160200161059e90711d1bdd185b17d95d1a195c97dcdd185ad95960721b815260120190565b60008060405160200161059e9067706f6f6c4665657360c01b815260080190565b6000828152602081905260409020600101546119518133611b45565b610b0c8383611c2d565b60003360405160200161196e9190611f46565b60408051808303601f190181529082905280516020909101206002546355d9465560e01b8352600483018290529092506001600160a01b0316906355d946559060240160206040518083038186803b1580156119c957600080fd5b505afa1580156119dd573d6000803e3d6000fd5b505050506040513d601f19601f82011682018060405250810190611a019190611f7b565b611a1d5760405162461bcd60e51b81526004016106f990611f98565b60026001541415611a705760405162461bcd60e51b815260206004820152601f60248201527f5265656e7472616e637947756172643a207265656e7472616e742063616c6c0060448201526064016106f9565b6002600155604051711d1bdd185b17d95d1a195c97dcdd185ad95960721b602082015260009060320160408051808303601f1901815290829052805160209091012060025462ec44af60e51b8352600483018290523460248401529092506001600160a01b031690631d8895e090604401600060405180830381600087803b158015611afb57600080fd5b505af1158015611b0f573d6000803e3d6000fd5b50506001805550505050565b60008060405160200161059e907018dbdb9d1c9a589d5d1a5bdb931a5b5a5d607a1b815260110190565b611b4f82826116fe565b610b8b57611b67816001600160a01b03166014611c92565b611b72836020611c92565b604051602001611b839291906120dc565b60408051601f198184030181529082905262461bcd60e51b82526106f991600401612151565b611bb382826116fe565b610b8b576000828152602081815260408083206001600160a01b03851684529091529020805460ff19166001179055611be93390565b6001600160a01b0316816001600160a01b0316837f2f8788117e7eff1d82e926ec794901d17c78024a50270940304540a733656f0d60405160405180910390a45050565b611c3782826116fe565b15610b8b576000828152602081815260408083206001600160a01b0385168085529252808320805460ff1916905551339285917ff6391f5c32d9c69d2a47ea670b442974b53935d1edc7fd64eb21e047a839171b9190a45050565b60606000611ca1836002612184565b611cac9060026121a3565b67ffffffffffffffff811115611cc457611cc46121bb565b6040519080825280601f01601f191660200182016040528015611cee576020820181803683370190505b509050600360fc1b81600081518110611d0957611d096121d1565b60200101906001600160f81b031916908160001a905350600f60fb1b81600181518110611d3857611d386121d1565b60200101906001600160f81b031916908160001a9053506000611d5c846002612184565b611d679060016121a3565b90505b6001811115611ddf576f181899199a1a9b1b9c1cb0b131b232b360811b85600f1660108110611d9b57611d9b6121d1565b1a60f81b828281518110611db157611db16121d1565b60200101906001600160f81b031916908160001a90535060049490941c93611dd8816121e7565b9050611d6a565b5083156115105760405162461bcd60e51b815260206004820181905260248201527f537472696e67733a20686578206c656e67746820696e73756666696369656e7460448201526064016106f9565b600060208284031215611e4057600080fd5b81356001600160e01b03198116811461151057600080fd5b6001600160a01b0381168114611e6d57600080fd5b50565b600060208284031215611e8257600080fd5b813561151081611e58565b600060208284031215611e9f57600080fd5b5035919050565b60008060408385031215611eb957600080fd5b823591506020830135611ecb81611e58565b809150509250929050565b60008060408385031215611ee957600080fd5b8235611ef481611e58565b946020939093013593505050565b8015158114611e6d57600080fd5b600060208284031215611f2257600080fd5b813561151081611f02565b600060208284031215611f3f57600080fd5b5051919050565b6e636f6e74726163745f65786973747360881b815260609190911b6bffffffffffffffffffffffff1916600f82015260230190565b600060208284031215611f8d57600080fd5b815161151081611f02565b6020808252818101527f54686520636f6e7472616374206164647265737320697320696e76616c69642e604082015260600190565b696973506f6f6c4c69766560b01b8152600a0190565b6020808252601d908201527f54686520706f6f6c2069732063757272656e746c7920636c6f7365642e000000604082015260600190565b634e487b7160e01b600052601160045260246000fd5b6000828210156120425761204261201a565b500390565b60208082526028908201527f4c61636b696e67206f6620657468657220746f20706572666f726d20746869736040820152671030b1ba34b7b71760c11b606082015260800190565b6000602082840312156120a157600080fd5b815161151081611e58565b60005b838110156120c75781810151838201526020016120af565b838111156120d6576000848401525b50505050565b7f416363657373436f6e74726f6c3a206163636f756e74200000000000000000008152600083516121148160178501602088016120ac565b7001034b99036b4b9b9b4b733903937b6329607d1b60179184019182015283516121458160288401602088016120ac565b01602801949350505050565b60208152600082518060208401526121708160408501602087016120ac565b601f01601f19169190910160400192915050565b600081600019048311821515161561219e5761219e61201a565b500290565b600082198211156121b6576121b661201a565b500190565b634e487b7160e01b600052604160045260246000fd5b634e487b7160e01b600052603260045260246000fd5b6000816121f6576121f661201a565b50600019019056fe41a01ec0a13b563fa452569e3fbb116366d217c2769aa1561822e65a617e3842a2646970667358221220fbbedc67a3d89f6c6b142d642e82064be91347d791f17d9d3c23f221a954d95a64736f6c63430008090033",
    "sourcePath": "c:/Users/Lior/Desktop/Index/Coding Software/GitHub/challenge/contracts/PoolVault.sol",
    "compiler": {
        "name": "solc",
        "version": "0.8.9+commit.e5eed63a"
    },
    "functionHashes": {
        "DEFAULT_ADMIN_ROLE()": "a217fddf",
        "POOL_MANAGER()": "62308e85",
        "addPoolManager(address)": "45077e71",
        "getContributionLimit()": "fa1e19e5",
        "getMinContribution()": "6cff7473",
        "getPoolBaseAddress()": "8ae68134",
        "getPoolFees()": "d1d8d060",
        "getPoolMaxSize()": "095df57f",
        "getPoolState()": "217ac237",
        "getPoolVaultAddress()": "c3577d48",
        "getRewardsInterest()": "7521796f",
        "getRewardsInterval()": "497d0241",
        "getRoleAdmin(bytes32)": "248a9ca3",
        "grantRole(bytes32,address)": "2f2ff15d",
        "hasRole(bytes32,address)": "91d14854",
        "poolEtherSize()": "ccfe0c8e",
        "processRewards()": "f9fc0d07",
        "removePoolManager(address)": "29ca15bc",
        "renounceRole(bytes32,address)": "36568abe",
        "revokeRole(bytes32,address)": "d547741f",
        "setContributionLimit(uint256)": "72d099a0",
        "setMinContribution(uint256)": "473b0d46",
        "setPoolFees(uint256)": "8dd225d5",
        "setPoolLive(bool)": "a4975516",
        "setPoolMaxSize(uint256)": "12646987",
        "setRewardsInterest(uint256)": "bf4c0036",
        "setRewardsInterval(uint256)": "53710f49",
        "storeEther(address)": "0964b56d",
        "supportsInterface(bytes4)": "01ffc9a7",
        "withdrawEther(address,uint256)": "522f6815"
    },
    "gasEstimates": {
        "creation": {
            "codeDepositCost": "1757600",
            "executionCost": "infinite",
            "totalCost": "infinite"
        },
        "external": {
            "DEFAULT_ADMIN_ROLE()": "306",
            "POOL_MANAGER()": "infinite",
            "addPoolManager(address)": "infinite",
            "getContributionLimit()": "infinite",
            "getMinContribution()": "infinite",
            "getPoolBaseAddress()": "infinite",
            "getPoolFees()": "infinite",
            "getPoolMaxSize()": "infinite",
            "getPoolState()": "infinite",
            "getPoolVaultAddress()": "infinite",
            "getRewardsInterest()": "infinite",
            "getRewardsInterval()": "infinite",
            "getRoleAdmin(bytes32)": "2537",
            "grantRole(bytes32,address)": "infinite",
            "hasRole(bytes32,address)": "2739",
            "poolEtherSize()": "infinite",
            "processRewards()": "infinite",
            "removePoolManager(address)": "infinite",
            "renounceRole(bytes32,address)": "29062",
            "revokeRole(bytes32,address)": "infinite",
            "setContributionLimit(uint256)": "infinite",
            "setMinContribution(uint256)": "infinite",
            "setPoolFees(uint256)": "infinite",
            "setPoolLive(bool)": "infinite",
            "setPoolMaxSize(uint256)": "infinite",
            "setRewardsInterest(uint256)": "infinite",
            "setRewardsInterval(uint256)": "infinite",
            "storeEther(address)": "infinite",
            "supportsInterface(bytes4)": "473",
            "withdrawEther(address,uint256)": "infinite"
        },
        "internal": {
            "_setPoolVaultAddress()": "infinite"
        }
    }
}