{
    "contractName": "PoolBase",
    "abi": [
        {
            "inputs": [
                {
                    "internalType": "contract DataStorageInterface",
                    "name": "_dataStorageAddress",
                    "type": "address"
                }
            ],
            "stateMutability": "nonpayable",
            "type": "constructor"
        },
        {
            "anonymous": false,
            "inputs": [
                {
                    "indexed": true,
                    "internalType": "address",
                    "name": "_removedManager",
                    "type": "address"
                }
            ],
            "name": "ManagerRemoved",
            "type": "event"
        },
        {
            "anonymous": false,
            "inputs": [
                {
                    "indexed": true,
                    "internalType": "address",
                    "name": "_newManager",
                    "type": "address"
                }
            ],
            "name": "NewManagerAdded",
            "type": "event"
        },
        {
            "anonymous": false,
            "inputs": [
                {
                    "indexed": true,
                    "internalType": "bytes32",
                    "name": "role",
                    "type": "bytes32"
                },
                {
                    "indexed": true,
                    "internalType": "bytes32",
                    "name": "previousAdminRole",
                    "type": "bytes32"
                },
                {
                    "indexed": true,
                    "internalType": "bytes32",
                    "name": "newAdminRole",
                    "type": "bytes32"
                }
            ],
            "name": "RoleAdminChanged",
            "type": "event"
        },
        {
            "anonymous": false,
            "inputs": [
                {
                    "indexed": true,
                    "internalType": "bytes32",
                    "name": "role",
                    "type": "bytes32"
                },
                {
                    "indexed": true,
                    "internalType": "address",
                    "name": "account",
                    "type": "address"
                },
                {
                    "indexed": true,
                    "internalType": "address",
                    "name": "sender",
                    "type": "address"
                }
            ],
            "name": "RoleGranted",
            "type": "event"
        },
        {
            "anonymous": false,
            "inputs": [
                {
                    "indexed": true,
                    "internalType": "bytes32",
                    "name": "role",
                    "type": "bytes32"
                },
                {
                    "indexed": true,
                    "internalType": "address",
                    "name": "account",
                    "type": "address"
                },
                {
                    "indexed": true,
                    "internalType": "address",
                    "name": "sender",
                    "type": "address"
                }
            ],
            "name": "RoleRevoked",
            "type": "event"
        },
        {
            "inputs": [],
            "name": "DEFAULT_ADMIN_ROLE",
            "outputs": [
                {
                    "internalType": "bytes32",
                    "name": "",
                    "type": "bytes32"
                }
            ],
            "stateMutability": "view",
            "type": "function"
        },
        {
            "inputs": [],
            "name": "POOL_MANAGER",
            "outputs": [
                {
                    "internalType": "bytes32",
                    "name": "",
                    "type": "bytes32"
                }
            ],
            "stateMutability": "view",
            "type": "function"
        },
        {
            "inputs": [
                {
                    "internalType": "address",
                    "name": "_address",
                    "type": "address"
                }
            ],
            "name": "addPoolManager",
            "outputs": [],
            "stateMutability": "nonpayable",
            "type": "function"
        },
        {
            "inputs": [],
            "name": "getContributionLimit",
            "outputs": [
                {
                    "internalType": "uint256",
                    "name": "",
                    "type": "uint256"
                }
            ],
            "stateMutability": "view",
            "type": "function"
        },
        {
            "inputs": [],
            "name": "getPoolFees",
            "outputs": [
                {
                    "internalType": "uint256",
                    "name": "",
                    "type": "uint256"
                }
            ],
            "stateMutability": "view",
            "type": "function"
        },
        {
            "inputs": [],
            "name": "getPoolMaxSize",
            "outputs": [
                {
                    "internalType": "uint256",
                    "name": "",
                    "type": "uint256"
                }
            ],
            "stateMutability": "view",
            "type": "function"
        },
        {
            "inputs": [],
            "name": "getPoolState",
            "outputs": [
                {
                    "internalType": "bool",
                    "name": "",
                    "type": "bool"
                }
            ],
            "stateMutability": "view",
            "type": "function"
        },
        {
            "inputs": [],
            "name": "getRewardsInterest",
            "outputs": [
                {
                    "internalType": "uint256",
                    "name": "",
                    "type": "uint256"
                }
            ],
            "stateMutability": "view",
            "type": "function"
        },
        {
            "inputs": [],
            "name": "getRewardsInterval",
            "outputs": [
                {
                    "internalType": "uint256",
                    "name": "",
                    "type": "uint256"
                }
            ],
            "stateMutability": "view",
            "type": "function"
        },
        {
            "inputs": [
                {
                    "internalType": "bytes32",
                    "name": "role",
                    "type": "bytes32"
                }
            ],
            "name": "getRoleAdmin",
            "outputs": [
                {
                    "internalType": "bytes32",
                    "name": "",
                    "type": "bytes32"
                }
            ],
            "stateMutability": "view",
            "type": "function"
        },
        {
            "inputs": [
                {
                    "internalType": "bytes32",
                    "name": "role",
                    "type": "bytes32"
                },
                {
                    "internalType": "address",
                    "name": "account",
                    "type": "address"
                }
            ],
            "name": "grantRole",
            "outputs": [],
            "stateMutability": "nonpayable",
            "type": "function"
        },
        {
            "inputs": [
                {
                    "internalType": "bytes32",
                    "name": "role",
                    "type": "bytes32"
                },
                {
                    "internalType": "address",
                    "name": "account",
                    "type": "address"
                }
            ],
            "name": "hasRole",
            "outputs": [
                {
                    "internalType": "bool",
                    "name": "",
                    "type": "bool"
                }
            ],
            "stateMutability": "view",
            "type": "function"
        },
        {
            "inputs": [
                {
                    "internalType": "address",
                    "name": "_address",
                    "type": "address"
                }
            ],
            "name": "removePoolManager",
            "outputs": [],
            "stateMutability": "nonpayable",
            "type": "function"
        },
        {
            "inputs": [
                {
                    "internalType": "bytes32",
                    "name": "role",
                    "type": "bytes32"
                },
                {
                    "internalType": "address",
                    "name": "account",
                    "type": "address"
                }
            ],
            "name": "renounceRole",
            "outputs": [],
            "stateMutability": "nonpayable",
            "type": "function"
        },
        {
            "inputs": [
                {
                    "internalType": "bytes32",
                    "name": "role",
                    "type": "bytes32"
                },
                {
                    "internalType": "address",
                    "name": "account",
                    "type": "address"
                }
            ],
            "name": "revokeRole",
            "outputs": [],
            "stateMutability": "nonpayable",
            "type": "function"
        },
        {
            "inputs": [
                {
                    "internalType": "uint256",
                    "name": "_newContrLimit",
                    "type": "uint256"
                }
            ],
            "name": "setContributionLimit",
            "outputs": [],
            "stateMutability": "nonpayable",
            "type": "function"
        },
        {
            "inputs": [
                {
                    "internalType": "uint256",
                    "name": "_newMinContr",
                    "type": "uint256"
                }
            ],
            "name": "setMinContribution",
            "outputs": [],
            "stateMutability": "nonpayable",
            "type": "function"
        },
        {
            "inputs": [],
            "name": "setMinContribution",
            "outputs": [
                {
                    "internalType": "uint256",
                    "name": "",
                    "type": "uint256"
                }
            ],
            "stateMutability": "view",
            "type": "function"
        },
        {
            "inputs": [
                {
                    "internalType": "uint256",
                    "name": "_poolFees",
                    "type": "uint256"
                }
            ],
            "name": "setPoolFees",
            "outputs": [],
            "stateMutability": "nonpayable",
            "type": "function"
        },
        {
            "inputs": [
                {
                    "internalType": "bool",
                    "name": "_live",
                    "type": "bool"
                }
            ],
            "name": "setPoolLive",
            "outputs": [],
            "stateMutability": "nonpayable",
            "type": "function"
        },
        {
            "inputs": [
                {
                    "internalType": "uint256",
                    "name": "_maxSize",
                    "type": "uint256"
                }
            ],
            "name": "setPoolMaxSize",
            "outputs": [],
            "stateMutability": "nonpayable",
            "type": "function"
        },
        {
            "inputs": [
                {
                    "internalType": "uint256",
                    "name": "_rewardsInterest",
                    "type": "uint256"
                }
            ],
            "name": "setRewardsInterest",
            "outputs": [],
            "stateMutability": "nonpayable",
            "type": "function"
        },
        {
            "inputs": [
                {
                    "internalType": "uint256",
                    "name": "_daysToRewards",
                    "type": "uint256"
                }
            ],
            "name": "setRewardsInterval",
            "outputs": [],
            "stateMutability": "nonpayable",
            "type": "function"
        },
        {
            "inputs": [
                {
                    "internalType": "bytes4",
                    "name": "interfaceId",
                    "type": "bytes4"
                }
            ],
            "name": "supportsInterface",
            "outputs": [
                {
                    "internalType": "bool",
                    "name": "",
                    "type": "bool"
                }
            ],
            "stateMutability": "view",
            "type": "function"
        },
        {
            "inputs": [
                {
                    "internalType": "address",
                    "name": "_newAddress",
                    "type": "address"
                }
            ],
            "name": "updateDataStorageAddress",
            "outputs": [],
            "stateMutability": "nonpayable",
            "type": "function"
        }
    ],
    "bytecode": "60806040523480156200001157600080fd5b506040516200183b3803806200183b8339810160408190526200003491620002b4565b60018055600280546001600160a01b0319166001600160a01b038316179055620000606000336200009d565b6200008c7f41a01ec0a13b563fa452569e3fbb116366d217c2769aa1561822e65a617e3842336200009d565b62000096620000ad565b50620002e6565b620000a9828262000214565b5050565b6002546040516e636f6e74726163745f65786973747360881b60208201526001600160601b03193060601b16602f8201526001600160a01b039091169063988c515b9060430160408051601f198184030181529082905280516020909101206001600160e01b031960e084901b168252600482015260016024820152604401600060405180830381600087803b1580156200014757600080fd5b505af11580156200015c573d6000803e3d6000fd5b505060025460405170636f6e74726163745f5f6164647265737360781b602082015267506f6f6c4261736560c01b60318201526001600160a01b039091169250637221263a915060390160408051601f198184030181529082905280516020909101206001600160e01b031960e084901b1682526004820152306024820152604401600060405180830381600087803b158015620001f957600080fd5b505af11580156200020e573d6000803e3d6000fd5b50505050565b6000828152602081815260408083206001600160a01b038516845290915290205460ff16620000a9576000828152602081815260408083206001600160a01b03851684529091529020805460ff19166001179055620002703390565b6001600160a01b0316816001600160a01b0316837f2f8788117e7eff1d82e926ec794901d17c78024a50270940304540a733656f0d60405160405180910390a45050565b600060208284031215620002c757600080fd5b81516001600160a01b0381168114620002df57600080fd5b9392505050565b61154580620002f66000396000f3fe608060405234801561001057600080fd5b50600436106101735760003560e01c8063543edfb6116100de57806391d1485411610097578063bf4c003611610071578063bf4c0036146102fc578063d1d8d0601461030f578063d547741f14610317578063fa1e19e51461032a57600080fd5b806391d14854146102ce578063a217fddf146102e1578063a4975516146102e957600080fd5b8063543edfb61461027057806362308e85146102785780636d73bb221461028d57806372d099a0146102a05780637521796f146102b35780638dd225d5146102bb57600080fd5b80632f2ff15d116101305780632f2ff15d1461020957806336568abe1461021c57806345077e711461022f578063473b0d4614610242578063497d02411461025557806353710f491461025d57600080fd5b806301ffc9a714610178578063095df57f146101a057806312646987146101b6578063217ac237146101cb578063248a9ca3146101d357806329ca15bc146101f6575b600080fd5b61018b610186366004611230565b610332565b60405190151581526020015b60405180910390f35b6101a8610369565b604051908152602001610197565b6101c96101c436600461125a565b610426565b005b61018b6104df565b6101a86101e136600461125a565b60009081526020819052604090206001015490565b6101c961020436600461128f565b610584565b6101c96102173660046112aa565b6105e0565b6101c961022a3660046112aa565b61060b565b6101c961023d36600461128f565b61068e565b6101c961025036600461125a565b6106ea565b6101a86107ed565b6101c961026b36600461125a565b610813565b6101a861096d565b6101a86000805160206114f083398151915281565b6101c961029b36600461128f565b610995565b6101c96102ae36600461125a565b6109d1565b6101a8610ad6565b6101c96102c936600461125a565b610b07565b61018b6102dc3660046112aa565b610d20565b6101a8600081565b6101c96102f73660046112e7565b610d49565b6101c961030a36600461125a565b610dc3565b6101a8610ecf565b6101c96103253660046112aa565b610ef0565b6101a8610f16565b60006001600160e01b03198216637965db0b60e01b148061036357506301ffc9a760e01b6001600160e01b03198316145b92915050565b60008060405160200161038d906a706f6f6c4d617853697a6560a81b8152600b0190565b60408051808303601f1901815290829052805160209091012060025463afc3602b60e01b8352600483018290529092506001600160a01b03169063afc3602b9060240160206040518083038186803b1580156103e857600080fd5b505afa1580156103fc573d6000803e3d6000fd5b505050506040513d601f19601f820116820180604052508101906104209190611304565b91505090565b6000805160206114f083398151915261043f8133610f40565b6040516a706f6f6c4d617853697a6560a81b6020820152600090602b015b60408051808303601f190181529082905280516020909101206002546328192c5560e01b835260048301829052602483018690529092506001600160a01b0316906328192c55906044015b600060405180830381600087803b1580156104c257600080fd5b505af11580156104d6573d6000803e3d6000fd5b50505050505050565b6000806040516020016104f19061131d565b60408051808303601f190181529082905280516020909101206002546355d9465560e01b8352600483018290529092506001600160a01b0316906355d946559060240160206040518083038186803b15801561054c57600080fd5b505afa158015610560573d6000803e3d6000fd5b505050506040513d601f19601f820116820180604052508101906104209190611333565b60006105908133610f40565b6105a86000805160206114f083398151915283610ef0565b6040516001600160a01b038316907fef69f7d97228658c92417be1b16b19058315de71fecb435d07b7d23728b6bd3190600090a25050565b6000828152602081905260409020600101546105fc8133610f40565b6106068383610fa4565b505050565b6001600160a01b03811633146106805760405162461bcd60e51b815260206004820152602f60248201527f416363657373436f6e74726f6c3a2063616e206f6e6c792072656e6f756e636560448201526e103937b632b9903337b91039b2b63360891b60648201526084015b60405180910390fd5b61068a8282611028565b5050565b600061069a8133610f40565b6106b26000805160206114f0833981519152836105e0565b6040516001600160a01b038316907fd873e3f571dc25e020cefdeb7255b3874ead3aade1f94a5fb4a5da831fd670cd90600090a25050565b6000805160206114f08339815191526107038133610f40565b6002546040516001600160a01b03909116906355d94655906107279060200161131d565b604051602081830303815290604052805190602001206040518263ffffffff1660e01b815260040161075b91815260200190565b60206040518083038186803b15801561077357600080fd5b505afa158015610787573d6000803e3d6000fd5b505050506040513d601f19601f820116820180604052508101906107ab9190611333565b6107c75760405162461bcd60e51b815260040161067790611350565b6040516e36b4b721b7b73a3934b13aba34b7b760891b6020820152600090602f0161045d565b60008060405160200161038d906c64617973546f5265776172647360981b8152600d0190565b6000805160206114f083398151915261082c8133610f40565b6002546040516001600160a01b03909116906355d94655906108509060200161131d565b604051602081830303815290604052805190602001206040518263ffffffff1660e01b815260040161088491815260200190565b60206040518083038186803b15801561089c57600080fd5b505afa1580156108b0573d6000803e3d6000fd5b505050506040513d601f19601f820116820180604052508101906108d49190611333565b6108f05760405162461bcd60e51b815260040161067790611350565b604080516c64617973546f5265776172647360981b6020808301919091528251600d818403018152602d90920190925280519101206002546001600160a01b03166328192c5582610944866201518061139d565b6040516001600160e01b031960e085901b168152600481019290925260248201526044016104a8565b60008060405160200161038d906e36b4b721b7b73a3934b13aba34b7b760891b8152600f0190565b6000805160206114f08339815191526109ae8133610f40565b50600280546001600160a01b0319166001600160a01b0392909216919091179055565b6000805160206114f08339815191526109ea8133610f40565b6002546040516001600160a01b03909116906355d9465590610a0e9060200161131d565b604051602081830303815290604052805190602001206040518263ffffffff1660e01b8152600401610a4291815260200190565b60206040518083038186803b158015610a5a57600080fd5b505afa158015610a6e573d6000803e3d6000fd5b505050506040513d601f19601f82011682018060405250810190610a929190611333565b610aae5760405162461bcd60e51b815260040161067790611350565b6040517018dbdb9d1c9a589d5d1a5bdb931a5b5a5d607a1b602082015260009060310161045d565b60008060405160200161038d90771c995dd85c991cd25b9d195c995cdd14195c94195c9a5bd960421b815260180190565b6000805160206114f0833981519152610b208133610f40565b6002546040516001600160a01b03909116906355d9465590610b449060200161131d565b604051602081830303815290604052805190602001206040518263ffffffff1660e01b8152600401610b7891815260200190565b60206040518083038186803b158015610b9057600080fd5b505afa158015610ba4573d6000803e3d6000fd5b505050506040513d601f19601f82011682018060405250810190610bc89190611333565b610be45760405162461bcd60e51b815260040161067790611350565b60405167706f6f6c4665657360c01b60208201526000906028016040516020818303038152906040528051906020012090506000604051602001610c39906a1c1bdbdb1199595cd4d95d60aa1b8152600b0190565b60408051808303601f190181529082905280516020909101206002546328192c5560e01b835260048301859052602483018790529092506001600160a01b0316906328192c5590604401600060405180830381600087803b158015610c9d57600080fd5b505af1158015610cb1573d6000803e3d6000fd5b505060025460405163988c515b60e01b815260048101859052600160248201526001600160a01b03909116925063988c515b9150604401600060405180830381600087803b158015610d0257600080fd5b505af1158015610d16573d6000803e3d6000fd5b5050505050505050565b6000918252602082815260408084206001600160a01b0393909316845291905290205460ff1690565b6000805160206114f0833981519152610d628133610f40565b6000604051602001610d739061131d565b60408051808303601f1901815290829052805160209091012060025463988c515b60e01b83526004830182905285151560248401529092506001600160a01b03169063988c515b906044016104a8565b6000805160206114f0833981519152610ddc8133610f40565b6002546040516001600160a01b03909116906355d9465590610e009060200161131d565b604051602081830303815290604052805190602001206040518263ffffffff1660e01b8152600401610e3491815260200190565b60206040518083038186803b158015610e4c57600080fd5b505afa158015610e60573d6000803e3d6000fd5b505050506040513d601f19601f82011682018060405250810190610e849190611333565b610ea05760405162461bcd60e51b815260040161067790611350565b604051771c995dd85c991cd25b9d195c995cdd14195c94195c9a5bd960421b602082015260009060380161045d565b60008060405160200161038d9067706f6f6c4665657360c01b815260080190565b600082815260208190526040902060010154610f0c8133610f40565b6106068383611028565b60008060405160200161038d907018dbdb9d1c9a589d5d1a5bdb931a5b5a5d607a1b815260110190565b610f4a8282610d20565b61068a57610f62816001600160a01b0316601461108d565b610f6d83602061108d565b604051602001610f7e9291906113ec565b60408051601f198184030181529082905262461bcd60e51b825261067791600401611461565b610fae8282610d20565b61068a576000828152602081815260408083206001600160a01b03851684529091529020805460ff19166001179055610fe43390565b6001600160a01b0316816001600160a01b0316837f2f8788117e7eff1d82e926ec794901d17c78024a50270940304540a733656f0d60405160405180910390a45050565b6110328282610d20565b1561068a576000828152602081815260408083206001600160a01b0385168085529252808320805460ff1916905551339285917ff6391f5c32d9c69d2a47ea670b442974b53935d1edc7fd64eb21e047a839171b9190a45050565b6060600061109c83600261139d565b6110a7906002611494565b67ffffffffffffffff8111156110bf576110bf6114ac565b6040519080825280601f01601f1916602001820160405280156110e9576020820181803683370190505b509050600360fc1b81600081518110611104576111046114c2565b60200101906001600160f81b031916908160001a905350600f60fb1b81600181518110611133576111336114c2565b60200101906001600160f81b031916908160001a905350600061115784600261139d565b611162906001611494565b90505b60018111156111da576f181899199a1a9b1b9c1cb0b131b232b360811b85600f1660108110611196576111966114c2565b1a60f81b8282815181106111ac576111ac6114c2565b60200101906001600160f81b031916908160001a90535060049490941c936111d3816114d8565b9050611165565b5083156112295760405162461bcd60e51b815260206004820181905260248201527f537472696e67733a20686578206c656e67746820696e73756666696369656e746044820152606401610677565b9392505050565b60006020828403121561124257600080fd5b81356001600160e01b03198116811461122957600080fd5b60006020828403121561126c57600080fd5b5035919050565b80356001600160a01b038116811461128a57600080fd5b919050565b6000602082840312156112a157600080fd5b61122982611273565b600080604083850312156112bd57600080fd5b823591506112cd60208401611273565b90509250929050565b80151581146112e457600080fd5b50565b6000602082840312156112f957600080fd5b8135611229816112d6565b60006020828403121561131657600080fd5b5051919050565b696973506f6f6c4c69766560b01b8152600a0190565b60006020828403121561134557600080fd5b8151611229816112d6565b6020808252601d908201527f54686520706f6f6c2069732063757272656e746c7920636c6f7365642e000000604082015260600190565b634e487b7160e01b600052601160045260246000fd5b60008160001904831182151516156113b7576113b7611387565b500290565b60005b838110156113d75781810151838201526020016113bf565b838111156113e6576000848401525b50505050565b7f416363657373436f6e74726f6c3a206163636f756e74200000000000000000008152600083516114248160178501602088016113bc565b7001034b99036b4b9b9b4b733903937b6329607d1b60179184019182015283516114558160288401602088016113bc565b01602801949350505050565b60208152600082518060208401526114808160408501602087016113bc565b601f01601f19169190910160400192915050565b600082198211156114a7576114a7611387565b500190565b634e487b7160e01b600052604160045260246000fd5b634e487b7160e01b600052603260045260246000fd5b6000816114e7576114e7611387565b50600019019056fe41a01ec0a13b563fa452569e3fbb116366d217c2769aa1561822e65a617e3842a264697066735822122050f241b88567f78c72a0b03347f291684f1b630351c7634e445c1fcabae154ef64736f6c63430008090033",
    "sourcePath": "c:/Users/Lior/Desktop/Index/Coding Software/GitHub/challenge/contracts/PoolBase.sol",
    "compiler": {
        "name": "solc",
        "version": "0.8.9+commit.e5eed63a"
    },
    "functionHashes": {
        "DEFAULT_ADMIN_ROLE()": "a217fddf",
        "POOL_MANAGER()": "62308e85",
        "addPoolManager(address)": "45077e71",
        "getContributionLimit()": "fa1e19e5",
        "getPoolFees()": "d1d8d060",
        "getPoolMaxSize()": "095df57f",
        "getPoolState()": "217ac237",
        "getRewardsInterest()": "7521796f",
        "getRewardsInterval()": "497d0241",
        "getRoleAdmin(bytes32)": "248a9ca3",
        "grantRole(bytes32,address)": "2f2ff15d",
        "hasRole(bytes32,address)": "91d14854",
        "removePoolManager(address)": "29ca15bc",
        "renounceRole(bytes32,address)": "36568abe",
        "revokeRole(bytes32,address)": "d547741f",
        "setContributionLimit(uint256)": "72d099a0",
        "setMinContribution()": "543edfb6",
        "setMinContribution(uint256)": "473b0d46",
        "setPoolFees(uint256)": "8dd225d5",
        "setPoolLive(bool)": "a4975516",
        "setPoolMaxSize(uint256)": "12646987",
        "setRewardsInterest(uint256)": "bf4c0036",
        "setRewardsInterval(uint256)": "53710f49",
        "supportsInterface(bytes4)": "01ffc9a7",
        "updateDataStorageAddress(address)": "6d73bb22"
    },
    "gasEstimates": {
        "creation": {
            "codeDepositCost": "1089000",
            "executionCost": "infinite",
            "totalCost": "infinite"
        },
        "external": {
            "DEFAULT_ADMIN_ROLE()": "262",
            "POOL_MANAGER()": "infinite",
            "addPoolManager(address)": "infinite",
            "getContributionLimit()": "infinite",
            "getPoolFees()": "infinite",
            "getPoolMaxSize()": "infinite",
            "getPoolState()": "infinite",
            "getRewardsInterest()": "infinite",
            "getRewardsInterval()": "infinite",
            "getRoleAdmin(bytes32)": "2559",
            "grantRole(bytes32,address)": "infinite",
            "hasRole(bytes32,address)": "2696",
            "removePoolManager(address)": "infinite",
            "renounceRole(bytes32,address)": "29040",
            "revokeRole(bytes32,address)": "infinite",
            "setContributionLimit(uint256)": "infinite",
            "setMinContribution()": "infinite",
            "setMinContribution(uint256)": "infinite",
            "setPoolFees(uint256)": "infinite",
            "setPoolLive(bool)": "infinite",
            "setPoolMaxSize(uint256)": "infinite",
            "setRewardsInterest(uint256)": "infinite",
            "setRewardsInterval(uint256)": "infinite",
            "supportsInterface(bytes4)": "450",
            "updateDataStorageAddress(address)": "infinite"
        },
        "internal": {
            "_setPoolBaseAddress()": "infinite",
            "getContractAddress(string memory)": "infinite"
        }
    }
}