{
    "contractName": "PoolClient",
    "abi": [
        {
            "inputs": [
                {
                    "internalType": "contract DataStorageInterface",
                    "name": "_dataStorageAddress",
                    "type": "address"
                }
            ],
            "stateMutability": "nonpayable",
            "type": "constructor"
        },
        {
            "anonymous": false,
            "inputs": [
                {
                    "indexed": true,
                    "internalType": "address",
                    "name": "_removedManager",
                    "type": "address"
                }
            ],
            "name": "ManagerRemoved",
            "type": "event"
        },
        {
            "anonymous": false,
            "inputs": [
                {
                    "indexed": true,
                    "internalType": "address",
                    "name": "_newManager",
                    "type": "address"
                }
            ],
            "name": "NewManagerAdded",
            "type": "event"
        },
        {
            "anonymous": false,
            "inputs": [
                {
                    "indexed": false,
                    "internalType": "uint256",
                    "name": "_lastRewardTime",
                    "type": "uint256"
                },
                {
                    "indexed": false,
                    "internalType": "uint256",
                    "name": "_amountInjected",
                    "type": "uint256"
                }
            ],
            "name": "RewardsInjected",
            "type": "event"
        },
        {
            "anonymous": false,
            "inputs": [
                {
                    "indexed": true,
                    "internalType": "bytes32",
                    "name": "role",
                    "type": "bytes32"
                },
                {
                    "indexed": true,
                    "internalType": "bytes32",
                    "name": "previousAdminRole",
                    "type": "bytes32"
                },
                {
                    "indexed": true,
                    "internalType": "bytes32",
                    "name": "newAdminRole",
                    "type": "bytes32"
                }
            ],
            "name": "RoleAdminChanged",
            "type": "event"
        },
        {
            "anonymous": false,
            "inputs": [
                {
                    "indexed": true,
                    "internalType": "bytes32",
                    "name": "role",
                    "type": "bytes32"
                },
                {
                    "indexed": true,
                    "internalType": "address",
                    "name": "account",
                    "type": "address"
                },
                {
                    "indexed": true,
                    "internalType": "address",
                    "name": "sender",
                    "type": "address"
                }
            ],
            "name": "RoleGranted",
            "type": "event"
        },
        {
            "anonymous": false,
            "inputs": [
                {
                    "indexed": true,
                    "internalType": "bytes32",
                    "name": "role",
                    "type": "bytes32"
                },
                {
                    "indexed": true,
                    "internalType": "address",
                    "name": "account",
                    "type": "address"
                },
                {
                    "indexed": true,
                    "internalType": "address",
                    "name": "sender",
                    "type": "address"
                }
            ],
            "name": "RoleRevoked",
            "type": "event"
        },
        {
            "anonymous": false,
            "inputs": [
                {
                    "indexed": true,
                    "internalType": "address",
                    "name": "_staker",
                    "type": "address"
                },
                {
                    "indexed": false,
                    "internalType": "uint256",
                    "name": "_ethAmount",
                    "type": "uint256"
                },
                {
                    "indexed": false,
                    "internalType": "uint256",
                    "name": "_time",
                    "type": "uint256"
                }
            ],
            "name": "UserStaked",
            "type": "event"
        },
        {
            "anonymous": false,
            "inputs": [
                {
                    "indexed": true,
                    "internalType": "address",
                    "name": "_unstaker",
                    "type": "address"
                },
                {
                    "indexed": false,
                    "internalType": "uint256",
                    "name": "_ethAmount",
                    "type": "uint256"
                },
                {
                    "indexed": false,
                    "internalType": "uint256",
                    "name": "_time",
                    "type": "uint256"
                }
            ],
            "name": "UserUnstaked",
            "type": "event"
        },
        {
            "inputs": [],
            "name": "DEFAULT_ADMIN_ROLE",
            "outputs": [
                {
                    "internalType": "bytes32",
                    "name": "",
                    "type": "bytes32"
                }
            ],
            "stateMutability": "view",
            "type": "function"
        },
        {
            "inputs": [],
            "name": "POOL_MANAGER",
            "outputs": [
                {
                    "internalType": "bytes32",
                    "name": "",
                    "type": "bytes32"
                }
            ],
            "stateMutability": "view",
            "type": "function"
        },
        {
            "inputs": [
                {
                    "internalType": "address",
                    "name": "_address",
                    "type": "address"
                }
            ],
            "name": "addPoolManager",
            "outputs": [],
            "stateMutability": "nonpayable",
            "type": "function"
        },
        {
            "inputs": [],
            "name": "calculateRewards",
            "outputs": [],
            "stateMutability": "nonpayable",
            "type": "function"
        },
        {
            "inputs": [],
            "name": "deposit",
            "outputs": [],
            "stateMutability": "payable",
            "type": "function"
        },
        {
            "inputs": [],
            "name": "getContributionLimit",
            "outputs": [
                {
                    "internalType": "uint256",
                    "name": "",
                    "type": "uint256"
                }
            ],
            "stateMutability": "view",
            "type": "function"
        },
        {
            "inputs": [],
            "name": "getMinContribution",
            "outputs": [
                {
                    "internalType": "uint256",
                    "name": "",
                    "type": "uint256"
                }
            ],
            "stateMutability": "view",
            "type": "function"
        },
        {
            "inputs": [],
            "name": "getPoolBaseAddress",
            "outputs": [
                {
                    "internalType": "address",
                    "name": "",
                    "type": "address"
                }
            ],
            "stateMutability": "view",
            "type": "function"
        },
        {
            "inputs": [],
            "name": "getPoolClientAddress",
            "outputs": [
                {
                    "internalType": "address",
                    "name": "",
                    "type": "address"
                }
            ],
            "stateMutability": "view",
            "type": "function"
        },
        {
            "inputs": [],
            "name": "getPoolMaxSize",
            "outputs": [
                {
                    "internalType": "uint256",
                    "name": "",
                    "type": "uint256"
                }
            ],
            "stateMutability": "view",
            "type": "function"
        },
        {
            "inputs": [],
            "name": "getPoolState",
            "outputs": [
                {
                    "internalType": "bool",
                    "name": "",
                    "type": "bool"
                }
            ],
            "stateMutability": "view",
            "type": "function"
        },
        {
            "inputs": [],
            "name": "getRewardsInterest",
            "outputs": [
                {
                    "internalType": "uint256",
                    "name": "",
                    "type": "uint256"
                }
            ],
            "stateMutability": "view",
            "type": "function"
        },
        {
            "inputs": [],
            "name": "getRewardsInterval",
            "outputs": [
                {
                    "internalType": "uint256",
                    "name": "",
                    "type": "uint256"
                }
            ],
            "stateMutability": "view",
            "type": "function"
        },
        {
            "inputs": [],
            "name": "getRewardsToInject",
            "outputs": [
                {
                    "internalType": "uint256",
                    "name": "",
                    "type": "uint256"
                }
            ],
            "stateMutability": "view",
            "type": "function"
        },
        {
            "inputs": [
                {
                    "internalType": "bytes32",
                    "name": "role",
                    "type": "bytes32"
                }
            ],
            "name": "getRoleAdmin",
            "outputs": [
                {
                    "internalType": "bytes32",
                    "name": "",
                    "type": "bytes32"
                }
            ],
            "stateMutability": "view",
            "type": "function"
        },
        {
            "inputs": [
                {
                    "internalType": "bytes32",
                    "name": "role",
                    "type": "bytes32"
                },
                {
                    "internalType": "address",
                    "name": "account",
                    "type": "address"
                }
            ],
            "name": "grantRole",
            "outputs": [],
            "stateMutability": "nonpayable",
            "type": "function"
        },
        {
            "inputs": [
                {
                    "internalType": "bytes32",
                    "name": "role",
                    "type": "bytes32"
                },
                {
                    "internalType": "address",
                    "name": "account",
                    "type": "address"
                }
            ],
            "name": "hasRole",
            "outputs": [
                {
                    "internalType": "bool",
                    "name": "",
                    "type": "bool"
                }
            ],
            "stateMutability": "view",
            "type": "function"
        },
        {
            "inputs": [
                {
                    "internalType": "address",
                    "name": "_address",
                    "type": "address"
                }
            ],
            "name": "removePoolManager",
            "outputs": [],
            "stateMutability": "nonpayable",
            "type": "function"
        },
        {
            "inputs": [
                {
                    "internalType": "bytes32",
                    "name": "role",
                    "type": "bytes32"
                },
                {
                    "internalType": "address",
                    "name": "account",
                    "type": "address"
                }
            ],
            "name": "renounceRole",
            "outputs": [],
            "stateMutability": "nonpayable",
            "type": "function"
        },
        {
            "inputs": [
                {
                    "internalType": "bytes32",
                    "name": "role",
                    "type": "bytes32"
                },
                {
                    "internalType": "address",
                    "name": "account",
                    "type": "address"
                }
            ],
            "name": "revokeRole",
            "outputs": [],
            "stateMutability": "nonpayable",
            "type": "function"
        },
        {
            "inputs": [],
            "name": "rewardsInjector",
            "outputs": [],
            "stateMutability": "payable",
            "type": "function"
        },
        {
            "inputs": [
                {
                    "internalType": "uint256",
                    "name": "_newContrLimit",
                    "type": "uint256"
                }
            ],
            "name": "setContributionLimit",
            "outputs": [],
            "stateMutability": "nonpayable",
            "type": "function"
        },
        {
            "inputs": [
                {
                    "internalType": "uint256",
                    "name": "_newMinContr",
                    "type": "uint256"
                }
            ],
            "name": "setMinContribution",
            "outputs": [],
            "stateMutability": "nonpayable",
            "type": "function"
        },
        {
            "inputs": [
                {
                    "internalType": "bool",
                    "name": "_live",
                    "type": "bool"
                }
            ],
            "name": "setPoolLive",
            "outputs": [],
            "stateMutability": "nonpayable",
            "type": "function"
        },
        {
            "inputs": [
                {
                    "internalType": "uint256",
                    "name": "_maxSize",
                    "type": "uint256"
                }
            ],
            "name": "setPoolMaxSize",
            "outputs": [],
            "stateMutability": "nonpayable",
            "type": "function"
        },
        {
            "inputs": [
                {
                    "internalType": "uint256",
                    "name": "_rewardsInterest",
                    "type": "uint256"
                }
            ],
            "name": "setRewardsInterest",
            "outputs": [],
            "stateMutability": "nonpayable",
            "type": "function"
        },
        {
            "inputs": [
                {
                    "internalType": "uint256",
                    "name": "_daysToRewards",
                    "type": "uint256"
                }
            ],
            "name": "setRewardsInterval",
            "outputs": [],
            "stateMutability": "nonpayable",
            "type": "function"
        },
        {
            "inputs": [
                {
                    "internalType": "bytes4",
                    "name": "interfaceId",
                    "type": "bytes4"
                }
            ],
            "name": "supportsInterface",
            "outputs": [
                {
                    "internalType": "bool",
                    "name": "",
                    "type": "bool"
                }
            ],
            "stateMutability": "view",
            "type": "function"
        },
        {
            "inputs": [
                {
                    "internalType": "uint256",
                    "name": "_rwEthAmount",
                    "type": "uint256"
                }
            ],
            "name": "withdraw",
            "outputs": [],
            "stateMutability": "nonpayable",
            "type": "function"
        }
    ],
    "bytecode": "60806040523480156200001157600080fd5b50604051620037dc380380620037dc8339810160408190526200003491620003c0565b60018055600280546001600160a01b0319166001600160a01b0383161790558062000061600033620000a9565b6200008d7f41a01ec0a13b563fa452569e3fbb116366d217c2769aa1561822e65a617e384233620000a9565b62000097620000b9565b50620000a262000220565b50620003f2565b620000b5828262000320565b5050565b6002546040516e636f6e74726163745f65786973747360881b60208201526001600160601b03193060601b16602f8201526001600160a01b039091169063988c515b9060430160408051601f198184030181529082905280516020909101206001600160e01b031960e084901b168252600482015260016024820152604401600060405180830381600087803b1580156200015357600080fd5b505af115801562000168573d6000803e3d6000fd5b50506002546040516f636f6e74726163745f6164647265737360801b602082015267506f6f6c4261736560c01b60308201526001600160a01b039091169250637221263a91506038015b60408051601f198184030181529082905280516020909101206001600160e01b031960e084901b1682526004820152306024820152604401600060405180830381600087803b1580156200020557600080fd5b505af11580156200021a573d6000803e3d6000fd5b50505050565b6002546040516e636f6e74726163745f65786973747360881b60208201526001600160601b03193060601b16602f8201526001600160a01b039091169063988c515b9060430160408051601f198184030181529082905280516020909101206001600160e01b031960e084901b168252600482015260016024820152604401600060405180830381600087803b158015620002ba57600080fd5b505af1158015620002cf573d6000803e3d6000fd5b50506002546040516f636f6e74726163745f6164647265737360801b602082015269141bdbdb10db1a595b9d60b21b60308201526001600160a01b039091169250637221263a9150603a01620001b2565b6000828152602081815260408083206001600160a01b038516845290915290205460ff16620000b5576000828152602081815260408083206001600160a01b03851684529091529020805460ff191660011790556200037c3390565b6001600160a01b0316816001600160a01b0316837f2f8788117e7eff1d82e926ec794901d17c78024a50270940304540a733656f0d60405160405180910390a45050565b600060208284031215620003d357600080fd5b81516001600160a01b0381168114620003eb57600080fd5b9392505050565b6133da80620004026000396000f3fe6080604052600436106101c25760003560e01c806362308e85116100f75780639ed03ab611610095578063d0e30db011610064578063d0e30db0146104c8578063d547741f146104d0578063ee7d4d2b146104f0578063fa1e19e5146104f857600080fd5b80639ed03ab61461045e578063a217fddf14610473578063a497551614610488578063bf4c0036146104a857600080fd5b806372d099a0116100d157806372d099a0146103f45780637521796f146104145780638ae681341461042957806391d148541461043e57600080fd5b806362308e85146103905780636c426607146103b25780636cff7473146103df57600080fd5b80632f2ff15d1161016457806345077e711161013e57806345077e711461031b578063473b0d461461033b578063497d02411461035b57806353710f491461037057600080fd5b80632f2ff15d146102c657806336568abe146102e65780633e50de301461030657600080fd5b8063217ac237116101a0578063217ac23714610241578063248a9ca31461025657806329ca15bc146102865780632e1a7d4d146102a657600080fd5b806301ffc9a7146101c7578063095df57f146101fc578063126469871461021f575b600080fd5b3480156101d357600080fd5b506101e76101e2366004613038565b61050d565b60405190151581526020015b60405180910390f35b34801561020857600080fd5b50610211610544565b6040519081526020016101f3565b34801561022b57600080fd5b5061023f61023a366004613062565b610601565b005b34801561024d57600080fd5b506101e7610788565b34801561026257600080fd5b50610211610271366004613062565b60009081526020819052604090206001015490565b34801561029257600080fd5b5061023f6102a1366004613093565b61082d565b3480156102b257600080fd5b5061023f6102c1366004613062565b610889565b3480156102d257600080fd5b5061023f6102e13660046130b0565b611071565b3480156102f257600080fd5b5061023f6103013660046130b0565b61109c565b34801561031257600080fd5b5061023f61111a565b34801561032757600080fd5b5061023f610336366004613093565b61139b565b34801561034757600080fd5b5061023f610356366004613062565b6113f7565b34801561036757600080fd5b5061021161169f565b34801561037c57600080fd5b5061023f61038b366004613062565b6116c5565b34801561039c57600080fd5b5061021160008051602061338583398151915281565b3480156103be57600080fd5b506103c76117c7565b6040516001600160a01b0390911681526020016101f3565b3480156103eb57600080fd5b506102116118a2565b34801561040057600080fd5b5061023f61040f366004613062565b6118ca565b34801561042057600080fd5b506102116119d0565b34801561043557600080fd5b506103c7611a01565b34801561044a57600080fd5b506101e76104593660046130b0565b611a3b565b34801561046a57600080fd5b50610211611a64565b34801561047f57600080fd5b50610211600081565b34801561049457600080fd5b5061023f6104a33660046130ee565b611b3a565b3480156104b457600080fd5b5061023f6104c3366004613062565b611bb4565b61023f611cc1565b3480156104dc57600080fd5b5061023f6104eb3660046130b0565b6126ec565b61023f612712565b34801561050457600080fd5b50610211612b9c565b60006001600160e01b03198216637965db0b60e01b148061053e57506301ffc9a760e01b6001600160e01b03198316145b92915050565b600080604051602001610568906a706f6f6c4d617853697a6560a81b8152600b0190565b60408051808303601f1901815290829052805160209091012060025463afc3602b60e01b8352600483018290529092506001600160a01b03169063afc3602b9060240160206040518083038186803b1580156105c357600080fd5b505afa1580156105d7573d6000803e3d6000fd5b505050506040513d601f19601f820116820180604052508101906105fb919061310b565b91505090565b60008051602061338583398151915261061a8133612bc6565b6002546040516001600160a01b03909116906355d946559061063e90602001613124565b604051602081830303815290604052805190602001206040518263ffffffff1660e01b815260040161067291815260200190565b60206040518083038186803b15801561068a57600080fd5b505afa15801561069e573d6000803e3d6000fd5b505050506040513d601f19601f820116820180604052508101906106c2919061313a565b156106e85760405162461bcd60e51b81526004016106df90613157565b60405180910390fd5b6040516a706f6f6c4d617853697a6560a81b6020820152600090602b015b60408051808303601f190181529082905280516020909101206002546328192c5560e01b835260048301829052602483018690529092506001600160a01b0316906328192c55906044015b600060405180830381600087803b15801561076b57600080fd5b505af115801561077f573d6000803e3d6000fd5b50505050505050565b60008060405160200161079a90613124565b60408051808303601f190181529082905280516020909101206002546355d9465560e01b8352600483018290529092506001600160a01b0316906355d946559060240160206040518083038186803b1580156107f557600080fd5b505afa158015610809573d6000803e3d6000fd5b505050506040513d601f19601f820116820180604052508101906105fb919061313a565b60006108398133612bc6565b610851600080516020613385833981519152836126ec565b6040516001600160a01b038316907fef69f7d97228658c92417be1b16b19058315de71fecb435d07b7d23728b6bd3190600090a25050565b8060006108b660405180604001604052806009815260200168141bdbdb15985d5b1d60ba1b815250612c2a565b905060006108e56040518060400160405280600a815260200169393ba2aa242a37b5b2b760b11b815250612c2a565b905060006040516020016108f890613124565b60408051601f198184030181529082905280516020909101206370a0823160e01b8252336004830152915084906001600160a01b038416906370a082319060240160206040518083038186803b15801561095157600080fd5b505afa158015610965573d6000803e3d6000fd5b505050506040513d601f19601f82011682018060405250810190610989919061310b565b10156109f55760405162461bcd60e51b815260206004820152603560248201527f596f7520646f6e27742068617665207468617420616d6f756e74206f6620746f60448201527435b2b7399037b7103cb7bab91030b1b1b7bab73a1760591b60648201526084016106df565b6040516312946fe160e01b8152600481018590526000906001600160a01b038416906312946fe19060240160206040518083038186803b158015610a3857600080fd5b505afa158015610a4c573d6000803e3d6000fd5b505050506040513d601f19601f82011682018060405250810190610a70919061310b565b846001600160a01b031663ccfe0c8e6040518163ffffffff1660e01b815260040160206040518083038186803b158015610aa957600080fd5b505afa158015610abd573d6000803e3d6000fd5b505050506040513d601f19601f82011682018060405250810190610ae1919061310b565b610aeb91906131a4565b1015610b485760405162461bcd60e51b815260206004820152602660248201527f506f6f6c2073697a652063616e6e6f7420626520736d616c6c6572207468616e604482015265103d32b9379760d11b60648201526084016106df565b6002546040516355d9465560e01b8152600481018390526001600160a01b03909116906355d946559060240160206040518083038186803b158015610b8c57600080fd5b505afa158015610ba0573d6000803e3d6000fd5b505050506040513d601f19601f82011682018060405250810190610bc4919061313a565b610c105760405162461bcd60e51b815260206004820152601c60248201527f54686520706f6f6c2069732063757272656e746c79207061757365640000000060448201526064016106df565b60026001541415610c635760405162461bcd60e51b815260206004820152601f60248201527f5265656e7472616e637947756172643a207265656e7472616e742063616c6c0060448201526064016106df565b600260015560408051808201909152600a815269393ba2aa242a37b5b2b760b11b6020820152600090610c9590612c2a565b90506000610cc360405180604001604052806009815260200168141bdbdb15985d5b1d60ba1b815250612c2a565b604051636eb1769f60e11b815233600482015230602482015290915087906001600160a01b0384169063dd62ed3e9060440160206040518083038186803b158015610d0d57600080fd5b505afa158015610d21573d6000803e3d6000fd5b505050506040513d601f19601f82011682018060405250810190610d45919061310b565b1015610db95760405162461bcd60e51b815260206004820152603860248201527f52657665727465643a20436c69656e74206c61636b7320616c6c6f77616e636560448201527f20746f20706572666f726d207468697320616374696f6e2e000000000000000060648201526084016106df565b6040516323b872dd60e01b8152336004820152306024820152604481018890526001600160a01b038316906323b872dd90606401602060405180830381600087803b158015610e0757600080fd5b505af1158015610e1b573d6000803e3d6000fd5b505050506040513d601f19601f82011682018060405250810190610e3f919061313a565b506040516312946fe160e01b8152600481018890526000906001600160a01b038416906312946fe19060240160206040518083038186803b158015610e8357600080fd5b505afa158015610e97573d6000803e3d6000fd5b505050506040513d601f19601f82011682018060405250810190610ebb919061310b565b604051630852cd8d60e31b8152600481018a90529091506001600160a01b038416906342966c6890602401600060405180830381600087803b158015610f0057600080fd5b505af1158015610f14573d6000803e3d6000fd5b505050506000604051602001610f4d907f746f74616c4275726e65645f7265776172644574686572000000000000000000815260170190565b60408051808303601f1901815290829052805160209091012060025462ec44af60e51b835260048301829052602483018c90529092506001600160a01b031690631d8895e090604401600060405180830381600087803b158015610fb057600080fd5b505af1158015610fc4573d6000803e3d6000fd5b505060405163522f681560e01b8152336004820152602481018590526001600160a01b038616925063522f68159150604401600060405180830381600087803b15801561101057600080fd5b505af1158015611024573d6000803e3d6000fd5b5050604080518581524260208201523393507f91405db2584f6e8463494f0e18c40f87fe3146322d19c494e8a0e0a039c3886992500160405180910390a250506001805550505050505050565b60008281526020819052604090206001015461108d8133612bc6565b6110978383612d2e565b505050565b6001600160a01b038116331461110c5760405162461bcd60e51b815260206004820152602f60248201527f416363657373436f6e74726f6c3a2063616e206f6e6c792072656e6f756e636560448201526e103937b632b9903337b91039b2b63360891b60648201526084016106df565b6111168282612db2565b5050565b6000805160206133858339815191526111338133612bc6565b600060405160200161114490613124565b60408051808303601f190181529082905280516020909101206002546355d9465560e01b8352600483018290529092506001600160a01b0316906355d946559060240160206040518083038186803b15801561119f57600080fd5b505afa1580156111b3573d6000803e3d6000fd5b505050506040513d601f19601f820116820180604052508101906111d7919061313a565b156112245760405162461bcd60e51b815260206004820152601b60248201527f54686520706f6f6c2069732063757272656e746c79206c6976652e000000000060448201526064016106df565b60006112546040518060400160405280600d81526020016c546f6b656e42616c616e63657360981b815250612c2a565b9050600060405160200161127d906e1c995dd85c991cd51bd25b9a9958dd608a1b8152600f0190565b604051602081830303815290604052805190602001209050600061129f6119d0565b90506000620f424082856001600160a01b03166370959ff86040518163ffffffff1660e01b815260040160206040518083038186803b1580156112e157600080fd5b505afa1580156112f5573d6000803e3d6000fd5b505050506040513d601f19601f82011682018060405250810190611319919061310b565b61132391906131bb565b61132d91906131da565b6002546040516328192c5560e01b815260048101869052602481018390529192506001600160a01b0316906328192c5590604401600060405180830381600087803b15801561137b57600080fd5b505af115801561138f573d6000803e3d6000fd5b50505050505050505050565b60006113a78133612bc6565b6113bf60008051602061338583398151915283611071565b6040516001600160a01b038316907fd873e3f571dc25e020cefdeb7255b3874ead3aade1f94a5fb4a5da831fd670cd90600090a25050565b6000805160206133858339815191526114108133612bc6565b6040517018dbdb9d1c9a589d5d1a5bdb931a5b5a5d607a1b602082015260009060310160408051601f198184030181529082905280516020918201206002549093506001600160a01b0316916355d946559161146c9101613124565b604051602081830303815290604052805190602001206040518263ffffffff1660e01b81526004016114a091815260200190565b60206040518083038186803b1580156114b857600080fd5b505afa1580156114cc573d6000803e3d6000fd5b505050506040513d601f19601f820116820180604052508101906114f0919061313a565b1561150d5760405162461bcd60e51b81526004016106df90613157565b60025460405163afc3602b60e01b81526004810183905284916001600160a01b03169063afc3602b9060240160206040518083038186803b15801561155157600080fd5b505afa158015611565573d6000803e3d6000fd5b505050506040513d601f19601f82011682018060405250810190611589919061310b565b116115fc5760405162461bcd60e51b815260206004820152603e60248201527f546865206d696e2e20636f6e74722e206c696d6974206e6565647320746f206260448201527f6520736d616c6c6572207468616e20746865206d61782e206c696d69742e000060648201526084016106df565b6040516e36b4b721b7b73a3934b13aba34b7b760891b6020820152600090602f0160408051808303601f190181529082905280516020909101206002546328192c5560e01b835260048301829052602483018790529092506001600160a01b0316906328192c5590604401600060405180830381600087803b15801561168157600080fd5b505af1158015611695573d6000803e3d6000fd5b5050505050505050565b600080604051602001610568906c64617973546f5265776172647360981b8152600d0190565b6000805160206133858339815191526116de8133612bc6565b6002546040516001600160a01b03909116906355d946559061170290602001613124565b604051602081830303815290604052805190602001206040518263ffffffff1660e01b815260040161173691815260200190565b60206040518083038186803b15801561174e57600080fd5b505afa158015611762573d6000803e3d6000fd5b505050506040513d601f19601f82011682018060405250810190611786919061313a565b156117a35760405162461bcd60e51b81526004016106df90613157565b6040516c64617973546f5265776172647360981b6020820152600090602d01610706565b600080604051602001611803906f636f6e74726163745f6164647265737360801b815269141bdbdb10db1a595b9d60b21b6010820152601a0190565b60408051808303601f190181529082905280516020909101206002546315485dd960e11b8352600483018290529092506000916001600160a01b0390911690632a90bbb29060240160206040518083038186803b15801561186357600080fd5b505afa158015611877573d6000803e3d6000fd5b505050506040513d601f19601f8201168201806040525081019061189b91906131fc565b9392505050565b600080604051602001610568906e36b4b721b7b73a3934b13aba34b7b760891b8152600f0190565b6000805160206133858339815191526118e38133612bc6565b6002546040516001600160a01b03909116906355d946559061190790602001613124565b604051602081830303815290604052805190602001206040518263ffffffff1660e01b815260040161193b91815260200190565b60206040518083038186803b15801561195357600080fd5b505afa158015611967573d6000803e3d6000fd5b505050506040513d601f19601f8201168201806040525081019061198b919061313a565b156119a85760405162461bcd60e51b81526004016106df90613157565b6040517018dbdb9d1c9a589d5d1a5bdb931a5b5a5d607a1b6020820152600090603101610706565b60008060405160200161056890771c995dd85c991cd25b9d195c995cdd14195c94195c9a5bd960421b815260180190565b600080604051602001611803906f636f6e74726163745f6164647265737360801b815267506f6f6c4261736560c01b601082015260180190565b6000918252602082815260408084206001600160a01b0393909316845291905290205460ff1690565b6000600080516020613385833981519152611a7f8133612bc6565b6040516e1c995dd85c991cd51bd25b9a9958dd608a1b6020820152600090602f0160408051808303601f1901815290829052805160209091012060025463afc3602b60e01b8352600483018290529092506001600160a01b03169063afc3602b9060240160206040518083038186803b158015611afb57600080fd5b505afa158015611b0f573d6000803e3d6000fd5b505050506040513d601f19601f82011682018060405250810190611b33919061310b565b9250505090565b600080516020613385833981519152611b538133612bc6565b6000604051602001611b6490613124565b60408051808303601f1901815290829052805160209091012060025463988c515b60e01b83526004830182905285151560248401529092506001600160a01b03169063988c515b90604401610751565b600080516020613385833981519152611bcd8133612bc6565b6002546040516001600160a01b03909116906355d9465590611bf190602001613124565b604051602081830303815290604052805190602001206040518263ffffffff1660e01b8152600401611c2591815260200190565b60206040518083038186803b158015611c3d57600080fd5b505afa158015611c51573d6000803e3d6000fd5b505050506040513d601f19601f82011682018060405250810190611c75919061313a565b15611c925760405162461bcd60e51b81526004016106df90613157565b604051771c995dd85c991cd25b9d195c995cdd14195c94195c9a5bd960421b6020820152600090603801610706565b6000611ced60405180604001604052806009815260200168141bdbdb15985d5b1d60ba1b815250612c2a565b90506000604051602001611d0090613124565b6040516020818303038152906040528051906020012090506000604051602001611d3d906c64617973546f5265776172647360981b8152600d0190565b6040516020818303038152906040528051906020012090506000604051602001611d8590771c995dd85c991cd25b9d195c995cdd14195c94195c9a5bd960421b815260180190565b6040516020818303038152906040528051906020012090506000604051602001611dc6907018dbdb9d1c9a589d5d1a5bdb931a5b5a5d607a1b815260110190565b6040516020818303038152906040528051906020012090506000604051602001611e05906e36b4b721b7b73a3934b13aba34b7b760891b8152600f0190565b6040516020818303038152906040528051906020012090506000604051602001611e40906a706f6f6c4d617853697a6560a81b8152600b0190565b60408051601f198184030181529082905280516020918201207332ba3432b92fb9ba30b5b2b22fb13cafbab9b2b960611b918301919091526bffffffffffffffffffffffff193360601b166034830152915060009060480160408051808303601f1901815290829052805160209091012060025463afc3602b60e01b83526004830182905290925060009134916001600160a01b03169063afc3602b9060240160206040518083038186803b158015611ef857600080fd5b505afa158015611f0c573d6000803e3d6000fd5b505050506040513d601f19601f82011682018060405250810190611f30919061310b565b611f3a9190613219565b60025460405163afc3602b60e01b8152600481018a90529192506001600160a01b03169063afc3602b9060240160206040518083038186803b158015611f7f57600080fd5b505afa158015611f93573d6000803e3d6000fd5b505050506040513d601f19601f82011682018060405250810190611fb7919061310b565b6120145760405162461bcd60e51b815260206004820152602860248201527f546865207465616d206e6565647320746f207365742061207265776172642069604482015267373a32b93b30b61760c11b60648201526084016106df565b60025460405163afc3602b60e01b8152600481018890526001600160a01b039091169063afc3602b9060240160206040518083038186803b15801561205857600080fd5b505afa15801561206c573d6000803e3d6000fd5b505050506040513d601f19601f82011682018060405250810190612090919061310b565b6120ea5760405162461bcd60e51b815260206004820152602560248201527f546865207465616d206e6565647320746f20736574206120726577617264207260448201526430ba34b79760d91b60648201526084016106df565b60025460405163afc3602b60e01b8152600481018790526001600160a01b039091169063afc3602b9060240160206040518083038186803b15801561212e57600080fd5b505afa158015612142573d6000803e3d6000fd5b505050506040513d601f19601f82011682018060405250810190612166919061310b565b6121c65760405162461bcd60e51b815260206004820152602b60248201527f546865207465616d206e6565647320746f20736574206120636f6e747269627560448201526a3a34b7b7103634b6b4ba1760a91b60648201526084016106df565b60025460405163afc3602b60e01b8152600481018790526001600160a01b039091169063afc3602b9060240160206040518083038186803b15801561220a57600080fd5b505afa15801561221e573d6000803e3d6000fd5b505050506040513d601f19601f82011682018060405250810190612242919061310b565b8111156122a35760405162461bcd60e51b815260206004820152602960248201527f4d61782e2063757272656e7420636f6e747269627574696f6e206c696d69742060448201526832bc31b2b2b232b21760b91b60648201526084016106df565b60025460405163afc3602b60e01b81526004810186905234916001600160a01b03169063afc3602b9060240160206040518083038186803b1580156122e757600080fd5b505afa1580156122fb573d6000803e3d6000fd5b505050506040513d601f19601f8201168201806040525081019061231f919061310b565b11156123ac5760405162461bcd60e51b815260206004820152605060248201527f56616c756520746f206465706f736974206e6565647320746f2062652068696760448201527f686572207468616e207468652063757272656e74206d696e696d756d20636f6e60648201526f3a3934b13aba34b7b7103634b6b4ba1760811b608482015260a4016106df565b60025460405163afc3602b60e01b8152600481018590526001600160a01b039091169063afc3602b9060240160206040518083038186803b1580156123f057600080fd5b505afa158015612404573d6000803e3d6000fd5b505050506040513d601f19601f82011682018060405250810190612428919061310b565b348a6001600160a01b031663ccfe0c8e6040518163ffffffff1660e01b815260040160206040518083038186803b15801561246257600080fd5b505afa158015612476573d6000803e3d6000fd5b505050506040513d601f19601f8201168201806040525081019061249a919061310b565b6124a49190613219565b111561250f5760405162461bcd60e51b815260206004820152603460248201527f4d61782e20506f6f6c2073697a65206f766572666c6f772077697468207468616044820152733a1030b6b7bab73a1037b3103232b837b9b4ba1760611b60648201526084016106df565b600260015414156125625760405162461bcd60e51b815260206004820152601f60248201527f5265656e7472616e637947756172643a207265656e7472616e742063616c6c0060448201526064016106df565b600260015560408051808201909152600a815269393ba2aa242a37b5b2b760b11b602082015260009061259490612c2a565b6040516340c10f1960e01b81523360048201523460248201529091506001600160a01b038216906340c10f1990604401600060405180830381600087803b1580156125de57600080fd5b505af11580156125f2573d6000803e3d6000fd5b50505050600060405160200161261f90703a37ba30b629bab838363cafa2ba3432b960791b815260110190565b60408051808303601f1901815290829052805160209091012060025462ec44af60e51b8352600483018290523460248401529092506001600160a01b031690631d8895e090604401600060405180830381600087803b15801561268157600080fd5b505af1158015612695573d6000803e3d6000fd5b5050604080513481524260208201523393507f91405db2584f6e8463494f0e18c40f87fe3146322d19c494e8a0e0a039c3886992500160405180910390a26126db612e17565b505060018055505050505050505050565b6000828152602081905260409020600101546127088133612bc6565b6110978383612db2565b60008051602061338583398151915261272b8133612bc6565b600060405160200161273c90613124565b60408051808303601f190181529082905280516020909101206002546355d9465560e01b8352600483018290529092506001600160a01b0316906355d946559060240160206040518083038186803b15801561279757600080fd5b505afa1580156127ab573d6000803e3d6000fd5b505050506040513d601f19601f820116820180604052508101906127cf919061313a565b1561281c5760405162461bcd60e51b815260206004820152601b60248201527f54686520706f6f6c2069732063757272656e746c79206c6976652e000000000060448201526064016106df565b612824611a64565b34146128725760405162461bcd60e51b815260206004820181905260248201527f496e76616c696420657468657220696e74657265737420696e6a65637465642e60448201526064016106df565b600061289e60405180604001604052806009815260200168141bdbdb15985d5b1d60ba1b815250612c2a565b905060006040516020016128c6906d6c61737452657761726454696d6560901b8152600e0190565b604051602081830303815290604052805190602001209050600060405160200161290a90731d1bdd185b14995dd85c991cd25b9a9958dd195960621b815260140190565b604051602081830303815290604052805190602001209050600060405160200161294b90703a37ba30b629bab838363cafa2ba3432b960791b815260110190565b60408051808303601f190181529082905280516020909101206002546328192c5560e01b8352600483018690524260248401529092506001600160a01b0316906328192c5590604401600060405180830381600087803b1580156129ae57600080fd5b505af11580156129c2573d6000803e3d6000fd5b505060025460405162ec44af60e51b8152600481018690523460248201526001600160a01b039091169250631d8895e09150604401600060405180830381600087803b158015612a1157600080fd5b505af1158015612a25573d6000803e3d6000fd5b505060025460405162ec44af60e51b8152600481018590523460248201526001600160a01b039091169250631d8895e09150604401600060405180830381600087803b158015612a7457600080fd5b505af1158015612a88573d6000803e3d6000fd5b50505050836001600160a01b031663f9fc0d07346040518263ffffffff1660e01b81526004016000604051808303818588803b158015612ac757600080fd5b505af1158015612adb573d6000803e3d6000fd5b505060025460405163afc3602b60e01b8152600481018890527f70bf248e27883b1a6af8a9d590cc2b58fa0d74b60c83a9bb5e12de0f9b3ddfc694506001600160a01b03909116925063afc3602b915060240160206040518083038186803b158015612b4657600080fd5b505afa158015612b5a573d6000803e3d6000fd5b505050506040513d601f19601f82011682018060405250810190612b7e919061310b565b604080519182523460208301520160405180910390a1505050505050565b600080604051602001610568907018dbdb9d1c9a589d5d1a5bdb931a5b5a5d607a1b815260110190565b612bd08282611a3b565b61111657612be8816001600160a01b03166014612e9c565b612bf3836020612e9c565b604051602001612c04929190613261565b60408051601f198184030181529082905262461bcd60e51b82526106df916004016132d6565b60008082604051602001612c3e9190613309565b60408051808303601f190181529082905280516020909101206002546315485dd960e11b8352600483018290529092506000916001600160a01b0390911690632a90bbb29060240160206040518083038186803b158015612c9e57600080fd5b505afa158015612cb2573d6000803e3d6000fd5b505050506040513d601f19601f82011682018060405250810190612cd691906131fc565b90506001600160a01b03811661189b5760405162461bcd60e51b815260206004820152601b60248201527f436f6e74726163742061646472657373206e6f7420666f756e642e000000000060448201526064016106df565b612d388282611a3b565b611116576000828152602081815260408083206001600160a01b03851684529091529020805460ff19166001179055612d6e3390565b6001600160a01b0316816001600160a01b0316837f2f8788117e7eff1d82e926ec794901d17c78024a50270940304540a733656f0d60405160405180910390a45050565b612dbc8282611a3b565b15611116576000828152602081815260408083206001600160a01b0385168085529252808320805460ff1916905551339285917ff6391f5c32d9c69d2a47ea670b442974b53935d1edc7fd64eb21e047a839171b9190a45050565b6000612e4360405180604001604052806009815260200168141bdbdb15985d5b1d60ba1b815250612c2a565b9050806001600160a01b031663a7cc190a346040518263ffffffff1660e01b81526004016000604051808303818588803b158015612e8057600080fd5b505af1158015612e94573d6000803e3d6000fd5b505050505050565b60606000612eab8360026131bb565b612eb6906002613219565b67ffffffffffffffff811115612ece57612ece613341565b6040519080825280601f01601f191660200182016040528015612ef8576020820181803683370190505b509050600360fc1b81600081518110612f1357612f13613357565b60200101906001600160f81b031916908160001a905350600f60fb1b81600181518110612f4257612f42613357565b60200101906001600160f81b031916908160001a9053506000612f668460026131bb565b612f71906001613219565b90505b6001811115612fe9576f181899199a1a9b1b9c1cb0b131b232b360811b85600f1660108110612fa557612fa5613357565b1a60f81b828281518110612fbb57612fbb613357565b60200101906001600160f81b031916908160001a90535060049490941c93612fe28161336d565b9050612f74565b50831561189b5760405162461bcd60e51b815260206004820181905260248201527f537472696e67733a20686578206c656e67746820696e73756666696369656e7460448201526064016106df565b60006020828403121561304a57600080fd5b81356001600160e01b03198116811461189b57600080fd5b60006020828403121561307457600080fd5b5035919050565b6001600160a01b038116811461309057600080fd5b50565b6000602082840312156130a557600080fd5b813561189b8161307b565b600080604083850312156130c357600080fd5b8235915060208301356130d58161307b565b809150509250929050565b801515811461309057600080fd5b60006020828403121561310057600080fd5b813561189b816130e0565b60006020828403121561311d57600080fd5b5051919050565b696973506f6f6c4c69766560b01b8152600a0190565b60006020828403121561314c57600080fd5b815161189b816130e0565b6020808252601d908201527f54686520706f6f6c2069732063757272656e746c7920636c6f7365642e000000604082015260600190565b634e487b7160e01b600052601160045260246000fd5b6000828210156131b6576131b661318e565b500390565b60008160001904831182151516156131d5576131d561318e565b500290565b6000826131f757634e487b7160e01b600052601260045260246000fd5b500490565b60006020828403121561320e57600080fd5b815161189b8161307b565b6000821982111561322c5761322c61318e565b500190565b60005b8381101561324c578181015183820152602001613234565b8381111561325b576000848401525b50505050565b7f416363657373436f6e74726f6c3a206163636f756e7420000000000000000000815260008351613299816017850160208801613231565b7001034b99036b4b9b9b4b733903937b6329607d1b60179184019182015283516132ca816028840160208801613231565b01602801949350505050565b60208152600082518060208401526132f5816040850160208701613231565b601f01601f19169190910160400192915050565b6f636f6e74726163745f6164647265737360801b815260008251613334816010850160208701613231565b9190910160100192915050565b634e487b7160e01b600052604160045260246000fd5b634e487b7160e01b600052603260045260246000fd5b60008161337c5761337c61318e565b50600019019056fe41a01ec0a13b563fa452569e3fbb116366d217c2769aa1561822e65a617e3842a26469706673582212208f9088fbb5005bb41246c55603dc402be7376da1aabfedb5a147dfa61b40fcc464736f6c63430008090033",
    "sourcePath": "c:/Users/Lior/Desktop/Index/Coding Software/GitHub/challenge/contracts/PoolClient.sol",
    "compiler": {
        "name": "solc",
        "version": "0.8.9+commit.e5eed63a"
    },
    "functionHashes": {
        "DEFAULT_ADMIN_ROLE()": "a217fddf",
        "POOL_MANAGER()": "62308e85",
        "addPoolManager(address)": "45077e71",
        "calculateRewards()": "3e50de30",
        "deposit()": "d0e30db0",
        "getContributionLimit()": "fa1e19e5",
        "getMinContribution()": "6cff7473",
        "getPoolBaseAddress()": "8ae68134",
        "getPoolClientAddress()": "6c426607",
        "getPoolMaxSize()": "095df57f",
        "getPoolState()": "217ac237",
        "getRewardsInterest()": "7521796f",
        "getRewardsInterval()": "497d0241",
        "getRewardsToInject()": "9ed03ab6",
        "getRoleAdmin(bytes32)": "248a9ca3",
        "grantRole(bytes32,address)": "2f2ff15d",
        "hasRole(bytes32,address)": "91d14854",
        "removePoolManager(address)": "29ca15bc",
        "renounceRole(bytes32,address)": "36568abe",
        "revokeRole(bytes32,address)": "d547741f",
        "rewardsInjector()": "ee7d4d2b",
        "setContributionLimit(uint256)": "72d099a0",
        "setMinContribution(uint256)": "473b0d46",
        "setPoolLive(bool)": "a4975516",
        "setPoolMaxSize(uint256)": "12646987",
        "setRewardsInterest(uint256)": "bf4c0036",
        "setRewardsInterval(uint256)": "53710f49",
        "supportsInterface(bytes4)": "01ffc9a7",
        "withdraw(uint256)": "2e1a7d4d"
    },
    "gasEstimates": {
        "creation": {
            "codeDepositCost": "2654800",
            "executionCost": "infinite",
            "totalCost": "infinite"
        },
        "external": {
            "DEFAULT_ADMIN_ROLE()": "262",
            "POOL_MANAGER()": "infinite",
            "addPoolManager(address)": "infinite",
            "calculateRewards()": "infinite",
            "deposit()": "infinite",
            "getContributionLimit()": "infinite",
            "getMinContribution()": "infinite",
            "getPoolBaseAddress()": "infinite",
            "getPoolClientAddress()": "infinite",
            "getPoolMaxSize()": "infinite",
            "getPoolState()": "infinite",
            "getRewardsInterest()": "infinite",
            "getRewardsInterval()": "infinite",
            "getRewardsToInject()": "infinite",
            "getRoleAdmin(bytes32)": "2515",
            "grantRole(bytes32,address)": "infinite",
            "hasRole(bytes32,address)": "2761",
            "removePoolManager(address)": "infinite",
            "renounceRole(bytes32,address)": "29062",
            "revokeRole(bytes32,address)": "infinite",
            "rewardsInjector()": "infinite",
            "setContributionLimit(uint256)": "infinite",
            "setMinContribution(uint256)": "infinite",
            "setPoolLive(bool)": "infinite",
            "setPoolMaxSize(uint256)": "infinite",
            "setRewardsInterest(uint256)": "infinite",
            "setRewardsInterval(uint256)": "infinite",
            "supportsInterface(bytes4)": "473",
            "withdraw(uint256)": "infinite"
        },
        "internal": {
            "_depositToVault()": "infinite",
            "_setPoolClientAddress()": "infinite"
        }
    }
}