{
    "contractName": "PoolBase",
    "abi": [
        {
            "inputs": [
                {
                    "internalType": "contract DataStorageInterface",
                    "name": "_dataStorageAddress",
                    "type": "address"
                }
            ],
            "stateMutability": "nonpayable",
            "type": "constructor"
        },
        {
            "anonymous": false,
            "inputs": [
                {
                    "indexed": true,
                    "internalType": "address",
                    "name": "_removedManager",
                    "type": "address"
                }
            ],
            "name": "ManagerRemoved",
            "type": "event"
        },
        {
            "anonymous": false,
            "inputs": [
                {
                    "indexed": true,
                    "internalType": "address",
                    "name": "_newManager",
                    "type": "address"
                }
            ],
            "name": "NewManagerAdded",
            "type": "event"
        },
        {
            "anonymous": false,
            "inputs": [
                {
                    "indexed": true,
                    "internalType": "bytes32",
                    "name": "role",
                    "type": "bytes32"
                },
                {
                    "indexed": true,
                    "internalType": "bytes32",
                    "name": "previousAdminRole",
                    "type": "bytes32"
                },
                {
                    "indexed": true,
                    "internalType": "bytes32",
                    "name": "newAdminRole",
                    "type": "bytes32"
                }
            ],
            "name": "RoleAdminChanged",
            "type": "event"
        },
        {
            "anonymous": false,
            "inputs": [
                {
                    "indexed": true,
                    "internalType": "bytes32",
                    "name": "role",
                    "type": "bytes32"
                },
                {
                    "indexed": true,
                    "internalType": "address",
                    "name": "account",
                    "type": "address"
                },
                {
                    "indexed": true,
                    "internalType": "address",
                    "name": "sender",
                    "type": "address"
                }
            ],
            "name": "RoleGranted",
            "type": "event"
        },
        {
            "anonymous": false,
            "inputs": [
                {
                    "indexed": true,
                    "internalType": "bytes32",
                    "name": "role",
                    "type": "bytes32"
                },
                {
                    "indexed": true,
                    "internalType": "address",
                    "name": "account",
                    "type": "address"
                },
                {
                    "indexed": true,
                    "internalType": "address",
                    "name": "sender",
                    "type": "address"
                }
            ],
            "name": "RoleRevoked",
            "type": "event"
        },
        {
            "inputs": [],
            "name": "DEFAULT_ADMIN_ROLE",
            "outputs": [
                {
                    "internalType": "bytes32",
                    "name": "",
                    "type": "bytes32"
                }
            ],
            "stateMutability": "view",
            "type": "function"
        },
        {
            "inputs": [],
            "name": "POOL_MANAGER",
            "outputs": [
                {
                    "internalType": "bytes32",
                    "name": "",
                    "type": "bytes32"
                }
            ],
            "stateMutability": "view",
            "type": "function"
        },
        {
            "inputs": [
                {
                    "internalType": "address",
                    "name": "_address",
                    "type": "address"
                }
            ],
            "name": "addPoolManager",
            "outputs": [],
            "stateMutability": "nonpayable",
            "type": "function"
        },
        {
            "inputs": [
                {
                    "internalType": "bytes32",
                    "name": "role",
                    "type": "bytes32"
                }
            ],
            "name": "getRoleAdmin",
            "outputs": [
                {
                    "internalType": "bytes32",
                    "name": "",
                    "type": "bytes32"
                }
            ],
            "stateMutability": "view",
            "type": "function"
        },
        {
            "inputs": [
                {
                    "internalType": "bytes32",
                    "name": "role",
                    "type": "bytes32"
                },
                {
                    "internalType": "address",
                    "name": "account",
                    "type": "address"
                }
            ],
            "name": "grantRole",
            "outputs": [],
            "stateMutability": "nonpayable",
            "type": "function"
        },
        {
            "inputs": [
                {
                    "internalType": "bytes32",
                    "name": "role",
                    "type": "bytes32"
                },
                {
                    "internalType": "address",
                    "name": "account",
                    "type": "address"
                }
            ],
            "name": "hasRole",
            "outputs": [
                {
                    "internalType": "bool",
                    "name": "",
                    "type": "bool"
                }
            ],
            "stateMutability": "view",
            "type": "function"
        },
        {
            "inputs": [
                {
                    "internalType": "address",
                    "name": "_address",
                    "type": "address"
                }
            ],
            "name": "removePoolManager",
            "outputs": [],
            "stateMutability": "nonpayable",
            "type": "function"
        },
        {
            "inputs": [
                {
                    "internalType": "bytes32",
                    "name": "role",
                    "type": "bytes32"
                },
                {
                    "internalType": "address",
                    "name": "account",
                    "type": "address"
                }
            ],
            "name": "renounceRole",
            "outputs": [],
            "stateMutability": "nonpayable",
            "type": "function"
        },
        {
            "inputs": [
                {
                    "internalType": "bytes32",
                    "name": "role",
                    "type": "bytes32"
                },
                {
                    "internalType": "address",
                    "name": "account",
                    "type": "address"
                }
            ],
            "name": "revokeRole",
            "outputs": [],
            "stateMutability": "nonpayable",
            "type": "function"
        },
        {
            "inputs": [
                {
                    "internalType": "uint256",
                    "name": "_newContrLimit",
                    "type": "uint256"
                }
            ],
            "name": "setContributionLimit",
            "outputs": [],
            "stateMutability": "nonpayable",
            "type": "function"
        },
        {
            "inputs": [],
            "name": "setPoolBaseAddress",
            "outputs": [],
            "stateMutability": "nonpayable",
            "type": "function"
        },
        {
            "inputs": [
                {
                    "internalType": "uint256",
                    "name": "_poolFees",
                    "type": "uint256"
                }
            ],
            "name": "setPoolFees",
            "outputs": [],
            "stateMutability": "nonpayable",
            "type": "function"
        },
        {
            "inputs": [
                {
                    "internalType": "bool",
                    "name": "_live",
                    "type": "bool"
                }
            ],
            "name": "setPoolLive",
            "outputs": [],
            "stateMutability": "nonpayable",
            "type": "function"
        },
        {
            "inputs": [
                {
                    "internalType": "uint256",
                    "name": "_rewardsInterest",
                    "type": "uint256"
                }
            ],
            "name": "setRewardsInterest",
            "outputs": [],
            "stateMutability": "nonpayable",
            "type": "function"
        },
        {
            "inputs": [
                {
                    "internalType": "uint256",
                    "name": "_daysToRewards",
                    "type": "uint256"
                }
            ],
            "name": "setRewardsInterval",
            "outputs": [],
            "stateMutability": "nonpayable",
            "type": "function"
        },
        {
            "inputs": [
                {
                    "internalType": "bytes4",
                    "name": "interfaceId",
                    "type": "bytes4"
                }
            ],
            "name": "supportsInterface",
            "outputs": [
                {
                    "internalType": "bool",
                    "name": "",
                    "type": "bool"
                }
            ],
            "stateMutability": "view",
            "type": "function"
        },
        {
            "inputs": [
                {
                    "internalType": "address",
                    "name": "_newAddress",
                    "type": "address"
                }
            ],
            "name": "updateDataStorageAddress",
            "outputs": [],
            "stateMutability": "nonpayable",
            "type": "function"
        }
    ],
    "bytecode": "60806040523480156200001157600080fd5b506040516200151c3803806200151c833981016040819052620000349162000143565b60018055600280546001600160a01b0319166001600160a01b0383161790556200006060003362000093565b6200008c7f41a01ec0a13b563fa452569e3fbb116366d217c2769aa1561822e65a617e38423362000093565b5062000175565b6200009f8282620000a3565b5050565b6000828152602081815260408083206001600160a01b038516845290915290205460ff166200009f576000828152602081815260408083206001600160a01b03851684529091529020805460ff19166001179055620000ff3390565b6001600160a01b0316816001600160a01b0316837f2f8788117e7eff1d82e926ec794901d17c78024a50270940304540a733656f0d60405160405180910390a45050565b6000602082840312156200015657600080fd5b81516001600160a01b03811681146200016e57600080fd5b9392505050565b61139780620001856000396000f3fe608060405234801561001057600080fd5b506004361061010b5760003560e01c80636d73bb22116100a257806391d148541161007157806391d1485414610220578063a217fddf14610233578063a49755161461023b578063bf4c00361461024e578063d547741f1461026157600080fd5b80636d73bb22146101df5780636e9d0bfa146101f257806372d099a0146101fa5780638dd225d51461020d57600080fd5b806336568abe116100de57806336568abe1461019157806345077e71146101a457806353710f49146101b757806362308e85146101ca57600080fd5b806301ffc9a714610110578063248a9ca31461013857806329ca15bc146101695780632f2ff15d1461017e575b600080fd5b61012361011e366004611099565b610274565b60405190151581526020015b60405180910390f35b61015b6101463660046110c3565b60009081526020819052604090206001015490565b60405190815260200161012f565b61017c6101773660046110f4565b6102ab565b005b61017c61018c366004611111565b610307565b61017c61019f366004611111565b610332565b61017c6101b23660046110f4565b6103b5565b61017c6101c53660046110c3565b610411565b61015b60008051602061134283398151915281565b61017c6101ed3660046110f4565b6105a8565b61017c6105e4565b61017c6102083660046110c3565b61083d565b61017c61021b3660046110c3565b610997565b61012361022e366004611111565b610bba565b61015b600081565b61017c61024936600461114f565b610be3565b61017c61025c3660046110c3565b610c68565b61017c61026f366004611111565b610d83565b60006001600160e01b03198216637965db0b60e01b14806102a557506301ffc9a760e01b6001600160e01b03198316145b92915050565b60006102b78133610da9565b6102cf60008051602061134283398151915283610d83565b6040516001600160a01b038316907fef69f7d97228658c92417be1b16b19058315de71fecb435d07b7d23728b6bd3190600090a25050565b6000828152602081905260409020600101546103238133610da9565b61032d8383610e0d565b505050565b6001600160a01b03811633146103a75760405162461bcd60e51b815260206004820152602f60248201527f416363657373436f6e74726f6c3a2063616e206f6e6c792072656e6f756e636560448201526e103937b632b9903337b91039b2b63360891b60648201526084015b60405180910390fd5b6103b18282610e91565b5050565b60006103c18133610da9565b6103d960008051602061134283398151915283610307565b6040516001600160a01b038316907fd873e3f571dc25e020cefdeb7255b3874ead3aade1f94a5fb4a5da831fd670cd90600090a25050565b60008051602061134283398151915261042a8133610da9565b600254604051696973506f6f6c4c69766560b01b60208201526001600160a01b03909116906355d9465590602a01604051602081830303815290604052805190602001206040518263ffffffff1660e01b815260040161048c91815260200190565b60206040518083038186803b1580156104a457600080fd5b505afa1580156104b8573d6000803e3d6000fd5b505050506040513d601f19601f820116820180604052508101906104dc919061116c565b6104f85760405162461bcd60e51b815260040161039e90611189565b604080516c64617973546f5265776172647360981b6020808301919091528251600d818403018152602d90920190925280519101206002546001600160a01b03166328192c558261054c86620151806111d6565b6040516001600160e01b031960e085901b168152600481019290925260248201526044015b600060405180830381600087803b15801561058b57600080fd5b505af115801561059f573d6000803e3d6000fd5b50505050505050565b6000805160206113428339815191526105c18133610da9565b50600280546001600160a01b0319166001600160a01b0392909216919091179055565b600260009054906101000a90046001600160a01b03166001600160a01b0316630bc169a56040518163ffffffff1660e01b815260040160206040518083038186803b15801561063257600080fd5b505afa158015610646573d6000803e3d6000fd5b505050506040513d601f19601f8201168201806040525081019061066a91906111f5565b6001600160a01b0316336001600160a01b0316146106d55760405162461bcd60e51b815260206004820152602260248201527f4f6e6c792063616c6c61626c652062792063757272656e742067756172646961604482015261371760f11b606482015260840161039e565b6002546040516e636f6e74726163745f65786973747360881b60208201526bffffffffffffffffffffffff193060601b16602f8201526001600160a01b039091169063988c515b9060430160408051601f198184030181529082905280516020909101206001600160e01b031960e084901b168252600482015260016024820152604401600060405180830381600087803b15801561077357600080fd5b505af1158015610787573d6000803e3d6000fd5b505060025460405170636f6e74726163745f5f6164647265737360781b602082015267506f6f6c4261736560c01b60318201526001600160a01b039091169250637221263a915060390160408051601f198184030181529082905280516020909101206001600160e01b031960e084901b1682526004820152306024820152604401600060405180830381600087803b15801561082357600080fd5b505af1158015610837573d6000803e3d6000fd5b50505050565b6000805160206113428339815191526108568133610da9565b600254604051696973506f6f6c4c69766560b01b60208201526001600160a01b03909116906355d9465590602a01604051602081830303815290604052805190602001206040518263ffffffff1660e01b81526004016108b891815260200190565b60206040518083038186803b1580156108d057600080fd5b505afa1580156108e4573d6000803e3d6000fd5b505050506040513d601f19601f82011682018060405250810190610908919061116c565b6109245760405162461bcd60e51b815260040161039e90611189565b6040517018dbdb9d1c9a589d5d1a5bdb931a5b5a5d607a1b60208201526000906031015b60408051808303601f190181529082905280516020909101206002546328192c5560e01b835260048301829052602483018690529092506001600160a01b0316906328192c5590604401610571565b6000805160206113428339815191526109b08133610da9565b600254604051696973506f6f6c4c69766560b01b60208201526001600160a01b03909116906355d9465590602a01604051602081830303815290604052805190602001206040518263ffffffff1660e01b8152600401610a1291815260200190565b60206040518083038186803b158015610a2a57600080fd5b505afa158015610a3e573d6000803e3d6000fd5b505050506040513d601f19601f82011682018060405250810190610a62919061116c565b610a7e5760405162461bcd60e51b815260040161039e90611189565b60405167706f6f6c4665657360c01b60208201526000906028016040516020818303038152906040528051906020012090506000604051602001610ad3906a1c1bdbdb1199595cd4d95d60aa1b8152600b0190565b60408051808303601f190181529082905280516020909101206002546328192c5560e01b835260048301859052602483018790529092506001600160a01b0316906328192c5590604401600060405180830381600087803b158015610b3757600080fd5b505af1158015610b4b573d6000803e3d6000fd5b505060025460405163988c515b60e01b815260048101859052600160248201526001600160a01b03909116925063988c515b9150604401600060405180830381600087803b158015610b9c57600080fd5b505af1158015610bb0573d6000803e3d6000fd5b5050505050505050565b6000918252602082815260408084206001600160a01b0393909316845291905290205460ff1690565b600080516020611342833981519152610bfc8133610da9565b604051696973506f6f6c4c69766560b01b6020820152600090602a0160408051808303601f1901815290829052805160209091012060025463988c515b60e01b83526004830182905285151560248401529092506001600160a01b03169063988c515b90604401610571565b600080516020611342833981519152610c818133610da9565b600254604051696973506f6f6c4c69766560b01b60208201526001600160a01b03909116906355d9465590602a01604051602081830303815290604052805190602001206040518263ffffffff1660e01b8152600401610ce391815260200190565b60206040518083038186803b158015610cfb57600080fd5b505afa158015610d0f573d6000803e3d6000fd5b505050506040513d601f19601f82011682018060405250810190610d33919061116c565b610d4f5760405162461bcd60e51b815260040161039e90611189565b6040517f72657761726473496e746572657374506572506572696f6400000000000000006020820152600090603801610948565b600082815260208190526040902060010154610d9f8133610da9565b61032d8383610e91565b610db38282610bba565b6103b157610dcb816001600160a01b03166014610ef6565b610dd6836020610ef6565b604051602001610de792919061123e565b60408051601f198184030181529082905262461bcd60e51b825261039e916004016112b3565b610e178282610bba565b6103b1576000828152602081815260408083206001600160a01b03851684529091529020805460ff19166001179055610e4d3390565b6001600160a01b0316816001600160a01b0316837f2f8788117e7eff1d82e926ec794901d17c78024a50270940304540a733656f0d60405160405180910390a45050565b610e9b8282610bba565b156103b1576000828152602081815260408083206001600160a01b0385168085529252808320805460ff1916905551339285917ff6391f5c32d9c69d2a47ea670b442974b53935d1edc7fd64eb21e047a839171b9190a45050565b60606000610f058360026111d6565b610f109060026112e6565b67ffffffffffffffff811115610f2857610f286112fe565b6040519080825280601f01601f191660200182016040528015610f52576020820181803683370190505b509050600360fc1b81600081518110610f6d57610f6d611314565b60200101906001600160f81b031916908160001a905350600f60fb1b81600181518110610f9c57610f9c611314565b60200101906001600160f81b031916908160001a9053506000610fc08460026111d6565b610fcb9060016112e6565b90505b6001811115611043576f181899199a1a9b1b9c1cb0b131b232b360811b85600f1660108110610fff57610fff611314565b1a60f81b82828151811061101557611015611314565b60200101906001600160f81b031916908160001a90535060049490941c9361103c8161132a565b9050610fce565b5083156110925760405162461bcd60e51b815260206004820181905260248201527f537472696e67733a20686578206c656e67746820696e73756666696369656e74604482015260640161039e565b9392505050565b6000602082840312156110ab57600080fd5b81356001600160e01b03198116811461109257600080fd5b6000602082840312156110d557600080fd5b5035919050565b6001600160a01b03811681146110f157600080fd5b50565b60006020828403121561110657600080fd5b8135611092816110dc565b6000806040838503121561112457600080fd5b823591506020830135611136816110dc565b809150509250929050565b80151581146110f157600080fd5b60006020828403121561116157600080fd5b813561109281611141565b60006020828403121561117e57600080fd5b815161109281611141565b6020808252601d908201527f54686520706f6f6c2069732063757272656e746c7920636c6f7365642e000000604082015260600190565b634e487b7160e01b600052601160045260246000fd5b60008160001904831182151516156111f0576111f06111c0565b500290565b60006020828403121561120757600080fd5b8151611092816110dc565b60005b8381101561122d578181015183820152602001611215565b838111156108375750506000910152565b7f416363657373436f6e74726f6c3a206163636f756e7420000000000000000000815260008351611276816017850160208801611212565b7001034b99036b4b9b9b4b733903937b6329607d1b60179184019182015283516112a7816028840160208801611212565b01602801949350505050565b60208152600082518060208401526112d2816040850160208701611212565b601f01601f19169190910160400192915050565b600082198211156112f9576112f96111c0565b500190565b634e487b7160e01b600052604160045260246000fd5b634e487b7160e01b600052603260045260246000fd5b600081611339576113396111c0565b50600019019056fe41a01ec0a13b563fa452569e3fbb116366d217c2769aa1561822e65a617e3842a26469706673582212208ebd7c3c9ce5a4e79e73522638fdc299209f6693b86ef3738063ef2eee4b10f264736f6c63430008090033",
    "sourcePath": "c:/Users/Lior/Desktop/Index/Coding Software/GitHub/challenge/contracts/PoolBase.sol",
    "compiler": {
        "name": "solc",
        "version": "0.8.9+commit.e5eed63a"
    },
    "functionHashes": {
        "DEFAULT_ADMIN_ROLE()": "a217fddf",
        "POOL_MANAGER()": "62308e85",
        "addPoolManager(address)": "45077e71",
        "getRoleAdmin(bytes32)": "248a9ca3",
        "grantRole(bytes32,address)": "2f2ff15d",
        "hasRole(bytes32,address)": "91d14854",
        "removePoolManager(address)": "29ca15bc",
        "renounceRole(bytes32,address)": "36568abe",
        "revokeRole(bytes32,address)": "d547741f",
        "setContributionLimit(uint256)": "72d099a0",
        "setPoolBaseAddress()": "6e9d0bfa",
        "setPoolFees(uint256)": "8dd225d5",
        "setPoolLive(bool)": "a4975516",
        "setRewardsInterest(uint256)": "bf4c0036",
        "setRewardsInterval(uint256)": "53710f49",
        "supportsInterface(bytes4)": "01ffc9a7",
        "updateDataStorageAddress(address)": "6d73bb22"
    },
    "gasEstimates": {
        "creation": {
            "codeDepositCost": "1003000",
            "executionCost": "infinite",
            "totalCost": "infinite"
        },
        "external": {
            "DEFAULT_ADMIN_ROLE()": "239",
            "POOL_MANAGER()": "infinite",
            "addPoolManager(address)": "infinite",
            "getRoleAdmin(bytes32)": "2493",
            "grantRole(bytes32,address)": "infinite",
            "hasRole(bytes32,address)": "2672",
            "removePoolManager(address)": "infinite",
            "renounceRole(bytes32,address)": "29017",
            "revokeRole(bytes32,address)": "infinite",
            "setContributionLimit(uint256)": "infinite",
            "setPoolBaseAddress()": "infinite",
            "setPoolFees(uint256)": "infinite",
            "setPoolLive(bool)": "infinite",
            "setRewardsInterest(uint256)": "infinite",
            "setRewardsInterval(uint256)": "infinite",
            "supportsInterface(bytes4)": "450",
            "updateDataStorageAddress(address)": "infinite"
        },
        "internal": {
            "getContractAddress(string memory)": "infinite"
        }
    }
}