{
    "contractName": "PoolClient",
    "abi": [
        {
            "inputs": [
                {
                    "internalType": "contract DataStorageInterface",
                    "name": "_dataStorageAddress",
                    "type": "address"
                }
            ],
            "stateMutability": "nonpayable",
            "type": "constructor"
        },
        {
            "anonymous": false,
            "inputs": [
                {
                    "indexed": true,
                    "internalType": "address",
                    "name": "_removedManager",
                    "type": "address"
                }
            ],
            "name": "ManagerRemoved",
            "type": "event"
        },
        {
            "anonymous": false,
            "inputs": [
                {
                    "indexed": true,
                    "internalType": "address",
                    "name": "_newManager",
                    "type": "address"
                }
            ],
            "name": "NewManagerAdded",
            "type": "event"
        },
        {
            "anonymous": false,
            "inputs": [
                {
                    "indexed": false,
                    "internalType": "uint256",
                    "name": "_lastRewardTime",
                    "type": "uint256"
                },
                {
                    "indexed": false,
                    "internalType": "uint256",
                    "name": "_amountInjected",
                    "type": "uint256"
                }
            ],
            "name": "RewardsInjected",
            "type": "event"
        },
        {
            "anonymous": false,
            "inputs": [
                {
                    "indexed": true,
                    "internalType": "bytes32",
                    "name": "role",
                    "type": "bytes32"
                },
                {
                    "indexed": true,
                    "internalType": "bytes32",
                    "name": "previousAdminRole",
                    "type": "bytes32"
                },
                {
                    "indexed": true,
                    "internalType": "bytes32",
                    "name": "newAdminRole",
                    "type": "bytes32"
                }
            ],
            "name": "RoleAdminChanged",
            "type": "event"
        },
        {
            "anonymous": false,
            "inputs": [
                {
                    "indexed": true,
                    "internalType": "bytes32",
                    "name": "role",
                    "type": "bytes32"
                },
                {
                    "indexed": true,
                    "internalType": "address",
                    "name": "account",
                    "type": "address"
                },
                {
                    "indexed": true,
                    "internalType": "address",
                    "name": "sender",
                    "type": "address"
                }
            ],
            "name": "RoleGranted",
            "type": "event"
        },
        {
            "anonymous": false,
            "inputs": [
                {
                    "indexed": true,
                    "internalType": "bytes32",
                    "name": "role",
                    "type": "bytes32"
                },
                {
                    "indexed": true,
                    "internalType": "address",
                    "name": "account",
                    "type": "address"
                },
                {
                    "indexed": true,
                    "internalType": "address",
                    "name": "sender",
                    "type": "address"
                }
            ],
            "name": "RoleRevoked",
            "type": "event"
        },
        {
            "anonymous": false,
            "inputs": [
                {
                    "indexed": true,
                    "internalType": "address",
                    "name": "_staker",
                    "type": "address"
                },
                {
                    "indexed": false,
                    "internalType": "uint256",
                    "name": "_ethAmount",
                    "type": "uint256"
                },
                {
                    "indexed": false,
                    "internalType": "uint256",
                    "name": "_time",
                    "type": "uint256"
                }
            ],
            "name": "UserStaked",
            "type": "event"
        },
        {
            "anonymous": false,
            "inputs": [
                {
                    "indexed": true,
                    "internalType": "address",
                    "name": "_unstaker",
                    "type": "address"
                },
                {
                    "indexed": false,
                    "internalType": "uint256",
                    "name": "_ethAmount",
                    "type": "uint256"
                },
                {
                    "indexed": false,
                    "internalType": "uint256",
                    "name": "_time",
                    "type": "uint256"
                }
            ],
            "name": "UserUnstaked",
            "type": "event"
        },
        {
            "inputs": [],
            "name": "DEFAULT_ADMIN_ROLE",
            "outputs": [
                {
                    "internalType": "bytes32",
                    "name": "",
                    "type": "bytes32"
                }
            ],
            "stateMutability": "view",
            "type": "function"
        },
        {
            "inputs": [],
            "name": "POOL_MANAGER",
            "outputs": [
                {
                    "internalType": "bytes32",
                    "name": "",
                    "type": "bytes32"
                }
            ],
            "stateMutability": "view",
            "type": "function"
        },
        {
            "inputs": [
                {
                    "internalType": "address",
                    "name": "_address",
                    "type": "address"
                }
            ],
            "name": "addPoolManager",
            "outputs": [],
            "stateMutability": "nonpayable",
            "type": "function"
        },
        {
            "inputs": [],
            "name": "calculateRewards",
            "outputs": [],
            "stateMutability": "nonpayable",
            "type": "function"
        },
        {
            "inputs": [],
            "name": "deposit",
            "outputs": [],
            "stateMutability": "payable",
            "type": "function"
        },
        {
            "inputs": [],
            "name": "getContributionLimit",
            "outputs": [
                {
                    "internalType": "uint256",
                    "name": "",
                    "type": "uint256"
                }
            ],
            "stateMutability": "view",
            "type": "function"
        },
        {
            "inputs": [],
            "name": "getMinContribution",
            "outputs": [
                {
                    "internalType": "uint256",
                    "name": "",
                    "type": "uint256"
                }
            ],
            "stateMutability": "view",
            "type": "function"
        },
        {
            "inputs": [],
            "name": "getPoolBaseAddress",
            "outputs": [
                {
                    "internalType": "address",
                    "name": "",
                    "type": "address"
                }
            ],
            "stateMutability": "view",
            "type": "function"
        },
        {
            "inputs": [],
            "name": "getPoolClientAddress",
            "outputs": [
                {
                    "internalType": "address",
                    "name": "",
                    "type": "address"
                }
            ],
            "stateMutability": "view",
            "type": "function"
        },
        {
            "inputs": [],
            "name": "getPoolFees",
            "outputs": [
                {
                    "internalType": "uint256",
                    "name": "",
                    "type": "uint256"
                }
            ],
            "stateMutability": "view",
            "type": "function"
        },
        {
            "inputs": [],
            "name": "getPoolMaxSize",
            "outputs": [
                {
                    "internalType": "uint256",
                    "name": "",
                    "type": "uint256"
                }
            ],
            "stateMutability": "view",
            "type": "function"
        },
        {
            "inputs": [],
            "name": "getPoolState",
            "outputs": [
                {
                    "internalType": "bool",
                    "name": "",
                    "type": "bool"
                }
            ],
            "stateMutability": "view",
            "type": "function"
        },
        {
            "inputs": [],
            "name": "getRewardsInterest",
            "outputs": [
                {
                    "internalType": "uint256",
                    "name": "",
                    "type": "uint256"
                }
            ],
            "stateMutability": "view",
            "type": "function"
        },
        {
            "inputs": [],
            "name": "getRewardsInterval",
            "outputs": [
                {
                    "internalType": "uint256",
                    "name": "",
                    "type": "uint256"
                }
            ],
            "stateMutability": "view",
            "type": "function"
        },
        {
            "inputs": [],
            "name": "getRewardsToInject",
            "outputs": [
                {
                    "internalType": "uint256",
                    "name": "",
                    "type": "uint256"
                }
            ],
            "stateMutability": "view",
            "type": "function"
        },
        {
            "inputs": [
                {
                    "internalType": "bytes32",
                    "name": "role",
                    "type": "bytes32"
                }
            ],
            "name": "getRoleAdmin",
            "outputs": [
                {
                    "internalType": "bytes32",
                    "name": "",
                    "type": "bytes32"
                }
            ],
            "stateMutability": "view",
            "type": "function"
        },
        {
            "inputs": [
                {
                    "internalType": "bytes32",
                    "name": "role",
                    "type": "bytes32"
                },
                {
                    "internalType": "address",
                    "name": "account",
                    "type": "address"
                }
            ],
            "name": "grantRole",
            "outputs": [],
            "stateMutability": "nonpayable",
            "type": "function"
        },
        {
            "inputs": [
                {
                    "internalType": "bytes32",
                    "name": "role",
                    "type": "bytes32"
                },
                {
                    "internalType": "address",
                    "name": "account",
                    "type": "address"
                }
            ],
            "name": "hasRole",
            "outputs": [
                {
                    "internalType": "bool",
                    "name": "",
                    "type": "bool"
                }
            ],
            "stateMutability": "view",
            "type": "function"
        },
        {
            "inputs": [
                {
                    "internalType": "address",
                    "name": "_address",
                    "type": "address"
                }
            ],
            "name": "removePoolManager",
            "outputs": [],
            "stateMutability": "nonpayable",
            "type": "function"
        },
        {
            "inputs": [
                {
                    "internalType": "bytes32",
                    "name": "role",
                    "type": "bytes32"
                },
                {
                    "internalType": "address",
                    "name": "account",
                    "type": "address"
                }
            ],
            "name": "renounceRole",
            "outputs": [],
            "stateMutability": "nonpayable",
            "type": "function"
        },
        {
            "inputs": [
                {
                    "internalType": "bytes32",
                    "name": "role",
                    "type": "bytes32"
                },
                {
                    "internalType": "address",
                    "name": "account",
                    "type": "address"
                }
            ],
            "name": "revokeRole",
            "outputs": [],
            "stateMutability": "nonpayable",
            "type": "function"
        },
        {
            "inputs": [],
            "name": "rewardsInjector",
            "outputs": [],
            "stateMutability": "payable",
            "type": "function"
        },
        {
            "inputs": [
                {
                    "internalType": "uint256",
                    "name": "_newContrLimit",
                    "type": "uint256"
                }
            ],
            "name": "setContributionLimit",
            "outputs": [],
            "stateMutability": "nonpayable",
            "type": "function"
        },
        {
            "inputs": [
                {
                    "internalType": "uint256",
                    "name": "_newMinContr",
                    "type": "uint256"
                }
            ],
            "name": "setMinContribution",
            "outputs": [],
            "stateMutability": "nonpayable",
            "type": "function"
        },
        {
            "inputs": [
                {
                    "internalType": "uint256",
                    "name": "_poolFees",
                    "type": "uint256"
                }
            ],
            "name": "setPoolFees",
            "outputs": [],
            "stateMutability": "nonpayable",
            "type": "function"
        },
        {
            "inputs": [
                {
                    "internalType": "bool",
                    "name": "_live",
                    "type": "bool"
                }
            ],
            "name": "setPoolLive",
            "outputs": [],
            "stateMutability": "nonpayable",
            "type": "function"
        },
        {
            "inputs": [
                {
                    "internalType": "uint256",
                    "name": "_maxSize",
                    "type": "uint256"
                }
            ],
            "name": "setPoolMaxSize",
            "outputs": [],
            "stateMutability": "nonpayable",
            "type": "function"
        },
        {
            "inputs": [
                {
                    "internalType": "uint256",
                    "name": "_rewardsInterest",
                    "type": "uint256"
                }
            ],
            "name": "setRewardsInterest",
            "outputs": [],
            "stateMutability": "nonpayable",
            "type": "function"
        },
        {
            "inputs": [
                {
                    "internalType": "uint256",
                    "name": "_daysToRewards",
                    "type": "uint256"
                }
            ],
            "name": "setRewardsInterval",
            "outputs": [],
            "stateMutability": "nonpayable",
            "type": "function"
        },
        {
            "inputs": [
                {
                    "internalType": "bytes4",
                    "name": "interfaceId",
                    "type": "bytes4"
                }
            ],
            "name": "supportsInterface",
            "outputs": [
                {
                    "internalType": "bool",
                    "name": "",
                    "type": "bool"
                }
            ],
            "stateMutability": "view",
            "type": "function"
        },
        {
            "inputs": [
                {
                    "internalType": "uint256",
                    "name": "_rwEthAmount",
                    "type": "uint256"
                }
            ],
            "name": "withdraw",
            "outputs": [],
            "stateMutability": "nonpayable",
            "type": "function"
        }
    ],
    "bytecode": "60806040523480156200001157600080fd5b506040516200394b3803806200394b8339810160408190526200003491620003c0565b60018055600280546001600160a01b0319166001600160a01b0383161790558062000061600033620000a9565b6200008d7f41a01ec0a13b563fa452569e3fbb116366d217c2769aa1561822e65a617e384233620000a9565b62000097620000b9565b50620000a262000220565b50620003f2565b620000b5828262000320565b5050565b6002546040516e636f6e74726163745f65786973747360881b60208201526001600160601b03193060601b16602f8201526001600160a01b039091169063988c515b9060430160408051601f198184030181529082905280516020909101206001600160e01b031960e084901b168252600482015260016024820152604401600060405180830381600087803b1580156200015357600080fd5b505af115801562000168573d6000803e3d6000fd5b50506002546040516f636f6e74726163745f6164647265737360801b602082015267506f6f6c4261736560c01b60308201526001600160a01b039091169250637221263a91506038015b60408051601f198184030181529082905280516020909101206001600160e01b031960e084901b1682526004820152306024820152604401600060405180830381600087803b1580156200020557600080fd5b505af11580156200021a573d6000803e3d6000fd5b50505050565b6002546040516e636f6e74726163745f65786973747360881b60208201526001600160601b03193060601b16602f8201526001600160a01b039091169063988c515b9060430160408051601f198184030181529082905280516020909101206001600160e01b031960e084901b168252600482015260016024820152604401600060405180830381600087803b158015620002ba57600080fd5b505af1158015620002cf573d6000803e3d6000fd5b50506002546040516f636f6e74726163745f6164647265737360801b602082015269141bdbdb10db1a595b9d60b21b60308201526001600160a01b039091169250637221263a9150603a01620001b2565b6000828152602081815260408083206001600160a01b038516845290915290205460ff16620000b5576000828152602081815260408083206001600160a01b03851684529091529020805460ff191660011790556200037c3390565b6001600160a01b0316816001600160a01b0316837f2f8788117e7eff1d82e926ec794901d17c78024a50270940304540a733656f0d60405160405180910390a45050565b600060208284031215620003d357600080fd5b81516001600160a01b0381168114620003eb57600080fd5b9392505050565b61354980620004026000396000f3fe6080604052600436106101d85760003560e01c80636c42660711610102578063a217fddf11610095578063d1d8d06011610064578063d1d8d06014610506578063d547741f1461051b578063ee7d4d2b1461053b578063fa1e19e51461054357600080fd5b8063a217fddf146104a9578063a4975516146104be578063bf4c0036146104de578063d0e30db0146104fe57600080fd5b80638ae68134116100d15780638ae681341461043f5780638dd225d51461045457806391d14854146104745780639ed03ab61461049457600080fd5b80636c426607146103c85780636cff7473146103f557806372d099a01461040a5780637521796f1461042a57600080fd5b80632f2ff15d1161017a578063473b0d4611610149578063473b0d4614610351578063497d02411461037157806353710f491461038657806362308e85146103a657600080fd5b80632f2ff15d146102dc57806336568abe146102fc5780633e50de301461031c57806345077e711461033157600080fd5b8063217ac237116101b6578063217ac23714610257578063248a9ca31461026c57806329ca15bc1461029c5780632e1a7d4d146102bc57600080fd5b806301ffc9a7146101dd578063095df57f146102125780631264698714610235575b600080fd5b3480156101e957600080fd5b506101fd6101f83660046131a7565b610558565b60405190151581526020015b60405180910390f35b34801561021e57600080fd5b5061022761058f565b604051908152602001610209565b34801561024157600080fd5b506102556102503660046131d1565b61064c565b005b34801561026357600080fd5b506101fd6107d3565b34801561027857600080fd5b506102276102873660046131d1565b60009081526020819052604090206001015490565b3480156102a857600080fd5b506102556102b7366004613202565b610878565b3480156102c857600080fd5b506102556102d73660046131d1565b6108d4565b3480156102e857600080fd5b506102556102f736600461321f565b610f44565b34801561030857600080fd5b5061025561031736600461321f565b610f6f565b34801561032857600080fd5b50610255610fed565b34801561033d57600080fd5b5061025561034c366004613202565b611194565b34801561035d57600080fd5b5061025561036c3660046131d1565b6111f0565b34801561037d57600080fd5b50610227611499565b34801561039257600080fd5b506102556103a13660046131d1565b6114bf565b3480156103b257600080fd5b506102276000805160206134f483398151915281565b3480156103d457600080fd5b506103dd6115c1565b6040516001600160a01b039091168152602001610209565b34801561040157600080fd5b5061022761169c565b34801561041657600080fd5b506102556104253660046131d1565b6116c4565b34801561043657600080fd5b506102276117ca565b34801561044b57600080fd5b506103dd6117fb565b34801561046057600080fd5b5061025561046f3660046131d1565b611835565b34801561048057600080fd5b506101fd61048f36600461321f565b611a1c565b3480156104a057600080fd5b50610227611a45565b3480156104b557600080fd5b50610227600081565b3480156104ca57600080fd5b506102556104d936600461325d565b611b1b565b3480156104ea57600080fd5b506102556104f93660046131d1565b611b95565b610255611ca2565b34801561051257600080fd5b50610227612924565b34801561052757600080fd5b5061025561053636600461321f565b612945565b61025561296b565b34801561054f57600080fd5b50610227612d03565b60006001600160e01b03198216637965db0b60e01b148061058957506301ffc9a760e01b6001600160e01b03198316145b92915050565b6000806040516020016105b3906a706f6f6c4d617853697a6560a81b8152600b0190565b60408051808303601f1901815290829052805160209091012060025463afc3602b60e01b8352600483018290529092506001600160a01b03169063afc3602b9060240160206040518083038186803b15801561060e57600080fd5b505afa158015610622573d6000803e3d6000fd5b505050506040513d601f19601f82011682018060405250810190610646919061327a565b91505090565b6000805160206134f48339815191526106658133612d2d565b6002546040516001600160a01b03909116906355d946559061068990602001613293565b604051602081830303815290604052805190602001206040518263ffffffff1660e01b81526004016106bd91815260200190565b60206040518083038186803b1580156106d557600080fd5b505afa1580156106e9573d6000803e3d6000fd5b505050506040513d601f19601f8201168201806040525081019061070d91906132a9565b156107335760405162461bcd60e51b815260040161072a906132c6565b60405180910390fd5b6040516a706f6f6c4d617853697a6560a81b6020820152600090602b015b60408051808303601f190181529082905280516020909101206002546328192c5560e01b835260048301829052602483018690529092506001600160a01b0316906328192c55906044015b600060405180830381600087803b1580156107b657600080fd5b505af11580156107ca573d6000803e3d6000fd5b50505050505050565b6000806040516020016107e590613293565b60408051808303601f190181529082905280516020909101206002546355d9465560e01b8352600483018290529092506001600160a01b0316906355d946559060240160206040518083038186803b15801561084057600080fd5b505afa158015610854573d6000803e3d6000fd5b505050506040513d601f19601f8201168201806040525081019061064691906132a9565b60006108848133612d2d565b61089c6000805160206134f483398151915283612945565b6040516001600160a01b038316907fef69f7d97228658c92417be1b16b19058315de71fecb435d07b7d23728b6bd3190600090a25050565b80600061090160405180604001604052806009815260200168141bdbdb15985d5b1d60ba1b815250612d91565b905060006109306040518060400160405280600a815260200169393ba2aa242a37b5b2b760b11b815250612d91565b905060006109626040518060400160405280600d81526020016c546f6b656e42616c616e63657360981b815250612d91565b9050600060405160200161097590613293565b60408051808303601f190181529082905280516020909101206002546355d9465560e01b8352600483018290529092506001600160a01b0316906355d946559060240160206040518083038186803b1580156109d057600080fd5b505afa1580156109e4573d6000803e3d6000fd5b505050506040513d601f19601f82011682018060405250810190610a0891906132a9565b610a545760405162461bcd60e51b815260206004820152601c60248201527f54686520706f6f6c2069732063757272656e746c792070617573656400000000604482015260640161072a565b6040516370a0823160e01b815233600482015285906001600160a01b038516906370a082319060240160206040518083038186803b158015610a9557600080fd5b505afa158015610aa9573d6000803e3d6000fd5b505050506040513d601f19601f82011682018060405250810190610acd919061327a565b1015610b395760405162461bcd60e51b815260206004820152603560248201527f596f7520646f6e27742068617665207468617420616d6f756e74206f6620746f60448201527435b2b7399034b7103cb7bab91030b1b1b7bab73a1760591b606482015260840161072a565b6040516312946fe160e01b8152600481018690526000906001600160a01b038516906312946fe19060240160206040518083038186803b158015610b7c57600080fd5b505afa158015610b90573d6000803e3d6000fd5b505050506040513d601f19601f82011682018060405250810190610bb4919061327a565b856001600160a01b031663ccfe0c8e6040518163ffffffff1660e01b815260040160206040518083038186803b158015610bed57600080fd5b505afa158015610c01573d6000803e3d6000fd5b505050506040513d601f19601f82011682018060405250810190610c25919061327a565b610c2f9190613313565b1015610c8c5760405162461bcd60e51b815260206004820152602660248201527f506f6f6c2073697a652063616e6e6f7420626520736d616c6c6572207468616e604482015265103d32b9379760d11b606482015260840161072a565b60026001541415610cdf5760405162461bcd60e51b815260206004820152601f60248201527f5265656e7472616e637947756172643a207265656e7472616e742063616c6c00604482015260640161072a565b600260015560408051808201909152600a815269393ba2aa242a37b5b2b760b11b6020820152600090610d1190612d91565b90506000610d3f60405180604001604052806009815260200168141bdbdb15985d5b1d60ba1b815250612d91565b60405163a9059cbb60e01b8152306004820152602481018a90529091506001600160a01b0383169063a9059cbb90604401602060405180830381600087803b158015610d8a57600080fd5b505af1158015610d9e573d6000803e3d6000fd5b505050506040513d601f19601f82011682018060405250810190610dc291906132a9565b506040516312946fe160e01b8152600481018990526000906001600160a01b038416906312946fe19060240160206040518083038186803b158015610e0657600080fd5b505afa158015610e1a573d6000803e3d6000fd5b505050506040513d601f19601f82011682018060405250810190610e3e919061327a565b604051630852cd8d60e31b8152600481018b90529091506001600160a01b038416906342966c6890602401600060405180830381600087803b158015610e8357600080fd5b505af1158015610e97573d6000803e3d6000fd5b505060405163522f681560e01b8152336004820152602481018490526001600160a01b038516925063522f68159150604401600060405180830381600087803b158015610ee357600080fd5b505af1158015610ef7573d6000803e3d6000fd5b5050604080518481524260208201523393507f91405db2584f6e8463494f0e18c40f87fe3146322d19c494e8a0e0a039c3886992500160405180910390a250506001805550505050505050565b600082815260208190526040902060010154610f608133612d2d565b610f6a8383612e95565b505050565b6001600160a01b0381163314610fdf5760405162461bcd60e51b815260206004820152602f60248201527f416363657373436f6e74726f6c3a2063616e206f6e6c792072656e6f756e636560448201526e103937b632b9903337b91039b2b63360891b606482015260840161072a565b610fe98282612f19565b5050565b6000805160206134f48339815191526110068133612d2d565b6040516e1c995dd85c991cd51bd25b9a9958dd608a1b6020820152600090602f01604051602081830303815290604052805190602001209050600060405160200161106890703a37ba30b629bab838363cafa2ba3432b960791b815260110190565b604051602081830303815290604052805190602001209050600061108a6117ca565b60025460405163afc3602b60e01b815260048101859052919250600091620f42409184916001600160a01b039091169063afc3602b9060240160206040518083038186803b1580156110db57600080fd5b505afa1580156110ef573d6000803e3d6000fd5b505050506040513d601f19601f82011682018060405250810190611113919061327a565b61111d919061332a565b6111279190613349565b6002546040516328192c5560e01b815260048101879052602481018390529192506001600160a01b0316906328192c5590604401600060405180830381600087803b15801561117557600080fd5b505af1158015611189573d6000803e3d6000fd5b505050505050505050565b60006111a08133612d2d565b6111b86000805160206134f483398151915283610f44565b6040516001600160a01b038316907fd873e3f571dc25e020cefdeb7255b3874ead3aade1f94a5fb4a5da831fd670cd90600090a25050565b6000805160206134f48339815191526112098133612d2d565b6040517018dbdb9d1c9a589d5d1a5bdb931a5b5a5d607a1b602082015260009060310160408051601f198184030181529082905280516020918201206002549093506001600160a01b0316916355d94655916112659101613293565b604051602081830303815290604052805190602001206040518263ffffffff1660e01b815260040161129991815260200190565b60206040518083038186803b1580156112b157600080fd5b505afa1580156112c5573d6000803e3d6000fd5b505050506040513d601f19601f820116820180604052508101906112e991906132a9565b156113065760405162461bcd60e51b815260040161072a906132c6565b60025460405163afc3602b60e01b81526004810183905284916001600160a01b03169063afc3602b9060240160206040518083038186803b15801561134a57600080fd5b505afa15801561135e573d6000803e3d6000fd5b505050506040513d601f19601f82011682018060405250810190611382919061327a565b116113f55760405162461bcd60e51b815260206004820152603e60248201527f546865206d696e2e20636f6e74722e206c696d6974206e6565647320746f206260448201527f6520736d616c6c6572207468616e20746865206d61782e206c696d69742e0000606482015260840161072a565b6040516e36b4b721b7b73a3934b13aba34b7b760891b6020820152600090602f0160408051808303601f190181529082905280516020909101206002546328192c5560e01b835260048301829052602483018790529092506001600160a01b0316906328192c55906044015b600060405180830381600087803b15801561147b57600080fd5b505af115801561148f573d6000803e3d6000fd5b5050505050505050565b6000806040516020016105b3906c64617973546f5265776172647360981b8152600d0190565b6000805160206134f48339815191526114d88133612d2d565b6002546040516001600160a01b03909116906355d94655906114fc90602001613293565b604051602081830303815290604052805190602001206040518263ffffffff1660e01b815260040161153091815260200190565b60206040518083038186803b15801561154857600080fd5b505afa15801561155c573d6000803e3d6000fd5b505050506040513d601f19601f8201168201806040525081019061158091906132a9565b1561159d5760405162461bcd60e51b815260040161072a906132c6565b6040516c64617973546f5265776172647360981b6020820152600090602d01610751565b6000806040516020016115fd906f636f6e74726163745f6164647265737360801b815269141bdbdb10db1a595b9d60b21b6010820152601a0190565b60408051808303601f190181529082905280516020909101206002546315485dd960e11b8352600483018290529092506000916001600160a01b0390911690632a90bbb29060240160206040518083038186803b15801561165d57600080fd5b505afa158015611671573d6000803e3d6000fd5b505050506040513d601f19601f82011682018060405250810190611695919061336b565b9392505050565b6000806040516020016105b3906e36b4b721b7b73a3934b13aba34b7b760891b8152600f0190565b6000805160206134f48339815191526116dd8133612d2d565b6002546040516001600160a01b03909116906355d946559061170190602001613293565b604051602081830303815290604052805190602001206040518263ffffffff1660e01b815260040161173591815260200190565b60206040518083038186803b15801561174d57600080fd5b505afa158015611761573d6000803e3d6000fd5b505050506040513d601f19601f8201168201806040525081019061178591906132a9565b156117a25760405162461bcd60e51b815260040161072a906132c6565b6040517018dbdb9d1c9a589d5d1a5bdb931a5b5a5d607a1b6020820152600090603101610751565b6000806040516020016105b390771c995dd85c991cd25b9d195c995cdd14195c94195c9a5bd960421b815260180190565b6000806040516020016115fd906f636f6e74726163745f6164647265737360801b815267506f6f6c4261736560c01b601082015260180190565b6000805160206134f483398151915261184e8133612d2d565b6002546040516001600160a01b03909116906355d946559061187290602001613293565b604051602081830303815290604052805190602001206040518263ffffffff1660e01b81526004016118a691815260200190565b60206040518083038186803b1580156118be57600080fd5b505afa1580156118d2573d6000803e3d6000fd5b505050506040513d601f19601f820116820180604052508101906118f691906132a9565b156119135760405162461bcd60e51b815260040161072a906132c6565b60405167706f6f6c4665657360c01b60208201526000906028016040516020818303038152906040528051906020012090506000604051602001611968906a1c1bdbdb1199595cd4d95d60aa1b8152600b0190565b60408051808303601f190181529082905280516020909101206002546328192c5560e01b835260048301859052602483018790529092506001600160a01b0316906328192c5590604401600060405180830381600087803b1580156119cc57600080fd5b505af11580156119e0573d6000803e3d6000fd5b505060025460405163988c515b60e01b815260048101859052600160248201526001600160a01b03909116925063988c515b9150604401611461565b6000918252602082815260408084206001600160a01b0393909316845291905290205460ff1690565b60006000805160206134f4833981519152611a608133612d2d565b6040516e1c995dd85c991cd51bd25b9a9958dd608a1b6020820152600090602f0160408051808303601f1901815290829052805160209091012060025463afc3602b60e01b8352600483018290529092506001600160a01b03169063afc3602b9060240160206040518083038186803b158015611adc57600080fd5b505afa158015611af0573d6000803e3d6000fd5b505050506040513d601f19601f82011682018060405250810190611b14919061327a565b9250505090565b6000805160206134f4833981519152611b348133612d2d565b6000604051602001611b4590613293565b60408051808303601f1901815290829052805160209091012060025463988c515b60e01b83526004830182905285151560248401529092506001600160a01b03169063988c515b9060440161079c565b6000805160206134f4833981519152611bae8133612d2d565b6002546040516001600160a01b03909116906355d9465590611bd290602001613293565b604051602081830303815290604052805190602001206040518263ffffffff1660e01b8152600401611c0691815260200190565b60206040518083038186803b158015611c1e57600080fd5b505afa158015611c32573d6000803e3d6000fd5b505050506040513d601f19601f82011682018060405250810190611c5691906132a9565b15611c735760405162461bcd60e51b815260040161072a906132c6565b604051771c995dd85c991cd25b9d195c995cdd14195c94195c9a5bd960421b6020820152600090603801610751565b6000611cce60405180604001604052806009815260200168141bdbdb15985d5b1d60ba1b815250612d91565b90506000611d006040518060400160405280600d81526020016c546f6b656e42616c616e63657360981b815250612d91565b90506000604051602001611d1390613293565b6040516020818303038152906040528051906020012090506000604051602001611d50906c64617973546f5265776172647360981b8152600d0190565b6040516020818303038152906040528051906020012090506000604051602001611d9890771c995dd85c991cd25b9d195c995cdd14195c94195c9a5bd960421b815260180190565b6040516020818303038152906040528051906020012090506000604051602001611dd9907018dbdb9d1c9a589d5d1a5bdb931a5b5a5d607a1b815260110190565b6040516020818303038152906040528051906020012090506000604051602001611e14906a1c1bdbdb1199595cd4d95d60aa1b8152600b0190565b6040516020818303038152906040528051906020012090506000604051602001611e53906e36b4b721b7b73a3934b13aba34b7b760891b8152600f0190565b6040516020818303038152906040528051906020012090506000604051602001611e8e906a706f6f6c4d617853697a6560a81b8152600b0190565b60408051601f198184030181529082905280516020918201207332ba3432b92fb9ba30b5b2b22fb13cafbab9b2b960611b918301919091526bffffffffffffffffffffffff193360601b166034830152915060009060480160408051808303601f1901815290829052805160209091012060025462ec44af60e51b8352600483018290523460248401529092506001600160a01b031690631d8895e090604401600060405180830381600087803b158015611f4857600080fd5b505af1158015611f5c573d6000803e3d6000fd5b505060025460405163afc3602b60e01b8152600481018b90526001600160a01b03909116925063afc3602b915060240160206040518083038186803b158015611fa457600080fd5b505afa158015611fb8573d6000803e3d6000fd5b505050506040513d601f19601f82011682018060405250810190611fdc919061327a565b6120395760405162461bcd60e51b815260206004820152602860248201527f546865207465616d206e6565647320746f207365742061207265776172642069604482015267373a32b93b30b61760c11b606482015260840161072a565b60025460405163afc3602b60e01b8152600481018890526001600160a01b039091169063afc3602b9060240160206040518083038186803b15801561207d57600080fd5b505afa158015612091573d6000803e3d6000fd5b505050506040513d601f19601f820116820180604052508101906120b5919061327a565b61210f5760405162461bcd60e51b815260206004820152602560248201527f546865207465616d206e6565647320746f20736574206120726577617264207260448201526430ba34b79760d91b606482015260840161072a565b60025460405163afc3602b60e01b8152600481018790526001600160a01b039091169063afc3602b9060240160206040518083038186803b15801561215357600080fd5b505afa158015612167573d6000803e3d6000fd5b505050506040513d601f19601f8201168201806040525081019061218b919061327a565b6121eb5760405162461bcd60e51b815260206004820152602b60248201527f546865207465616d206e6565647320746f20736574206120636f6e747269627560448201526a3a34b7b7103634b6b4ba1760a91b606482015260840161072a565b6002546040516355d9465560e01b8152600481018690526001600160a01b03909116906355d946559060240160206040518083038186803b15801561222f57600080fd5b505afa158015612243573d6000803e3d6000fd5b505050506040513d601f19601f8201168201806040525081019061226791906132a9565b6122bf5760405162461bcd60e51b8152602060048201526024808201527f546865207465616d206e6565647320746f207365742074686520706f6f6c206660448201526332b2b99760e11b606482015260840161072a565b60025460405163afc3602b60e01b8152600481018790526001600160a01b039091169063afc3602b9060240160206040518083038186803b15801561230357600080fd5b505afa158015612317573d6000803e3d6000fd5b505050506040513d601f19601f8201168201806040525081019061233b919061327a565b6040516314886e4560e01b81523360048201526001600160a01b038b16906314886e459060240160206040518083038186803b15801561237a57600080fd5b505afa15801561238e573d6000803e3d6000fd5b505050506040513d601f19601f820116820180604052508101906123b2919061327a565b11156124125760405162461bcd60e51b815260206004820152602960248201527f4d61782e2063757272656e7420636f6e747269627574696f6e206c696d69742060448201526832bc31b2b2b232b21760b91b606482015260840161072a565b60025460405163afc3602b60e01b81526004810185905234916001600160a01b03169063afc3602b9060240160206040518083038186803b15801561245657600080fd5b505afa15801561246a573d6000803e3d6000fd5b505050506040513d601f19601f8201168201806040525081019061248e919061327a565b111561251b5760405162461bcd60e51b815260206004820152605060248201527f56616c756520746f206465706f736974206e6565647320746f2062652068696760448201527f686572207468616e207468652063757272656e74206d696e696d756d20636f6e60648201526f3a3934b13aba34b7b7103634b6b4ba1760811b608482015260a40161072a565b60025460405163afc3602b60e01b8152600481018490526001600160a01b039091169063afc3602b9060240160206040518083038186803b15801561255f57600080fd5b505afa158015612573573d6000803e3d6000fd5b505050506040513d601f19601f82011682018060405250810190612597919061327a565b348b6001600160a01b031663ccfe0c8e6040518163ffffffff1660e01b815260040160206040518083038186803b1580156125d157600080fd5b505afa1580156125e5573d6000803e3d6000fd5b505050506040513d601f19601f82011682018060405250810190612609919061327a565b6126139190613388565b111561267e5760405162461bcd60e51b815260206004820152603460248201527f4d61782e20506f6f6c2073697a65206f766572666c6f772077697468207468616044820152733a1030b6b7bab73a1037b3103232b837b9b4ba1760611b606482015260840161072a565b6002546040516355d9465560e01b8152600481018a90526001600160a01b03909116906355d946559060240160206040518083038186803b1580156126c257600080fd5b505afa1580156126d6573d6000803e3d6000fd5b505050506040513d601f19601f820116820180604052508101906126fa91906132a9565b6127465760405162461bcd60e51b815260206004820152601c60248201527f54686520706f6f6c2069732063757272656e746c792070617573656400000000604482015260640161072a565b600260015414156127995760405162461bcd60e51b815260206004820152601f60248201527f5265656e7472616e637947756172643a207265656e7472616e742063616c6c00604482015260640161072a565b600260015560408051808201909152600a815269393ba2aa242a37b5b2b760b11b60208201526000906127cb90612d91565b6040516340c10f1960e01b81523360048201523460248201529091506001600160a01b038216906340c10f1990604401600060405180830381600087803b15801561281557600080fd5b505af1158015612829573d6000803e3d6000fd5b50505050600060405160200161285690703a37ba30b629bab838363cafa2ba3432b960791b815260110190565b60408051808303601f1901815290829052805160209091012060025462ec44af60e51b8352600483018290523460248401529092506001600160a01b031690631d8895e090604401600060405180830381600087803b1580156128b857600080fd5b505af11580156128cc573d6000803e3d6000fd5b5050604080513481524260208201523393507f91405db2584f6e8463494f0e18c40f87fe3146322d19c494e8a0e0a039c3886992500160405180910390a2612912612f7e565b50506001805550505050505050505050565b6000806040516020016105b39067706f6f6c4665657360c01b815260080190565b6000828152602081905260409020600101546129618133612d2d565b610f6a8383612f19565b6000805160206134f48339815191526129848133612d2d565b61298c611a45565b34146129da5760405162461bcd60e51b815260206004820181905260248201527f496e76616c696420657468657220696e74657265737420696e6a65637465642e604482015260640161072a565b6000612a0660405180604001604052806009815260200168141bdbdb15985d5b1d60ba1b815250612d91565b90506000604051602001612a2e906d6c61737452657761726454696d6560901b8152600e0190565b6040516020818303038152906040528051906020012090506000604051602001612a7290731d1bdd185b14995dd85c991cd25b9a9958dd195960621b815260140190565b6040516020818303038152906040528051906020012090506000604051602001612ab390703a37ba30b629bab838363cafa2ba3432b960791b815260110190565b60408051808303601f190181529082905280516020909101206002546328192c5560e01b8352600483018690524260248401529092506001600160a01b0316906328192c5590604401600060405180830381600087803b158015612b1657600080fd5b505af1158015612b2a573d6000803e3d6000fd5b505060025460405162ec44af60e51b8152600481018690523460248201526001600160a01b039091169250631d8895e09150604401600060405180830381600087803b158015612b7957600080fd5b505af1158015612b8d573d6000803e3d6000fd5b505060025460405162ec44af60e51b8152600481018590523460248201526001600160a01b039091169250631d8895e09150604401600060405180830381600087803b158015612bdc57600080fd5b505af1158015612bf0573d6000803e3d6000fd5b50505050836001600160a01b031663f9fc0d07346040518263ffffffff1660e01b81526004016000604051808303818588803b158015612c2f57600080fd5b505af1158015612c43573d6000803e3d6000fd5b505060025460405163afc3602b60e01b8152600481018890527f70bf248e27883b1a6af8a9d590cc2b58fa0d74b60c83a9bb5e12de0f9b3ddfc694506001600160a01b03909116925063afc3602b915060240160206040518083038186803b158015612cae57600080fd5b505afa158015612cc2573d6000803e3d6000fd5b505050506040513d601f19601f82011682018060405250810190612ce6919061327a565b604080519182523460208301520160405180910390a15050505050565b6000806040516020016105b3907018dbdb9d1c9a589d5d1a5bdb931a5b5a5d607a1b815260110190565b612d378282611a1c565b610fe957612d4f816001600160a01b0316601461300b565b612d5a83602061300b565b604051602001612d6b9291906133d0565b60408051601f198184030181529082905262461bcd60e51b825261072a91600401613445565b60008082604051602001612da59190613478565b60408051808303601f190181529082905280516020909101206002546315485dd960e11b8352600483018290529092506000916001600160a01b0390911690632a90bbb29060240160206040518083038186803b158015612e0557600080fd5b505afa158015612e19573d6000803e3d6000fd5b505050506040513d601f19601f82011682018060405250810190612e3d919061336b565b90506001600160a01b0381166116955760405162461bcd60e51b815260206004820152601b60248201527f436f6e74726163742061646472657373206e6f7420666f756e642e0000000000604482015260640161072a565b612e9f8282611a1c565b610fe9576000828152602081815260408083206001600160a01b03851684529091529020805460ff19166001179055612ed53390565b6001600160a01b0316816001600160a01b0316837f2f8788117e7eff1d82e926ec794901d17c78024a50270940304540a733656f0d60405160405180910390a45050565b612f238282611a1c565b15610fe9576000828152602081815260408083206001600160a01b0385168085529252808320805460ff1916905551339285917ff6391f5c32d9c69d2a47ea670b442974b53935d1edc7fd64eb21e047a839171b9190a45050565b6000612faa60405180604001604052806009815260200168141bdbdb15985d5b1d60ba1b815250612d91565b604051630964b56d60e01b81523360048201529091506001600160a01b03821690630964b56d9034906024016000604051808303818588803b158015612fef57600080fd5b505af1158015613003573d6000803e3d6000fd5b505050505050565b6060600061301a83600261332a565b613025906002613388565b67ffffffffffffffff81111561303d5761303d6134b0565b6040519080825280601f01601f191660200182016040528015613067576020820181803683370190505b509050600360fc1b81600081518110613082576130826134c6565b60200101906001600160f81b031916908160001a905350600f60fb1b816001815181106130b1576130b16134c6565b60200101906001600160f81b031916908160001a90535060006130d584600261332a565b6130e0906001613388565b90505b6001811115613158576f181899199a1a9b1b9c1cb0b131b232b360811b85600f1660108110613114576131146134c6565b1a60f81b82828151811061312a5761312a6134c6565b60200101906001600160f81b031916908160001a90535060049490941c93613151816134dc565b90506130e3565b5083156116955760405162461bcd60e51b815260206004820181905260248201527f537472696e67733a20686578206c656e67746820696e73756666696369656e74604482015260640161072a565b6000602082840312156131b957600080fd5b81356001600160e01b03198116811461169557600080fd5b6000602082840312156131e357600080fd5b5035919050565b6001600160a01b03811681146131ff57600080fd5b50565b60006020828403121561321457600080fd5b8135611695816131ea565b6000806040838503121561323257600080fd5b823591506020830135613244816131ea565b809150509250929050565b80151581146131ff57600080fd5b60006020828403121561326f57600080fd5b81356116958161324f565b60006020828403121561328c57600080fd5b5051919050565b696973506f6f6c4c69766560b01b8152600a0190565b6000602082840312156132bb57600080fd5b81516116958161324f565b6020808252601d908201527f54686520706f6f6c2069732063757272656e746c7920636c6f7365642e000000604082015260600190565b634e487b7160e01b600052601160045260246000fd5b600082821015613325576133256132fd565b500390565b6000816000190483118215151615613344576133446132fd565b500290565b60008261336657634e487b7160e01b600052601260045260246000fd5b500490565b60006020828403121561337d57600080fd5b8151611695816131ea565b6000821982111561339b5761339b6132fd565b500190565b60005b838110156133bb5781810151838201526020016133a3565b838111156133ca576000848401525b50505050565b7f416363657373436f6e74726f6c3a206163636f756e74200000000000000000008152600083516134088160178501602088016133a0565b7001034b99036b4b9b9b4b733903937b6329607d1b60179184019182015283516134398160288401602088016133a0565b01602801949350505050565b60208152600082518060208401526134648160408501602087016133a0565b601f01601f19169190910160400192915050565b6f636f6e74726163745f6164647265737360801b8152600082516134a38160108501602087016133a0565b9190910160100192915050565b634e487b7160e01b600052604160045260246000fd5b634e487b7160e01b600052603260045260246000fd5b6000816134eb576134eb6132fd565b50600019019056fe41a01ec0a13b563fa452569e3fbb116366d217c2769aa1561822e65a617e3842a2646970667358221220adab7f26dc585b82bb46cdaeda11013ac4e7842385ffc2b7bff003674723345064736f6c63430008090033",
    "sourcePath": "c:/Users/Lior/Desktop/Index/Coding Software/GitHub/challenge/contracts/PoolClient.sol",
    "compiler": {
        "name": "solc",
        "version": "0.8.9+commit.e5eed63a"
    },
    "functionHashes": {
        "DEFAULT_ADMIN_ROLE()": "a217fddf",
        "POOL_MANAGER()": "62308e85",
        "addPoolManager(address)": "45077e71",
        "calculateRewards()": "3e50de30",
        "deposit()": "d0e30db0",
        "getContributionLimit()": "fa1e19e5",
        "getMinContribution()": "6cff7473",
        "getPoolBaseAddress()": "8ae68134",
        "getPoolClientAddress()": "6c426607",
        "getPoolFees()": "d1d8d060",
        "getPoolMaxSize()": "095df57f",
        "getPoolState()": "217ac237",
        "getRewardsInterest()": "7521796f",
        "getRewardsInterval()": "497d0241",
        "getRewardsToInject()": "9ed03ab6",
        "getRoleAdmin(bytes32)": "248a9ca3",
        "grantRole(bytes32,address)": "2f2ff15d",
        "hasRole(bytes32,address)": "91d14854",
        "removePoolManager(address)": "29ca15bc",
        "renounceRole(bytes32,address)": "36568abe",
        "revokeRole(bytes32,address)": "d547741f",
        "rewardsInjector()": "ee7d4d2b",
        "setContributionLimit(uint256)": "72d099a0",
        "setMinContribution(uint256)": "473b0d46",
        "setPoolFees(uint256)": "8dd225d5",
        "setPoolLive(bool)": "a4975516",
        "setPoolMaxSize(uint256)": "12646987",
        "setRewardsInterest(uint256)": "bf4c0036",
        "setRewardsInterval(uint256)": "53710f49",
        "supportsInterface(bytes4)": "01ffc9a7",
        "withdraw(uint256)": "2e1a7d4d"
    },
    "gasEstimates": {
        "creation": {
            "codeDepositCost": "2728200",
            "executionCost": "infinite",
            "totalCost": "infinite"
        },
        "external": {
            "DEFAULT_ADMIN_ROLE()": "240",
            "POOL_MANAGER()": "infinite",
            "addPoolManager(address)": "infinite",
            "calculateRewards()": "infinite",
            "deposit()": "infinite",
            "getContributionLimit()": "infinite",
            "getMinContribution()": "infinite",
            "getPoolBaseAddress()": "infinite",
            "getPoolClientAddress()": "infinite",
            "getPoolFees()": "infinite",
            "getPoolMaxSize()": "infinite",
            "getPoolState()": "infinite",
            "getRewardsInterest()": "infinite",
            "getRewardsInterval()": "infinite",
            "getRewardsToInject()": "infinite",
            "getRoleAdmin(bytes32)": "2515",
            "grantRole(bytes32,address)": "infinite",
            "hasRole(bytes32,address)": "2739",
            "removePoolManager(address)": "infinite",
            "renounceRole(bytes32,address)": "29062",
            "revokeRole(bytes32,address)": "infinite",
            "rewardsInjector()": "infinite",
            "setContributionLimit(uint256)": "infinite",
            "setMinContribution(uint256)": "infinite",
            "setPoolFees(uint256)": "infinite",
            "setPoolLive(bool)": "infinite",
            "setPoolMaxSize(uint256)": "infinite",
            "setRewardsInterest(uint256)": "infinite",
            "setRewardsInterval(uint256)": "infinite",
            "supportsInterface(bytes4)": "473",
            "withdraw(uint256)": "infinite"
        },
        "internal": {
            "_depositToVault()": "infinite",
            "_setPoolClientAddress()": "infinite"
        }
    }
}