{
    "contractName": "PoolBase",
    "abi": [
        {
            "inputs": [
                {
                    "internalType": "contract DataStorageInterface",
                    "name": "_dataStorageAddress",
                    "type": "address"
                }
            ],
            "stateMutability": "nonpayable",
            "type": "constructor"
        },
        {
            "anonymous": false,
            "inputs": [
                {
                    "indexed": true,
                    "internalType": "address",
                    "name": "_removedManager",
                    "type": "address"
                }
            ],
            "name": "ManagerRemoved",
            "type": "event"
        },
        {
            "anonymous": false,
            "inputs": [
                {
                    "indexed": true,
                    "internalType": "address",
                    "name": "_newManager",
                    "type": "address"
                }
            ],
            "name": "NewManagerAdded",
            "type": "event"
        },
        {
            "anonymous": false,
            "inputs": [
                {
                    "indexed": true,
                    "internalType": "bytes32",
                    "name": "role",
                    "type": "bytes32"
                },
                {
                    "indexed": true,
                    "internalType": "bytes32",
                    "name": "previousAdminRole",
                    "type": "bytes32"
                },
                {
                    "indexed": true,
                    "internalType": "bytes32",
                    "name": "newAdminRole",
                    "type": "bytes32"
                }
            ],
            "name": "RoleAdminChanged",
            "type": "event"
        },
        {
            "anonymous": false,
            "inputs": [
                {
                    "indexed": true,
                    "internalType": "bytes32",
                    "name": "role",
                    "type": "bytes32"
                },
                {
                    "indexed": true,
                    "internalType": "address",
                    "name": "account",
                    "type": "address"
                },
                {
                    "indexed": true,
                    "internalType": "address",
                    "name": "sender",
                    "type": "address"
                }
            ],
            "name": "RoleGranted",
            "type": "event"
        },
        {
            "anonymous": false,
            "inputs": [
                {
                    "indexed": true,
                    "internalType": "bytes32",
                    "name": "role",
                    "type": "bytes32"
                },
                {
                    "indexed": true,
                    "internalType": "address",
                    "name": "account",
                    "type": "address"
                },
                {
                    "indexed": true,
                    "internalType": "address",
                    "name": "sender",
                    "type": "address"
                }
            ],
            "name": "RoleRevoked",
            "type": "event"
        },
        {
            "inputs": [],
            "name": "DEFAULT_ADMIN_ROLE",
            "outputs": [
                {
                    "internalType": "bytes32",
                    "name": "",
                    "type": "bytes32"
                }
            ],
            "stateMutability": "view",
            "type": "function"
        },
        {
            "inputs": [],
            "name": "POOL_MANAGER",
            "outputs": [
                {
                    "internalType": "bytes32",
                    "name": "",
                    "type": "bytes32"
                }
            ],
            "stateMutability": "view",
            "type": "function"
        },
        {
            "inputs": [
                {
                    "internalType": "address",
                    "name": "_address",
                    "type": "address"
                }
            ],
            "name": "addPoolManager",
            "outputs": [],
            "stateMutability": "nonpayable",
            "type": "function"
        },
        {
            "inputs": [],
            "name": "getContributionLimit",
            "outputs": [
                {
                    "internalType": "uint256",
                    "name": "",
                    "type": "uint256"
                }
            ],
            "stateMutability": "view",
            "type": "function"
        },
        {
            "inputs": [],
            "name": "getPoolFees",
            "outputs": [
                {
                    "internalType": "uint256",
                    "name": "",
                    "type": "uint256"
                }
            ],
            "stateMutability": "view",
            "type": "function"
        },
        {
            "inputs": [],
            "name": "getPoolMaxSize",
            "outputs": [
                {
                    "internalType": "uint256",
                    "name": "",
                    "type": "uint256"
                }
            ],
            "stateMutability": "view",
            "type": "function"
        },
        {
            "inputs": [],
            "name": "getPoolState",
            "outputs": [
                {
                    "internalType": "bool",
                    "name": "",
                    "type": "bool"
                }
            ],
            "stateMutability": "view",
            "type": "function"
        },
        {
            "inputs": [],
            "name": "getRewardsInterest",
            "outputs": [
                {
                    "internalType": "uint256",
                    "name": "",
                    "type": "uint256"
                }
            ],
            "stateMutability": "view",
            "type": "function"
        },
        {
            "inputs": [],
            "name": "getRewardsInterval",
            "outputs": [
                {
                    "internalType": "uint256",
                    "name": "",
                    "type": "uint256"
                }
            ],
            "stateMutability": "view",
            "type": "function"
        },
        {
            "inputs": [
                {
                    "internalType": "bytes32",
                    "name": "role",
                    "type": "bytes32"
                }
            ],
            "name": "getRoleAdmin",
            "outputs": [
                {
                    "internalType": "bytes32",
                    "name": "",
                    "type": "bytes32"
                }
            ],
            "stateMutability": "view",
            "type": "function"
        },
        {
            "inputs": [
                {
                    "internalType": "bytes32",
                    "name": "role",
                    "type": "bytes32"
                },
                {
                    "internalType": "address",
                    "name": "account",
                    "type": "address"
                }
            ],
            "name": "grantRole",
            "outputs": [],
            "stateMutability": "nonpayable",
            "type": "function"
        },
        {
            "inputs": [
                {
                    "internalType": "bytes32",
                    "name": "role",
                    "type": "bytes32"
                },
                {
                    "internalType": "address",
                    "name": "account",
                    "type": "address"
                }
            ],
            "name": "hasRole",
            "outputs": [
                {
                    "internalType": "bool",
                    "name": "",
                    "type": "bool"
                }
            ],
            "stateMutability": "view",
            "type": "function"
        },
        {
            "inputs": [
                {
                    "internalType": "address",
                    "name": "_address",
                    "type": "address"
                }
            ],
            "name": "removePoolManager",
            "outputs": [],
            "stateMutability": "nonpayable",
            "type": "function"
        },
        {
            "inputs": [
                {
                    "internalType": "bytes32",
                    "name": "role",
                    "type": "bytes32"
                },
                {
                    "internalType": "address",
                    "name": "account",
                    "type": "address"
                }
            ],
            "name": "renounceRole",
            "outputs": [],
            "stateMutability": "nonpayable",
            "type": "function"
        },
        {
            "inputs": [
                {
                    "internalType": "bytes32",
                    "name": "role",
                    "type": "bytes32"
                },
                {
                    "internalType": "address",
                    "name": "account",
                    "type": "address"
                }
            ],
            "name": "revokeRole",
            "outputs": [],
            "stateMutability": "nonpayable",
            "type": "function"
        },
        {
            "inputs": [
                {
                    "internalType": "uint256",
                    "name": "_newContrLimit",
                    "type": "uint256"
                }
            ],
            "name": "setContributionLimit",
            "outputs": [],
            "stateMutability": "nonpayable",
            "type": "function"
        },
        {
            "inputs": [
                {
                    "internalType": "uint256",
                    "name": "_newMinContr",
                    "type": "uint256"
                }
            ],
            "name": "setMinContribution",
            "outputs": [],
            "stateMutability": "nonpayable",
            "type": "function"
        },
        {
            "inputs": [],
            "name": "setMinContribution",
            "outputs": [
                {
                    "internalType": "uint256",
                    "name": "",
                    "type": "uint256"
                }
            ],
            "stateMutability": "view",
            "type": "function"
        },
        {
            "inputs": [
                {
                    "internalType": "uint256",
                    "name": "_poolFees",
                    "type": "uint256"
                }
            ],
            "name": "setPoolFees",
            "outputs": [],
            "stateMutability": "nonpayable",
            "type": "function"
        },
        {
            "inputs": [
                {
                    "internalType": "bool",
                    "name": "_live",
                    "type": "bool"
                }
            ],
            "name": "setPoolLive",
            "outputs": [],
            "stateMutability": "nonpayable",
            "type": "function"
        },
        {
            "inputs": [
                {
                    "internalType": "uint256",
                    "name": "_maxSize",
                    "type": "uint256"
                }
            ],
            "name": "setPoolMaxSize",
            "outputs": [],
            "stateMutability": "nonpayable",
            "type": "function"
        },
        {
            "inputs": [
                {
                    "internalType": "uint256",
                    "name": "_rewardsInterest",
                    "type": "uint256"
                }
            ],
            "name": "setRewardsInterest",
            "outputs": [],
            "stateMutability": "nonpayable",
            "type": "function"
        },
        {
            "inputs": [
                {
                    "internalType": "uint256",
                    "name": "_daysToRewards",
                    "type": "uint256"
                }
            ],
            "name": "setRewardsInterval",
            "outputs": [],
            "stateMutability": "nonpayable",
            "type": "function"
        },
        {
            "inputs": [
                {
                    "internalType": "bytes4",
                    "name": "interfaceId",
                    "type": "bytes4"
                }
            ],
            "name": "supportsInterface",
            "outputs": [
                {
                    "internalType": "bool",
                    "name": "",
                    "type": "bool"
                }
            ],
            "stateMutability": "view",
            "type": "function"
        }
    ],
    "bytecode": "60806040523480156200001157600080fd5b50604051620017d0380380620017d08339810160408190526200003491620002b3565b60018055600280546001600160a01b0319166001600160a01b038316179055620000606000336200009d565b6200008c7f41a01ec0a13b563fa452569e3fbb116366d217c2769aa1561822e65a617e3842336200009d565b62000096620000ad565b50620002e5565b620000a9828262000213565b5050565b6002546040516e636f6e74726163745f65786973747360881b60208201526001600160601b03193060601b16602f8201526001600160a01b039091169063988c515b9060430160408051601f198184030181529082905280516020909101206001600160e01b031960e084901b168252600482015260016024820152604401600060405180830381600087803b1580156200014757600080fd5b505af11580156200015c573d6000803e3d6000fd5b50506002546040516f636f6e74726163745f6164647265737360801b602082015267506f6f6c4261736560c01b60308201526001600160a01b039091169250637221263a915060380160408051601f198184030181529082905280516020909101206001600160e01b031960e084901b1682526004820152306024820152604401600060405180830381600087803b158015620001f857600080fd5b505af11580156200020d573d6000803e3d6000fd5b50505050565b6000828152602081815260408083206001600160a01b038516845290915290205460ff16620000a9576000828152602081815260408083206001600160a01b03851684529091529020805460ff191660011790556200026f3390565b6001600160a01b0316816001600160a01b0316837f2f8788117e7eff1d82e926ec794901d17c78024a50270940304540a733656f0d60405160405180910390a45050565b600060208284031215620002c657600080fd5b81516001600160a01b0381168114620002de57600080fd5b9392505050565b6114db80620002f56000396000f3fe608060405234801561001057600080fd5b50600436106101585760003560e01c8063543edfb6116100c3578063a217fddf1161007c578063a217fddf146102b3578063a4975516146102bb578063bf4c0036146102ce578063d1d8d060146102e1578063d547741f146102e9578063fa1e19e5146102fc57600080fd5b8063543edfb61461025557806362308e851461025d57806372d099a0146102725780637521796f146102855780638dd225d51461028d57806391d14854146102a057600080fd5b80632f2ff15d116101155780632f2ff15d146101ee57806336568abe1461020157806345077e7114610214578063473b0d4614610227578063497d02411461023a57806353710f491461024257600080fd5b806301ffc9a71461015d578063095df57f14610185578063126469871461019b578063217ac237146101b0578063248a9ca3146101b857806329ca15bc146101db575b600080fd5b61017061016b3660046111c6565b610304565b60405190151581526020015b60405180910390f35b61018d61033b565b60405190815260200161017c565b6101ae6101a93660046111f0565b6103f8565b005b6101706104b1565b61018d6101c63660046111f0565b60009081526020819052604090206001015490565b6101ae6101e9366004611225565b610556565b6101ae6101fc366004611240565b6105b2565b6101ae61020f366004611240565b6105dd565b6101ae610222366004611225565b610660565b6101ae6102353660046111f0565b6106bc565b61018d6107bf565b6101ae6102503660046111f0565b6107e5565b61018d61093f565b61018d60008051602061148683398151915281565b6101ae6102803660046111f0565b610967565b61018d610a6c565b6101ae61029b3660046111f0565b610a9d565b6101706102ae366004611240565b610cb6565b61018d600081565b6101ae6102c936600461127d565b610cdf565b6101ae6102dc3660046111f0565b610d59565b61018d610e65565b6101ae6102f7366004611240565b610e86565b61018d610eac565b60006001600160e01b03198216637965db0b60e01b148061033557506301ffc9a760e01b6001600160e01b03198316145b92915050565b60008060405160200161035f906a706f6f6c4d617853697a6560a81b8152600b0190565b60408051808303601f1901815290829052805160209091012060025463afc3602b60e01b8352600483018290529092506001600160a01b03169063afc3602b9060240160206040518083038186803b1580156103ba57600080fd5b505afa1580156103ce573d6000803e3d6000fd5b505050506040513d601f19601f820116820180604052508101906103f2919061129a565b91505090565b6000805160206114868339815191526104118133610ed6565b6040516a706f6f6c4d617853697a6560a81b6020820152600090602b015b60408051808303601f190181529082905280516020909101206002546328192c5560e01b835260048301829052602483018690529092506001600160a01b0316906328192c55906044015b600060405180830381600087803b15801561049457600080fd5b505af11580156104a8573d6000803e3d6000fd5b50505050505050565b6000806040516020016104c3906112b3565b60408051808303601f190181529082905280516020909101206002546355d9465560e01b8352600483018290529092506001600160a01b0316906355d946559060240160206040518083038186803b15801561051e57600080fd5b505afa158015610532573d6000803e3d6000fd5b505050506040513d601f19601f820116820180604052508101906103f291906112c9565b60006105628133610ed6565b61057a60008051602061148683398151915283610e86565b6040516001600160a01b038316907fef69f7d97228658c92417be1b16b19058315de71fecb435d07b7d23728b6bd3190600090a25050565b6000828152602081905260409020600101546105ce8133610ed6565b6105d88383610f3a565b505050565b6001600160a01b03811633146106525760405162461bcd60e51b815260206004820152602f60248201527f416363657373436f6e74726f6c3a2063616e206f6e6c792072656e6f756e636560448201526e103937b632b9903337b91039b2b63360891b60648201526084015b60405180910390fd5b61065c8282610fbe565b5050565b600061066c8133610ed6565b610684600080516020611486833981519152836105b2565b6040516001600160a01b038316907fd873e3f571dc25e020cefdeb7255b3874ead3aade1f94a5fb4a5da831fd670cd90600090a25050565b6000805160206114868339815191526106d58133610ed6565b6002546040516001600160a01b03909116906355d94655906106f9906020016112b3565b604051602081830303815290604052805190602001206040518263ffffffff1660e01b815260040161072d91815260200190565b60206040518083038186803b15801561074557600080fd5b505afa158015610759573d6000803e3d6000fd5b505050506040513d601f19601f8201168201806040525081019061077d91906112c9565b6107995760405162461bcd60e51b8152600401610649906112e6565b6040516e36b4b721b7b73a3934b13aba34b7b760891b6020820152600090602f0161042f565b60008060405160200161035f906c64617973546f5265776172647360981b8152600d0190565b6000805160206114868339815191526107fe8133610ed6565b6002546040516001600160a01b03909116906355d9465590610822906020016112b3565b604051602081830303815290604052805190602001206040518263ffffffff1660e01b815260040161085691815260200190565b60206040518083038186803b15801561086e57600080fd5b505afa158015610882573d6000803e3d6000fd5b505050506040513d601f19601f820116820180604052508101906108a691906112c9565b6108c25760405162461bcd60e51b8152600401610649906112e6565b604080516c64617973546f5265776172647360981b6020808301919091528251600d818403018152602d90920190925280519101206002546001600160a01b03166328192c55826109168662015180611333565b6040516001600160e01b031960e085901b1681526004810192909252602482015260440161047a565b60008060405160200161035f906e36b4b721b7b73a3934b13aba34b7b760891b8152600f0190565b6000805160206114868339815191526109808133610ed6565b6002546040516001600160a01b03909116906355d94655906109a4906020016112b3565b604051602081830303815290604052805190602001206040518263ffffffff1660e01b81526004016109d891815260200190565b60206040518083038186803b1580156109f057600080fd5b505afa158015610a04573d6000803e3d6000fd5b505050506040513d601f19601f82011682018060405250810190610a2891906112c9565b610a445760405162461bcd60e51b8152600401610649906112e6565b6040517018dbdb9d1c9a589d5d1a5bdb931a5b5a5d607a1b602082015260009060310161042f565b60008060405160200161035f90771c995dd85c991cd25b9d195c995cdd14195c94195c9a5bd960421b815260180190565b600080516020611486833981519152610ab68133610ed6565b6002546040516001600160a01b03909116906355d9465590610ada906020016112b3565b604051602081830303815290604052805190602001206040518263ffffffff1660e01b8152600401610b0e91815260200190565b60206040518083038186803b158015610b2657600080fd5b505afa158015610b3a573d6000803e3d6000fd5b505050506040513d601f19601f82011682018060405250810190610b5e91906112c9565b610b7a5760405162461bcd60e51b8152600401610649906112e6565b60405167706f6f6c4665657360c01b60208201526000906028016040516020818303038152906040528051906020012090506000604051602001610bcf906a1c1bdbdb1199595cd4d95d60aa1b8152600b0190565b60408051808303601f190181529082905280516020909101206002546328192c5560e01b835260048301859052602483018790529092506001600160a01b0316906328192c5590604401600060405180830381600087803b158015610c3357600080fd5b505af1158015610c47573d6000803e3d6000fd5b505060025460405163988c515b60e01b815260048101859052600160248201526001600160a01b03909116925063988c515b9150604401600060405180830381600087803b158015610c9857600080fd5b505af1158015610cac573d6000803e3d6000fd5b5050505050505050565b6000918252602082815260408084206001600160a01b0393909316845291905290205460ff1690565b600080516020611486833981519152610cf88133610ed6565b6000604051602001610d09906112b3565b60408051808303601f1901815290829052805160209091012060025463988c515b60e01b83526004830182905285151560248401529092506001600160a01b03169063988c515b9060440161047a565b600080516020611486833981519152610d728133610ed6565b6002546040516001600160a01b03909116906355d9465590610d96906020016112b3565b604051602081830303815290604052805190602001206040518263ffffffff1660e01b8152600401610dca91815260200190565b60206040518083038186803b158015610de257600080fd5b505afa158015610df6573d6000803e3d6000fd5b505050506040513d601f19601f82011682018060405250810190610e1a91906112c9565b610e365760405162461bcd60e51b8152600401610649906112e6565b604051771c995dd85c991cd25b9d195c995cdd14195c94195c9a5bd960421b602082015260009060380161042f565b60008060405160200161035f9067706f6f6c4665657360c01b815260080190565b600082815260208190526040902060010154610ea28133610ed6565b6105d88383610fbe565b60008060405160200161035f907018dbdb9d1c9a589d5d1a5bdb931a5b5a5d607a1b815260110190565b610ee08282610cb6565b61065c57610ef8816001600160a01b03166014611023565b610f03836020611023565b604051602001610f14929190611382565b60408051601f198184030181529082905262461bcd60e51b8252610649916004016113f7565b610f448282610cb6565b61065c576000828152602081815260408083206001600160a01b03851684529091529020805460ff19166001179055610f7a3390565b6001600160a01b0316816001600160a01b0316837f2f8788117e7eff1d82e926ec794901d17c78024a50270940304540a733656f0d60405160405180910390a45050565b610fc88282610cb6565b1561065c576000828152602081815260408083206001600160a01b0385168085529252808320805460ff1916905551339285917ff6391f5c32d9c69d2a47ea670b442974b53935d1edc7fd64eb21e047a839171b9190a45050565b60606000611032836002611333565b61103d90600261142a565b67ffffffffffffffff81111561105557611055611442565b6040519080825280601f01601f19166020018201604052801561107f576020820181803683370190505b509050600360fc1b8160008151811061109a5761109a611458565b60200101906001600160f81b031916908160001a905350600f60fb1b816001815181106110c9576110c9611458565b60200101906001600160f81b031916908160001a90535060006110ed846002611333565b6110f890600161142a565b90505b6001811115611170576f181899199a1a9b1b9c1cb0b131b232b360811b85600f166010811061112c5761112c611458565b1a60f81b82828151811061114257611142611458565b60200101906001600160f81b031916908160001a90535060049490941c936111698161146e565b90506110fb565b5083156111bf5760405162461bcd60e51b815260206004820181905260248201527f537472696e67733a20686578206c656e67746820696e73756666696369656e746044820152606401610649565b9392505050565b6000602082840312156111d857600080fd5b81356001600160e01b0319811681146111bf57600080fd5b60006020828403121561120257600080fd5b5035919050565b80356001600160a01b038116811461122057600080fd5b919050565b60006020828403121561123757600080fd5b6111bf82611209565b6000806040838503121561125357600080fd5b8235915061126360208401611209565b90509250929050565b801515811461127a57600080fd5b50565b60006020828403121561128f57600080fd5b81356111bf8161126c565b6000602082840312156112ac57600080fd5b5051919050565b696973506f6f6c4c69766560b01b8152600a0190565b6000602082840312156112db57600080fd5b81516111bf8161126c565b6020808252601d908201527f54686520706f6f6c2069732063757272656e746c7920636c6f7365642e000000604082015260600190565b634e487b7160e01b600052601160045260246000fd5b600081600019048311821515161561134d5761134d61131d565b500290565b60005b8381101561136d578181015183820152602001611355565b8381111561137c576000848401525b50505050565b7f416363657373436f6e74726f6c3a206163636f756e74200000000000000000008152600083516113ba816017850160208801611352565b7001034b99036b4b9b9b4b733903937b6329607d1b60179184019182015283516113eb816028840160208801611352565b01602801949350505050565b6020815260008251806020840152611416816040850160208701611352565b601f01601f19169190910160400192915050565b6000821982111561143d5761143d61131d565b500190565b634e487b7160e01b600052604160045260246000fd5b634e487b7160e01b600052603260045260246000fd5b60008161147d5761147d61131d565b50600019019056fe41a01ec0a13b563fa452569e3fbb116366d217c2769aa1561822e65a617e3842a2646970667358221220d8b3c0aadd811f2a444ea408495622894b768a5da3dc0f58e2d1788729f1bd0a64736f6c63430008090033",
    "sourcePath": "c:/Users/Lior/Desktop/Index/Coding Software/GitHub/challenge/contracts/PoolBase.sol",
    "compiler": {
        "name": "solc",
        "version": "0.8.9+commit.e5eed63a"
    },
    "functionHashes": {
        "DEFAULT_ADMIN_ROLE()": "a217fddf",
        "POOL_MANAGER()": "62308e85",
        "addPoolManager(address)": "45077e71",
        "getContributionLimit()": "fa1e19e5",
        "getPoolFees()": "d1d8d060",
        "getPoolMaxSize()": "095df57f",
        "getPoolState()": "217ac237",
        "getRewardsInterest()": "7521796f",
        "getRewardsInterval()": "497d0241",
        "getRoleAdmin(bytes32)": "248a9ca3",
        "grantRole(bytes32,address)": "2f2ff15d",
        "hasRole(bytes32,address)": "91d14854",
        "removePoolManager(address)": "29ca15bc",
        "renounceRole(bytes32,address)": "36568abe",
        "revokeRole(bytes32,address)": "d547741f",
        "setContributionLimit(uint256)": "72d099a0",
        "setMinContribution()": "543edfb6",
        "setMinContribution(uint256)": "473b0d46",
        "setPoolFees(uint256)": "8dd225d5",
        "setPoolLive(bool)": "a4975516",
        "setPoolMaxSize(uint256)": "12646987",
        "setRewardsInterest(uint256)": "bf4c0036",
        "setRewardsInterval(uint256)": "53710f49",
        "supportsInterface(bytes4)": "01ffc9a7"
    },
    "gasEstimates": {
        "creation": {
            "codeDepositCost": "1067800",
            "executionCost": "infinite",
            "totalCost": "infinite"
        },
        "external": {
            "DEFAULT_ADMIN_ROLE()": "217",
            "POOL_MANAGER()": "infinite",
            "addPoolManager(address)": "infinite",
            "getContributionLimit()": "infinite",
            "getPoolFees()": "infinite",
            "getPoolMaxSize()": "infinite",
            "getPoolState()": "infinite",
            "getRewardsInterest()": "infinite",
            "getRewardsInterval()": "infinite",
            "getRoleAdmin(bytes32)": "2559",
            "grantRole(bytes32,address)": "infinite",
            "hasRole(bytes32,address)": "2784",
            "removePoolManager(address)": "infinite",
            "renounceRole(bytes32,address)": "29040",
            "revokeRole(bytes32,address)": "infinite",
            "setContributionLimit(uint256)": "infinite",
            "setMinContribution()": "infinite",
            "setMinContribution(uint256)": "infinite",
            "setPoolFees(uint256)": "infinite",
            "setPoolLive(bool)": "infinite",
            "setPoolMaxSize(uint256)": "infinite",
            "setRewardsInterest(uint256)": "infinite",
            "setRewardsInterval(uint256)": "infinite",
            "supportsInterface(bytes4)": "450"
        },
        "internal": {
            "_setPoolBaseAddress()": "infinite",
            "getContractAddress(string memory)": "infinite"
        }
    }
}