{
    "contractName": "PoolClient",
    "abi": [
        {
            "inputs": [
                {
                    "internalType": "contract DataStorageInterface",
                    "name": "_dataStorageAddress",
                    "type": "address"
                }
            ],
            "stateMutability": "nonpayable",
            "type": "constructor"
        },
        {
            "anonymous": false,
            "inputs": [
                {
                    "indexed": true,
                    "internalType": "address",
                    "name": "_removedManager",
                    "type": "address"
                }
            ],
            "name": "ManagerRemoved",
            "type": "event"
        },
        {
            "anonymous": false,
            "inputs": [
                {
                    "indexed": true,
                    "internalType": "address",
                    "name": "_newManager",
                    "type": "address"
                }
            ],
            "name": "NewManagerAdded",
            "type": "event"
        },
        {
            "anonymous": false,
            "inputs": [
                {
                    "indexed": false,
                    "internalType": "uint256",
                    "name": "_lastRewardTime",
                    "type": "uint256"
                },
                {
                    "indexed": false,
                    "internalType": "uint256",
                    "name": "_amountInjected",
                    "type": "uint256"
                }
            ],
            "name": "RewardsInjected",
            "type": "event"
        },
        {
            "anonymous": false,
            "inputs": [
                {
                    "indexed": true,
                    "internalType": "bytes32",
                    "name": "role",
                    "type": "bytes32"
                },
                {
                    "indexed": true,
                    "internalType": "bytes32",
                    "name": "previousAdminRole",
                    "type": "bytes32"
                },
                {
                    "indexed": true,
                    "internalType": "bytes32",
                    "name": "newAdminRole",
                    "type": "bytes32"
                }
            ],
            "name": "RoleAdminChanged",
            "type": "event"
        },
        {
            "anonymous": false,
            "inputs": [
                {
                    "indexed": true,
                    "internalType": "bytes32",
                    "name": "role",
                    "type": "bytes32"
                },
                {
                    "indexed": true,
                    "internalType": "address",
                    "name": "account",
                    "type": "address"
                },
                {
                    "indexed": true,
                    "internalType": "address",
                    "name": "sender",
                    "type": "address"
                }
            ],
            "name": "RoleGranted",
            "type": "event"
        },
        {
            "anonymous": false,
            "inputs": [
                {
                    "indexed": true,
                    "internalType": "bytes32",
                    "name": "role",
                    "type": "bytes32"
                },
                {
                    "indexed": true,
                    "internalType": "address",
                    "name": "account",
                    "type": "address"
                },
                {
                    "indexed": true,
                    "internalType": "address",
                    "name": "sender",
                    "type": "address"
                }
            ],
            "name": "RoleRevoked",
            "type": "event"
        },
        {
            "anonymous": false,
            "inputs": [
                {
                    "indexed": true,
                    "internalType": "address",
                    "name": "_staker",
                    "type": "address"
                },
                {
                    "indexed": false,
                    "internalType": "uint256",
                    "name": "_ethAmount",
                    "type": "uint256"
                },
                {
                    "indexed": false,
                    "internalType": "uint256",
                    "name": "_time",
                    "type": "uint256"
                }
            ],
            "name": "UserStaked",
            "type": "event"
        },
        {
            "anonymous": false,
            "inputs": [
                {
                    "indexed": true,
                    "internalType": "address",
                    "name": "_unstaker",
                    "type": "address"
                },
                {
                    "indexed": false,
                    "internalType": "uint256",
                    "name": "_ethAmount",
                    "type": "uint256"
                },
                {
                    "indexed": false,
                    "internalType": "uint256",
                    "name": "_time",
                    "type": "uint256"
                }
            ],
            "name": "UserUnstaked",
            "type": "event"
        },
        {
            "inputs": [],
            "name": "DEFAULT_ADMIN_ROLE",
            "outputs": [
                {
                    "internalType": "bytes32",
                    "name": "",
                    "type": "bytes32"
                }
            ],
            "stateMutability": "view",
            "type": "function"
        },
        {
            "inputs": [],
            "name": "POOL_MANAGER",
            "outputs": [
                {
                    "internalType": "bytes32",
                    "name": "",
                    "type": "bytes32"
                }
            ],
            "stateMutability": "view",
            "type": "function"
        },
        {
            "inputs": [
                {
                    "internalType": "address",
                    "name": "_address",
                    "type": "address"
                }
            ],
            "name": "addPoolManager",
            "outputs": [],
            "stateMutability": "nonpayable",
            "type": "function"
        },
        {
            "inputs": [],
            "name": "calculateRewards",
            "outputs": [],
            "stateMutability": "nonpayable",
            "type": "function"
        },
        {
            "inputs": [],
            "name": "deposit",
            "outputs": [],
            "stateMutability": "payable",
            "type": "function"
        },
        {
            "inputs": [],
            "name": "getContributionLimit",
            "outputs": [
                {
                    "internalType": "uint256",
                    "name": "",
                    "type": "uint256"
                }
            ],
            "stateMutability": "view",
            "type": "function"
        },
        {
            "inputs": [],
            "name": "getPoolFees",
            "outputs": [
                {
                    "internalType": "uint256",
                    "name": "",
                    "type": "uint256"
                }
            ],
            "stateMutability": "view",
            "type": "function"
        },
        {
            "inputs": [],
            "name": "getPoolMaxSize",
            "outputs": [
                {
                    "internalType": "uint256",
                    "name": "",
                    "type": "uint256"
                }
            ],
            "stateMutability": "view",
            "type": "function"
        },
        {
            "inputs": [],
            "name": "getPoolState",
            "outputs": [
                {
                    "internalType": "bool",
                    "name": "",
                    "type": "bool"
                }
            ],
            "stateMutability": "view",
            "type": "function"
        },
        {
            "inputs": [],
            "name": "getRewardsInterest",
            "outputs": [
                {
                    "internalType": "uint256",
                    "name": "",
                    "type": "uint256"
                }
            ],
            "stateMutability": "view",
            "type": "function"
        },
        {
            "inputs": [],
            "name": "getRewardsInterval",
            "outputs": [
                {
                    "internalType": "uint256",
                    "name": "",
                    "type": "uint256"
                }
            ],
            "stateMutability": "view",
            "type": "function"
        },
        {
            "inputs": [],
            "name": "getRewardsToInject",
            "outputs": [
                {
                    "internalType": "uint256",
                    "name": "",
                    "type": "uint256"
                }
            ],
            "stateMutability": "view",
            "type": "function"
        },
        {
            "inputs": [
                {
                    "internalType": "bytes32",
                    "name": "role",
                    "type": "bytes32"
                }
            ],
            "name": "getRoleAdmin",
            "outputs": [
                {
                    "internalType": "bytes32",
                    "name": "",
                    "type": "bytes32"
                }
            ],
            "stateMutability": "view",
            "type": "function"
        },
        {
            "inputs": [
                {
                    "internalType": "bytes32",
                    "name": "role",
                    "type": "bytes32"
                },
                {
                    "internalType": "address",
                    "name": "account",
                    "type": "address"
                }
            ],
            "name": "grantRole",
            "outputs": [],
            "stateMutability": "nonpayable",
            "type": "function"
        },
        {
            "inputs": [
                {
                    "internalType": "bytes32",
                    "name": "role",
                    "type": "bytes32"
                },
                {
                    "internalType": "address",
                    "name": "account",
                    "type": "address"
                }
            ],
            "name": "hasRole",
            "outputs": [
                {
                    "internalType": "bool",
                    "name": "",
                    "type": "bool"
                }
            ],
            "stateMutability": "view",
            "type": "function"
        },
        {
            "inputs": [
                {
                    "internalType": "address",
                    "name": "_address",
                    "type": "address"
                }
            ],
            "name": "removePoolManager",
            "outputs": [],
            "stateMutability": "nonpayable",
            "type": "function"
        },
        {
            "inputs": [
                {
                    "internalType": "bytes32",
                    "name": "role",
                    "type": "bytes32"
                },
                {
                    "internalType": "address",
                    "name": "account",
                    "type": "address"
                }
            ],
            "name": "renounceRole",
            "outputs": [],
            "stateMutability": "nonpayable",
            "type": "function"
        },
        {
            "inputs": [
                {
                    "internalType": "bytes32",
                    "name": "role",
                    "type": "bytes32"
                },
                {
                    "internalType": "address",
                    "name": "account",
                    "type": "address"
                }
            ],
            "name": "revokeRole",
            "outputs": [],
            "stateMutability": "nonpayable",
            "type": "function"
        },
        {
            "inputs": [],
            "name": "rewardsInjector",
            "outputs": [],
            "stateMutability": "payable",
            "type": "function"
        },
        {
            "inputs": [
                {
                    "internalType": "uint256",
                    "name": "_newContrLimit",
                    "type": "uint256"
                }
            ],
            "name": "setContributionLimit",
            "outputs": [],
            "stateMutability": "nonpayable",
            "type": "function"
        },
        {
            "inputs": [
                {
                    "internalType": "uint256",
                    "name": "_newMinContr",
                    "type": "uint256"
                }
            ],
            "name": "setMinContribution",
            "outputs": [],
            "stateMutability": "nonpayable",
            "type": "function"
        },
        {
            "inputs": [],
            "name": "setMinContribution",
            "outputs": [
                {
                    "internalType": "uint256",
                    "name": "",
                    "type": "uint256"
                }
            ],
            "stateMutability": "view",
            "type": "function"
        },
        {
            "inputs": [
                {
                    "internalType": "uint256",
                    "name": "_poolFees",
                    "type": "uint256"
                }
            ],
            "name": "setPoolFees",
            "outputs": [],
            "stateMutability": "nonpayable",
            "type": "function"
        },
        {
            "inputs": [
                {
                    "internalType": "bool",
                    "name": "_live",
                    "type": "bool"
                }
            ],
            "name": "setPoolLive",
            "outputs": [],
            "stateMutability": "nonpayable",
            "type": "function"
        },
        {
            "inputs": [
                {
                    "internalType": "uint256",
                    "name": "_maxSize",
                    "type": "uint256"
                }
            ],
            "name": "setPoolMaxSize",
            "outputs": [],
            "stateMutability": "nonpayable",
            "type": "function"
        },
        {
            "inputs": [
                {
                    "internalType": "uint256",
                    "name": "_rewardsInterest",
                    "type": "uint256"
                }
            ],
            "name": "setRewardsInterest",
            "outputs": [],
            "stateMutability": "nonpayable",
            "type": "function"
        },
        {
            "inputs": [
                {
                    "internalType": "uint256",
                    "name": "_daysToRewards",
                    "type": "uint256"
                }
            ],
            "name": "setRewardsInterval",
            "outputs": [],
            "stateMutability": "nonpayable",
            "type": "function"
        },
        {
            "inputs": [
                {
                    "internalType": "bytes4",
                    "name": "interfaceId",
                    "type": "bytes4"
                }
            ],
            "name": "supportsInterface",
            "outputs": [
                {
                    "internalType": "bool",
                    "name": "",
                    "type": "bool"
                }
            ],
            "stateMutability": "view",
            "type": "function"
        },
        {
            "inputs": [
                {
                    "internalType": "uint256",
                    "name": "_rwEthAmount",
                    "type": "uint256"
                }
            ],
            "name": "withdraw",
            "outputs": [],
            "stateMutability": "nonpayable",
            "type": "function"
        }
    ],
    "bytecode": "60806040523480156200001157600080fd5b5060405162003493380380620034938339810160408190526200003491620003c0565b60018055600280546001600160a01b0319166001600160a01b0383161790558062000061600033620000a9565b6200008d7f41a01ec0a13b563fa452569e3fbb116366d217c2769aa1561822e65a617e384233620000a9565b62000097620000b9565b50620000a262000220565b50620003f2565b620000b5828262000320565b5050565b6002546040516e636f6e74726163745f65786973747360881b60208201526001600160601b03193060601b16602f8201526001600160a01b039091169063988c515b9060430160408051601f198184030181529082905280516020909101206001600160e01b031960e084901b168252600482015260016024820152604401600060405180830381600087803b1580156200015357600080fd5b505af115801562000168573d6000803e3d6000fd5b50506002546040516f636f6e74726163745f6164647265737360801b602082015267506f6f6c4261736560c01b60308201526001600160a01b039091169250637221263a91506038015b60408051601f198184030181529082905280516020909101206001600160e01b031960e084901b1682526004820152306024820152604401600060405180830381600087803b1580156200020557600080fd5b505af11580156200021a573d6000803e3d6000fd5b50505050565b6002546040516e636f6e74726163745f65786973747360881b60208201526001600160601b03193060601b16602f8201526001600160a01b039091169063988c515b9060430160408051601f198184030181529082905280516020909101206001600160e01b031960e084901b168252600482015260016024820152604401600060405180830381600087803b158015620002ba57600080fd5b505af1158015620002cf573d6000803e3d6000fd5b50506002546040516f636f6e74726163745f6164647265737360801b602082015269141bdbdb10db1a595b9d60b21b60308201526001600160a01b039091169250637221263a9150603a01620001b2565b6000828152602081815260408083206001600160a01b038516845290915290205460ff16620000b5576000828152602081815260408083206001600160a01b03851684529091529020805460ff191660011790556200037c3390565b6001600160a01b0316816001600160a01b0316837f2f8788117e7eff1d82e926ec794901d17c78024a50270940304540a733656f0d60405160405180910390a45050565b600060208284031215620003d357600080fd5b81516001600160a01b0381168114620003eb57600080fd5b9392505050565b61309180620004026000396000f3fe6080604052600436106101c25760003560e01c8063543edfb6116100f7578063a217fddf11610095578063d1d8d06011610064578063d1d8d060146104ae578063d547741f146104c3578063ee7d4d2b146104e3578063fa1e19e5146104eb57600080fd5b8063a217fddf14610451578063a497551614610466578063bf4c003614610486578063d0e30db0146104a657600080fd5b80637521796f116100d15780637521796f146103e75780638dd225d5146103fc57806391d148541461041c5780639ed03ab61461043c57600080fd5b8063543edfb61461039057806362308e85146103a557806372d099a0146103c757600080fd5b80632f2ff15d1161016457806345077e711161013e57806345077e711461031b578063473b0d461461033b578063497d02411461035b57806353710f491461037057600080fd5b80632f2ff15d146102c657806336568abe146102e65780633e50de301461030657600080fd5b8063217ac237116101a0578063217ac23714610241578063248a9ca31461025657806329ca15bc146102865780632e1a7d4d146102a657600080fd5b806301ffc9a7146101c7578063095df57f146101fc578063126469871461021f575b600080fd5b3480156101d357600080fd5b506101e76101e2366004612cee565b610500565b60405190151581526020015b60405180910390f35b34801561020857600080fd5b50610211610537565b6040519081526020016101f3565b34801561022b57600080fd5b5061023f61023a366004612d18565b6105f4565b005b34801561024d57600080fd5b506101e76106ad565b34801561026257600080fd5b50610211610271366004612d18565b60009081526020819052604090206001015490565b34801561029257600080fd5b5061023f6102a1366004612d49565b610752565b3480156102b257600080fd5b5061023f6102c1366004612d18565b6107ae565b3480156102d257600080fd5b5061023f6102e1366004612d66565b610e23565b3480156102f257600080fd5b5061023f610301366004612d66565b610e4e565b34801561031257600080fd5b5061023f610ecc565b34801561032757600080fd5b5061023f610336366004612d49565b611073565b34801561034757600080fd5b5061023f610356366004612d18565b6110cf565b34801561036757600080fd5b506102116111d2565b34801561037c57600080fd5b5061023f61038b366004612d18565b6111f8565b34801561039c57600080fd5b50610211611352565b3480156103b157600080fd5b5061021160008051602061303c83398151915281565b3480156103d357600080fd5b5061023f6103e2366004612d18565b61137a565b3480156103f357600080fd5b5061021161147f565b34801561040857600080fd5b5061023f610417366004612d18565b6114b0565b34801561042857600080fd5b506101e7610437366004612d66565b6116c9565b34801561044857600080fd5b506102116116f2565b34801561045d57600080fd5b50610211600081565b34801561047257600080fd5b5061023f610481366004612da4565b6117c8565b34801561049257600080fd5b5061023f6104a1366004612d18565b611842565b61023f61194e565b3480156104ba57600080fd5b5061021161246b565b3480156104cf57600080fd5b5061023f6104de366004612d66565b61248c565b61023f6124b2565b3480156104f757600080fd5b5061021161284a565b60006001600160e01b03198216637965db0b60e01b148061053157506301ffc9a760e01b6001600160e01b03198316145b92915050565b60008060405160200161055b906a706f6f6c4d617853697a6560a81b8152600b0190565b60408051808303601f1901815290829052805160209091012060025463afc3602b60e01b8352600483018290529092506001600160a01b03169063afc3602b9060240160206040518083038186803b1580156105b657600080fd5b505afa1580156105ca573d6000803e3d6000fd5b505050506040513d601f19601f820116820180604052508101906105ee9190612dc1565b91505090565b60008051602061303c83398151915261060d8133612874565b6040516a706f6f6c4d617853697a6560a81b6020820152600090602b015b60408051808303601f190181529082905280516020909101206002546328192c5560e01b835260048301829052602483018690529092506001600160a01b0316906328192c55906044015b600060405180830381600087803b15801561069057600080fd5b505af11580156106a4573d6000803e3d6000fd5b50505050505050565b6000806040516020016106bf90612dda565b60408051808303601f190181529082905280516020909101206002546355d9465560e01b8352600483018290529092506001600160a01b0316906355d946559060240160206040518083038186803b15801561071a57600080fd5b505afa15801561072e573d6000803e3d6000fd5b505050506040513d601f19601f820116820180604052508101906105ee9190612df0565b600061075e8133612874565b61077660008051602061303c8339815191528361248c565b6040516001600160a01b038316907fef69f7d97228658c92417be1b16b19058315de71fecb435d07b7d23728b6bd3190600090a25050565b8060006107db60405180604001604052806009815260200168141bdbdb15985d5b1d60ba1b8152506128d8565b9050600061080a6040518060400160405280600a815260200169393ba2aa242a37b5b2b760b11b8152506128d8565b9050600061083c6040518060400160405280600d81526020016c546f6b656e42616c616e63657360981b8152506128d8565b9050600060405160200161084f90612dda565b60408051808303601f190181529082905280516020909101206002546355d9465560e01b8352600483018290529092506001600160a01b0316906355d946559060240160206040518083038186803b1580156108aa57600080fd5b505afa1580156108be573d6000803e3d6000fd5b505050506040513d601f19601f820116820180604052508101906108e29190612df0565b6109335760405162461bcd60e51b815260206004820152601c60248201527f54686520706f6f6c2069732063757272656e746c79207061757365640000000060448201526064015b60405180910390fd5b6040516370a0823160e01b815233600482015285906001600160a01b038516906370a082319060240160206040518083038186803b15801561097457600080fd5b505afa158015610988573d6000803e3d6000fd5b505050506040513d601f19601f820116820180604052508101906109ac9190612dc1565b1015610a185760405162461bcd60e51b815260206004820152603560248201527f596f7520646f6e27742068617665207468617420616d6f756e74206f6620746f60448201527435b2b7399034b7103cb7bab91030b1b1b7bab73a1760591b606482015260840161092a565b6040516312946fe160e01b8152600481018690526000906001600160a01b038516906312946fe19060240160206040518083038186803b158015610a5b57600080fd5b505afa158015610a6f573d6000803e3d6000fd5b505050506040513d601f19601f82011682018060405250810190610a939190612dc1565b856001600160a01b031663ccfe0c8e6040518163ffffffff1660e01b815260040160206040518083038186803b158015610acc57600080fd5b505afa158015610ae0573d6000803e3d6000fd5b505050506040513d601f19601f82011682018060405250810190610b049190612dc1565b610b0e9190612e23565b1015610b6b5760405162461bcd60e51b815260206004820152602660248201527f506f6f6c2073697a652063616e6e6f7420626520736d616c6c6572207468616e604482015265103d32b9379760d11b606482015260840161092a565b60026001541415610bbe5760405162461bcd60e51b815260206004820152601f60248201527f5265656e7472616e637947756172643a207265656e7472616e742063616c6c00604482015260640161092a565b600260015560408051808201909152600a815269393ba2aa242a37b5b2b760b11b6020820152600090610bf0906128d8565b90506000610c1e60405180604001604052806009815260200168141bdbdb15985d5b1d60ba1b8152506128d8565b60405163a9059cbb60e01b8152306004820152602481018a90529091506001600160a01b0383169063a9059cbb90604401602060405180830381600087803b158015610c6957600080fd5b505af1158015610c7d573d6000803e3d6000fd5b505050506040513d601f19601f82011682018060405250810190610ca19190612df0565b506040516312946fe160e01b8152600481018990526000906001600160a01b038416906312946fe19060240160206040518083038186803b158015610ce557600080fd5b505afa158015610cf9573d6000803e3d6000fd5b505050506040513d601f19601f82011682018060405250810190610d1d9190612dc1565b604051630852cd8d60e31b8152600481018b90529091506001600160a01b038416906342966c6890602401600060405180830381600087803b158015610d6257600080fd5b505af1158015610d76573d6000803e3d6000fd5b505060405163522f681560e01b8152336004820152602481018490526001600160a01b038516925063522f68159150604401600060405180830381600087803b158015610dc257600080fd5b505af1158015610dd6573d6000803e3d6000fd5b5050604080518481524260208201523393507f91405db2584f6e8463494f0e18c40f87fe3146322d19c494e8a0e0a039c3886992500160405180910390a250506001805550505050505050565b600082815260208190526040902060010154610e3f8133612874565b610e4983836129e4565b505050565b6001600160a01b0381163314610ebe5760405162461bcd60e51b815260206004820152602f60248201527f416363657373436f6e74726f6c3a2063616e206f6e6c792072656e6f756e636560448201526e103937b632b9903337b91039b2b63360891b606482015260840161092a565b610ec88282612a68565b5050565b60008051602061303c833981519152610ee58133612874565b6040516e1c995dd85c991cd51bd25b9a9958dd608a1b6020820152600090602f016040516020818303038152906040528051906020012090506000604051602001610f4790703a37ba30b629bab838363cafa2ba3432b960791b815260110190565b6040516020818303038152906040528051906020012090506000610f6961147f565b60025460405163afc3602b60e01b815260048101859052919250600091620f42409184916001600160a01b039091169063afc3602b9060240160206040518083038186803b158015610fba57600080fd5b505afa158015610fce573d6000803e3d6000fd5b505050506040513d601f19601f82011682018060405250810190610ff29190612dc1565b610ffc9190612e3a565b6110069190612e59565b6002546040516328192c5560e01b815260048101879052602481018390529192506001600160a01b0316906328192c5590604401600060405180830381600087803b15801561105457600080fd5b505af1158015611068573d6000803e3d6000fd5b505050505050505050565b600061107f8133612874565b61109760008051602061303c83398151915283610e23565b6040516001600160a01b038316907fd873e3f571dc25e020cefdeb7255b3874ead3aade1f94a5fb4a5da831fd670cd90600090a25050565b60008051602061303c8339815191526110e88133612874565b6002546040516001600160a01b03909116906355d946559061110c90602001612dda565b604051602081830303815290604052805190602001206040518263ffffffff1660e01b815260040161114091815260200190565b60206040518083038186803b15801561115857600080fd5b505afa15801561116c573d6000803e3d6000fd5b505050506040513d601f19601f820116820180604052508101906111909190612df0565b6111ac5760405162461bcd60e51b815260040161092a90612e7b565b6040516e36b4b721b7b73a3934b13aba34b7b760891b6020820152600090602f0161062b565b60008060405160200161055b906c64617973546f5265776172647360981b8152600d0190565b60008051602061303c8339815191526112118133612874565b6002546040516001600160a01b03909116906355d946559061123590602001612dda565b604051602081830303815290604052805190602001206040518263ffffffff1660e01b815260040161126991815260200190565b60206040518083038186803b15801561128157600080fd5b505afa158015611295573d6000803e3d6000fd5b505050506040513d601f19601f820116820180604052508101906112b99190612df0565b6112d55760405162461bcd60e51b815260040161092a90612e7b565b604080516c64617973546f5265776172647360981b6020808301919091528251600d818403018152602d90920190925280519101206002546001600160a01b03166328192c55826113298662015180612e3a565b6040516001600160e01b031960e085901b16815260048101929092526024820152604401610676565b60008060405160200161055b906e36b4b721b7b73a3934b13aba34b7b760891b8152600f0190565b60008051602061303c8339815191526113938133612874565b6002546040516001600160a01b03909116906355d94655906113b790602001612dda565b604051602081830303815290604052805190602001206040518263ffffffff1660e01b81526004016113eb91815260200190565b60206040518083038186803b15801561140357600080fd5b505afa158015611417573d6000803e3d6000fd5b505050506040513d601f19601f8201168201806040525081019061143b9190612df0565b6114575760405162461bcd60e51b815260040161092a90612e7b565b6040517018dbdb9d1c9a589d5d1a5bdb931a5b5a5d607a1b602082015260009060310161062b565b60008060405160200161055b90771c995dd85c991cd25b9d195c995cdd14195c94195c9a5bd960421b815260180190565b60008051602061303c8339815191526114c98133612874565b6002546040516001600160a01b03909116906355d94655906114ed90602001612dda565b604051602081830303815290604052805190602001206040518263ffffffff1660e01b815260040161152191815260200190565b60206040518083038186803b15801561153957600080fd5b505afa15801561154d573d6000803e3d6000fd5b505050506040513d601f19601f820116820180604052508101906115719190612df0565b61158d5760405162461bcd60e51b815260040161092a90612e7b565b60405167706f6f6c4665657360c01b602082015260009060280160405160208183030381529060405280519060200120905060006040516020016115e2906a1c1bdbdb1199595cd4d95d60aa1b8152600b0190565b60408051808303601f190181529082905280516020909101206002546328192c5560e01b835260048301859052602483018790529092506001600160a01b0316906328192c5590604401600060405180830381600087803b15801561164657600080fd5b505af115801561165a573d6000803e3d6000fd5b505060025460405163988c515b60e01b815260048101859052600160248201526001600160a01b03909116925063988c515b9150604401600060405180830381600087803b1580156116ab57600080fd5b505af11580156116bf573d6000803e3d6000fd5b5050505050505050565b6000918252602082815260408084206001600160a01b0393909316845291905290205460ff1690565b600060008051602061303c83398151915261170d8133612874565b6040516e1c995dd85c991cd51bd25b9a9958dd608a1b6020820152600090602f0160408051808303601f1901815290829052805160209091012060025463afc3602b60e01b8352600483018290529092506001600160a01b03169063afc3602b9060240160206040518083038186803b15801561178957600080fd5b505afa15801561179d573d6000803e3d6000fd5b505050506040513d601f19601f820116820180604052508101906117c19190612dc1565b9250505090565b60008051602061303c8339815191526117e18133612874565b60006040516020016117f290612dda565b60408051808303601f1901815290829052805160209091012060025463988c515b60e01b83526004830182905285151560248401529092506001600160a01b03169063988c515b90604401610676565b60008051602061303c83398151915261185b8133612874565b6002546040516001600160a01b03909116906355d946559061187f90602001612dda565b604051602081830303815290604052805190602001206040518263ffffffff1660e01b81526004016118b391815260200190565b60206040518083038186803b1580156118cb57600080fd5b505afa1580156118df573d6000803e3d6000fd5b505050506040513d601f19601f820116820180604052508101906119039190612df0565b61191f5760405162461bcd60e51b815260040161092a90612e7b565b604051771c995dd85c991cd25b9d195c995cdd14195c94195c9a5bd960421b602082015260009060380161062b565b600061197a60405180604001604052806009815260200168141bdbdb15985d5b1d60ba1b8152506128d8565b9050600060405160200161198d90612dda565b60405160208183030381529060405280519060200120905060006040516020016119ca906c64617973546f5265776172647360981b8152600d0190565b6040516020818303038152906040528051906020012090506000604051602001611a1290771c995dd85c991cd25b9d195c995cdd14195c94195c9a5bd960421b815260180190565b6040516020818303038152906040528051906020012090506000604051602001611a53907018dbdb9d1c9a589d5d1a5bdb931a5b5a5d607a1b815260110190565b6040516020818303038152906040528051906020012090506000604051602001611a8e906a1c1bdbdb1199595cd4d95d60aa1b8152600b0190565b6040516020818303038152906040528051906020012090506000604051602001611acd906e36b4b721b7b73a3934b13aba34b7b760891b8152600f0190565b6040516020818303038152906040528051906020012090506000604051602001611b08906a706f6f6c4d617853697a6560a81b8152600b0190565b60408051808303601f190181529082905280516020909101206002546355d9465560e01b8352600483018a90529092506001600160a01b0316906355d946559060240160206040518083038186803b158015611b6357600080fd5b505afa158015611b77573d6000803e3d6000fd5b505050506040513d601f19601f82011682018060405250810190611b9b9190612df0565b611be75760405162461bcd60e51b815260206004820152601c60248201527f54686520706f6f6c2069732063757272656e746c792070617573656400000000604482015260640161092a565b60025460405163afc3602b60e01b8152600481018890526001600160a01b039091169063afc3602b9060240160206040518083038186803b158015611c2b57600080fd5b505afa158015611c3f573d6000803e3d6000fd5b505050506040513d601f19601f82011682018060405250810190611c639190612dc1565b611cc05760405162461bcd60e51b815260206004820152602860248201527f546865207465616d206e6565647320746f207365742061207265776172642069604482015267373a32b93b30b61760c11b606482015260840161092a565b60025460405163afc3602b60e01b8152600481018790526001600160a01b039091169063afc3602b9060240160206040518083038186803b158015611d0457600080fd5b505afa158015611d18573d6000803e3d6000fd5b505050506040513d601f19601f82011682018060405250810190611d3c9190612dc1565b611d965760405162461bcd60e51b815260206004820152602560248201527f546865207465616d206e6565647320746f20736574206120726577617264207260448201526430ba34b79760d91b606482015260840161092a565b60025460405163afc3602b60e01b8152600481018690526001600160a01b039091169063afc3602b9060240160206040518083038186803b158015611dda57600080fd5b505afa158015611dee573d6000803e3d6000fd5b505050506040513d601f19601f82011682018060405250810190611e129190612dc1565b611e725760405162461bcd60e51b815260206004820152602b60248201527f546865207465616d206e6565647320746f20736574206120636f6e747269627560448201526a3a34b7b7103634b6b4ba1760a91b606482015260840161092a565b6002546040516355d9465560e01b8152600481018590526001600160a01b03909116906355d946559060240160206040518083038186803b158015611eb657600080fd5b505afa158015611eca573d6000803e3d6000fd5b505050506040513d601f19601f82011682018060405250810190611eee9190612df0565b611f465760405162461bcd60e51b8152602060048201526024808201527f546865207465616d206e6565647320746f207365742074686520706f6f6c206660448201526332b2b99760e11b606482015260840161092a565b60025460405163afc3602b60e01b8152600481018690526001600160a01b039091169063afc3602b9060240160206040518083038186803b158015611f8a57600080fd5b505afa158015611f9e573d6000803e3d6000fd5b505050506040513d601f19601f82011682018060405250810190611fc29190612dc1565b3411156120235760405162461bcd60e51b815260206004820152602960248201527f4d61782e2063757272656e7420636f6e747269627574696f6e206c696d69742060448201526832bc31b2b2b232b21760b91b606482015260840161092a565b60025460405163afc3602b60e01b81526004810184905234916001600160a01b03169063afc3602b9060240160206040518083038186803b15801561206757600080fd5b505afa15801561207b573d6000803e3d6000fd5b505050506040513d601f19601f8201168201806040525081019061209f9190612dc1565b111561212c5760405162461bcd60e51b815260206004820152605060248201527f56616c756520746f206465706f736974206e6565647320746f2062652068696760448201527f686572207468616e207468652063757272656e74206d696e696d756d20636f6e60648201526f3a3934b13aba34b7b7103634b6b4ba1760811b608482015260a40161092a565b60025460405163afc3602b60e01b8152600481018390526001600160a01b039091169063afc3602b9060240160206040518083038186803b15801561217057600080fd5b505afa158015612184573d6000803e3d6000fd5b505050506040513d601f19601f820116820180604052508101906121a89190612dc1565b34896001600160a01b031663ccfe0c8e6040518163ffffffff1660e01b815260040160206040518083038186803b1580156121e257600080fd5b505afa1580156121f6573d6000803e3d6000fd5b505050506040513d601f19601f8201168201806040525081019061221a9190612dc1565b6122249190612eb2565b111561228f5760405162461bcd60e51b815260206004820152603460248201527f4d61782e20506f6f6c2073697a65206f766572666c6f772077697468207468616044820152733a1030b6b7bab73a1037b3103232b837b9b4ba1760611b606482015260840161092a565b600260015414156122e25760405162461bcd60e51b815260206004820152601f60248201527f5265656e7472616e637947756172643a207265656e7472616e742063616c6c00604482015260640161092a565b600260015560408051808201909152600a815269393ba2aa242a37b5b2b760b11b6020820152600090612314906128d8565b6040516340c10f1960e01b81523360048201523460248201529091506001600160a01b038216906340c10f1990604401600060405180830381600087803b15801561235e57600080fd5b505af1158015612372573d6000803e3d6000fd5b50505050600060405160200161239f90703a37ba30b629bab838363cafa2ba3432b960791b815260110190565b60408051808303601f1901815290829052805160209091012060025462ec44af60e51b8352600483018290523460248401529092506001600160a01b031690631d8895e090604401600060405180830381600087803b15801561240157600080fd5b505af1158015612415573d6000803e3d6000fd5b5050604080513481524260208201523393507f91405db2584f6e8463494f0e18c40f87fe3146322d19c494e8a0e0a039c3886992500160405180910390a261245b612acd565b5050600180555050505050505050565b60008060405160200161055b9067706f6f6c4665657360c01b815260080190565b6000828152602081905260409020600101546124a88133612874565b610e498383612a68565b60008051602061303c8339815191526124cb8133612874565b6124d36116f2565b34146125215760405162461bcd60e51b815260206004820181905260248201527f496e76616c696420657468657220696e74657265737420696e6a65637465642e604482015260640161092a565b600061254d60405180604001604052806009815260200168141bdbdb15985d5b1d60ba1b8152506128d8565b90506000604051602001612575906d6c61737452657761726454696d6560901b8152600e0190565b60405160208183030381529060405280519060200120905060006040516020016125b990731d1bdd185b14995dd85c991cd25b9a9958dd195960621b815260140190565b60405160208183030381529060405280519060200120905060006040516020016125fa90703a37ba30b629bab838363cafa2ba3432b960791b815260110190565b60408051808303601f190181529082905280516020909101206002546328192c5560e01b8352600483018690524260248401529092506001600160a01b0316906328192c5590604401600060405180830381600087803b15801561265d57600080fd5b505af1158015612671573d6000803e3d6000fd5b505060025460405162ec44af60e51b8152600481018690523460248201526001600160a01b039091169250631d8895e09150604401600060405180830381600087803b1580156126c057600080fd5b505af11580156126d4573d6000803e3d6000fd5b505060025460405162ec44af60e51b8152600481018590523460248201526001600160a01b039091169250631d8895e09150604401600060405180830381600087803b15801561272357600080fd5b505af1158015612737573d6000803e3d6000fd5b50505050836001600160a01b031663f9fc0d07346040518263ffffffff1660e01b81526004016000604051808303818588803b15801561277657600080fd5b505af115801561278a573d6000803e3d6000fd5b505060025460405163afc3602b60e01b8152600481018890527f70bf248e27883b1a6af8a9d590cc2b58fa0d74b60c83a9bb5e12de0f9b3ddfc694506001600160a01b03909116925063afc3602b915060240160206040518083038186803b1580156127f557600080fd5b505afa158015612809573d6000803e3d6000fd5b505050506040513d601f19601f8201168201806040525081019061282d9190612dc1565b604080519182523460208301520160405180910390a15050505050565b60008060405160200161055b907018dbdb9d1c9a589d5d1a5bdb931a5b5a5d607a1b815260110190565b61287e82826116c9565b610ec857612896816001600160a01b03166014612b52565b6128a1836020612b52565b6040516020016128b2929190612efa565b60408051601f198184030181529082905262461bcd60e51b825261092a91600401612f6f565b600080826040516020016128ec9190612fa2565b60408051808303601f190181529082905280516020909101206002546315485dd960e11b8352600483018290529092506000916001600160a01b0390911690632a90bbb29060240160206040518083038186803b15801561294c57600080fd5b505afa158015612960573d6000803e3d6000fd5b505050506040513d601f19601f820116820180604052508101906129849190612fdb565b90506001600160a01b038116156129dd5760405162461bcd60e51b815260206004820152601b60248201527f436f6e74726163742061646472657373206e6f7420666f756e642e0000000000604482015260640161092a565b9392505050565b6129ee82826116c9565b610ec8576000828152602081815260408083206001600160a01b03851684529091529020805460ff19166001179055612a243390565b6001600160a01b0316816001600160a01b0316837f2f8788117e7eff1d82e926ec794901d17c78024a50270940304540a733656f0d60405160405180910390a45050565b612a7282826116c9565b15610ec8576000828152602081815260408083206001600160a01b0385168085529252808320805460ff1916905551339285917ff6391f5c32d9c69d2a47ea670b442974b53935d1edc7fd64eb21e047a839171b9190a45050565b6000612af960405180604001604052806009815260200168141bdbdb15985d5b1d60ba1b8152506128d8565b9050806001600160a01b031663a7cc190a346040518263ffffffff1660e01b81526004016000604051808303818588803b158015612b3657600080fd5b505af1158015612b4a573d6000803e3d6000fd5b505050505050565b60606000612b61836002612e3a565b612b6c906002612eb2565b67ffffffffffffffff811115612b8457612b84612ff8565b6040519080825280601f01601f191660200182016040528015612bae576020820181803683370190505b509050600360fc1b81600081518110612bc957612bc961300e565b60200101906001600160f81b031916908160001a905350600f60fb1b81600181518110612bf857612bf861300e565b60200101906001600160f81b031916908160001a9053506000612c1c846002612e3a565b612c27906001612eb2565b90505b6001811115612c9f576f181899199a1a9b1b9c1cb0b131b232b360811b85600f1660108110612c5b57612c5b61300e565b1a60f81b828281518110612c7157612c7161300e565b60200101906001600160f81b031916908160001a90535060049490941c93612c9881613024565b9050612c2a565b5083156129dd5760405162461bcd60e51b815260206004820181905260248201527f537472696e67733a20686578206c656e67746820696e73756666696369656e74604482015260640161092a565b600060208284031215612d0057600080fd5b81356001600160e01b0319811681146129dd57600080fd5b600060208284031215612d2a57600080fd5b5035919050565b6001600160a01b0381168114612d4657600080fd5b50565b600060208284031215612d5b57600080fd5b81356129dd81612d31565b60008060408385031215612d7957600080fd5b823591506020830135612d8b81612d31565b809150509250929050565b8015158114612d4657600080fd5b600060208284031215612db657600080fd5b81356129dd81612d96565b600060208284031215612dd357600080fd5b5051919050565b696973506f6f6c4c69766560b01b8152600a0190565b600060208284031215612e0257600080fd5b81516129dd81612d96565b634e487b7160e01b600052601160045260246000fd5b600082821015612e3557612e35612e0d565b500390565b6000816000190483118215151615612e5457612e54612e0d565b500290565b600082612e7657634e487b7160e01b600052601260045260246000fd5b500490565b6020808252601d908201527f54686520706f6f6c2069732063757272656e746c7920636c6f7365642e000000604082015260600190565b60008219821115612ec557612ec5612e0d565b500190565b60005b83811015612ee5578181015183820152602001612ecd565b83811115612ef4576000848401525b50505050565b7f416363657373436f6e74726f6c3a206163636f756e7420000000000000000000815260008351612f32816017850160208801612eca565b7001034b99036b4b9b9b4b733903937b6329607d1b6017918401918201528351612f63816028840160208801612eca565b01602801949350505050565b6020815260008251806020840152612f8e816040850160208701612eca565b601f01601f19169190910160400192915050565b70636f6e74726163745f5f6164647265737360781b815260008251612fce816011850160208701612eca565b9190910160110192915050565b600060208284031215612fed57600080fd5b81516129dd81612d31565b634e487b7160e01b600052604160045260246000fd5b634e487b7160e01b600052603260045260246000fd5b60008161303357613033612e0d565b50600019019056fe41a01ec0a13b563fa452569e3fbb116366d217c2769aa1561822e65a617e3842a26469706673582212204c9c44868f8ae89a08fc415fd542d0ddba4d799596751cf958ced96a724c210a64736f6c63430008090033",
    "sourcePath": "c:/Users/Lior/Desktop/Index/Coding Software/GitHub/challenge/contracts/PoolClient.sol",
    "compiler": {
        "name": "solc",
        "version": "0.8.9+commit.e5eed63a"
    },
    "functionHashes": {
        "DEFAULT_ADMIN_ROLE()": "a217fddf",
        "POOL_MANAGER()": "62308e85",
        "addPoolManager(address)": "45077e71",
        "calculateRewards()": "3e50de30",
        "deposit()": "d0e30db0",
        "getContributionLimit()": "fa1e19e5",
        "getPoolFees()": "d1d8d060",
        "getPoolMaxSize()": "095df57f",
        "getPoolState()": "217ac237",
        "getRewardsInterest()": "7521796f",
        "getRewardsInterval()": "497d0241",
        "getRewardsToInject()": "9ed03ab6",
        "getRoleAdmin(bytes32)": "248a9ca3",
        "grantRole(bytes32,address)": "2f2ff15d",
        "hasRole(bytes32,address)": "91d14854",
        "removePoolManager(address)": "29ca15bc",
        "renounceRole(bytes32,address)": "36568abe",
        "revokeRole(bytes32,address)": "d547741f",
        "rewardsInjector()": "ee7d4d2b",
        "setContributionLimit(uint256)": "72d099a0",
        "setMinContribution()": "543edfb6",
        "setMinContribution(uint256)": "473b0d46",
        "setPoolFees(uint256)": "8dd225d5",
        "setPoolLive(bool)": "a4975516",
        "setPoolMaxSize(uint256)": "12646987",
        "setRewardsInterest(uint256)": "bf4c0036",
        "setRewardsInterval(uint256)": "53710f49",
        "supportsInterface(bytes4)": "01ffc9a7",
        "withdraw(uint256)": "2e1a7d4d"
    },
    "gasEstimates": {
        "creation": {
            "codeDepositCost": "2486600",
            "executionCost": "infinite",
            "totalCost": "infinite"
        },
        "external": {
            "DEFAULT_ADMIN_ROLE()": "240",
            "POOL_MANAGER()": "infinite",
            "addPoolManager(address)": "infinite",
            "calculateRewards()": "infinite",
            "deposit()": "infinite",
            "getContributionLimit()": "infinite",
            "getPoolFees()": "infinite",
            "getPoolMaxSize()": "infinite",
            "getPoolState()": "infinite",
            "getRewardsInterest()": "infinite",
            "getRewardsInterval()": "infinite",
            "getRewardsToInject()": "infinite",
            "getRoleAdmin(bytes32)": "2515",
            "grantRole(bytes32,address)": "infinite",
            "hasRole(bytes32,address)": "2739",
            "removePoolManager(address)": "infinite",
            "renounceRole(bytes32,address)": "29062",
            "revokeRole(bytes32,address)": "infinite",
            "rewardsInjector()": "infinite",
            "setContributionLimit(uint256)": "infinite",
            "setMinContribution()": "infinite",
            "setMinContribution(uint256)": "infinite",
            "setPoolFees(uint256)": "infinite",
            "setPoolLive(bool)": "infinite",
            "setPoolMaxSize(uint256)": "infinite",
            "setRewardsInterest(uint256)": "infinite",
            "setRewardsInterval(uint256)": "infinite",
            "supportsInterface(bytes4)": "473",
            "withdraw(uint256)": "infinite"
        },
        "internal": {
            "_depositToVault()": "infinite",
            "_setPoolClientAddress()": "infinite"
        }
    }
}