{
    "contractName": "PoolBase",
    "abi": [
        {
            "inputs": [
                {
                    "internalType": "contract DataStorageInterface",
                    "name": "_dataStorageAddress",
                    "type": "address"
                }
            ],
            "stateMutability": "nonpayable",
            "type": "constructor"
        },
        {
            "anonymous": false,
            "inputs": [
                {
                    "indexed": true,
                    "internalType": "address",
                    "name": "_removedManager",
                    "type": "address"
                }
            ],
            "name": "ManagerRemoved",
            "type": "event"
        },
        {
            "anonymous": false,
            "inputs": [
                {
                    "indexed": true,
                    "internalType": "address",
                    "name": "_newManager",
                    "type": "address"
                }
            ],
            "name": "NewManagerAdded",
            "type": "event"
        },
        {
            "anonymous": false,
            "inputs": [
                {
                    "indexed": true,
                    "internalType": "bytes32",
                    "name": "role",
                    "type": "bytes32"
                },
                {
                    "indexed": true,
                    "internalType": "bytes32",
                    "name": "previousAdminRole",
                    "type": "bytes32"
                },
                {
                    "indexed": true,
                    "internalType": "bytes32",
                    "name": "newAdminRole",
                    "type": "bytes32"
                }
            ],
            "name": "RoleAdminChanged",
            "type": "event"
        },
        {
            "anonymous": false,
            "inputs": [
                {
                    "indexed": true,
                    "internalType": "bytes32",
                    "name": "role",
                    "type": "bytes32"
                },
                {
                    "indexed": true,
                    "internalType": "address",
                    "name": "account",
                    "type": "address"
                },
                {
                    "indexed": true,
                    "internalType": "address",
                    "name": "sender",
                    "type": "address"
                }
            ],
            "name": "RoleGranted",
            "type": "event"
        },
        {
            "anonymous": false,
            "inputs": [
                {
                    "indexed": true,
                    "internalType": "bytes32",
                    "name": "role",
                    "type": "bytes32"
                },
                {
                    "indexed": true,
                    "internalType": "address",
                    "name": "account",
                    "type": "address"
                },
                {
                    "indexed": true,
                    "internalType": "address",
                    "name": "sender",
                    "type": "address"
                }
            ],
            "name": "RoleRevoked",
            "type": "event"
        },
        {
            "inputs": [],
            "name": "DEFAULT_ADMIN_ROLE",
            "outputs": [
                {
                    "internalType": "bytes32",
                    "name": "",
                    "type": "bytes32"
                }
            ],
            "stateMutability": "view",
            "type": "function"
        },
        {
            "inputs": [],
            "name": "POOL_MANAGER",
            "outputs": [
                {
                    "internalType": "bytes32",
                    "name": "",
                    "type": "bytes32"
                }
            ],
            "stateMutability": "view",
            "type": "function"
        },
        {
            "inputs": [
                {
                    "internalType": "address",
                    "name": "_address",
                    "type": "address"
                }
            ],
            "name": "addPoolManager",
            "outputs": [],
            "stateMutability": "nonpayable",
            "type": "function"
        },
        {
            "inputs": [],
            "name": "getContributionLimit",
            "outputs": [
                {
                    "internalType": "uint256",
                    "name": "",
                    "type": "uint256"
                }
            ],
            "stateMutability": "view",
            "type": "function"
        },
        {
            "inputs": [],
            "name": "getMinContribution",
            "outputs": [
                {
                    "internalType": "uint256",
                    "name": "",
                    "type": "uint256"
                }
            ],
            "stateMutability": "view",
            "type": "function"
        },
        {
            "inputs": [],
            "name": "getPoolBaseAddress",
            "outputs": [
                {
                    "internalType": "address",
                    "name": "",
                    "type": "address"
                }
            ],
            "stateMutability": "view",
            "type": "function"
        },
        {
            "inputs": [],
            "name": "getPoolFees",
            "outputs": [
                {
                    "internalType": "uint256",
                    "name": "",
                    "type": "uint256"
                }
            ],
            "stateMutability": "view",
            "type": "function"
        },
        {
            "inputs": [],
            "name": "getPoolMaxSize",
            "outputs": [
                {
                    "internalType": "uint256",
                    "name": "",
                    "type": "uint256"
                }
            ],
            "stateMutability": "view",
            "type": "function"
        },
        {
            "inputs": [],
            "name": "getPoolState",
            "outputs": [
                {
                    "internalType": "bool",
                    "name": "",
                    "type": "bool"
                }
            ],
            "stateMutability": "view",
            "type": "function"
        },
        {
            "inputs": [],
            "name": "getRewardsInterest",
            "outputs": [
                {
                    "internalType": "uint256",
                    "name": "",
                    "type": "uint256"
                }
            ],
            "stateMutability": "view",
            "type": "function"
        },
        {
            "inputs": [],
            "name": "getRewardsInterval",
            "outputs": [
                {
                    "internalType": "uint256",
                    "name": "",
                    "type": "uint256"
                }
            ],
            "stateMutability": "view",
            "type": "function"
        },
        {
            "inputs": [
                {
                    "internalType": "bytes32",
                    "name": "role",
                    "type": "bytes32"
                }
            ],
            "name": "getRoleAdmin",
            "outputs": [
                {
                    "internalType": "bytes32",
                    "name": "",
                    "type": "bytes32"
                }
            ],
            "stateMutability": "view",
            "type": "function"
        },
        {
            "inputs": [
                {
                    "internalType": "bytes32",
                    "name": "role",
                    "type": "bytes32"
                },
                {
                    "internalType": "address",
                    "name": "account",
                    "type": "address"
                }
            ],
            "name": "grantRole",
            "outputs": [],
            "stateMutability": "nonpayable",
            "type": "function"
        },
        {
            "inputs": [
                {
                    "internalType": "bytes32",
                    "name": "role",
                    "type": "bytes32"
                },
                {
                    "internalType": "address",
                    "name": "account",
                    "type": "address"
                }
            ],
            "name": "hasRole",
            "outputs": [
                {
                    "internalType": "bool",
                    "name": "",
                    "type": "bool"
                }
            ],
            "stateMutability": "view",
            "type": "function"
        },
        {
            "inputs": [
                {
                    "internalType": "address",
                    "name": "_address",
                    "type": "address"
                }
            ],
            "name": "removePoolManager",
            "outputs": [],
            "stateMutability": "nonpayable",
            "type": "function"
        },
        {
            "inputs": [
                {
                    "internalType": "bytes32",
                    "name": "role",
                    "type": "bytes32"
                },
                {
                    "internalType": "address",
                    "name": "account",
                    "type": "address"
                }
            ],
            "name": "renounceRole",
            "outputs": [],
            "stateMutability": "nonpayable",
            "type": "function"
        },
        {
            "inputs": [
                {
                    "internalType": "bytes32",
                    "name": "role",
                    "type": "bytes32"
                },
                {
                    "internalType": "address",
                    "name": "account",
                    "type": "address"
                }
            ],
            "name": "revokeRole",
            "outputs": [],
            "stateMutability": "nonpayable",
            "type": "function"
        },
        {
            "inputs": [
                {
                    "internalType": "uint256",
                    "name": "_newContrLimit",
                    "type": "uint256"
                }
            ],
            "name": "setContributionLimit",
            "outputs": [],
            "stateMutability": "nonpayable",
            "type": "function"
        },
        {
            "inputs": [
                {
                    "internalType": "uint256",
                    "name": "_newMinContr",
                    "type": "uint256"
                }
            ],
            "name": "setMinContribution",
            "outputs": [],
            "stateMutability": "nonpayable",
            "type": "function"
        },
        {
            "inputs": [
                {
                    "internalType": "uint256",
                    "name": "_poolFees",
                    "type": "uint256"
                }
            ],
            "name": "setPoolFees",
            "outputs": [],
            "stateMutability": "nonpayable",
            "type": "function"
        },
        {
            "inputs": [
                {
                    "internalType": "bool",
                    "name": "_live",
                    "type": "bool"
                }
            ],
            "name": "setPoolLive",
            "outputs": [],
            "stateMutability": "nonpayable",
            "type": "function"
        },
        {
            "inputs": [
                {
                    "internalType": "uint256",
                    "name": "_maxSize",
                    "type": "uint256"
                }
            ],
            "name": "setPoolMaxSize",
            "outputs": [],
            "stateMutability": "nonpayable",
            "type": "function"
        },
        {
            "inputs": [
                {
                    "internalType": "uint256",
                    "name": "_rewardsInterest",
                    "type": "uint256"
                }
            ],
            "name": "setRewardsInterest",
            "outputs": [],
            "stateMutability": "nonpayable",
            "type": "function"
        },
        {
            "inputs": [
                {
                    "internalType": "uint256",
                    "name": "_daysToRewards",
                    "type": "uint256"
                }
            ],
            "name": "setRewardsInterval",
            "outputs": [],
            "stateMutability": "nonpayable",
            "type": "function"
        },
        {
            "inputs": [
                {
                    "internalType": "bytes4",
                    "name": "interfaceId",
                    "type": "bytes4"
                }
            ],
            "name": "supportsInterface",
            "outputs": [
                {
                    "internalType": "bool",
                    "name": "",
                    "type": "bool"
                }
            ],
            "stateMutability": "view",
            "type": "function"
        }
    ],
    "bytecode": "60806040523480156200001157600080fd5b506040516200196e3803806200196e8339810160408190526200003491620002b3565b60018055600280546001600160a01b0319166001600160a01b038316179055620000606000336200009d565b6200008c7f41a01ec0a13b563fa452569e3fbb116366d217c2769aa1561822e65a617e3842336200009d565b62000096620000ad565b50620002e5565b620000a9828262000213565b5050565b6002546040516e636f6e74726163745f65786973747360881b60208201526001600160601b03193060601b16602f8201526001600160a01b039091169063988c515b9060430160408051601f198184030181529082905280516020909101206001600160e01b031960e084901b168252600482015260016024820152604401600060405180830381600087803b1580156200014757600080fd5b505af11580156200015c573d6000803e3d6000fd5b50506002546040516f636f6e74726163745f6164647265737360801b602082015267506f6f6c4261736560c01b60308201526001600160a01b039091169250637221263a915060380160408051601f198184030181529082905280516020909101206001600160e01b031960e084901b1682526004820152306024820152604401600060405180830381600087803b158015620001f857600080fd5b505af11580156200020d573d6000803e3d6000fd5b50505050565b6000828152602081815260408083206001600160a01b038516845290915290205460ff16620000a9576000828152602081815260408083206001600160a01b03851684529091529020805460ff191660011790556200026f3390565b6001600160a01b0316816001600160a01b0316837f2f8788117e7eff1d82e926ec794901d17c78024a50270940304540a733656f0d60405160405180910390a45050565b600060208284031215620002c657600080fd5b81516001600160a01b0381168114620002de57600080fd5b9392505050565b61167980620002f56000396000f3fe608060405234801561001057600080fd5b50600436106101735760003560e01c806362308e85116100de57806391d1485411610097578063bf4c003611610071578063bf4c003614610309578063d1d8d0601461031c578063d547741f14610324578063fa1e19e51461033757600080fd5b806391d14854146102db578063a217fddf146102ee578063a4975516146102f657600080fd5b806362308e85146102705780636cff74731461028557806372d099a01461028d5780637521796f146102a05780638ae68134146102a85780638dd225d5146102c857600080fd5b80632f2ff15d116101305780632f2ff15d1461020957806336568abe1461021c57806345077e711461022f578063473b0d4614610242578063497d02411461025557806353710f491461025d57600080fd5b806301ffc9a714610178578063095df57f146101a057806312646987146101b6578063217ac237146101cb578063248a9ca3146101d357806329ca15bc146101f6575b600080fd5b61018b610186366004611348565b61033f565b60405190151581526020015b60405180910390f35b6101a8610376565b604051908152602001610197565b6101c96101c4366004611372565b610433565b005b61018b6105ba565b6101a86101e1366004611372565b60009081526020819052604090206001015490565b6101c96102043660046113a3565b61065f565b6101c96102173660046113c0565b6106bb565b6101c961022a3660046113c0565b6106e6565b6101c961023d3660046113a3565b610764565b6101c9610250366004611372565b6107c0565b6101a86108c4565b6101c961026b366004611372565b6108ea565b6101a860008051602061162483398151915281565b6101a86109ec565b6101c961029b366004611372565b610a14565b6101a8610b1a565b6102b0610b4b565b6040516001600160a01b039091168152602001610197565b6101c96102d6366004611372565b610c24565b61018b6102e93660046113c0565b610e3e565b6101a8600081565b6101c96103043660046113fe565b610e67565b6101c9610317366004611372565b610ee1565b6101a8610fee565b6101c96103323660046113c0565b61100f565b6101a8611035565b60006001600160e01b03198216637965db0b60e01b148061037057506301ffc9a760e01b6001600160e01b03198316145b92915050565b60008060405160200161039a906a706f6f6c4d617853697a6560a81b8152600b0190565b60408051808303601f1901815290829052805160209091012060025463afc3602b60e01b8352600483018290529092506001600160a01b03169063afc3602b9060240160206040518083038186803b1580156103f557600080fd5b505afa158015610409573d6000803e3d6000fd5b505050506040513d601f19601f8201168201806040525081019061042d919061141b565b91505090565b60008051602061162483398151915261044c813361105f565b6002546040516001600160a01b03909116906355d946559061047090602001611434565b604051602081830303815290604052805190602001206040518263ffffffff1660e01b81526004016104a491815260200190565b60206040518083038186803b1580156104bc57600080fd5b505afa1580156104d0573d6000803e3d6000fd5b505050506040513d601f19601f820116820180604052508101906104f4919061144a565b1561051a5760405162461bcd60e51b815260040161051190611467565b60405180910390fd5b6040516a706f6f6c4d617853697a6560a81b6020820152600090602b015b60408051808303601f190181529082905280516020909101206002546328192c5560e01b835260048301829052602483018690529092506001600160a01b0316906328192c55906044015b600060405180830381600087803b15801561059d57600080fd5b505af11580156105b1573d6000803e3d6000fd5b50505050505050565b6000806040516020016105cc90611434565b60408051808303601f190181529082905280516020909101206002546355d9465560e01b8352600483018290529092506001600160a01b0316906355d946559060240160206040518083038186803b15801561062757600080fd5b505afa15801561063b573d6000803e3d6000fd5b505050506040513d601f19601f8201168201806040525081019061042d919061144a565b600061066b813361105f565b6106836000805160206116248339815191528361100f565b6040516001600160a01b038316907fef69f7d97228658c92417be1b16b19058315de71fecb435d07b7d23728b6bd3190600090a25050565b6000828152602081905260409020600101546106d7813361105f565b6106e183836110c3565b505050565b6001600160a01b03811633146107565760405162461bcd60e51b815260206004820152602f60248201527f416363657373436f6e74726f6c3a2063616e206f6e6c792072656e6f756e636560448201526e103937b632b9903337b91039b2b63360891b6064820152608401610511565b6107608282611147565b5050565b6000610770813361105f565b610788600080516020611624833981519152836106bb565b6040516001600160a01b038316907fd873e3f571dc25e020cefdeb7255b3874ead3aade1f94a5fb4a5da831fd670cd90600090a25050565b6000805160206116248339815191526107d9813361105f565b6002546040516001600160a01b03909116906355d94655906107fd90602001611434565b604051602081830303815290604052805190602001206040518263ffffffff1660e01b815260040161083191815260200190565b60206040518083038186803b15801561084957600080fd5b505afa15801561085d573d6000803e3d6000fd5b505050506040513d601f19601f82011682018060405250810190610881919061144a565b1561089e5760405162461bcd60e51b815260040161051190611467565b6040516e36b4b721b7b73a3934b13aba34b7b760891b6020820152600090602f01610538565b60008060405160200161039a906c64617973546f5265776172647360981b8152600d0190565b600080516020611624833981519152610903813361105f565b6002546040516001600160a01b03909116906355d946559061092790602001611434565b604051602081830303815290604052805190602001206040518263ffffffff1660e01b815260040161095b91815260200190565b60206040518083038186803b15801561097357600080fd5b505afa158015610987573d6000803e3d6000fd5b505050506040513d601f19601f820116820180604052508101906109ab919061144a565b156109c85760405162461bcd60e51b815260040161051190611467565b6040516c64617973546f5265776172647360981b6020820152600090602d01610538565b60008060405160200161039a906e36b4b721b7b73a3934b13aba34b7b760891b8152600f0190565b600080516020611624833981519152610a2d813361105f565b6002546040516001600160a01b03909116906355d9465590610a5190602001611434565b604051602081830303815290604052805190602001206040518263ffffffff1660e01b8152600401610a8591815260200190565b60206040518083038186803b158015610a9d57600080fd5b505afa158015610ab1573d6000803e3d6000fd5b505050506040513d601f19601f82011682018060405250810190610ad5919061144a565b15610af25760405162461bcd60e51b815260040161051190611467565b6040517018dbdb9d1c9a589d5d1a5bdb931a5b5a5d607a1b6020820152600090603101610538565b60008060405160200161039a90771c995dd85c991cd25b9d195c995cdd14195c94195c9a5bd960421b815260180190565b600080604051602001610b85906f636f6e74726163745f6164647265737360801b815267506f6f6c4261736560c01b601082015260180190565b60408051808303601f190181529082905280516020909101206002546315485dd960e11b8352600483018290529092506000916001600160a01b0390911690632a90bbb29060240160206040518083038186803b158015610be557600080fd5b505afa158015610bf9573d6000803e3d6000fd5b505050506040513d601f19601f82011682018060405250810190610c1d919061149e565b9392505050565b600080516020611624833981519152610c3d813361105f565b6002546040516001600160a01b03909116906355d9465590610c6190602001611434565b604051602081830303815290604052805190602001206040518263ffffffff1660e01b8152600401610c9591815260200190565b60206040518083038186803b158015610cad57600080fd5b505afa158015610cc1573d6000803e3d6000fd5b505050506040513d601f19601f82011682018060405250810190610ce5919061144a565b15610d025760405162461bcd60e51b815260040161051190611467565b60405167706f6f6c4665657360c01b60208201526000906028016040516020818303038152906040528051906020012090506000604051602001610d57906a1c1bdbdb1199595cd4d95d60aa1b8152600b0190565b60408051808303601f190181529082905280516020909101206002546328192c5560e01b835260048301859052602483018790529092506001600160a01b0316906328192c5590604401600060405180830381600087803b158015610dbb57600080fd5b505af1158015610dcf573d6000803e3d6000fd5b505060025460405163988c515b60e01b815260048101859052600160248201526001600160a01b03909116925063988c515b9150604401600060405180830381600087803b158015610e2057600080fd5b505af1158015610e34573d6000803e3d6000fd5b5050505050505050565b6000918252602082815260408084206001600160a01b0393909316845291905290205460ff1690565b600080516020611624833981519152610e80813361105f565b6000604051602001610e9190611434565b60408051808303601f1901815290829052805160209091012060025463988c515b60e01b83526004830182905285151560248401529092506001600160a01b03169063988c515b90604401610583565b600080516020611624833981519152610efa813361105f565b6002546040516001600160a01b03909116906355d9465590610f1e90602001611434565b604051602081830303815290604052805190602001206040518263ffffffff1660e01b8152600401610f5291815260200190565b60206040518083038186803b158015610f6a57600080fd5b505afa158015610f7e573d6000803e3d6000fd5b505050506040513d601f19601f82011682018060405250810190610fa2919061144a565b15610fbf5760405162461bcd60e51b815260040161051190611467565b604051771c995dd85c991cd25b9d195c995cdd14195c94195c9a5bd960421b6020820152600090603801610538565b60008060405160200161039a9067706f6f6c4665657360c01b815260080190565b60008281526020819052604090206001015461102b813361105f565b6106e18383611147565b60008060405160200161039a907018dbdb9d1c9a589d5d1a5bdb931a5b5a5d607a1b815260110190565b6110698282610e3e565b61076057611081816001600160a01b031660146111ac565b61108c8360206111ac565b60405160200161109d9291906114eb565b60408051601f198184030181529082905262461bcd60e51b825261051191600401611560565b6110cd8282610e3e565b610760576000828152602081815260408083206001600160a01b03851684529091529020805460ff191660011790556111033390565b6001600160a01b0316816001600160a01b0316837f2f8788117e7eff1d82e926ec794901d17c78024a50270940304540a733656f0d60405160405180910390a45050565b6111518282610e3e565b15610760576000828152602081815260408083206001600160a01b0385168085529252808320805460ff1916905551339285917ff6391f5c32d9c69d2a47ea670b442974b53935d1edc7fd64eb21e047a839171b9190a45050565b606060006111bb8360026115a9565b6111c69060026115c8565b67ffffffffffffffff8111156111de576111de6115e0565b6040519080825280601f01601f191660200182016040528015611208576020820181803683370190505b509050600360fc1b81600081518110611223576112236115f6565b60200101906001600160f81b031916908160001a905350600f60fb1b81600181518110611252576112526115f6565b60200101906001600160f81b031916908160001a90535060006112768460026115a9565b6112819060016115c8565b90505b60018111156112f9576f181899199a1a9b1b9c1cb0b131b232b360811b85600f16601081106112b5576112b56115f6565b1a60f81b8282815181106112cb576112cb6115f6565b60200101906001600160f81b031916908160001a90535060049490941c936112f28161160c565b9050611284565b508315610c1d5760405162461bcd60e51b815260206004820181905260248201527f537472696e67733a20686578206c656e67746820696e73756666696369656e746044820152606401610511565b60006020828403121561135a57600080fd5b81356001600160e01b031981168114610c1d57600080fd5b60006020828403121561138457600080fd5b5035919050565b6001600160a01b03811681146113a057600080fd5b50565b6000602082840312156113b557600080fd5b8135610c1d8161138b565b600080604083850312156113d357600080fd5b8235915060208301356113e58161138b565b809150509250929050565b80151581146113a057600080fd5b60006020828403121561141057600080fd5b8135610c1d816113f0565b60006020828403121561142d57600080fd5b5051919050565b696973506f6f6c4c69766560b01b8152600a0190565b60006020828403121561145c57600080fd5b8151610c1d816113f0565b6020808252601d908201527f54686520706f6f6c2069732063757272656e746c7920636c6f7365642e000000604082015260600190565b6000602082840312156114b057600080fd5b8151610c1d8161138b565b60005b838110156114d65781810151838201526020016114be565b838111156114e5576000848401525b50505050565b7f416363657373436f6e74726f6c3a206163636f756e74200000000000000000008152600083516115238160178501602088016114bb565b7001034b99036b4b9b9b4b733903937b6329607d1b60179184019182015283516115548160288401602088016114bb565b01602801949350505050565b602081526000825180602084015261157f8160408501602087016114bb565b601f01601f19169190910160400192915050565b634e487b7160e01b600052601160045260246000fd5b60008160001904831182151516156115c3576115c3611593565b500290565b600082198211156115db576115db611593565b500190565b634e487b7160e01b600052604160045260246000fd5b634e487b7160e01b600052603260045260246000fd5b60008161161b5761161b611593565b50600019019056fe41a01ec0a13b563fa452569e3fbb116366d217c2769aa1561822e65a617e3842a2646970667358221220de7843e4bed15ddac8d85fa1ad35c800b5116d1700f6ec172ab17b776534046d64736f6c63430008090033",
    "sourcePath": "c:/Users/Lior/Desktop/Index/Coding Software/GitHub/challenge/contracts/PoolBase.sol",
    "compiler": {
        "name": "solc",
        "version": "0.8.9+commit.e5eed63a"
    },
    "functionHashes": {
        "DEFAULT_ADMIN_ROLE()": "a217fddf",
        "POOL_MANAGER()": "62308e85",
        "addPoolManager(address)": "45077e71",
        "getContributionLimit()": "fa1e19e5",
        "getMinContribution()": "6cff7473",
        "getPoolBaseAddress()": "8ae68134",
        "getPoolFees()": "d1d8d060",
        "getPoolMaxSize()": "095df57f",
        "getPoolState()": "217ac237",
        "getRewardsInterest()": "7521796f",
        "getRewardsInterval()": "497d0241",
        "getRoleAdmin(bytes32)": "248a9ca3",
        "grantRole(bytes32,address)": "2f2ff15d",
        "hasRole(bytes32,address)": "91d14854",
        "removePoolManager(address)": "29ca15bc",
        "renounceRole(bytes32,address)": "36568abe",
        "revokeRole(bytes32,address)": "d547741f",
        "setContributionLimit(uint256)": "72d099a0",
        "setMinContribution(uint256)": "473b0d46",
        "setPoolFees(uint256)": "8dd225d5",
        "setPoolLive(bool)": "a4975516",
        "setPoolMaxSize(uint256)": "12646987",
        "setRewardsInterest(uint256)": "bf4c0036",
        "setRewardsInterval(uint256)": "53710f49",
        "supportsInterface(bytes4)": "01ffc9a7"
    },
    "gasEstimates": {
        "creation": {
            "codeDepositCost": "1150600",
            "executionCost": "infinite",
            "totalCost": "infinite"
        },
        "external": {
            "DEFAULT_ADMIN_ROLE()": "262",
            "POOL_MANAGER()": "infinite",
            "addPoolManager(address)": "infinite",
            "getContributionLimit()": "infinite",
            "getMinContribution()": "infinite",
            "getPoolBaseAddress()": "infinite",
            "getPoolFees()": "infinite",
            "getPoolMaxSize()": "infinite",
            "getPoolState()": "infinite",
            "getRewardsInterest()": "infinite",
            "getRewardsInterval()": "infinite",
            "getRoleAdmin(bytes32)": "2559",
            "grantRole(bytes32,address)": "infinite",
            "hasRole(bytes32,address)": "2695",
            "removePoolManager(address)": "infinite",
            "renounceRole(bytes32,address)": "29039",
            "revokeRole(bytes32,address)": "infinite",
            "setContributionLimit(uint256)": "infinite",
            "setMinContribution(uint256)": "infinite",
            "setPoolFees(uint256)": "infinite",
            "setPoolLive(bool)": "infinite",
            "setPoolMaxSize(uint256)": "infinite",
            "setRewardsInterest(uint256)": "infinite",
            "setRewardsInterval(uint256)": "infinite",
            "supportsInterface(bytes4)": "450"
        },
        "internal": {
            "_setPoolBaseAddress()": "infinite",
            "getContractAddress(string memory)": "infinite"
        }
    }
}