{
    "contractName": "rwETHToken",
    "abi": [
        {
            "inputs": [
                {
                    "internalType": "contract DataStorageInterface",
                    "name": "_dataStorageAddress",
                    "type": "address"
                }
            ],
            "stateMutability": "nonpayable",
            "type": "constructor"
        },
        {
            "anonymous": false,
            "inputs": [
                {
                    "indexed": true,
                    "internalType": "address",
                    "name": "owner",
                    "type": "address"
                },
                {
                    "indexed": true,
                    "internalType": "address",
                    "name": "spender",
                    "type": "address"
                },
                {
                    "indexed": false,
                    "internalType": "uint256",
                    "name": "value",
                    "type": "uint256"
                }
            ],
            "name": "Approval",
            "type": "event"
        },
        {
            "anonymous": false,
            "inputs": [
                {
                    "indexed": true,
                    "internalType": "address",
                    "name": "_removedManager",
                    "type": "address"
                }
            ],
            "name": "ManagerRemoved",
            "type": "event"
        },
        {
            "anonymous": false,
            "inputs": [
                {
                    "indexed": true,
                    "internalType": "address",
                    "name": "_newManager",
                    "type": "address"
                }
            ],
            "name": "NewManagerAdded",
            "type": "event"
        },
        {
            "anonymous": false,
            "inputs": [
                {
                    "indexed": true,
                    "internalType": "bytes32",
                    "name": "role",
                    "type": "bytes32"
                },
                {
                    "indexed": true,
                    "internalType": "bytes32",
                    "name": "previousAdminRole",
                    "type": "bytes32"
                },
                {
                    "indexed": true,
                    "internalType": "bytes32",
                    "name": "newAdminRole",
                    "type": "bytes32"
                }
            ],
            "name": "RoleAdminChanged",
            "type": "event"
        },
        {
            "anonymous": false,
            "inputs": [
                {
                    "indexed": true,
                    "internalType": "bytes32",
                    "name": "role",
                    "type": "bytes32"
                },
                {
                    "indexed": true,
                    "internalType": "address",
                    "name": "account",
                    "type": "address"
                },
                {
                    "indexed": true,
                    "internalType": "address",
                    "name": "sender",
                    "type": "address"
                }
            ],
            "name": "RoleGranted",
            "type": "event"
        },
        {
            "anonymous": false,
            "inputs": [
                {
                    "indexed": true,
                    "internalType": "bytes32",
                    "name": "role",
                    "type": "bytes32"
                },
                {
                    "indexed": true,
                    "internalType": "address",
                    "name": "account",
                    "type": "address"
                },
                {
                    "indexed": true,
                    "internalType": "address",
                    "name": "sender",
                    "type": "address"
                }
            ],
            "name": "RoleRevoked",
            "type": "event"
        },
        {
            "anonymous": false,
            "inputs": [
                {
                    "indexed": true,
                    "internalType": "address",
                    "name": "_from",
                    "type": "address"
                },
                {
                    "indexed": false,
                    "internalType": "uint256",
                    "name": "_rwEthAmount",
                    "type": "uint256"
                }
            ],
            "name": "TokensBurned",
            "type": "event"
        },
        {
            "anonymous": false,
            "inputs": [
                {
                    "indexed": true,
                    "internalType": "address",
                    "name": "_to",
                    "type": "address"
                },
                {
                    "indexed": false,
                    "internalType": "uint256",
                    "name": "_rwEthAmount",
                    "type": "uint256"
                },
                {
                    "indexed": false,
                    "internalType": "uint256",
                    "name": "_ethAmount",
                    "type": "uint256"
                }
            ],
            "name": "TokensMinted",
            "type": "event"
        },
        {
            "anonymous": false,
            "inputs": [
                {
                    "indexed": true,
                    "internalType": "address",
                    "name": "from",
                    "type": "address"
                },
                {
                    "indexed": true,
                    "internalType": "address",
                    "name": "to",
                    "type": "address"
                },
                {
                    "indexed": false,
                    "internalType": "uint256",
                    "name": "value",
                    "type": "uint256"
                }
            ],
            "name": "Transfer",
            "type": "event"
        },
        {
            "inputs": [],
            "name": "DEFAULT_ADMIN_ROLE",
            "outputs": [
                {
                    "internalType": "bytes32",
                    "name": "",
                    "type": "bytes32"
                }
            ],
            "stateMutability": "view",
            "type": "function"
        },
        {
            "inputs": [],
            "name": "POOL_MANAGER",
            "outputs": [
                {
                    "internalType": "bytes32",
                    "name": "",
                    "type": "bytes32"
                }
            ],
            "stateMutability": "view",
            "type": "function"
        },
        {
            "inputs": [
                {
                    "internalType": "address",
                    "name": "_address",
                    "type": "address"
                }
            ],
            "name": "addPoolManager",
            "outputs": [],
            "stateMutability": "nonpayable",
            "type": "function"
        },
        {
            "inputs": [
                {
                    "internalType": "address",
                    "name": "owner",
                    "type": "address"
                },
                {
                    "internalType": "address",
                    "name": "spender",
                    "type": "address"
                }
            ],
            "name": "allowance",
            "outputs": [
                {
                    "internalType": "uint256",
                    "name": "",
                    "type": "uint256"
                }
            ],
            "stateMutability": "view",
            "type": "function"
        },
        {
            "inputs": [
                {
                    "internalType": "address",
                    "name": "spender",
                    "type": "address"
                },
                {
                    "internalType": "uint256",
                    "name": "amount",
                    "type": "uint256"
                }
            ],
            "name": "approve",
            "outputs": [
                {
                    "internalType": "bool",
                    "name": "",
                    "type": "bool"
                }
            ],
            "stateMutability": "nonpayable",
            "type": "function"
        },
        {
            "inputs": [
                {
                    "internalType": "address",
                    "name": "account",
                    "type": "address"
                }
            ],
            "name": "balanceOf",
            "outputs": [
                {
                    "internalType": "uint256",
                    "name": "",
                    "type": "uint256"
                }
            ],
            "stateMutability": "view",
            "type": "function"
        },
        {
            "inputs": [
                {
                    "internalType": "uint256",
                    "name": "_rwEthAmount",
                    "type": "uint256"
                }
            ],
            "name": "burn",
            "outputs": [],
            "stateMutability": "nonpayable",
            "type": "function"
        },
        {
            "inputs": [
                {
                    "internalType": "uint256",
                    "name": "_rwEthAmount",
                    "type": "uint256"
                }
            ],
            "name": "calcEthValue",
            "outputs": [
                {
                    "internalType": "uint256",
                    "name": "",
                    "type": "uint256"
                }
            ],
            "stateMutability": "view",
            "type": "function"
        },
        {
            "inputs": [
                {
                    "internalType": "uint256",
                    "name": "_ethAmount",
                    "type": "uint256"
                }
            ],
            "name": "calcRwEthValue",
            "outputs": [
                {
                    "internalType": "uint256",
                    "name": "",
                    "type": "uint256"
                }
            ],
            "stateMutability": "view",
            "type": "function"
        },
        {
            "inputs": [],
            "name": "decimals",
            "outputs": [
                {
                    "internalType": "uint8",
                    "name": "",
                    "type": "uint8"
                }
            ],
            "stateMutability": "view",
            "type": "function"
        },
        {
            "inputs": [
                {
                    "internalType": "address",
                    "name": "spender",
                    "type": "address"
                },
                {
                    "internalType": "uint256",
                    "name": "subtractedValue",
                    "type": "uint256"
                }
            ],
            "name": "decreaseAllowance",
            "outputs": [
                {
                    "internalType": "bool",
                    "name": "",
                    "type": "bool"
                }
            ],
            "stateMutability": "nonpayable",
            "type": "function"
        },
        {
            "inputs": [],
            "name": "getContributionLimit",
            "outputs": [
                {
                    "internalType": "uint256",
                    "name": "",
                    "type": "uint256"
                }
            ],
            "stateMutability": "view",
            "type": "function"
        },
        {
            "inputs": [],
            "name": "getPoolFees",
            "outputs": [
                {
                    "internalType": "uint256",
                    "name": "",
                    "type": "uint256"
                }
            ],
            "stateMutability": "view",
            "type": "function"
        },
        {
            "inputs": [],
            "name": "getPoolMaxSize",
            "outputs": [
                {
                    "internalType": "uint256",
                    "name": "",
                    "type": "uint256"
                }
            ],
            "stateMutability": "view",
            "type": "function"
        },
        {
            "inputs": [],
            "name": "getPoolState",
            "outputs": [
                {
                    "internalType": "bool",
                    "name": "",
                    "type": "bool"
                }
            ],
            "stateMutability": "view",
            "type": "function"
        },
        {
            "inputs": [],
            "name": "getRewardsInterest",
            "outputs": [
                {
                    "internalType": "uint256",
                    "name": "",
                    "type": "uint256"
                }
            ],
            "stateMutability": "view",
            "type": "function"
        },
        {
            "inputs": [],
            "name": "getRewardsInterval",
            "outputs": [
                {
                    "internalType": "uint256",
                    "name": "",
                    "type": "uint256"
                }
            ],
            "stateMutability": "view",
            "type": "function"
        },
        {
            "inputs": [
                {
                    "internalType": "bytes32",
                    "name": "role",
                    "type": "bytes32"
                }
            ],
            "name": "getRoleAdmin",
            "outputs": [
                {
                    "internalType": "bytes32",
                    "name": "",
                    "type": "bytes32"
                }
            ],
            "stateMutability": "view",
            "type": "function"
        },
        {
            "inputs": [],
            "name": "getUnitPrice",
            "outputs": [
                {
                    "internalType": "uint256",
                    "name": "",
                    "type": "uint256"
                }
            ],
            "stateMutability": "view",
            "type": "function"
        },
        {
            "inputs": [
                {
                    "internalType": "bytes32",
                    "name": "role",
                    "type": "bytes32"
                },
                {
                    "internalType": "address",
                    "name": "account",
                    "type": "address"
                }
            ],
            "name": "grantRole",
            "outputs": [],
            "stateMutability": "nonpayable",
            "type": "function"
        },
        {
            "inputs": [
                {
                    "internalType": "bytes32",
                    "name": "role",
                    "type": "bytes32"
                },
                {
                    "internalType": "address",
                    "name": "account",
                    "type": "address"
                }
            ],
            "name": "hasRole",
            "outputs": [
                {
                    "internalType": "bool",
                    "name": "",
                    "type": "bool"
                }
            ],
            "stateMutability": "view",
            "type": "function"
        },
        {
            "inputs": [
                {
                    "internalType": "address",
                    "name": "spender",
                    "type": "address"
                },
                {
                    "internalType": "uint256",
                    "name": "addedValue",
                    "type": "uint256"
                }
            ],
            "name": "increaseAllowance",
            "outputs": [
                {
                    "internalType": "bool",
                    "name": "",
                    "type": "bool"
                }
            ],
            "stateMutability": "nonpayable",
            "type": "function"
        },
        {
            "inputs": [
                {
                    "internalType": "address",
                    "name": "_to",
                    "type": "address"
                },
                {
                    "internalType": "uint256",
                    "name": "_ethAmount",
                    "type": "uint256"
                }
            ],
            "name": "mint",
            "outputs": [],
            "stateMutability": "nonpayable",
            "type": "function"
        },
        {
            "inputs": [],
            "name": "name",
            "outputs": [
                {
                    "internalType": "string",
                    "name": "",
                    "type": "string"
                }
            ],
            "stateMutability": "view",
            "type": "function"
        },
        {
            "inputs": [
                {
                    "internalType": "address",
                    "name": "_address",
                    "type": "address"
                }
            ],
            "name": "removePoolManager",
            "outputs": [],
            "stateMutability": "nonpayable",
            "type": "function"
        },
        {
            "inputs": [
                {
                    "internalType": "bytes32",
                    "name": "role",
                    "type": "bytes32"
                },
                {
                    "internalType": "address",
                    "name": "account",
                    "type": "address"
                }
            ],
            "name": "renounceRole",
            "outputs": [],
            "stateMutability": "nonpayable",
            "type": "function"
        },
        {
            "inputs": [
                {
                    "internalType": "bytes32",
                    "name": "role",
                    "type": "bytes32"
                },
                {
                    "internalType": "address",
                    "name": "account",
                    "type": "address"
                }
            ],
            "name": "revokeRole",
            "outputs": [],
            "stateMutability": "nonpayable",
            "type": "function"
        },
        {
            "inputs": [
                {
                    "internalType": "uint256",
                    "name": "_newContrLimit",
                    "type": "uint256"
                }
            ],
            "name": "setContributionLimit",
            "outputs": [],
            "stateMutability": "nonpayable",
            "type": "function"
        },
        {
            "inputs": [
                {
                    "internalType": "uint256",
                    "name": "_newMinContr",
                    "type": "uint256"
                }
            ],
            "name": "setMinContribution",
            "outputs": [],
            "stateMutability": "nonpayable",
            "type": "function"
        },
        {
            "inputs": [],
            "name": "setMinContribution",
            "outputs": [
                {
                    "internalType": "uint256",
                    "name": "",
                    "type": "uint256"
                }
            ],
            "stateMutability": "view",
            "type": "function"
        },
        {
            "inputs": [
                {
                    "internalType": "uint256",
                    "name": "_poolFees",
                    "type": "uint256"
                }
            ],
            "name": "setPoolFees",
            "outputs": [],
            "stateMutability": "nonpayable",
            "type": "function"
        },
        {
            "inputs": [
                {
                    "internalType": "bool",
                    "name": "_live",
                    "type": "bool"
                }
            ],
            "name": "setPoolLive",
            "outputs": [],
            "stateMutability": "nonpayable",
            "type": "function"
        },
        {
            "inputs": [
                {
                    "internalType": "uint256",
                    "name": "_maxSize",
                    "type": "uint256"
                }
            ],
            "name": "setPoolMaxSize",
            "outputs": [],
            "stateMutability": "nonpayable",
            "type": "function"
        },
        {
            "inputs": [
                {
                    "internalType": "uint256",
                    "name": "_rewardsInterest",
                    "type": "uint256"
                }
            ],
            "name": "setRewardsInterest",
            "outputs": [],
            "stateMutability": "nonpayable",
            "type": "function"
        },
        {
            "inputs": [
                {
                    "internalType": "uint256",
                    "name": "_daysToRewards",
                    "type": "uint256"
                }
            ],
            "name": "setRewardsInterval",
            "outputs": [],
            "stateMutability": "nonpayable",
            "type": "function"
        },
        {
            "inputs": [
                {
                    "internalType": "bytes4",
                    "name": "interfaceId",
                    "type": "bytes4"
                }
            ],
            "name": "supportsInterface",
            "outputs": [
                {
                    "internalType": "bool",
                    "name": "",
                    "type": "bool"
                }
            ],
            "stateMutability": "view",
            "type": "function"
        },
        {
            "inputs": [],
            "name": "symbol",
            "outputs": [
                {
                    "internalType": "string",
                    "name": "",
                    "type": "string"
                }
            ],
            "stateMutability": "view",
            "type": "function"
        },
        {
            "inputs": [],
            "name": "totalSupply",
            "outputs": [
                {
                    "internalType": "uint256",
                    "name": "",
                    "type": "uint256"
                }
            ],
            "stateMutability": "view",
            "type": "function"
        },
        {
            "inputs": [
                {
                    "internalType": "address",
                    "name": "to",
                    "type": "address"
                },
                {
                    "internalType": "uint256",
                    "name": "amount",
                    "type": "uint256"
                }
            ],
            "name": "transfer",
            "outputs": [
                {
                    "internalType": "bool",
                    "name": "",
                    "type": "bool"
                }
            ],
            "stateMutability": "nonpayable",
            "type": "function"
        },
        {
            "inputs": [
                {
                    "internalType": "address",
                    "name": "from",
                    "type": "address"
                },
                {
                    "internalType": "address",
                    "name": "to",
                    "type": "address"
                },
                {
                    "internalType": "uint256",
                    "name": "amount",
                    "type": "uint256"
                }
            ],
            "name": "transferFrom",
            "outputs": [
                {
                    "internalType": "bool",
                    "name": "",
                    "type": "bool"
                }
            ],
            "stateMutability": "nonpayable",
            "type": "function"
        }
    ],
    "bytecode": "60806040523480156200001157600080fd5b5060405162002f9338038062002f938339810160408190526200003491620004d9565b604080518082018252601081526f2932bbb0b9321022aa24102a37b5b2b760811b602080830191909152825180840190935260058352640e4ee8aa8960db1b9083015260018055600280546001600160a01b0319166001600160a01b0385161790559082620000a56000336200011c565b620000d17f41a01ec0a13b563fa452569e3fbb116366d217c2769aa1561822e65a617e3842336200011c565b620000db6200012c565b508151620000f190600690602085019062000433565b5080516200010790600790602084019062000433565b506200011591505062000293565b5062000548565b62000128828262000393565b5050565b6002546040516e636f6e74726163745f65786973747360881b60208201526001600160601b03193060601b16602f8201526001600160a01b039091169063988c515b9060430160408051601f198184030181529082905280516020909101206001600160e01b031960e084901b168252600482015260016024820152604401600060405180830381600087803b158015620001c657600080fd5b505af1158015620001db573d6000803e3d6000fd5b50506002546040516f636f6e74726163745f6164647265737360801b602082015267506f6f6c4261736560c01b60308201526001600160a01b039091169250637221263a91506038015b60408051601f198184030181529082905280516020909101206001600160e01b031960e084901b1682526004820152306024820152604401600060405180830381600087803b1580156200027857600080fd5b505af11580156200028d573d6000803e3d6000fd5b50505050565b6002546040516e636f6e74726163745f65786973747360881b60208201526001600160601b03193060601b16602f8201526001600160a01b039091169063988c515b9060430160408051601f198184030181529082905280516020909101206001600160e01b031960e084901b168252600482015260016024820152604401600060405180830381600087803b1580156200032d57600080fd5b505af115801562000342573d6000803e3d6000fd5b50506002546040516f636f6e74726163745f6164647265737360801b602082015269393ba2aa242a37b5b2b760b11b60308201526001600160a01b039091169250637221263a9150603a0162000225565b6000828152602081815260408083206001600160a01b038516845290915290205460ff1662000128576000828152602081815260408083206001600160a01b03851684529091529020805460ff19166001179055620003ef3390565b6001600160a01b0316816001600160a01b0316837f2f8788117e7eff1d82e926ec794901d17c78024a50270940304540a733656f0d60405160405180910390a45050565b82805462000441906200050b565b90600052602060002090601f016020900481019282620004655760008555620004b0565b82601f106200048057805160ff1916838001178555620004b0565b82800160010185558215620004b0579182015b82811115620004b057825182559160200191906001019062000493565b50620004be929150620004c2565b5090565b5b80821115620004be5760008155600101620004c3565b600060208284031215620004ec57600080fd5b81516001600160a01b03811681146200050457600080fd5b9392505050565b600181811c908216806200052057607f821691505b602082108114156200054257634e487b7160e01b600052602260045260246000fd5b50919050565b612a3b80620005586000396000f3fe608060405234801561001057600080fd5b50600436106102485760003560e01c8063473b0d461161013b57806395d89b41116100b8578063bf4c00361161007c578063bf4c0036146104ce578063d1d8d060146104e1578063d547741f146104e9578063dd62ed3e146104fc578063fa1e19e51461053557600080fd5b806395d89b4114610485578063a217fddf1461048d578063a457c2d714610495578063a4975516146104a8578063a9059cbb146104bb57600080fd5b806370a08231116100ff57806370a082311461041b57806372d099a0146104445780637521796f146104575780638dd225d51461045f57806391d148541461047257600080fd5b8063473b0d46146103d0578063497d0241146103e357806353710f49146103eb578063543edfb6146103fe57806362308e851461040657600080fd5b8063248a9ca3116101c9578063395093511161018d57806339509351146103715780633ef3183c1461038457806340c10f191461039757806342966c68146103aa57806345077e71146103bd57600080fd5b8063248a9ca31461030657806329ca15bc146103295780632f2ff15d1461033c578063313ce5671461034f57806336568abe1461035e57600080fd5b8063126469871161021057806312646987146102bb57806312946fe1146102d057806318160ddd146102e3578063217ac237146102eb57806323b872dd146102f357600080fd5b8063012a33aa1461024d57806301ffc9a71461026857806306fdde031461028b578063095df57f146102a0578063095ea7b3146102a8575b600080fd5b61025561053d565b6040519081526020015b60405180910390f35b61027b610276366004612591565b610555565b604051901515815260200161025f565b61029361058c565b60405161025f91906125e7565b61025561061e565b61027b6102b6366004612632565b6106db565b6102ce6102c936600461265e565b6106f3565b005b6102556102de36600461265e565b6107ac565b600554610255565b61027b6108f6565b61027b610301366004612677565b61099b565b61025561031436600461265e565b60009081526020819052604090206001015490565b6102ce6103373660046126b8565b6109bf565b6102ce61034a3660046126d5565b610a1b565b6040516012815260200161025f565b6102ce61036c3660046126d5565b610a46565b61027b61037f366004612632565b610ac9565b61025561039236600461265e565b610b08565b6102ce6103a5366004612632565b610cac565b6102ce6103b836600461265e565b610f08565b6102ce6103cb3660046126b8565b6112c6565b6102ce6103de36600461265e565b611322565b610255611425565b6102ce6103f936600461265e565b61144b565b6102556115a5565b6102556000805160206129e683398151915281565b6102556104293660046126b8565b6001600160a01b031660009081526003602052604090205490565b6102ce61045236600461265e565b6115cd565b6102556116d2565b6102ce61046d36600461265e565b611703565b61027b6104803660046126d5565b61191c565b610293611945565b610255600081565b61027b6104a3366004612632565b611954565b6102ce6104b6366004612713565b6119e6565b61027b6104c9366004612632565b611a60565b6102ce6104dc36600461265e565b611a6e565b610255611b7a565b6102ce6104f73660046126d5565b611b9b565b61025561050a366004612730565b6001600160a01b03918216600090815260046020908152604080832093909416825291909152205490565b610255611bc1565b6000610550670de0b6b3a76400006107ac565b905090565b60006001600160e01b03198216637965db0b60e01b148061058657506301ffc9a760e01b6001600160e01b03198316145b92915050565b60606006805461059b9061275e565b80601f01602080910402602001604051908101604052809291908181526020018280546105c79061275e565b80156106145780601f106105e957610100808354040283529160200191610614565b820191906000526020600020905b8154815290600101906020018083116105f757829003601f168201915b5050505050905090565b600080604051602001610642906a706f6f6c4d617853697a6560a81b8152600b0190565b60408051808303601f1901815290829052805160209091012060025463afc3602b60e01b8352600483018290529092506001600160a01b03169063afc3602b9060240160206040518083038186803b15801561069d57600080fd5b505afa1580156106b1573d6000803e3d6000fd5b505050506040513d601f19601f820116820180604052508101906106d59190612799565b91505090565b6000336106e9818585611beb565b5060019392505050565b6000805160206129e683398151915261070c8133611d0f565b6040516a706f6f6c4d617853697a6560a81b6020820152600090602b015b60408051808303601f190181529082905280516020909101206002546328192c5560e01b835260048301829052602483018690529092506001600160a01b0316906328192c55906044015b600060405180830381600087803b15801561078f57600080fd5b505af11580156107a3573d6000803e3d6000fd5b50505050505050565b6000806107dd6040518060400160405280600d81526020016c546f6b656e42616c616e63657360981b815250611d73565b90506000816001600160a01b0316636402c2626040518163ffffffff1660e01b815260040160206040518083038186803b15801561081a57600080fd5b505afa15801561082e573d6000803e3d6000fd5b505050506040513d601f19601f820116820180604052508101906108529190612799565b90506000826001600160a01b031663e2bcb3df6040518163ffffffff1660e01b815260040160206040518083038186803b15801561088f57600080fd5b505afa1580156108a3573d6000803e3d6000fd5b505050506040513d601f19601f820116820180604052508101906108c79190612799565b905080156108ed57806108da83876127c8565b6108e491906127e7565b95945050505050565b50929392505050565b60008060405160200161090890612809565b60408051808303601f190181529082905280516020909101206002546355d9465560e01b8352600483018290529092506001600160a01b0316906355d946559060240160206040518083038186803b15801561096357600080fd5b505afa158015610977573d6000803e3d6000fd5b505050506040513d601f19601f820116820180604052508101906106d5919061281f565b6000336109a9858285611e7f565b6109b4858585611f11565b506001949350505050565b60006109cb8133611d0f565b6109e36000805160206129e683398151915283611b9b565b6040516001600160a01b038316907fef69f7d97228658c92417be1b16b19058315de71fecb435d07b7d23728b6bd3190600090a25050565b600082815260208190526040902060010154610a378133611d0f565b610a4183836120df565b505050565b6001600160a01b0381163314610abb5760405162461bcd60e51b815260206004820152602f60248201527f416363657373436f6e74726f6c3a2063616e206f6e6c792072656e6f756e636560448201526e103937b632b9903337b91039b2b63360891b60648201526084015b60405180910390fd5b610ac58282612163565b5050565b3360008181526004602090815260408083206001600160a01b03871684529091528120549091906106e99082908690610b0390879061283c565b611beb565b600080610b396040518060400160405280600d81526020016c546f6b656e42616c616e63657360981b815250611d73565b90506000816001600160a01b0316636402c2626040518163ffffffff1660e01b815260040160206040518083038186803b158015610b7657600080fd5b505afa158015610b8a573d6000803e3d6000fd5b505050506040513d601f19601f82011682018060405250810190610bae9190612799565b90506000826001600160a01b031663e2bcb3df6040518163ffffffff1660e01b815260040160206040518083038186803b158015610beb57600080fd5b505afa158015610bff573d6000803e3d6000fd5b505050506040513d601f19601f82011682018060405250810190610c239190612799565b905080156108ed5760008211610ca15760405162461bcd60e51b815260206004820152603b60248201527f43757272656e746c7920746865726520617265206e6f2065746865722073746f60448201527f7265642e2043616e6e6f7420646976696465206279207a65726f2e00000000006064820152608401610ab2565b816108da82876127c8565b6002546040516001600160a01b03909116906355d9465590610cd2903390602001612854565b604051602081830303815290604052805190602001206040518263ffffffff1660e01b8152600401610d0691815260200190565b60206040518083038186803b158015610d1e57600080fd5b505afa158015610d32573d6000803e3d6000fd5b505050506040513d601f19601f82011682018060405250810190610d56919061281f565b610d9e5760405162461bcd60e51b815260206004820152601960248201527824b73b30b634b21021b7b73a3930b1ba1020b2323932b9b99760391b6044820152606401610ab2565b604051763a37ba30b629bab838363cafb932bbb0b93222ba3432b960491b602082015260009060370160405160208183030381529060405280519060200120905060008211610e425760405162461bcd60e51b815260206004820152602a60248201527f4d696e7420616d6f756e74206e6565647320746f2062652067726561746572206044820152693a3430b7103d32b9379760b11b6064820152608401610ab2565b6000610e4d83610b08565b9050610e5984826121c8565b60025460405162ec44af60e51b815260048101849052602481018390526001600160a01b0390911690631d8895e090604401600060405180830381600087803b158015610ea557600080fd5b505af1158015610eb9573d6000803e3d6000fd5b505060408051848152602081018790526001600160a01b03881693507f2e8ac5177a616f2aec08c3048f5021e4e9743ece034e8d83ba5caf76688bb4759250015b60405180910390a250505050565b6002546040516001600160a01b03909116906355d9465590610f2e903390602001612854565b604051602081830303815290604052805190602001206040518263ffffffff1660e01b8152600401610f6291815260200190565b60206040518083038186803b158015610f7a57600080fd5b505afa158015610f8e573d6000803e3d6000fd5b505050506040513d601f19601f82011682018060405250810190610fb2919061281f565b610ffa5760405162461bcd60e51b815260206004820152601960248201527824b73b30b634b21021b7b73a3930b1ba1020b2323932b9b99760391b6044820152606401610ab2565b600061102a6040518060400160405280600d81526020016c546f6b656e42616c616e63657360981b815250611d73565b9050600060405160200161105b90763a37ba30b629bab838363cafb932bbb0b93222ba3432b960491b815260170190565b604051602081830303815290604052805190602001209050600083116110d65760405162461bcd60e51b815260206004820152602a60248201527f4275726e20616d6f756e74206e6565647320746f2062652067726561746572206044820152693a3430b7103d32b9379760b11b6064820152608401610ab2565b33600090815260036020526040812054116111335760405162461bcd60e51b815260206004820152601b60248201527f496e73756666696369656e742072774574682062616c616e63652e00000000006044820152606401610ab2565b600061113e846107ac565b9050826001600160a01b0316636402c2626040518163ffffffff1660e01b815260040160206040518083038186803b15801561117957600080fd5b505afa15801561118d573d6000803e3d6000fd5b505050506040513d601f19601f820116820180604052508101906111b19190612799565b81106112255760405162461bcd60e51b815260206004820152603960248201527f5468657265206172656e277420656e6f756768206261636b656420657468657260448201527f7320746f20706572666f726d207468697320616374696f6e2e000000000000006064820152608401610ab2565b600254604051635bcfee6760e01b815260048101849052602481018690526001600160a01b0390911690635bcfee6790604401600060405180830381600087803b15801561127257600080fd5b505af1158015611286573d6000803e3d6000fd5b5050505061129433856122a7565b60405184815233907ffd38818f5291bf0bb3a2a48aadc06ba8757865d1dabd804585338aab3009dcb690602001610efa565b60006112d28133611d0f565b6112ea6000805160206129e683398151915283610a1b565b6040516001600160a01b038316907fd873e3f571dc25e020cefdeb7255b3874ead3aade1f94a5fb4a5da831fd670cd90600090a25050565b6000805160206129e683398151915261133b8133611d0f565b6002546040516001600160a01b03909116906355d946559061135f90602001612809565b604051602081830303815290604052805190602001206040518263ffffffff1660e01b815260040161139391815260200190565b60206040518083038186803b1580156113ab57600080fd5b505afa1580156113bf573d6000803e3d6000fd5b505050506040513d601f19601f820116820180604052508101906113e3919061281f565b6113ff5760405162461bcd60e51b8152600401610ab290612889565b6040516e36b4b721b7b73a3934b13aba34b7b760891b6020820152600090602f0161072a565b600080604051602001610642906c64617973546f5265776172647360981b8152600d0190565b6000805160206129e68339815191526114648133611d0f565b6002546040516001600160a01b03909116906355d946559061148890602001612809565b604051602081830303815290604052805190602001206040518263ffffffff1660e01b81526004016114bc91815260200190565b60206040518083038186803b1580156114d457600080fd5b505afa1580156114e8573d6000803e3d6000fd5b505050506040513d601f19601f8201168201806040525081019061150c919061281f565b6115285760405162461bcd60e51b8152600401610ab290612889565b604080516c64617973546f5265776172647360981b6020808301919091528251600d818403018152602d90920190925280519101206002546001600160a01b03166328192c558261157c86620151806127c8565b6040516001600160e01b031960e085901b16815260048101929092526024820152604401610775565b600080604051602001610642906e36b4b721b7b73a3934b13aba34b7b760891b8152600f0190565b6000805160206129e68339815191526115e68133611d0f565b6002546040516001600160a01b03909116906355d946559061160a90602001612809565b604051602081830303815290604052805190602001206040518263ffffffff1660e01b815260040161163e91815260200190565b60206040518083038186803b15801561165657600080fd5b505afa15801561166a573d6000803e3d6000fd5b505050506040513d601f19601f8201168201806040525081019061168e919061281f565b6116aa5760405162461bcd60e51b8152600401610ab290612889565b6040517018dbdb9d1c9a589d5d1a5bdb931a5b5a5d607a1b602082015260009060310161072a565b60008060405160200161064290771c995dd85c991cd25b9d195c995cdd14195c94195c9a5bd960421b815260180190565b6000805160206129e683398151915261171c8133611d0f565b6002546040516001600160a01b03909116906355d946559061174090602001612809565b604051602081830303815290604052805190602001206040518263ffffffff1660e01b815260040161177491815260200190565b60206040518083038186803b15801561178c57600080fd5b505afa1580156117a0573d6000803e3d6000fd5b505050506040513d601f19601f820116820180604052508101906117c4919061281f565b6117e05760405162461bcd60e51b8152600401610ab290612889565b60405167706f6f6c4665657360c01b60208201526000906028016040516020818303038152906040528051906020012090506000604051602001611835906a1c1bdbdb1199595cd4d95d60aa1b8152600b0190565b60408051808303601f190181529082905280516020909101206002546328192c5560e01b835260048301859052602483018790529092506001600160a01b0316906328192c5590604401600060405180830381600087803b15801561189957600080fd5b505af11580156118ad573d6000803e3d6000fd5b505060025460405163988c515b60e01b815260048101859052600160248201526001600160a01b03909116925063988c515b9150604401600060405180830381600087803b1580156118fe57600080fd5b505af1158015611912573d6000803e3d6000fd5b5050505050505050565b6000918252602082815260408084206001600160a01b0393909316845291905290205460ff1690565b60606007805461059b9061275e565b3360008181526004602090815260408083206001600160a01b0387168452909152812054909190838110156119d95760405162461bcd60e51b815260206004820152602560248201527f45524332303a2064656372656173656420616c6c6f77616e63652062656c6f77604482015264207a65726f60d81b6064820152608401610ab2565b6109b48286868403611beb565b6000805160206129e68339815191526119ff8133611d0f565b6000604051602001611a1090612809565b60408051808303601f1901815290829052805160209091012060025463988c515b60e01b83526004830182905285151560248401529092506001600160a01b03169063988c515b90604401610775565b6000336106e9818585611f11565b6000805160206129e6833981519152611a878133611d0f565b6002546040516001600160a01b03909116906355d9465590611aab90602001612809565b604051602081830303815290604052805190602001206040518263ffffffff1660e01b8152600401611adf91815260200190565b60206040518083038186803b158015611af757600080fd5b505afa158015611b0b573d6000803e3d6000fd5b505050506040513d601f19601f82011682018060405250810190611b2f919061281f565b611b4b5760405162461bcd60e51b8152600401610ab290612889565b604051771c995dd85c991cd25b9d195c995cdd14195c94195c9a5bd960421b602082015260009060380161072a565b6000806040516020016106429067706f6f6c4665657360c01b815260080190565b600082815260208190526040902060010154611bb78133611d0f565b610a418383612163565b600080604051602001610642907018dbdb9d1c9a589d5d1a5bdb931a5b5a5d607a1b815260110190565b6001600160a01b038316611c4d5760405162461bcd60e51b8152602060048201526024808201527f45524332303a20617070726f76652066726f6d20746865207a65726f206164646044820152637265737360e01b6064820152608401610ab2565b6001600160a01b038216611cae5760405162461bcd60e51b815260206004820152602260248201527f45524332303a20617070726f766520746f20746865207a65726f206164647265604482015261737360f01b6064820152608401610ab2565b6001600160a01b0383811660008181526004602090815260408083209487168084529482529182902085905590518481527f8c5be1e5ebec7d5bd14f71427d1e84f3dd0314c0f7b2291e5b200ac8c7c3b925910160405180910390a3505050565b611d19828261191c565b610ac557611d31816001600160a01b031660146123f5565b611d3c8360206123f5565b604051602001611d4d9291906128c0565b60408051601f198184030181529082905262461bcd60e51b8252610ab2916004016125e7565b60008082604051602001611d879190612935565b60408051808303601f190181529082905280516020909101206002546315485dd960e11b8352600483018290529092506000916001600160a01b0390911690632a90bbb29060240160206040518083038186803b158015611de757600080fd5b505afa158015611dfb573d6000803e3d6000fd5b505050506040513d601f19601f82011682018060405250810190611e1f919061296e565b90506001600160a01b03811615611e785760405162461bcd60e51b815260206004820152601b60248201527f436f6e74726163742061646472657373206e6f7420666f756e642e00000000006044820152606401610ab2565b9392505050565b6001600160a01b038381166000908152600460209081526040808320938616835292905220546000198114611f0b5781811015611efe5760405162461bcd60e51b815260206004820152601d60248201527f45524332303a20696e73756666696369656e7420616c6c6f77616e63650000006044820152606401610ab2565b611f0b8484848403611beb565b50505050565b6001600160a01b038316611f755760405162461bcd60e51b815260206004820152602560248201527f45524332303a207472616e736665722066726f6d20746865207a65726f206164604482015264647265737360d81b6064820152608401610ab2565b6001600160a01b038216611fd75760405162461bcd60e51b815260206004820152602360248201527f45524332303a207472616e7366657220746f20746865207a65726f206164647260448201526265737360e81b6064820152608401610ab2565b6001600160a01b0383166000908152600360205260409020548181101561204f5760405162461bcd60e51b815260206004820152602660248201527f45524332303a207472616e7366657220616d6f756e7420657863656564732062604482015265616c616e636560d01b6064820152608401610ab2565b6001600160a01b0380851660009081526003602052604080822085850390559185168152908120805484929061208690849061283c565b92505081905550826001600160a01b0316846001600160a01b03167fddf252ad1be2c89b69c2b068fc378daa952ba7f163c4a11628f55a4df523b3ef846040516120d291815260200190565b60405180910390a3611f0b565b6120e9828261191c565b610ac5576000828152602081815260408083206001600160a01b03851684529091529020805460ff1916600117905561211f3390565b6001600160a01b0316816001600160a01b0316837f2f8788117e7eff1d82e926ec794901d17c78024a50270940304540a733656f0d60405160405180910390a45050565b61216d828261191c565b15610ac5576000828152602081815260408083206001600160a01b0385168085529252808320805460ff1916905551339285917ff6391f5c32d9c69d2a47ea670b442974b53935d1edc7fd64eb21e047a839171b9190a45050565b6001600160a01b03821661221e5760405162461bcd60e51b815260206004820152601f60248201527f45524332303a206d696e7420746f20746865207a65726f2061646472657373006044820152606401610ab2565b8060056000828254612230919061283c565b90915550506001600160a01b0382166000908152600360205260408120805483929061225d90849061283c565b90915550506040518181526001600160a01b038316906000907fddf252ad1be2c89b69c2b068fc378daa952ba7f163c4a11628f55a4df523b3ef9060200160405180910390a35050565b6001600160a01b0382166123075760405162461bcd60e51b815260206004820152602160248201527f45524332303a206275726e2066726f6d20746865207a65726f206164647265736044820152607360f81b6064820152608401610ab2565b6001600160a01b0382166000908152600360205260409020548181101561237b5760405162461bcd60e51b815260206004820152602260248201527f45524332303a206275726e20616d6f756e7420657863656564732062616c616e604482015261636560f01b6064820152608401610ab2565b6001600160a01b03831660009081526003602052604081208383039055600580548492906123aa90849061298b565b90915550506040518281526000906001600160a01b038516907fddf252ad1be2c89b69c2b068fc378daa952ba7f163c4a11628f55a4df523b3ef9060200160405180910390a3505050565b606060006124048360026127c8565b61240f90600261283c565b67ffffffffffffffff811115612427576124276129a2565b6040519080825280601f01601f191660200182016040528015612451576020820181803683370190505b509050600360fc1b8160008151811061246c5761246c6129b8565b60200101906001600160f81b031916908160001a905350600f60fb1b8160018151811061249b5761249b6129b8565b60200101906001600160f81b031916908160001a90535060006124bf8460026127c8565b6124ca90600161283c565b90505b6001811115612542576f181899199a1a9b1b9c1cb0b131b232b360811b85600f16601081106124fe576124fe6129b8565b1a60f81b828281518110612514576125146129b8565b60200101906001600160f81b031916908160001a90535060049490941c9361253b816129ce565b90506124cd565b508315611e785760405162461bcd60e51b815260206004820181905260248201527f537472696e67733a20686578206c656e67746820696e73756666696369656e746044820152606401610ab2565b6000602082840312156125a357600080fd5b81356001600160e01b031981168114611e7857600080fd5b60005b838110156125d65781810151838201526020016125be565b83811115611f0b5750506000910152565b60208152600082518060208401526126068160408501602087016125bb565b601f01601f19169190910160400192915050565b6001600160a01b038116811461262f57600080fd5b50565b6000806040838503121561264557600080fd5b82356126508161261a565b946020939093013593505050565b60006020828403121561267057600080fd5b5035919050565b60008060006060848603121561268c57600080fd5b83356126978161261a565b925060208401356126a78161261a565b929592945050506040919091013590565b6000602082840312156126ca57600080fd5b8135611e788161261a565b600080604083850312156126e857600080fd5b8235915060208301356126fa8161261a565b809150509250929050565b801515811461262f57600080fd5b60006020828403121561272557600080fd5b8135611e7881612705565b6000806040838503121561274357600080fd5b823561274e8161261a565b915060208301356126fa8161261a565b600181811c9082168061277257607f821691505b6020821081141561279357634e487b7160e01b600052602260045260246000fd5b50919050565b6000602082840312156127ab57600080fd5b5051919050565b634e487b7160e01b600052601160045260246000fd5b60008160001904831182151516156127e2576127e26127b2565b500290565b60008261280457634e487b7160e01b600052601260045260246000fd5b500490565b696973506f6f6c4c69766560b01b8152600a0190565b60006020828403121561283157600080fd5b8151611e7881612705565b6000821982111561284f5761284f6127b2565b500190565b6e636f6e74726163745f65786973747360881b815260609190911b6bffffffffffffffffffffffff1916600f82015260230190565b6020808252601d908201527f54686520706f6f6c2069732063757272656e746c7920636c6f7365642e000000604082015260600190565b7f416363657373436f6e74726f6c3a206163636f756e74200000000000000000008152600083516128f88160178501602088016125bb565b7001034b99036b4b9b9b4b733903937b6329607d1b60179184019182015283516129298160288401602088016125bb565b01602801949350505050565b70636f6e74726163745f5f6164647265737360781b8152600082516129618160118501602087016125bb565b9190910160110192915050565b60006020828403121561298057600080fd5b8151611e788161261a565b60008282101561299d5761299d6127b2565b500390565b634e487b7160e01b600052604160045260246000fd5b634e487b7160e01b600052603260045260246000fd5b6000816129dd576129dd6127b2565b50600019019056fe41a01ec0a13b563fa452569e3fbb116366d217c2769aa1561822e65a617e3842a2646970667358221220c7c758780bfc1583b93ce8852f7995dd5dceb4dfd8028af77f57e49cd37acbc564736f6c63430008090033",
    "sourcePath": "c:/Users/Lior/Desktop/Index/Coding Software/GitHub/challenge/contracts/rwETHToken.sol",
    "compiler": {
        "name": "solc",
        "version": "0.8.9+commit.e5eed63a"
    },
    "functionHashes": {
        "DEFAULT_ADMIN_ROLE()": "a217fddf",
        "POOL_MANAGER()": "62308e85",
        "addPoolManager(address)": "45077e71",
        "allowance(address,address)": "dd62ed3e",
        "approve(address,uint256)": "095ea7b3",
        "balanceOf(address)": "70a08231",
        "burn(uint256)": "42966c68",
        "calcEthValue(uint256)": "12946fe1",
        "calcRwEthValue(uint256)": "3ef3183c",
        "decimals()": "313ce567",
        "decreaseAllowance(address,uint256)": "a457c2d7",
        "getContributionLimit()": "fa1e19e5",
        "getPoolFees()": "d1d8d060",
        "getPoolMaxSize()": "095df57f",
        "getPoolState()": "217ac237",
        "getRewardsInterest()": "7521796f",
        "getRewardsInterval()": "497d0241",
        "getRoleAdmin(bytes32)": "248a9ca3",
        "getUnitPrice()": "012a33aa",
        "grantRole(bytes32,address)": "2f2ff15d",
        "hasRole(bytes32,address)": "91d14854",
        "increaseAllowance(address,uint256)": "39509351",
        "mint(address,uint256)": "40c10f19",
        "name()": "06fdde03",
        "removePoolManager(address)": "29ca15bc",
        "renounceRole(bytes32,address)": "36568abe",
        "revokeRole(bytes32,address)": "d547741f",
        "setContributionLimit(uint256)": "72d099a0",
        "setMinContribution()": "543edfb6",
        "setMinContribution(uint256)": "473b0d46",
        "setPoolFees(uint256)": "8dd225d5",
        "setPoolLive(bool)": "a4975516",
        "setPoolMaxSize(uint256)": "12646987",
        "setRewardsInterest(uint256)": "bf4c0036",
        "setRewardsInterval(uint256)": "53710f49",
        "supportsInterface(bytes4)": "01ffc9a7",
        "symbol()": "95d89b41",
        "totalSupply()": "18160ddd",
        "transfer(address,uint256)": "a9059cbb",
        "transferFrom(address,address,uint256)": "23b872dd"
    },
    "gasEstimates": {
        "creation": {
            "codeDepositCost": "2162200",
            "executionCost": "infinite",
            "totalCost": "infinite"
        },
        "external": {
            "DEFAULT_ADMIN_ROLE()": "251",
            "POOL_MANAGER()": "infinite",
            "addPoolManager(address)": "infinite",
            "allowance(address,address)": "infinite",
            "approve(address,uint256)": "24730",
            "balanceOf(address)": "2565",
            "burn(uint256)": "infinite",
            "calcEthValue(uint256)": "infinite",
            "calcRwEthValue(uint256)": "infinite",
            "decimals()": "289",
            "decreaseAllowance(address,uint256)": "26983",
            "getContributionLimit()": "infinite",
            "getPoolFees()": "infinite",
            "getPoolMaxSize()": "infinite",
            "getPoolState()": "infinite",
            "getRewardsInterest()": "infinite",
            "getRewardsInterval()": "infinite",
            "getRoleAdmin(bytes32)": "2482",
            "getUnitPrice()": "infinite",
            "grantRole(bytes32,address)": "infinite",
            "hasRole(bytes32,address)": "2794",
            "increaseAllowance(address,uint256)": "26984",
            "mint(address,uint256)": "infinite",
            "name()": "infinite",
            "removePoolManager(address)": "infinite",
            "renounceRole(bytes32,address)": "29128",
            "revokeRole(bytes32,address)": "infinite",
            "setContributionLimit(uint256)": "infinite",
            "setMinContribution()": "infinite",
            "setMinContribution(uint256)": "infinite",
            "setPoolFees(uint256)": "infinite",
            "setPoolLive(bool)": "infinite",
            "setPoolMaxSize(uint256)": "infinite",
            "setRewardsInterest(uint256)": "infinite",
            "setRewardsInterval(uint256)": "infinite",
            "supportsInterface(bytes4)": "506",
            "symbol()": "infinite",
            "totalSupply()": "2371",
            "transfer(address,uint256)": "51303",
            "transferFrom(address,address,uint256)": "infinite"
        },
        "internal": {
            "_setRwETHTokenAddress()": "infinite"
        }
    }
}