{
    "contractName": "TokenBalances",
    "abi": [
        {
            "inputs": [
                {
                    "internalType": "contract DataStorageInterface",
                    "name": "_dataStorageAddress",
                    "type": "address"
                }
            ],
            "stateMutability": "nonpayable",
            "type": "constructor"
        },
        {
            "anonymous": false,
            "inputs": [
                {
                    "indexed": true,
                    "internalType": "address",
                    "name": "_removedManager",
                    "type": "address"
                }
            ],
            "name": "ManagerRemoved",
            "type": "event"
        },
        {
            "anonymous": false,
            "inputs": [
                {
                    "indexed": true,
                    "internalType": "address",
                    "name": "_newManager",
                    "type": "address"
                }
            ],
            "name": "NewManagerAdded",
            "type": "event"
        },
        {
            "anonymous": false,
            "inputs": [
                {
                    "indexed": true,
                    "internalType": "bytes32",
                    "name": "role",
                    "type": "bytes32"
                },
                {
                    "indexed": true,
                    "internalType": "bytes32",
                    "name": "previousAdminRole",
                    "type": "bytes32"
                },
                {
                    "indexed": true,
                    "internalType": "bytes32",
                    "name": "newAdminRole",
                    "type": "bytes32"
                }
            ],
            "name": "RoleAdminChanged",
            "type": "event"
        },
        {
            "anonymous": false,
            "inputs": [
                {
                    "indexed": true,
                    "internalType": "bytes32",
                    "name": "role",
                    "type": "bytes32"
                },
                {
                    "indexed": true,
                    "internalType": "address",
                    "name": "account",
                    "type": "address"
                },
                {
                    "indexed": true,
                    "internalType": "address",
                    "name": "sender",
                    "type": "address"
                }
            ],
            "name": "RoleGranted",
            "type": "event"
        },
        {
            "anonymous": false,
            "inputs": [
                {
                    "indexed": true,
                    "internalType": "bytes32",
                    "name": "role",
                    "type": "bytes32"
                },
                {
                    "indexed": true,
                    "internalType": "address",
                    "name": "account",
                    "type": "address"
                },
                {
                    "indexed": true,
                    "internalType": "address",
                    "name": "sender",
                    "type": "address"
                }
            ],
            "name": "RoleRevoked",
            "type": "event"
        },
        {
            "inputs": [],
            "name": "DEFAULT_ADMIN_ROLE",
            "outputs": [
                {
                    "internalType": "bytes32",
                    "name": "",
                    "type": "bytes32"
                }
            ],
            "stateMutability": "view",
            "type": "function"
        },
        {
            "inputs": [],
            "name": "POOL_MANAGER",
            "outputs": [
                {
                    "internalType": "bytes32",
                    "name": "",
                    "type": "bytes32"
                }
            ],
            "stateMutability": "view",
            "type": "function"
        },
        {
            "inputs": [
                {
                    "internalType": "address",
                    "name": "_address",
                    "type": "address"
                }
            ],
            "name": "addPoolManager",
            "outputs": [],
            "stateMutability": "nonpayable",
            "type": "function"
        },
        {
            "inputs": [],
            "name": "getContributionLimit",
            "outputs": [
                {
                    "internalType": "uint256",
                    "name": "",
                    "type": "uint256"
                }
            ],
            "stateMutability": "view",
            "type": "function"
        },
        {
            "inputs": [],
            "name": "getPoolFees",
            "outputs": [
                {
                    "internalType": "uint256",
                    "name": "",
                    "type": "uint256"
                }
            ],
            "stateMutability": "view",
            "type": "function"
        },
        {
            "inputs": [],
            "name": "getPoolMaxSize",
            "outputs": [
                {
                    "internalType": "uint256",
                    "name": "",
                    "type": "uint256"
                }
            ],
            "stateMutability": "view",
            "type": "function"
        },
        {
            "inputs": [],
            "name": "getPoolState",
            "outputs": [
                {
                    "internalType": "bool",
                    "name": "",
                    "type": "bool"
                }
            ],
            "stateMutability": "view",
            "type": "function"
        },
        {
            "inputs": [],
            "name": "getRewardsInterest",
            "outputs": [
                {
                    "internalType": "uint256",
                    "name": "",
                    "type": "uint256"
                }
            ],
            "stateMutability": "view",
            "type": "function"
        },
        {
            "inputs": [],
            "name": "getRewardsInterval",
            "outputs": [
                {
                    "internalType": "uint256",
                    "name": "",
                    "type": "uint256"
                }
            ],
            "stateMutability": "view",
            "type": "function"
        },
        {
            "inputs": [
                {
                    "internalType": "bytes32",
                    "name": "role",
                    "type": "bytes32"
                }
            ],
            "name": "getRoleAdmin",
            "outputs": [
                {
                    "internalType": "bytes32",
                    "name": "",
                    "type": "bytes32"
                }
            ],
            "stateMutability": "view",
            "type": "function"
        },
        {
            "inputs": [],
            "name": "getTotalEthSupply",
            "outputs": [
                {
                    "internalType": "uint256",
                    "name": "",
                    "type": "uint256"
                }
            ],
            "stateMutability": "view",
            "type": "function"
        },
        {
            "inputs": [],
            "name": "getTotalEtherStaked",
            "outputs": [
                {
                    "internalType": "uint256",
                    "name": "",
                    "type": "uint256"
                }
            ],
            "stateMutability": "view",
            "type": "function"
        },
        {
            "inputs": [],
            "name": "getTotalrwEthSupply",
            "outputs": [
                {
                    "internalType": "uint256",
                    "name": "",
                    "type": "uint256"
                }
            ],
            "stateMutability": "view",
            "type": "function"
        },
        {
            "inputs": [
                {
                    "internalType": "bytes32",
                    "name": "role",
                    "type": "bytes32"
                },
                {
                    "internalType": "address",
                    "name": "account",
                    "type": "address"
                }
            ],
            "name": "grantRole",
            "outputs": [],
            "stateMutability": "nonpayable",
            "type": "function"
        },
        {
            "inputs": [
                {
                    "internalType": "bytes32",
                    "name": "role",
                    "type": "bytes32"
                },
                {
                    "internalType": "address",
                    "name": "account",
                    "type": "address"
                }
            ],
            "name": "hasRole",
            "outputs": [
                {
                    "internalType": "bool",
                    "name": "",
                    "type": "bool"
                }
            ],
            "stateMutability": "view",
            "type": "function"
        },
        {
            "inputs": [
                {
                    "internalType": "address",
                    "name": "_address",
                    "type": "address"
                }
            ],
            "name": "removePoolManager",
            "outputs": [],
            "stateMutability": "nonpayable",
            "type": "function"
        },
        {
            "inputs": [
                {
                    "internalType": "bytes32",
                    "name": "role",
                    "type": "bytes32"
                },
                {
                    "internalType": "address",
                    "name": "account",
                    "type": "address"
                }
            ],
            "name": "renounceRole",
            "outputs": [],
            "stateMutability": "nonpayable",
            "type": "function"
        },
        {
            "inputs": [
                {
                    "internalType": "bytes32",
                    "name": "role",
                    "type": "bytes32"
                },
                {
                    "internalType": "address",
                    "name": "account",
                    "type": "address"
                }
            ],
            "name": "revokeRole",
            "outputs": [],
            "stateMutability": "nonpayable",
            "type": "function"
        },
        {
            "inputs": [
                {
                    "internalType": "uint256",
                    "name": "_newContrLimit",
                    "type": "uint256"
                }
            ],
            "name": "setContributionLimit",
            "outputs": [],
            "stateMutability": "nonpayable",
            "type": "function"
        },
        {
            "inputs": [
                {
                    "internalType": "uint256",
                    "name": "_newMinContr",
                    "type": "uint256"
                }
            ],
            "name": "setMinContribution",
            "outputs": [],
            "stateMutability": "nonpayable",
            "type": "function"
        },
        {
            "inputs": [],
            "name": "setMinContribution",
            "outputs": [
                {
                    "internalType": "uint256",
                    "name": "",
                    "type": "uint256"
                }
            ],
            "stateMutability": "view",
            "type": "function"
        },
        {
            "inputs": [
                {
                    "internalType": "uint256",
                    "name": "_poolFees",
                    "type": "uint256"
                }
            ],
            "name": "setPoolFees",
            "outputs": [],
            "stateMutability": "nonpayable",
            "type": "function"
        },
        {
            "inputs": [
                {
                    "internalType": "bool",
                    "name": "_live",
                    "type": "bool"
                }
            ],
            "name": "setPoolLive",
            "outputs": [],
            "stateMutability": "nonpayable",
            "type": "function"
        },
        {
            "inputs": [
                {
                    "internalType": "uint256",
                    "name": "_maxSize",
                    "type": "uint256"
                }
            ],
            "name": "setPoolMaxSize",
            "outputs": [],
            "stateMutability": "nonpayable",
            "type": "function"
        },
        {
            "inputs": [
                {
                    "internalType": "uint256",
                    "name": "_rewardsInterest",
                    "type": "uint256"
                }
            ],
            "name": "setRewardsInterest",
            "outputs": [],
            "stateMutability": "nonpayable",
            "type": "function"
        },
        {
            "inputs": [
                {
                    "internalType": "uint256",
                    "name": "_daysToRewards",
                    "type": "uint256"
                }
            ],
            "name": "setRewardsInterval",
            "outputs": [],
            "stateMutability": "nonpayable",
            "type": "function"
        },
        {
            "inputs": [
                {
                    "internalType": "bytes4",
                    "name": "interfaceId",
                    "type": "bytes4"
                }
            ],
            "name": "supportsInterface",
            "outputs": [
                {
                    "internalType": "bool",
                    "name": "",
                    "type": "bool"
                }
            ],
            "stateMutability": "view",
            "type": "function"
        }
    ],
    "bytecode": "60806040523480156200001157600080fd5b50604051620019d4380380620019d48339810160408190526200003491620003c3565b60018055600280546001600160a01b0319166001600160a01b0383161790558062000061600033620000a9565b6200008d7f41a01ec0a13b563fa452569e3fbb116366d217c2769aa1561822e65a617e384233620000a9565b62000097620000b9565b50620000a262000220565b50620003f5565b620000b5828262000323565b5050565b6002546040516e636f6e74726163745f65786973747360881b60208201526001600160601b03193060601b16602f8201526001600160a01b039091169063988c515b9060430160408051601f198184030181529082905280516020909101206001600160e01b031960e084901b168252600482015260016024820152604401600060405180830381600087803b1580156200015357600080fd5b505af115801562000168573d6000803e3d6000fd5b50506002546040516f636f6e74726163745f6164647265737360801b602082015267506f6f6c4261736560c01b60308201526001600160a01b039091169250637221263a91506038015b60408051601f198184030181529082905280516020909101206001600160e01b031960e084901b1682526004820152306024820152604401600060405180830381600087803b1580156200020557600080fd5b505af11580156200021a573d6000803e3d6000fd5b50505050565b6002546040516e636f6e74726163745f65786973747360881b60208201526001600160601b03193060601b16602f8201526001600160a01b039091169063988c515b9060430160408051601f198184030181529082905280516020909101206001600160e01b031960e084901b168252600482015260016024820152604401600060405180830381600087803b158015620002ba57600080fd5b505af1158015620002cf573d6000803e3d6000fd5b50506002546040516f636f6e74726163745f6164647265737360801b60208201526c546f6b656e42616c616e63657360981b60308201526001600160a01b039091169250637221263a9150603d01620001b2565b6000828152602081815260408083206001600160a01b038516845290915290205460ff16620000b5576000828152602081815260408083206001600160a01b03851684529091529020805460ff191660011790556200037f3390565b6001600160a01b0316816001600160a01b0316837f2f8788117e7eff1d82e926ec794901d17c78024a50270940304540a733656f0d60405160405180910390a45050565b600060208284031215620003d657600080fd5b81516001600160a01b0381168114620003ee57600080fd5b9392505050565b6115cf80620004056000396000f3fe608060405234801561001057600080fd5b50600436106101a95760003560e01c806362308e85116100f9578063a217fddf11610097578063d1d8d06011610071578063d1d8d06014610342578063d547741f1461034a578063e2bcb3df1461035d578063fa1e19e51461036557600080fd5b8063a217fddf14610314578063a49755161461031c578063bf4c00361461032f57600080fd5b806372d099a0116100d357806372d099a0146102d35780637521796f146102e65780638dd225d5146102ee57806391d148541461030157600080fd5b806362308e85146102ae5780636402c262146102c357806370959ff8146102cb57600080fd5b80632f2ff15d11610166578063473b0d4611610140578063473b0d4614610278578063497d02411461028b57806353710f4914610293578063543edfb6146102a657600080fd5b80632f2ff15d1461023f57806336568abe1461025257806345077e711461026557600080fd5b806301ffc9a7146101ae578063095df57f146101d657806312646987146101ec578063217ac23714610201578063248a9ca31461020957806329ca15bc1461022c575b600080fd5b6101c16101bc3660046112ba565b61036d565b60405190151581526020015b60405180910390f35b6101de6103a4565b6040519081526020016101cd565b6101ff6101fa3660046112e4565b610461565b005b6101c161051a565b6101de6102173660046112e4565b60009081526020819052604090206001015490565b6101ff61023a366004611319565b6105bf565b6101ff61024d366004611334565b61061b565b6101ff610260366004611334565b610646565b6101ff610273366004611319565b6106c9565b6101ff6102863660046112e4565b610725565b6101de610828565b6101ff6102a13660046112e4565b61084e565b6101de6109a8565b6101de60008051602061157a83398151915281565b6101de6109d0565b6101de6109fa565b6101ff6102e13660046112e4565b610a25565b6101de610b2a565b6101ff6102fc3660046112e4565b610b5b565b6101c161030f366004611334565b610d74565b6101de600081565b6101ff61032a366004611371565b610d9d565b6101ff61033d3660046112e4565b610e17565b6101de610f23565b6101ff610358366004611334565b610f44565b6101de610f6a565b6101de610fa0565b60006001600160e01b03198216637965db0b60e01b148061039e57506301ffc9a760e01b6001600160e01b03198316145b92915050565b6000806040516020016103c8906a706f6f6c4d617853697a6560a81b8152600b0190565b60408051808303601f1901815290829052805160209091012060025463afc3602b60e01b8352600483018290529092506001600160a01b03169063afc3602b9060240160206040518083038186803b15801561042357600080fd5b505afa158015610437573d6000803e3d6000fd5b505050506040513d601f19601f8201168201806040525081019061045b919061138e565b91505090565b60008051602061157a83398151915261047a8133610fca565b6040516a706f6f6c4d617853697a6560a81b6020820152600090602b015b60408051808303601f190181529082905280516020909101206002546328192c5560e01b835260048301829052602483018690529092506001600160a01b0316906328192c55906044015b600060405180830381600087803b1580156104fd57600080fd5b505af1158015610511573d6000803e3d6000fd5b50505050505050565b60008060405160200161052c906113a7565b60408051808303601f190181529082905280516020909101206002546355d9465560e01b8352600483018290529092506001600160a01b0316906355d946559060240160206040518083038186803b15801561058757600080fd5b505afa15801561059b573d6000803e3d6000fd5b505050506040513d601f19601f8201168201806040525081019061045b91906113bd565b60006105cb8133610fca565b6105e360008051602061157a83398151915283610f44565b6040516001600160a01b038316907fef69f7d97228658c92417be1b16b19058315de71fecb435d07b7d23728b6bd3190600090a25050565b6000828152602081905260409020600101546106378133610fca565b610641838361102e565b505050565b6001600160a01b03811633146106bb5760405162461bcd60e51b815260206004820152602f60248201527f416363657373436f6e74726f6c3a2063616e206f6e6c792072656e6f756e636560448201526e103937b632b9903337b91039b2b63360891b60648201526084015b60405180910390fd5b6106c582826110b2565b5050565b60006106d58133610fca565b6106ed60008051602061157a8339815191528361061b565b6040516001600160a01b038316907fd873e3f571dc25e020cefdeb7255b3874ead3aade1f94a5fb4a5da831fd670cd90600090a25050565b60008051602061157a83398151915261073e8133610fca565b6002546040516001600160a01b03909116906355d9465590610762906020016113a7565b604051602081830303815290604052805190602001206040518263ffffffff1660e01b815260040161079691815260200190565b60206040518083038186803b1580156107ae57600080fd5b505afa1580156107c2573d6000803e3d6000fd5b505050506040513d601f19601f820116820180604052508101906107e691906113bd565b6108025760405162461bcd60e51b81526004016106b2906113da565b6040516e36b4b721b7b73a3934b13aba34b7b760891b6020820152600090602f01610498565b6000806040516020016103c8906c64617973546f5265776172647360981b8152600d0190565b60008051602061157a8339815191526108678133610fca565b6002546040516001600160a01b03909116906355d946559061088b906020016113a7565b604051602081830303815290604052805190602001206040518263ffffffff1660e01b81526004016108bf91815260200190565b60206040518083038186803b1580156108d757600080fd5b505afa1580156108eb573d6000803e3d6000fd5b505050506040513d601f19601f8201168201806040525081019061090f91906113bd565b61092b5760405162461bcd60e51b81526004016106b2906113da565b604080516c64617973546f5265776172647360981b6020808301919091528251600d818403018152602d90920190925280519101206002546001600160a01b03166328192c558261097f8662015180611427565b6040516001600160e01b031960e085901b168152600481019290925260248201526044016104e3565b6000806040516020016103c8906e36b4b721b7b73a3934b13aba34b7b760891b8152600f0190565b6000806040516020016103c890703a37ba30b629bab838363cafa2ba3432b960791b815260110190565b6000806040516020016103c890711d1bdd185b17d95d1a195c97dcdd185ad95960721b815260120190565b60008051602061157a833981519152610a3e8133610fca565b6002546040516001600160a01b03909116906355d9465590610a62906020016113a7565b604051602081830303815290604052805190602001206040518263ffffffff1660e01b8152600401610a9691815260200190565b60206040518083038186803b158015610aae57600080fd5b505afa158015610ac2573d6000803e3d6000fd5b505050506040513d601f19601f82011682018060405250810190610ae691906113bd565b610b025760405162461bcd60e51b81526004016106b2906113da565b6040517018dbdb9d1c9a589d5d1a5bdb931a5b5a5d607a1b6020820152600090603101610498565b6000806040516020016103c890771c995dd85c991cd25b9d195c995cdd14195c94195c9a5bd960421b815260180190565b60008051602061157a833981519152610b748133610fca565b6002546040516001600160a01b03909116906355d9465590610b98906020016113a7565b604051602081830303815290604052805190602001206040518263ffffffff1660e01b8152600401610bcc91815260200190565b60206040518083038186803b158015610be457600080fd5b505afa158015610bf8573d6000803e3d6000fd5b505050506040513d601f19601f82011682018060405250810190610c1c91906113bd565b610c385760405162461bcd60e51b81526004016106b2906113da565b60405167706f6f6c4665657360c01b60208201526000906028016040516020818303038152906040528051906020012090506000604051602001610c8d906a1c1bdbdb1199595cd4d95d60aa1b8152600b0190565b60408051808303601f190181529082905280516020909101206002546328192c5560e01b835260048301859052602483018790529092506001600160a01b0316906328192c5590604401600060405180830381600087803b158015610cf157600080fd5b505af1158015610d05573d6000803e3d6000fd5b505060025460405163988c515b60e01b815260048101859052600160248201526001600160a01b03909116925063988c515b9150604401600060405180830381600087803b158015610d5657600080fd5b505af1158015610d6a573d6000803e3d6000fd5b5050505050505050565b6000918252602082815260408084206001600160a01b0393909316845291905290205460ff1690565b60008051602061157a833981519152610db68133610fca565b6000604051602001610dc7906113a7565b60408051808303601f1901815290829052805160209091012060025463988c515b60e01b83526004830182905285151560248401529092506001600160a01b03169063988c515b906044016104e3565b60008051602061157a833981519152610e308133610fca565b6002546040516001600160a01b03909116906355d9465590610e54906020016113a7565b604051602081830303815290604052805190602001206040518263ffffffff1660e01b8152600401610e8891815260200190565b60206040518083038186803b158015610ea057600080fd5b505afa158015610eb4573d6000803e3d6000fd5b505050506040513d601f19601f82011682018060405250810190610ed891906113bd565b610ef45760405162461bcd60e51b81526004016106b2906113da565b604051771c995dd85c991cd25b9d195c995cdd14195c94195c9a5bd960421b6020820152600090603801610498565b6000806040516020016103c89067706f6f6c4665657360c01b815260080190565b600082815260208190526040902060010154610f608133610fca565b61064183836110b2565b6000806040516020016103c8907f746f74616c537570706c795f7265776172644574686572000000000000000000815260170190565b6000806040516020016103c8907018dbdb9d1c9a589d5d1a5bdb931a5b5a5d607a1b815260110190565b610fd48282610d74565b6106c557610fec816001600160a01b03166014611117565b610ff7836020611117565b604051602001611008929190611476565b60408051601f198184030181529082905262461bcd60e51b82526106b2916004016114eb565b6110388282610d74565b6106c5576000828152602081815260408083206001600160a01b03851684529091529020805460ff1916600117905561106e3390565b6001600160a01b0316816001600160a01b0316837f2f8788117e7eff1d82e926ec794901d17c78024a50270940304540a733656f0d60405160405180910390a45050565b6110bc8282610d74565b156106c5576000828152602081815260408083206001600160a01b0385168085529252808320805460ff1916905551339285917ff6391f5c32d9c69d2a47ea670b442974b53935d1edc7fd64eb21e047a839171b9190a45050565b60606000611126836002611427565b61113190600261151e565b67ffffffffffffffff81111561114957611149611536565b6040519080825280601f01601f191660200182016040528015611173576020820181803683370190505b509050600360fc1b8160008151811061118e5761118e61154c565b60200101906001600160f81b031916908160001a905350600f60fb1b816001815181106111bd576111bd61154c565b60200101906001600160f81b031916908160001a90535060006111e1846002611427565b6111ec90600161151e565b90505b6001811115611264576f181899199a1a9b1b9c1cb0b131b232b360811b85600f16601081106112205761122061154c565b1a60f81b8282815181106112365761123661154c565b60200101906001600160f81b031916908160001a90535060049490941c9361125d81611562565b90506111ef565b5083156112b35760405162461bcd60e51b815260206004820181905260248201527f537472696e67733a20686578206c656e67746820696e73756666696369656e7460448201526064016106b2565b9392505050565b6000602082840312156112cc57600080fd5b81356001600160e01b0319811681146112b357600080fd5b6000602082840312156112f657600080fd5b5035919050565b80356001600160a01b038116811461131457600080fd5b919050565b60006020828403121561132b57600080fd5b6112b3826112fd565b6000806040838503121561134757600080fd5b82359150611357602084016112fd565b90509250929050565b801515811461136e57600080fd5b50565b60006020828403121561138357600080fd5b81356112b381611360565b6000602082840312156113a057600080fd5b5051919050565b696973506f6f6c4c69766560b01b8152600a0190565b6000602082840312156113cf57600080fd5b81516112b381611360565b6020808252601d908201527f54686520706f6f6c2069732063757272656e746c7920636c6f7365642e000000604082015260600190565b634e487b7160e01b600052601160045260246000fd5b600081600019048311821515161561144157611441611411565b500290565b60005b83811015611461578181015183820152602001611449565b83811115611470576000848401525b50505050565b7f416363657373436f6e74726f6c3a206163636f756e74200000000000000000008152600083516114ae816017850160208801611446565b7001034b99036b4b9b9b4b733903937b6329607d1b60179184019182015283516114df816028840160208801611446565b01602801949350505050565b602081526000825180602084015261150a816040850160208701611446565b601f01601f19169190910160400192915050565b6000821982111561153157611531611411565b500190565b634e487b7160e01b600052604160045260246000fd5b634e487b7160e01b600052603260045260246000fd5b60008161157157611571611411565b50600019019056fe41a01ec0a13b563fa452569e3fbb116366d217c2769aa1561822e65a617e3842a2646970667358221220d02c73dad5c09ebc6e3d882f7d6d4d82b3fb3f920fdfe698d640fae86b0ff9fd64736f6c63430008090033",
    "sourcePath": "c:/Users/Lior/Desktop/Index/Coding Software/GitHub/challenge/contracts/TokenBalances.sol",
    "compiler": {
        "name": "solc",
        "version": "0.8.9+commit.e5eed63a"
    },
    "functionHashes": {
        "DEFAULT_ADMIN_ROLE()": "a217fddf",
        "POOL_MANAGER()": "62308e85",
        "addPoolManager(address)": "45077e71",
        "getContributionLimit()": "fa1e19e5",
        "getPoolFees()": "d1d8d060",
        "getPoolMaxSize()": "095df57f",
        "getPoolState()": "217ac237",
        "getRewardsInterest()": "7521796f",
        "getRewardsInterval()": "497d0241",
        "getRoleAdmin(bytes32)": "248a9ca3",
        "getTotalEthSupply()": "6402c262",
        "getTotalEtherStaked()": "70959ff8",
        "getTotalrwEthSupply()": "e2bcb3df",
        "grantRole(bytes32,address)": "2f2ff15d",
        "hasRole(bytes32,address)": "91d14854",
        "removePoolManager(address)": "29ca15bc",
        "renounceRole(bytes32,address)": "36568abe",
        "revokeRole(bytes32,address)": "d547741f",
        "setContributionLimit(uint256)": "72d099a0",
        "setMinContribution()": "543edfb6",
        "setMinContribution(uint256)": "473b0d46",
        "setPoolFees(uint256)": "8dd225d5",
        "setPoolLive(bool)": "a4975516",
        "setPoolMaxSize(uint256)": "12646987",
        "setRewardsInterest(uint256)": "bf4c0036",
        "setRewardsInterval(uint256)": "53710f49",
        "supportsInterface(bytes4)": "01ffc9a7"
    },
    "gasEstimates": {
        "creation": {
            "codeDepositCost": "1116600",
            "executionCost": "infinite",
            "totalCost": "infinite"
        },
        "external": {
            "DEFAULT_ADMIN_ROLE()": "240",
            "POOL_MANAGER()": "infinite",
            "addPoolManager(address)": "infinite",
            "getContributionLimit()": "infinite",
            "getPoolFees()": "infinite",
            "getPoolMaxSize()": "infinite",
            "getPoolState()": "infinite",
            "getRewardsInterest()": "infinite",
            "getRewardsInterval()": "infinite",
            "getRoleAdmin(bytes32)": "2559",
            "getTotalEthSupply()": "infinite",
            "getTotalEtherStaked()": "infinite",
            "getTotalrwEthSupply()": "infinite",
            "grantRole(bytes32,address)": "infinite",
            "hasRole(bytes32,address)": "2762",
            "removePoolManager(address)": "infinite",
            "renounceRole(bytes32,address)": "29063",
            "revokeRole(bytes32,address)": "infinite",
            "setContributionLimit(uint256)": "infinite",
            "setMinContribution()": "infinite",
            "setMinContribution(uint256)": "infinite",
            "setPoolFees(uint256)": "infinite",
            "setPoolLive(bool)": "infinite",
            "setPoolMaxSize(uint256)": "infinite",
            "setRewardsInterest(uint256)": "infinite",
            "setRewardsInterval(uint256)": "infinite",
            "supportsInterface(bytes4)": "450"
        },
        "internal": {
            "_setTokenBalancesAddress()": "infinite"
        }
    }
}