{
  "contractName": "ETHpool",
  "abi": [
    {
      "inputs": [],
      "stateMutability": "nonpayable",
      "type": "constructor"
    },
    {
      "anonymous": false,
      "inputs": [
        {
          "indexed": false,
          "internalType": "uint256",
          "name": "_poolBalance",
          "type": "uint256"
        },
        {
          "indexed": false,
          "internalType": "uint256",
          "name": "_rewards",
          "type": "uint256"
        }
      ],
      "name": "DepositRewardsEvent",
      "type": "event"
    },
    {
      "anonymous": false,
      "inputs": [
        {
          "indexed": true,
          "internalType": "address",
          "name": "_from",
          "type": "address"
        },
        {
          "indexed": false,
          "internalType": "uint256",
          "name": "_value",
          "type": "uint256"
        }
      ],
      "name": "StakeEvent",
      "type": "event"
    },
    {
      "anonymous": false,
      "inputs": [
        {
          "indexed": true,
          "internalType": "address",
          "name": "_to",
          "type": "address"
        },
        {
          "indexed": false,
          "internalType": "uint256",
          "name": "_value",
          "type": "uint256"
        }
      ],
      "name": "WithdrawEvent",
      "type": "event"
    },
    {
      "inputs": [
        {
          "internalType": "address",
          "name": "",
          "type": "address"
        }
      ],
      "name": "Team",
      "outputs": [
        {
          "internalType": "string",
          "name": "_name",
          "type": "string"
        },
        {
          "internalType": "bool",
          "name": "_role",
          "type": "bool"
        }
      ],
      "stateMutability": "view",
      "type": "function",
      "constant": true
    },
    {
      "inputs": [
        {
          "internalType": "address",
          "name": "",
          "type": "address"
        }
      ],
      "name": "UserList",
      "outputs": [
        {
          "internalType": "uint256",
          "name": "_currentBalance",
          "type": "uint256"
        },
        {
          "internalType": "uint256",
          "name": "_compositionAtStartStaking",
          "type": "uint256"
        },
        {
          "internalType": "uint256",
          "name": "_timeStaking",
          "type": "uint256"
        }
      ],
      "stateMutability": "view",
      "type": "function",
      "constant": true
    },
    {
      "inputs": [],
      "name": "name",
      "outputs": [
        {
          "internalType": "string",
          "name": "",
          "type": "string"
        }
      ],
      "stateMutability": "view",
      "type": "function",
      "constant": true
    },
    {
      "inputs": [],
      "name": "poolStatus",
      "outputs": [
        {
          "internalType": "uint256",
          "name": "poolBalance",
          "type": "uint256"
        },
        {
          "internalType": "uint256",
          "name": "rewardsBalance",
          "type": "uint256"
        },
        {
          "internalType": "uint256",
          "name": "lastRewardMultiplied",
          "type": "uint256"
        },
        {
          "internalType": "uint256",
          "name": "rewardsCount",
          "type": "uint256"
        },
        {
          "internalType": "uint256",
          "name": "lastRewardTime",
          "type": "uint256"
        },
        {
          "internalType": "enum ETHpool.State",
          "name": "status",
          "type": "uint8"
        }
      ],
      "stateMutability": "view",
      "type": "function",
      "constant": true
    },
    {
      "inputs": [],
      "name": "DepositRewards",
      "outputs": [
        {
          "internalType": "uint256",
          "name": "poolbalance",
          "type": "uint256"
        }
      ],
      "stateMutability": "payable",
      "type": "function",
      "payable": true
    },
    {
      "inputs": [],
      "name": "Stake",
      "outputs": [],
      "stateMutability": "payable",
      "type": "function",
      "payable": true
    },
    {
      "inputs": [],
      "name": "Withdraw",
      "outputs": [
        {
          "internalType": "uint256",
          "name": "sent",
          "type": "uint256"
        }
      ],
      "stateMutability": "nonpayable",
      "type": "function"
    },
    {
      "inputs": [],
      "name": "computeRewards",
      "outputs": [
        {
          "internalType": "uint256",
          "name": "withdrawable",
          "type": "uint256"
        }
      ],
      "stateMutability": "view",
      "type": "function",
      "constant": true
    },
    {
      "inputs": [],
      "name": "pausePool",
      "outputs": [],
      "stateMutability": "nonpayable",
      "type": "function"
    },
    {
      "inputs": [],
      "name": "endPool",
      "outputs": [],
      "stateMutability": "nonpayable",
      "type": "function"
    },
    {
      "inputs": [],
      "name": "resumePool",
      "outputs": [],
      "stateMutability": "nonpayable",
      "type": "function"
    },
    {
      "inputs": [
        {
          "internalType": "address",
          "name": "teamAddress",
          "type": "address"
        },
        {
          "internalType": "bool",
          "name": "role",
          "type": "bool"
        }
      ],
      "name": "modifyTeam",
      "outputs": [],
      "stateMutability": "nonpayable",
      "type": "function"
    }
  ],
  "bytecode": "0x608060405234801561001057600080fd5b5060018060003373ffffffffffffffffffffffffffffffffffffffff1673ffffffffffffffffffffffffffffffffffffffff16815260200190815260200160002060010160006101000a81548160ff0219169083151502179055506000600260050160006101000a81548160ff02191690836002811115610094576100936100c9565b5b0217905550600060026000018190555060006002600101819055506000600280018190555060006002600301819055506100f8565b7f4e487b7100000000000000000000000000000000000000000000000000000000600052602160045260246000fd5b611b6b806101076000396000f3fe6080604052600436106100a75760003560e01c8063ac0679a611610064578063ac0679a614610172578063b9ba5f8b1461019b578063d515b1ce146101b9578063de20bc92146101f7578063eb63a59e14610201578063f022869214610240576100a7565b806306fdde03146100ac57806311ec106b146100d75780632d42cf7d146100ee57806357ea89b6146101055780637c1b7f8a14610130578063aa09d5b71461015b575b600080fd5b3480156100b857600080fd5b506100c1610270565b6040516100ce9190611301565b60405180910390f35b3480156100e357600080fd5b506100ec6102a9565b005b3480156100fa57600080fd5b5061010361036f565b005b34801561011157600080fd5b5061011a610434565b604051610127919061133c565b60405180910390f35b34801561013c57600080fd5b50610145610750565b604051610152919061133c565b60405180910390f35b34801561016757600080fd5b5061017061088a565b005b34801561017e57600080fd5b50610199600480360381019061019491906113f2565b610950565b005b6101a3610a44565b6040516101b0919061133c565b60405180910390f35b3480156101c557600080fd5b506101e060048036038101906101db9190611432565b610d2c565b6040516101ee92919061146e565b60405180910390f35b6101ff610de5565b005b34801561020d57600080fd5b5061022860048036038101906102239190611432565b611207565b6040516102379392919061149e565b60405180910390f35b34801561024c57600080fd5b50610255611231565b6040516102679695949392919061154c565b60405180910390f35b6040518060400160405280600781526020017f455448706f6f6c0000000000000000000000000000000000000000000000000081525081565b60011515600160003373ffffffffffffffffffffffffffffffffffffffff1673ffffffffffffffffffffffffffffffffffffffff16815260200190815260200160002060010160009054906101000a900460ff1615151461033f576040517f08c379a00000000000000000000000000000000000000000000000000000000081526004016103369061161f565b60405180910390fd5b6000600260050160006101000a81548160ff02191690836002811115610368576103676114d5565b5b0217905550565b60011515600160003373ffffffffffffffffffffffffffffffffffffffff1673ffffffffffffffffffffffffffffffffffffffff16815260200190815260200160002060010160009054906101000a900460ff16151514610405576040517f08c379a00000000000000000000000000000000000000000000000000000000081526004016103fc9061161f565b60405180910390fd5b60028060050160006101000a81548160ff0219169083600281111561042d5761042c6114d5565b5b0217905550565b6000806000803373ffffffffffffffffffffffffffffffffffffffff1673ffffffffffffffffffffffffffffffffffffffff16815260200190815260200160002060000154116104b9576040517f08c379a00000000000000000000000000000000000000000000000000000000081526004016104b0906116b1565b60405180910390fd5b600160028111156104cd576104cc6114d5565b5b600260050160009054906101000a900460ff1660028111156104f2576104f16114d5565b5b03610532576040517f08c379a000000000000000000000000000000000000000000000000000000000815260040161052990611743565b60405180910390fd5b60008060003373ffffffffffffffffffffffffffffffffffffffff1673ffffffffffffffffffffffffffffffffffffffff1681526020019081526020016000206000015490506000610582610750565b9050600081836105929190611792565b905082600260000160008282546105a991906117e8565b9250508190555081600260010160008282546105c591906117e8565b9250508190555060008060003373ffffffffffffffffffffffffffffffffffffffff1673ffffffffffffffffffffffffffffffffffffffff168152602001908152602001600020600001819055503373ffffffffffffffffffffffffffffffffffffffff166108fc829081150290604051600060405180830381858888f19350505050156106ff576000803373ffffffffffffffffffffffffffffffffffffffff1673ffffffffffffffffffffffffffffffffffffffff1681526020019081526020016000206000808201600090556001820160009055600282016000905550503373ffffffffffffffffffffffffffffffffffffffff167f5dba113b49cfa7c90315e8e604e6b506f7abcb909b01dcb19ec39005086e68fc826040516106ec919061133c565b60405180910390a280935050505061074d565b826000803373ffffffffffffffffffffffffffffffffffffffff1673ffffffffffffffffffffffffffffffffffffffff16815260200190815260200160002060000181905550600093505050505b90565b6000806000803373ffffffffffffffffffffffffffffffffffffffff1673ffffffffffffffffffffffffffffffffffffffff16815260200190815260200160002060000154116107d5576040517f08c379a00000000000000000000000000000000000000000000000000000000081526004016107cc906116b1565b60405180910390fd5b678ac7230489e800006000803373ffffffffffffffffffffffffffffffffffffffff1673ffffffffffffffffffffffffffffffffffffffff16815260200190815260200160002060010154600280015461082f91906117e8565b6000803373ffffffffffffffffffffffffffffffffffffffff1673ffffffffffffffffffffffffffffffffffffffff1681526020019081526020016000206000015461087b919061181c565b61088591906118a5565b905090565b60011515600160003373ffffffffffffffffffffffffffffffffffffffff1673ffffffffffffffffffffffffffffffffffffffff16815260200190815260200160002060010160009054906101000a900460ff16151514610920576040517f08c379a00000000000000000000000000000000000000000000000000000000081526004016109179061161f565b60405180910390fd5b6001600260050160006101000a81548160ff02191690836002811115610949576109486114d5565b5b0217905550565b60011515600160003373ffffffffffffffffffffffffffffffffffffffff1673ffffffffffffffffffffffffffffffffffffffff16815260200190815260200160002060010160009054906101000a900460ff161515146109e6576040517f08c379a00000000000000000000000000000000000000000000000000000000081526004016109dd9061161f565b60405180910390fd5b80600160008473ffffffffffffffffffffffffffffffffffffffff1673ffffffffffffffffffffffffffffffffffffffff16815260200190815260200160002060010160006101000a81548160ff0219169083151502179055505050565b600060011515600160003373ffffffffffffffffffffffffffffffffffffffff1673ffffffffffffffffffffffffffffffffffffffff16815260200190815260200160002060010160009054906101000a900460ff16151514610adc576040517f08c379a0000000000000000000000000000000000000000000000000000000008152600401610ad39061161f565b60405180910390fd5b60016002811115610af057610aef6114d5565b5b600260050160009054906101000a900460ff166002811115610b1557610b146114d5565b5b03610b55576040517f08c379a0000000000000000000000000000000000000000000000000000000008152600401610b4c90611743565b60405180910390fd5b600280811115610b6857610b676114d5565b5b600260050160009054906101000a900460ff166002811115610b8d57610b8c6114d5565b5b03610bcd576040517f08c379a0000000000000000000000000000000000000000000000000000000008152600401610bc490611948565b60405180910390fd5b60003411610c10576040517f08c379a0000000000000000000000000000000000000000000000000000000008152600401610c07906119b4565b60405180910390fd5b600060026000015414610ca35742600260040181905550600260000154678ac7230489e8000034610c41919061181c565b610c4b91906118a5565b600280016000828254610c5e9190611792565b925050819055503460026001016000828254610c7a9190611792565b92505081905550600160026003016000828254610c979190611792565b92505081905550610cde565b6040517f08c379a0000000000000000000000000000000000000000000000000000000008152600401610cd590611a20565b60405180910390fd5b7f277795e41191c7435317bb3d7b4884a9412d1a36f88b2a6053edbdf534a88e02600260000154600260010154604051610d19929190611a40565b60405180910390a1600260000154905090565b6001602052806000526040600020600091509050806000018054610d4f90611a98565b80601f0160208091040260200160405190810160405280929190818152602001828054610d7b90611a98565b8015610dc85780601f10610d9d57610100808354040283529160200191610dc8565b820191906000526020600020905b815481529060010190602001808311610dab57829003601f168201915b5050505050908060010160009054906101000a900460ff16905082565b60016002811115610df957610df86114d5565b5b600260050160009054906101000a900460ff166002811115610e1e57610e1d6114d5565b5b03610e5e576040517f08c379a0000000000000000000000000000000000000000000000000000000008152600401610e5590611743565b60405180910390fd5b600280811115610e7157610e706114d5565b5b600260050160009054906101000a900460ff166002811115610e9657610e956114d5565b5b03610ed6576040517f08c379a0000000000000000000000000000000000000000000000000000000008152600401610ecd90611948565b60405180910390fd5b60003411610f19576040517f08c379a0000000000000000000000000000000000000000000000000000000008152600401610f1090611b15565b60405180910390fd5b60008060003373ffffffffffffffffffffffffffffffffffffffff1673ffffffffffffffffffffffffffffffffffffffff168152602001908152602001600020600001540361105957346000803373ffffffffffffffffffffffffffffffffffffffff1673ffffffffffffffffffffffffffffffffffffffff1681526020019081526020016000206000018190555060028001546000803373ffffffffffffffffffffffffffffffffffffffff1673ffffffffffffffffffffffffffffffffffffffff16815260200190815260200160002060010181905550426000803373ffffffffffffffffffffffffffffffffffffffff1673ffffffffffffffffffffffffffffffffffffffff16815260200190815260200160002060020181905550346002600001600082825461104d9190611792565b92505081905550611176565b600034611064610750565b61106e9190611792565b9050806000803373ffffffffffffffffffffffffffffffffffffffff1673ffffffffffffffffffffffffffffffffffffffff16815260200190815260200160002060000160008282546110c19190611792565b9250508190555060028001546000803373ffffffffffffffffffffffffffffffffffffffff1673ffffffffffffffffffffffffffffffffffffffff16815260200190815260200160002060010181905550426000803373ffffffffffffffffffffffffffffffffffffffff1673ffffffffffffffffffffffffffffffffffffffff16815260200190815260200160002060020181905550806002600001600082825461116d9190611792565b92505081905550505b3373ffffffffffffffffffffffffffffffffffffffff167fb58845b0a64f92dd8d1ba04f905319d6be2021b57783b3d10155e7e36a84e1286000803373ffffffffffffffffffffffffffffffffffffffff1673ffffffffffffffffffffffffffffffffffffffff168152602001908152602001600020600001546040516111fd919061133c565b60405180910390a2565b60006020528060005260406000206000915090508060000154908060010154908060020154905083565b60028060000154908060010154908060020154908060030154908060040154908060050160009054906101000a900460ff16905086565b600081519050919050565b600082825260208201905092915050565b60005b838110156112a2578082015181840152602081019050611287565b838111156112b1576000848401525b50505050565b6000601f19601f8301169050919050565b60006112d382611268565b6112dd8185611273565b93506112ed818560208601611284565b6112f6816112b7565b840191505092915050565b6000602082019050818103600083015261131b81846112c8565b905092915050565b6000819050919050565b61133681611323565b82525050565b6000602082019050611351600083018461132d565b92915050565b600080fd5b600073ffffffffffffffffffffffffffffffffffffffff82169050919050565b60006113878261135c565b9050919050565b6113978161137c565b81146113a257600080fd5b50565b6000813590506113b48161138e565b92915050565b60008115159050919050565b6113cf816113ba565b81146113da57600080fd5b50565b6000813590506113ec816113c6565b92915050565b6000806040838503121561140957611408611357565b5b6000611417858286016113a5565b9250506020611428858286016113dd565b9150509250929050565b60006020828403121561144857611447611357565b5b6000611456848285016113a5565b91505092915050565b611468816113ba565b82525050565b6000604082019050818103600083015261148881856112c8565b9050611497602083018461145f565b9392505050565b60006060820190506114b3600083018661132d565b6114c0602083018561132d565b6114cd604083018461132d565b949350505050565b7f4e487b7100000000000000000000000000000000000000000000000000000000600052602160045260246000fd5b60038110611515576115146114d5565b5b50565b600081905061152682611504565b919050565b600061153682611518565b9050919050565b6115468161152b565b82525050565b600060c082019050611561600083018961132d565b61156e602083018861132d565b61157b604083018761132d565b611588606083018661132d565b611595608083018561132d565b6115a260a083018461153d565b979650505050505050565b7f4f6e6c7920746865205465616d2063616e2063616c6c20746869732066756e6360008201527f74696f6e2e000000000000000000000000000000000000000000000000000000602082015250565b6000611609602583611273565b9150611614826115ad565b604082019050919050565b60006020820190508181036000830152611638816115fc565b9050919050565b7f4f6e6c79207374616b65686f6c646572732063616e207573652074686973206660008201527f756e6374696f6e2e000000000000000000000000000000000000000000000000602082015250565b600061169b602883611273565b91506116a68261163f565b604082019050919050565b600060208201905081810360008301526116ca8161168e565b9050919050565b7f455448706f6f6c206973207061757365642e2054686973206f7065726174696f60008201527f6e206973206e6f7420616c6c6f7765642e000000000000000000000000000000602082015250565b600061172d603183611273565b9150611738826116d1565b604082019050919050565b6000602082019050818103600083015261175c81611720565b9050919050565b7f4e487b7100000000000000000000000000000000000000000000000000000000600052601160045260246000fd5b600061179d82611323565b91506117a883611323565b9250827fffffffffffffffffffffffffffffffffffffffffffffffffffffffffffffffff038211156117dd576117dc611763565b5b828201905092915050565b60006117f382611323565b91506117fe83611323565b92508282101561181157611810611763565b5b828203905092915050565b600061182782611323565b915061183283611323565b9250817fffffffffffffffffffffffffffffffffffffffffffffffffffffffffffffffff048311821515161561186b5761186a611763565b5b828202905092915050565b7f4e487b7100000000000000000000000000000000000000000000000000000000600052601260045260246000fd5b60006118b082611323565b91506118bb83611323565b9250826118cb576118ca611876565b5b828204905092915050565b7f455448706f6f6c20697320656e6465642e204f6e6c792077697468647261776160008201527f6c7320616c6c6f7765642e000000000000000000000000000000000000000000602082015250565b6000611932602b83611273565b915061193d826118d6565b604082019050919050565b6000602082019050818103600083015261196181611925565b9050919050565b7f52657761726473206d7573742062652067726561746572207468616e20302e00600082015250565b600061199e601f83611273565b91506119a982611968565b602082019050919050565b600060208201905081810360008301526119cd81611991565b9050919050565b7f506f6f6c20697320656d70747921000000000000000000000000000000000000600082015250565b6000611a0a600e83611273565b9150611a15826119d4565b602082019050919050565b60006020820190508181036000830152611a39816119fd565b9050919050565b6000604082019050611a55600083018561132d565b611a62602083018461132d565b9392505050565b7f4e487b7100000000000000000000000000000000000000000000000000000000600052602260045260246000fd5b60006002820490506001821680611ab057607f821691505b602082108103611ac357611ac2611a69565b5b50919050565b7f5374616b65206d7573742062652067726561746572207468616e20302e000000600082015250565b6000611aff601d83611273565b9150611b0a82611ac9565b602082019050919050565b60006020820190508181036000830152611b2e81611af2565b905091905056fea26469706673582212205b03ba226102038fc2feae40772e275928588c8426f9a74e6fc0d25ad32ffda364736f6c634300080d0033",
  "immutableReferences": {},
  "source": "//SPDX-License-Identifier: GPL-3.0\n\npragma solidity >=0.8.0 <0.9.0;\n// >0.8 to avoid use of SafeMath functions\n//But, if you want it...\n//import \"github.com/OpenZeppelin/zeppelin-solidity/contracts/math/SafeMath.sol\";\n//using SafeMath for uint; // \n//Better use Pausable Library, but it's only for fun\n\n/*\nSummary\nETHPool provides a service where people can deposit ETH and they will receive weekly rewards. \nUsers must be able to take out their deposits along with their portion of rewards at any time. \nNew rewards are deposited manually into the pool by the ETHPool team each week using a contract function.\n\nRequirements\nOnly the team can deposit rewards.\nDeposited rewards go to the pool of users, not to individual users.\nUsers should be able to withdraw their deposits along with their share of rewards considering the time when they deposited.\nExample:\n\nLet say we have user A and B and team T.\n\nA deposits 100, and B deposits 300 for a total of 400 in the pool.\nNow A has 25% of the pool and B has 75%. \nWhen T deposits 200 rewards, A should be able to withdraw 150 and B 450.\n\nWhat if the following happens? \nA deposits then T deposits then B deposits then A withdraws and finally B withdraws. \nA should get their deposit + all the rewards. \nB should only get their deposit because rewards were sent to the pool before they participated.\n*/\n\n/* \n    How it works?\n    First of all, we need to understand that the reward mechanism cannot be automatic. (No FOR or WHILE allowed!)\n    So, the stakeholders by themselves need to calculate their own reward (Don't worry, a function will do for us)\n\n    Because the staking cannot be negative, we will save the accumulation of rewards proportional to the pool at the time of deposit.\n    For each stakeholder, we will save the composition of the pool at the time of staking.\n    To calculate the reward, we will substract the sum of rewards at the current time minus the composition of the pool at the time of staking for each user.\n    This is the explanation of why cannot be automatic at the time of deposit rewards.\n\n    Some assumptions has been taken:\n    - Users withdrawn all of the staking and rewards. No partial withdraw allowed (Well, in fact, can be a full withdraw with a new deposit of the diff)\n    - Users cannot add funds to their staking (As above, we can consider a full withdraw, and a new staking)\n    - Some constants will be multiplied for an arbitrary big constant (10^18), to reduce rounding errors in division.\n    - Can be optimized for gas consumption. But for this challenge and for educational purposes, we can take the risk. And testnet is \"free\".\n    - Bugs? Everywhere. Not ready for production or resale.\n\n    Credits: https://explorer.callisto.network/address/0xE2E4Cf144F4365AAa023da04918A64072C284201/contracts\n    (Thanks Erik!)\n*/\n\ncontract ETHpool {\n    string public constant name = \"ETHpool\";\n    enum State {Running, Paused, Ended } //staking can be done only if it state is running.\n    uint constant ROUNDING_CONSTANT = 10e18; //To minimize rounding errors at divisions\n\n    struct TeamMember { //there are no specifications for TEAM, so, I understand that can be a lot of people.\n        string _name; //It's not necessary\n        bool _role; // True for active Team Members\n    }\n\n    struct Stakeholder {\n        uint _currentBalance;\n        uint _compositionAtStartStaking;\n        uint _timeStaking;\n    }\n\n    struct Pool {\n        uint poolBalance;\n        uint rewardsBalance;\n        uint lastRewardMultiplied;\n        uint rewardsCount;\n        uint lastRewardTime;\n        State status;\n    }\n\n    mapping( address => Stakeholder) public UserList;\n    mapping( address => TeamMember) public Team;\n    Pool public poolStatus;\n\n    //Some events to get data outside of the blockchain\n    event StakeEvent(address indexed _from, uint _value);\n    event WithdrawEvent(address indexed _to, uint _value);\n    event DepositRewardsEvent(uint _poolBalance, uint _rewards);\n\n\n\n    constructor(){\n        Team[msg.sender]._role = true; // Team member role assigned.\n        poolStatus.status = State.Running;\n        poolStatus.poolBalance = 0; // Do not transfer at construction time!\n        poolStatus.rewardsBalance = 0; // Do not transfer at construction time\n        poolStatus.lastRewardMultiplied = 0;\n        poolStatus.rewardsCount = 0;\n    }\n\n\n    // The main functions: Stake() , DepositRewards() , Withdraw()\n\n    // DepositRewards: The team can call this function to deposit rewards to the pool.\n    // It will update the last reward of the pool, as rewards*ROUNDING_CONSTANT/PoolBalance\n    function DepositRewards() external payable onlyTeam notPaused notEnded returns(uint poolbalance) {\n        require( msg.value > 0, \"Rewards must be greater than 0.\" );\n        if( poolStatus.poolBalance != 0) {\n            poolStatus.lastRewardTime = block.timestamp;\n            poolStatus.lastRewardMultiplied += (msg.value * ROUNDING_CONSTANT) / poolStatus.poolBalance;\n            poolStatus.rewardsBalance += msg.value;\n            poolStatus.rewardsCount += 1;\n        }\n        else{\n            revert(\"Pool is empty!\");\n        }\n        emit DepositRewardsEvent(poolStatus.poolBalance, poolStatus.rewardsBalance);\n        return poolStatus.poolBalance;\n    }\n    \n    // Stake: The users can call \"Stake\" to stake some ETH (or your network coin of value)\n    // All network users can perform this function, to become \"USERS\"\n    // TODO: We need to check if the user already exists, and **need to perform first a withdrawal next to a new deposit**.\n    // In V2, it will be an automatic claim.\n\n    function Stake() external notPaused notEnded payable {\n        require(msg.value > 0, \"Stake must be greater than 0.\");\n        if( UserList[msg.sender]._currentBalance == 0 ) { //first staking\n            UserList[msg.sender]._currentBalance = msg.value;\n            UserList[msg.sender]._compositionAtStartStaking = poolStatus.lastRewardMultiplied;\n            UserList[msg.sender]._timeStaking = block.timestamp;\n            poolStatus.poolBalance += msg.value;\n        }\n        else { //User add more funds to their stake\n            uint newStaking = computeRewards()+msg.value; //Add old rewards plus new funds\n            UserList[msg.sender]._currentBalance += newStaking;\n            UserList[msg.sender]._compositionAtStartStaking = poolStatus.lastRewardMultiplied; //compute from now\n            UserList[msg.sender]._timeStaking = block.timestamp;\n            poolStatus.poolBalance += newStaking; //do not forget old funds!\n        }\n        emit StakeEvent(msg.sender, UserList[msg.sender]._currentBalance);\n    }\n\n    // Withdraw: Allows users to withdraw their deposits and rewards proportional at the time being.\n    // FIXME: At now, only allows full withdrawals.\n    function Withdraw() external onlyUsers notPaused returns(uint sent){\n        uint balanceFromPool = UserList[msg.sender]._currentBalance; //deposit\n        uint balanceFromRewards = computeRewards();                 // rewards\n        uint allowedToWithdraw =  balanceFromPool+balanceFromRewards ;\n        poolStatus.poolBalance -= balanceFromPool; // From pool\n        poolStatus.rewardsBalance -= balanceFromRewards; // From rewards\n        UserList[msg.sender]._currentBalance = 0;\n\n        // Did you reentrant? (yes) what did it cost? (everything)\n        if (payable(msg.sender).send(allowedToWithdraw)) {        \n            delete UserList[msg.sender];\n            emit WithdrawEvent(msg.sender,allowedToWithdraw);\n            return allowedToWithdraw;\n        } else {\n            UserList[msg.sender]._currentBalance = balanceFromPool;\n            return 0;\n        }\n    }\n\n    // Viewer functions: Allows users and team to see some computations.\n    function computeRewards() public view onlyUsers returns(uint withdrawable){\n        return (UserList[msg.sender]._currentBalance * ( poolStatus.lastRewardMultiplied - UserList[msg.sender]._compositionAtStartStaking)) / ROUNDING_CONSTANT ;\n    }\n\n    //Pool Administration functions\n    function pausePool() external onlyTeam { //If something went wrong, and we need time to proceed.\n        poolStatus.status = State.Paused;\n    }\n\n    function endPool() external onlyTeam {\n        poolStatus.status = State.Ended; //If the pool dies. Only allow users to withdraw their funds.\n    }\n\n    function resumePool() external onlyTeam {\n        poolStatus.status = State.Running; //Everything is up and running.\n    }\n\n    function modifyTeam(address teamAddress , bool role) external onlyTeam {\n        Team[teamAddress]._role = role;\n    }\n\n    //Modifiers section\n    modifier onlyUsers() {\n        require( UserList[msg.sender]._currentBalance > 0 , \"Only stakeholders can use this function.\");\n        _;\n    }\n\n    modifier onlyTeam() {\n        require(Team[msg.sender]._role == true, \"Only the Team can call this function.\");\n        _;\n    }\n\n    modifier notPaused() {\n        require( poolStatus.status != State.Paused, \"ETHpool is paused. This operation is not allowed.\");\n        _;\n    }\n\n    modifier notEnded() {\n        require( poolStatus.status != State.Ended, \"ETHpool is ended. Only withdrawals allowed.\");\n        _;  \n    }\n}",
  "sourcePath": "T:\\Desarrollos\\Experimentos\\Exactly\\exactly-private\\contracts\\ETHpool.sol",
  "compiler": {
    "name": "solc",
    "version": "0.8.13+commit.abaa5c0e.Emscripten.clang"
  },
  "schemaVersion": "3.4.7",
  "updatedAt": "2022-04-13T20:54:09.400Z",
  "networkType": "ethereum",
  "devdoc": {
    "kind": "dev",
    "methods": {},
    "version": 1
  },
  "userdoc": {
    "kind": "user",
    "methods": {},
    "version": 1
  }
}