{
  "contractName": "ETHpool",
  "abi": [
    {
      "inputs": [],
      "stateMutability": "nonpayable",
      "type": "constructor"
    },
    {
      "inputs": [
        {
          "internalType": "address",
          "name": "",
          "type": "address"
        }
      ],
      "name": "Team",
      "outputs": [
        {
          "internalType": "address",
          "name": "_addr",
          "type": "address"
        },
        {
          "internalType": "string",
          "name": "_name",
          "type": "string"
        },
        {
          "internalType": "uint256",
          "name": "_role",
          "type": "uint256"
        }
      ],
      "stateMutability": "view",
      "type": "function"
    },
    {
      "inputs": [
        {
          "internalType": "address",
          "name": "",
          "type": "address"
        }
      ],
      "name": "UserList",
      "outputs": [
        {
          "internalType": "uint256",
          "name": "_currentBalance",
          "type": "uint256"
        },
        {
          "internalType": "uint256",
          "name": "_compositionAtStartStaking",
          "type": "uint256"
        },
        {
          "internalType": "uint256",
          "name": "_timeStaking",
          "type": "uint256"
        }
      ],
      "stateMutability": "view",
      "type": "function"
    },
    {
      "inputs": [],
      "name": "name",
      "outputs": [
        {
          "internalType": "string",
          "name": "",
          "type": "string"
        }
      ],
      "stateMutability": "view",
      "type": "function"
    },
    {
      "inputs": [],
      "name": "poolStatus",
      "outputs": [
        {
          "internalType": "uint256",
          "name": "poolBalance",
          "type": "uint256"
        },
        {
          "internalType": "uint256",
          "name": "lastRewardMultiplied",
          "type": "uint256"
        },
        {
          "internalType": "uint256",
          "name": "rewardsCount",
          "type": "uint256"
        },
        {
          "internalType": "uint256",
          "name": "lastRewardTime",
          "type": "uint256"
        },
        {
          "internalType": "enum ETHpool.State",
          "name": "status",
          "type": "uint8"
        }
      ],
      "stateMutability": "view",
      "type": "function"
    },
    {
      "inputs": [],
      "name": "DepositRewards",
      "outputs": [
        {
          "internalType": "uint256",
          "name": "poolbalance",
          "type": "uint256"
        }
      ],
      "stateMutability": "payable",
      "type": "function"
    },
    {
      "inputs": [],
      "name": "Stake",
      "outputs": [],
      "stateMutability": "payable",
      "type": "function"
    },
    {
      "inputs": [],
      "name": "Withdraw",
      "outputs": [
        {
          "internalType": "uint256",
          "name": "",
          "type": "uint256"
        }
      ],
      "stateMutability": "nonpayable",
      "type": "function"
    },
    {
      "inputs": [],
      "name": "pausePool",
      "outputs": [],
      "stateMutability": "nonpayable",
      "type": "function"
    },
    {
      "inputs": [],
      "name": "endPool",
      "outputs": [],
      "stateMutability": "nonpayable",
      "type": "function"
    },
    {
      "inputs": [],
      "name": "resumePool",
      "outputs": [],
      "stateMutability": "nonpayable",
      "type": "function"
    }
  ],
  "bytecode": "0x608060405234801561001057600080fd5b5060018060003373ffffffffffffffffffffffffffffffffffffffff1673ffffffffffffffffffffffffffffffffffffffff168152602001908152602001600020600201819055506000600260040160006101000a81548160ff02191690836002811115610081576100806100ab565b5b021790555060006002600001819055506000600260010181905550600060028001819055506100da565b7f4e487b7100000000000000000000000000000000000000000000000000000000600052602160045260246000fd5b610f16806100e96000396000f3fe6080604052600436106100915760003560e01c8063b9ba5f8b11610059578063b9ba5f8b14610131578063d515b1ce1461014f578063de20bc921461018e578063eb63a59e14610198578063f0228692146101d757610091565b806306fdde031461009657806311ec106b146100c15780632d42cf7d146100d857806357ea89b6146100ef578063aa09d5b71461011a575b600080fd5b3480156100a257600080fd5b506100ab610206565b6040516100b89190610930565b60405180910390f35b3480156100cd57600080fd5b506100d661023f565b005b3480156100e457600080fd5b506100ed6102f3565b005b3480156100fb57600080fd5b506101046103a6565b604051610111919061096b565b60405180910390f35b34801561012657600080fd5b5061012f610432565b005b6101396104e6565b604051610146919061096b565b60405180910390f35b34801561015b57600080fd5b50610176600480360381019061017191906109e9565b6105f1565b60405161018593929190610a25565b60405180910390f35b6101966106c3565b005b3480156101a457600080fd5b506101bf60048036038101906101ba91906109e9565b61083c565b6040516101ce93929190610a63565b60405180910390f35b3480156101e357600080fd5b506101ec610866565b6040516101fd959493929190610b11565b60405180910390f35b6040518060400160405280600781526020017f455448506f6f6c0000000000000000000000000000000000000000000000000081525081565b60018060003373ffffffffffffffffffffffffffffffffffffffff1673ffffffffffffffffffffffffffffffffffffffff16815260200190815260200160002060020154146102c3576040517f08c379a00000000000000000000000000000000000000000000000000000000081526004016102ba90610bd6565b60405180910390fd5b6000600260040160006101000a81548160ff021916908360028111156102ec576102eb610a9a565b5b0217905550565b60018060003373ffffffffffffffffffffffffffffffffffffffff1673ffffffffffffffffffffffffffffffffffffffff1681526020019081526020016000206002015414610377576040517f08c379a000000000000000000000000000000000000000000000000000000000815260040161036e90610bd6565b60405180910390fd5b60028060040160006101000a81548160ff0219169083600281111561039f5761039e610a9a565b5b0217905550565b6000806000803373ffffffffffffffffffffffffffffffffffffffff1673ffffffffffffffffffffffffffffffffffffffff168152602001908152602001600020600001541161042b576040517f08c379a000000000000000000000000000000000000000000000000000000000815260040161042290610c68565b60405180910390fd5b6001905090565b60018060003373ffffffffffffffffffffffffffffffffffffffff1673ffffffffffffffffffffffffffffffffffffffff16815260200190815260200160002060020154146104b6576040517f08c379a00000000000000000000000000000000000000000000000000000000081526004016104ad90610bd6565b60405180910390fd5b6001600260040160006101000a81548160ff021916908360028111156104df576104de610a9a565b5b0217905550565b600060018060003373ffffffffffffffffffffffffffffffffffffffff1673ffffffffffffffffffffffffffffffffffffffff168152602001908152602001600020600201541461056c576040517f08c379a000000000000000000000000000000000000000000000000000000000815260040161056390610bd6565b60405180910390fd5b34600260000160008282546105819190610cb7565b92505081905550426002600301819055506002600001546018346105a59190610d0d565b6105af9190610d96565b600260010160008282546105c39190610cb7565b9250508190555060016002800160008282546105df9190610cb7565b92505081905550600260000154905090565b60016020528060005260406000206000915090508060000160009054906101000a900473ffffffffffffffffffffffffffffffffffffffff169080600101805461063a90610df6565b80601f016020809104026020016040519081016040528092919081815260200182805461066690610df6565b80156106b35780601f10610688576101008083540402835291602001916106b3565b820191906000526020600020905b81548152906001019060200180831161069657829003601f168201915b5050505050908060020154905083565b60008060003373ffffffffffffffffffffffffffffffffffffffff1673ffffffffffffffffffffffffffffffffffffffff1681526020019081526020016000206000015414610747576040517f08c379a000000000000000000000000000000000000000000000000000000000815260040161073e90610ec0565b60405180910390fd5b346002600001600082825461075c9190610cb7565b92505081905550346000803373ffffffffffffffffffffffffffffffffffffffff1673ffffffffffffffffffffffffffffffffffffffff168152602001908152602001600020600001819055506002600101546000803373ffffffffffffffffffffffffffffffffffffffff1673ffffffffffffffffffffffffffffffffffffffff16815260200190815260200160002060010181905550426000803373ffffffffffffffffffffffffffffffffffffffff1673ffffffffffffffffffffffffffffffffffffffff16815260200190815260200160002060020181905550565b60006020528060005260406000206000915090508060000154908060010154908060020154905083565b60028060000154908060010154908060020154908060030154908060040160009054906101000a900460ff16905085565b600081519050919050565b600082825260208201905092915050565b60005b838110156108d15780820151818401526020810190506108b6565b838111156108e0576000848401525b50505050565b6000601f19601f8301169050919050565b600061090282610897565b61090c81856108a2565b935061091c8185602086016108b3565b610925816108e6565b840191505092915050565b6000602082019050818103600083015261094a81846108f7565b905092915050565b6000819050919050565b61096581610952565b82525050565b6000602082019050610980600083018461095c565b92915050565b600080fd5b600073ffffffffffffffffffffffffffffffffffffffff82169050919050565b60006109b68261098b565b9050919050565b6109c6816109ab565b81146109d157600080fd5b50565b6000813590506109e3816109bd565b92915050565b6000602082840312156109ff576109fe610986565b5b6000610a0d848285016109d4565b91505092915050565b610a1f816109ab565b82525050565b6000606082019050610a3a6000830186610a16565b8181036020830152610a4c81856108f7565b9050610a5b604083018461095c565b949350505050565b6000606082019050610a78600083018661095c565b610a85602083018561095c565b610a92604083018461095c565b949350505050565b7f4e487b7100000000000000000000000000000000000000000000000000000000600052602160045260246000fd5b60038110610ada57610ad9610a9a565b5b50565b6000819050610aeb82610ac9565b919050565b6000610afb82610add565b9050919050565b610b0b81610af0565b82525050565b600060a082019050610b26600083018861095c565b610b33602083018761095c565b610b40604083018661095c565b610b4d606083018561095c565b610b5a6080830184610b02565b9695505050505050565b7f4f6e6c7920746865205465616d2063616e2063616c6c20746869732066756e6360008201527f74696f6e2e000000000000000000000000000000000000000000000000000000602082015250565b6000610bc06025836108a2565b9150610bcb82610b64565b604082019050919050565b60006020820190508181036000830152610bef81610bb3565b9050919050565b7f4f6e6c79207374616b65686f6c646572732063616e207573652074686973206660008201527f756e6374696f6e2e000000000000000000000000000000000000000000000000602082015250565b6000610c526028836108a2565b9150610c5d82610bf6565b604082019050919050565b60006020820190508181036000830152610c8181610c45565b9050919050565b7f4e487b7100000000000000000000000000000000000000000000000000000000600052601160045260246000fd5b6000610cc282610952565b9150610ccd83610952565b9250827fffffffffffffffffffffffffffffffffffffffffffffffffffffffffffffffff03821115610d0257610d01610c88565b5b828201905092915050565b6000610d1882610952565b9150610d2383610952565b9250817fffffffffffffffffffffffffffffffffffffffffffffffffffffffffffffffff0483118215151615610d5c57610d5b610c88565b5b828202905092915050565b7f4e487b7100000000000000000000000000000000000000000000000000000000600052601260045260246000fd5b6000610da182610952565b9150610dac83610952565b925082610dbc57610dbb610d67565b5b828204905092915050565b7f4e487b7100000000000000000000000000000000000000000000000000000000600052602260045260246000fd5b60006002820490506001821680610e0e57607f821691505b60208210811415610e2257610e21610dc7565b5b50919050565b7f506c6561736520666972737420706572666f726d20612077697468647261776160008201527f6c2e2057652077696c6c20736f6c766520696e2056322c20492070726f6d697360208201527f652e000000000000000000000000000000000000000000000000000000000000604082015250565b6000610eaa6042836108a2565b9150610eb582610e28565b606082019050919050565b60006020820190508181036000830152610ed981610e9d565b905091905056fea264697066735822122029873542725b901a85b72049058a28beb677dd6a77d382cf2dfe2ed80b323ce964736f6c634300080b0033",
  "immutableReferences": {},
  "source": "//SPDX-License-Identifier: GPL-3.0\n\npragma solidity >=0.8.0 <0.9.0;\n// >0.8 to avoid use of SafeMath functions\n//But, if you want it...\n//import \"github.com/OpenZeppelin/zeppelin-solidity/contracts/math/SafeMath.sol\";\n//using SafeMath for uint; // \n\n/*\nSummary\nETHPool provides a service where people can deposit ETH and they will receive weekly rewards. \nUsers must be able to take out their deposits along with their portion of rewards at any time. \nNew rewards are deposited manually into the pool by the ETHPool team each week using a contract function.\n\nRequirements\nOnly the team can deposit rewards.\nDeposited rewards go to the pool of users, not to individual users.\nUsers should be able to withdraw their deposits along with their share of rewards considering the time when they deposited.\nExample:\n\nLet say we have user A and B and team T.\n\nA deposits 100, and B deposits 300 for a total of 400 in the pool.\nNow A has 25% of the pool and B has 75%. \nWhen T deposits 200 rewards, A should be able to withdraw 150 and B 450.\n\nWhat if the following happens? \nA deposits then T deposits then B deposits then A withdraws and finally B withdraws. \nA should get their deposit + all the rewards. \nB should only get their deposit because rewards were sent to the pool before they participated.\n*/\n\n/* \n    How it works?\n    First of all, we need to understand that the reward mechanism cannot be automatic. (No FOR or WHILE allowed!)\n    So, the stakeholders by themselves need to calculate their own reward (Don't worry, a function will do for us)\n\n    Because the staking cannot be negative, we will save the accumulation of rewards proportional to the pool at the time of deposit.\n    For each stakeholder, we will save the composition of the pool at the time of staking.\n    To calculate the reward, we will substract the sum of rewards at the current time minus the composition of the pool at the time of staking for each user.\n    This is the explanation of why cannot be automatic at the time of deposit rewards.\n\n    Some assumptions has been taken:\n    - Users withdrawn all of the staking and rewards. No partial withdraw allowed (Well, in fact, can be a full withdraw with a new deposit of the diff)\n    - Users cannot add funds to their staking (As above, we can consider a full withdraw, and a new staking)\n    - Some constants will be multiplied for an arbitrary big constant (10^18), to reduce rounding errors in division.\n    - Can be optimized for gas consumption. But for this challenge and for educational purposes, we can take the risk. And testnet is \"free\".\n    - Bugs? Everywhere. Not ready for production or resale.\n\n    Credits: https://explorer.callisto.network/address/0xE2E4Cf144F4365AAa023da04918A64072C284201/contracts\n    (Thanks Erik!)\n*/\n\ncontract ETHpool {\n    string public constant name = \"ETHPool\";\n    enum State {Running, Paused, Ended } //staking can be done only if it state is running.\n    uint constant ROUNDING_CONSTANT = 10^18; //To minimize rounding errors at divisions\n\n    struct TeamMember { //there are no specifications for TEAM, so, I understand that can be a lot of people.\n        address _addr;\n        string _name; //It's not necessary\n        uint _role; // 1 for active Team Members\n    }\n\n    struct Stakeholder {\n        uint _currentBalance;\n        uint _compositionAtStartStaking;\n        uint _timeStaking;\n    }\n\n    struct Pool {\n        uint poolBalance;\n        uint lastRewardMultiplied;\n        uint rewardsCount;\n        uint lastRewardTime;\n        State status;\n    }\n\n    mapping( address => Stakeholder) public UserList;\n    mapping( address => TeamMember) public Team;\n    Pool public poolStatus;\n\n    constructor(){\n        Team[msg.sender]._role = 1; // Team member role assigned.\n        poolStatus.status = State.Running;\n        poolStatus.poolBalance = 0; // Do not transfer at construction time!\n        poolStatus.lastRewardMultiplied = 0;\n        poolStatus.rewardsCount = 0;\n    }\n\n\n    // The main functions: Stake() , DepositRewards() , Withdraw()\n\n    // DepositRewards: The team can call this function to deposit rewards to the pool.\n    // It will update the last reward of the pool, as rewards*ROUNDING_CONSTANT/PoolBalance\n    function DepositRewards() public payable onlyTeam returns(uint poolbalance) {\n        poolStatus.poolBalance += msg.value;\n        poolStatus.lastRewardTime = block.timestamp;\n        poolStatus.lastRewardMultiplied += (msg.value * ROUNDING_CONSTANT) / poolStatus.poolBalance;\n        poolStatus.rewardsCount += 1;\n        return poolStatus.poolBalance;\n    }\n    \n    // Stake: The users can call \"Stake\" to stake some ETH (or your network coin of value)\n    // All network users can perform this function, to become \"USERS\"\n    // TODO: We need to check if the user already exists, and **need to perform first a withdrawal next to a new deposit**.\n    // FIXME: At now, users can only deposit only one time.\n    function Stake() public payable {\n        require( UserList[msg.sender]._currentBalance == 0, \"Please first perform a withdrawal. We will solve in V2, I promise.\");\n        poolStatus.poolBalance += msg.value;\n        UserList[msg.sender]._currentBalance = msg.value;\n        UserList[msg.sender]._compositionAtStartStaking = poolStatus.lastRewardMultiplied;\n        UserList[msg.sender]._timeStaking = block.timestamp;\n    }\n\n    // Withdraw: Allows users to withdraw their deposits and rewards proportional at the time being.\n    // FIXME: At now, only allows full withdrawals.\n    function Withdraw() public onlyUsers returns(uint){\n\n        return 1;\n    }\n\n    //Pool Administration functions\n    function pausePool() public onlyTeam { //If something went wrong, and we need time to proceed.\n        poolStatus.status = State.Paused;\n    }\n\n    function endPool() public onlyTeam {\n        poolStatus.status = State.Ended; //If the pool dies, and only allow users to withdraw.\n    }\n\n    function resumePool() public onlyTeam {\n        poolStatus.status = State.Running; //Everything is up and running.\n    }\n\n    //Modifiers section\n    modifier onlyUsers() {\n        require( UserList[msg.sender]._currentBalance > 0 , \"Only stakeholders can use this function.\");\n        _;\n    }\n\n    modifier onlyTeam() {\n        require(Team[msg.sender]._role == 1, \"Only the Team can call this function.\");\n        _;\n    }\n}\n\n\n\n\n// NOTE: This is just a test contract, please delete me\n/*\ncontract Counter {\n    uint256 count = 0;\n\n    event CountedTo(uint256 number);\n\n    function getCount() public view returns (uint256) {\n        return count;\n    }\n\n    function countUp() public returns (uint256) {\n        console.log(\"countUp: count =\", count);\n        uint256 newCount = count + 1;\n        require(newCount > count, \"Uint256 overflow\");\n        count = newCount;\n        emit CountedTo(count);\n        return count;\n    }\n\n    function countDown() public returns (uint256) {\n        console.log(\"countDown: count =\", count);\n        uint256 newCount = count - 1;\n        require(newCount < count, \"Uint256 underflow\");\n        count = newCount;\n        emit CountedTo(count);\n        return count;\n    }\n}\n*/",
  "sourcePath": "T:\\Desarrollos\\Experimentos\\Exactly\\exactly-private\\contracts\\ETHpool.sol",
  "compiler": {
    "name": "solc",
    "version": "0.8.11+commit.d7f03943.Emscripten.clang"
  },
  "schemaVersion": "3.4.4",
  "updatedAt": "2022-02-13T21:51:47.661Z",
  "devdoc": {
    "kind": "dev",
    "methods": {},
    "version": 1
  },
  "userdoc": {
    "kind": "user",
    "methods": {},
    "version": 1
  }
}